{
  "address": "0x71fdC2093d5d2D46fbdbB30Fb533334d32ee00BC",
  "abi": [
    {
      "inputs": [],
      "stateMutability": "nonpayable",
      "type": "constructor"
    },
    {
      "inputs": [],
      "name": "AccessControlBadConfirmation",
      "type": "error"
    },
    {
      "inputs": [
        {
          "internalType": "address",
          "name": "account",
          "type": "address"
        },
        {
          "internalType": "bytes32",
          "name": "neededRole",
          "type": "bytes32"
        }
      ],
      "name": "AccessControlUnauthorizedAccount",
      "type": "error"
    },
    {
      "inputs": [],
      "name": "AccessDenied",
      "type": "error"
    },
    {
      "inputs": [],
      "name": "CommissionPayoutFailed",
      "type": "error"
    },
    {
      "inputs": [],
      "name": "EarlyAccessSaleNotActive",
      "type": "error"
    },
    {
      "inputs": [],
      "name": "FriendsFamilySaleNotActive",
      "type": "error"
    },
    {
      "inputs": [],
      "name": "IndividualClaimCapExceeded",
      "type": "error"
    },
    {
      "inputs": [],
      "name": "IndividualTierCapExceeded",
      "type": "error"
    },
    {
      "inputs": [],
      "name": "InsufficientPayment",
      "type": "error"
    },
    {
      "inputs": [
        {
          "internalType": "address",
          "name": "account",
          "type": "address"
        }
      ],
      "name": "InvalidAddress",
      "type": "error"
    },
    {
      "inputs": [],
      "name": "InvalidCommission",
      "type": "error"
    },
    {
      "inputs": [],
      "name": "InvalidDiscount",
      "type": "error"
    },
    {
      "inputs": [],
      "name": "InvalidInitialization",
      "type": "error"
    },
    {
      "inputs": [],
      "name": "InvalidProof",
      "type": "error"
    },
    {
      "inputs": [],
      "name": "InvalidTierInputs",
      "type": "error"
    },
    {
      "inputs": [],
      "name": "NotInitializing",
      "type": "error"
    },
    {
      "inputs": [],
      "name": "PartnerSaleNotActive",
      "type": "error"
    },
    {
      "inputs": [],
      "name": "PublicSaleNotActive",
      "type": "error"
    },
    {
      "inputs": [
        {
          "internalType": "uint256",
          "name": "value",
          "type": "uint256"
        },
        {
          "internalType": "uint256",
          "name": "length",
          "type": "uint256"
        }
      ],
      "name": "StringsInsufficientHexLength",
      "type": "error"
    },
    {
      "inputs": [],
      "name": "TeamSaleNotActive",
      "type": "error"
    },
    {
      "inputs": [],
      "name": "TotalTierCapExceeded",
      "type": "error"
    },
    {
      "inputs": [],
      "name": "WithdrawalFailed",
      "type": "error"
    },
    {
      "anonymous": false,
      "inputs": [
        {
          "indexed": true,
          "internalType": "address",
          "name": "receiver",
          "type": "address"
        },
        {
          "indexed": false,
          "internalType": "uint256",
          "name": "amount",
          "type": "uint256"
        }
      ],
      "name": "CommissionPaid",
      "type": "event"
    },
    {
      "anonymous": false,
      "inputs": [
        {
          "indexed": true,
          "internalType": "address",
          "name": "account",
          "type": "address"
        },
        {
          "indexed": false,
          "internalType": "uint256",
          "name": "amount",
          "type": "uint256"
        }
      ],
      "name": "EarlyAccessLicensesClaimed",
      "type": "event"
    },
    {
      "anonymous": false,
      "inputs": [
        {
          "indexed": false,
          "internalType": "bytes32",
          "name": "merkleRoot",
          "type": "bytes32"
        }
      ],
      "name": "EarlyAccessMerkleRootSet",
      "type": "event"
    },
    {
      "anonymous": false,
      "inputs": [
        {
          "indexed": false,
          "internalType": "bool",
          "name": "status",
          "type": "bool"
        }
      ],
      "name": "EarlyAccessSaleStatusSet",
      "type": "event"
    },
    {
      "anonymous": false,
      "inputs": [
        {
          "indexed": true,
          "internalType": "address",
          "name": "account",
          "type": "address"
        },
        {
          "indexed": false,
          "internalType": "uint256",
          "name": "amount",
          "type": "uint256"
        }
      ],
      "name": "FriendsFamilyLicensesClaimed",
      "type": "event"
    },
    {
      "anonymous": false,
      "inputs": [
        {
          "indexed": false,
          "internalType": "bytes32",
          "name": "merkleRoot",
          "type": "bytes32"
        }
      ],
      "name": "FriendsFamilyMerkleRootSet",
      "type": "event"
    },
    {
      "anonymous": false,
      "inputs": [
        {
          "indexed": false,
          "internalType": "bool",
          "name": "status",
          "type": "bool"
        }
      ],
      "name": "FriendsFamilySaleStatusSet",
      "type": "event"
    },
    {
      "anonymous": false,
      "inputs": [
        {
          "indexed": false,
          "internalType": "uint64",
          "name": "version",
          "type": "uint64"
        }
      ],
      "name": "Initialized",
      "type": "event"
    },
    {
      "anonymous": false,
      "inputs": [
        {
          "indexed": true,
          "internalType": "address",
          "name": "account",
          "type": "address"
        },
        {
          "indexed": false,
          "internalType": "uint256",
          "name": "amount",
          "type": "uint256"
        }
      ],
      "name": "PartnerLicensesClaimed",
      "type": "event"
    },
    {
      "anonymous": false,
      "inputs": [
        {
          "indexed": false,
          "internalType": "bytes32",
          "name": "merkleRoot",
          "type": "bytes32"
        }
      ],
      "name": "PartnerMerkleRootSet",
      "type": "event"
    },
    {
      "anonymous": false,
      "inputs": [
        {
          "indexed": false,
          "internalType": "bool",
          "name": "status",
          "type": "bool"
        }
      ],
      "name": "PartnerSaleStatusSet",
      "type": "event"
    },
    {
      "anonymous": false,
      "inputs": [
        {
          "indexed": true,
          "internalType": "address",
          "name": "receiver",
          "type": "address"
        },
        {
          "indexed": false,
          "internalType": "uint256",
          "name": "amount",
          "type": "uint256"
        }
      ],
      "name": "ProceedsWithdrawn",
      "type": "event"
    },
    {
      "anonymous": false,
      "inputs": [
        {
          "indexed": true,
          "internalType": "address",
          "name": "account",
          "type": "address"
        },
        {
          "indexed": false,
          "internalType": "uint256",
          "name": "amount",
          "type": "uint256"
        },
        {
          "indexed": true,
          "internalType": "uint256",
          "name": "tier",
          "type": "uint256"
        },
        {
          "indexed": false,
          "internalType": "uint256",
          "name": "paid",
          "type": "uint256"
        },
        {
          "indexed": false,
          "internalType": "string",
          "name": "referral",
          "type": "string"
        }
      ],
      "name": "PublicLicensesClaimed",
      "type": "event"
    },
    {
      "anonymous": false,
      "inputs": [
        {
          "indexed": false,
          "internalType": "bool",
          "name": "status",
          "type": "bool"
        }
      ],
      "name": "PublicSaleStatusSet",
      "type": "event"
    },
    {
      "anonymous": false,
      "inputs": [
        {
          "indexed": true,
          "internalType": "bytes32",
          "name": "role",
          "type": "bytes32"
        },
        {
          "indexed": true,
          "internalType": "bytes32",
          "name": "previousAdminRole",
          "type": "bytes32"
        },
        {
          "indexed": true,
          "internalType": "bytes32",
          "name": "newAdminRole",
          "type": "bytes32"
        }
      ],
      "name": "RoleAdminChanged",
      "type": "event"
    },
    {
      "anonymous": false,
      "inputs": [
        {
          "indexed": true,
          "internalType": "bytes32",
          "name": "role",
          "type": "bytes32"
        },
        {
          "indexed": true,
          "internalType": "address",
          "name": "account",
          "type": "address"
        },
        {
          "indexed": true,
          "internalType": "address",
          "name": "sender",
          "type": "address"
        }
      ],
      "name": "RoleGranted",
      "type": "event"
    },
    {
      "anonymous": false,
      "inputs": [
        {
          "indexed": true,
          "internalType": "bytes32",
          "name": "role",
          "type": "bytes32"
        },
        {
          "indexed": true,
          "internalType": "address",
          "name": "account",
          "type": "address"
        },
        {
          "indexed": true,
          "internalType": "address",
          "name": "sender",
          "type": "address"
        }
      ],
      "name": "RoleRevoked",
      "type": "event"
    },
    {
      "anonymous": false,
      "inputs": [
        {
          "indexed": true,
          "internalType": "address",
          "name": "account",
          "type": "address"
        },
        {
          "indexed": false,
          "internalType": "uint256",
          "name": "amount",
          "type": "uint256"
        }
      ],
      "name": "TeamLicensesClaimed",
      "type": "event"
    },
    {
      "anonymous": false,
      "inputs": [
        {
          "indexed": false,
          "internalType": "bytes32",
          "name": "merkleRoot",
          "type": "bytes32"
        }
      ],
      "name": "TeamMerkleRootSet",
      "type": "event"
    },
    {
      "anonymous": false,
      "inputs": [
        {
          "indexed": false,
          "internalType": "bool",
          "name": "status",
          "type": "bool"
        }
      ],
      "name": "TeamSaleStatusSet",
      "type": "event"
    },
    {
      "anonymous": false,
      "inputs": [
        {
          "indexed": true,
          "internalType": "uint256",
          "name": "tierId",
          "type": "uint256"
        },
        {
          "indexed": false,
          "internalType": "uint256",
          "name": "price",
          "type": "uint256"
        },
        {
          "indexed": false,
          "internalType": "uint256",
          "name": "individualCap",
          "type": "uint256"
        },
        {
          "indexed": false,
          "internalType": "uint256",
          "name": "totalClaimed",
          "type": "uint256"
        },
        {
          "indexed": false,
          "internalType": "uint256",
          "name": "totalCap",
          "type": "uint256"
        }
      ],
      "name": "TierSet",
      "type": "event"
    },
    {
      "anonymous": false,
      "inputs": [
        {
          "indexed": false,
          "internalType": "string",
          "name": "code",
          "type": "string"
        },
        {
          "indexed": true,
          "internalType": "address",
          "name": "receiver",
          "type": "address"
        },
        {
          "indexed": false,
          "internalType": "uint256",
          "name": "commission",
          "type": "uint256"
        },
        {
          "indexed": false,
          "internalType": "uint256",
          "name": "discount",
          "type": "uint256"
        }
      ],
      "name": "referralUpdated",
      "type": "event"
    },
    {
      "inputs": [],
      "name": "ADMIN_ROLE",
      "outputs": [
        {
          "internalType": "bytes32",
          "name": "",
          "type": "bytes32"
        }
      ],
      "stateMutability": "view",
      "type": "function"
    },
    {
      "inputs": [],
      "name": "DEFAULT_ADMIN_ROLE",
      "outputs": [
        {
          "internalType": "bytes32",
          "name": "",
          "type": "bytes32"
        }
      ],
      "stateMutability": "view",
      "type": "function"
    },
    {
      "inputs": [],
      "name": "GUARDIAN_ROLE",
      "outputs": [
        {
          "internalType": "bytes32",
          "name": "",
          "type": "bytes32"
        }
      ],
      "stateMutability": "view",
      "type": "function"
    },
    {
      "inputs": [],
      "name": "MERKLE_MANAGER_ROLE",
      "outputs": [
        {
          "internalType": "bytes32",
          "name": "",
          "type": "bytes32"
        }
      ],
      "stateMutability": "view",
      "type": "function"
    },
    {
      "inputs": [],
      "name": "REFERRAL_MANAGER_ROLE",
      "outputs": [
        {
          "internalType": "bytes32",
          "name": "",
          "type": "bytes32"
        }
      ],
      "stateMutability": "view",
      "type": "function"
    },
    {
      "inputs": [
        {
          "internalType": "uint256",
          "name": "amount",
          "type": "uint256"
        },
        {
          "internalType": "bytes",
          "name": "data",
          "type": "bytes"
        },
        {
          "internalType": "bytes32[]",
          "name": "merkleProof",
          "type": "bytes32[]"
        }
      ],
      "name": "claimLicenseEarlyAccess",
      "outputs": [],
      "stateMutability": "payable",
      "type": "function"
    },
    {
      "inputs": [
        {
          "internalType": "uint256",
          "name": "amount",
          "type": "uint256"
        },
        {
          "internalType": "bytes",
          "name": "data",
          "type": "bytes"
        },
        {
          "internalType": "bytes32[]",
          "name": "merkleProof",
          "type": "bytes32[]"
        }
      ],
      "name": "claimLicenseFriendsFamily",
      "outputs": [],
      "stateMutability": "payable",
      "type": "function"
    },
    {
      "inputs": [
        {
          "internalType": "uint256",
          "name": "amount",
          "type": "uint256"
        },
        {
          "internalType": "bytes",
          "name": "data",
          "type": "bytes"
        },
        {
          "internalType": "bytes32[]",
          "name": "merkleProof",
          "type": "bytes32[]"
        }
      ],
      "name": "claimLicensePartner",
      "outputs": [],
      "stateMutability": "payable",
      "type": "function"
    },
    {
      "inputs": [
        {
          "internalType": "uint256",
          "name": "amount",
          "type": "uint256"
        },
        {
          "internalType": "uint256",
          "name": "tier",
          "type": "uint256"
        },
        {
          "internalType": "string",
          "name": "referral",
          "type": "string"
        }
      ],
      "name": "claimLicensePublic",
      "outputs": [],
      "stateMutability": "payable",
      "type": "function"
    },
    {
      "inputs": [
        {
          "internalType": "uint256",
          "name": "amount",
          "type": "uint256"
        },
        {
          "internalType": "bytes",
          "name": "data",
          "type": "bytes"
        },
        {
          "internalType": "bytes32[]",
          "name": "merkleProof",
          "type": "bytes32[]"
        }
      ],
      "name": "claimLicenseTeam",
      "outputs": [],
      "stateMutability": "nonpayable",
      "type": "function"
    },
    {
      "inputs": [
        {
          "internalType": "uint256",
          "name": "",
          "type": "uint256"
        },
        {
          "internalType": "address",
          "name": "",
          "type": "address"
        }
      ],
      "name": "claimsPerTierPerAddress",
      "outputs": [
        {
          "internalType": "uint256",
          "name": "",
          "type": "uint256"
        }
      ],
      "stateMutability": "view",
      "type": "function"
    },
    {
      "inputs": [
        {
          "internalType": "address",
          "name": "",
          "type": "address"
        }
      ],
      "name": "earlyAccessClaimsPerAddress",
      "outputs": [
        {
          "internalType": "uint256",
          "name": "",
          "type": "uint256"
        }
      ],
      "stateMutability": "view",
      "type": "function"
    },
    {
      "inputs": [],
      "name": "earlyAccessMerkleRoot",
      "outputs": [
        {
          "internalType": "bytes32",
          "name": "",
          "type": "bytes32"
        }
      ],
      "stateMutability": "view",
      "type": "function"
    },
    {
      "inputs": [],
      "name": "earlyAccessSaleActive",
      "outputs": [
        {
          "internalType": "bool",
          "name": "",
          "type": "bool"
        }
      ],
      "stateMutability": "view",
      "type": "function"
    },
    {
      "inputs": [
        {
          "internalType": "address",
          "name": "",
          "type": "address"
        }
      ],
      "name": "friendsFamilyClaimsPerAddress",
      "outputs": [
        {
          "internalType": "uint256",
          "name": "",
          "type": "uint256"
        }
      ],
      "stateMutability": "view",
      "type": "function"
    },
    {
      "inputs": [],
      "name": "friendsFamilyMerkleRoot",
      "outputs": [
        {
          "internalType": "bytes32",
          "name": "",
          "type": "bytes32"
        }
      ],
      "stateMutability": "view",
      "type": "function"
    },
    {
      "inputs": [],
      "name": "friendsFamilySaleActive",
      "outputs": [
        {
          "internalType": "bool",
          "name": "",
          "type": "bool"
        }
      ],
      "stateMutability": "view",
      "type": "function"
    },
    {
      "inputs": [
        {
          "internalType": "string",
          "name": "id",
          "type": "string"
        }
      ],
      "name": "getReferral",
      "outputs": [
        {
          "components": [
            {
              "internalType": "uint256",
              "name": "discountPercentage",
              "type": "uint256"
            },
            {
              "internalType": "uint256",
              "name": "commissionPercentage",
              "type": "uint256"
            },
            {
              "internalType": "address",
              "name": "receiver",
              "type": "address"
            }
          ],
          "internalType": "struct IPlayFiLicenseSale.Referral",
          "name": "referral",
          "type": "tuple"
        }
      ],
      "stateMutability": "view",
      "type": "function"
    },
    {
      "inputs": [
        {
          "internalType": "bytes32",
          "name": "role",
          "type": "bytes32"
        }
      ],
      "name": "getRoleAdmin",
      "outputs": [
        {
          "internalType": "bytes32",
          "name": "",
          "type": "bytes32"
        }
      ],
      "stateMutability": "view",
      "type": "function"
    },
    {
      "inputs": [
        {
          "internalType": "uint256",
          "name": "id",
          "type": "uint256"
        }
      ],
      "name": "getTier",
      "outputs": [
        {
          "components": [
            {
              "internalType": "uint256",
              "name": "price",
              "type": "uint256"
            },
            {
              "internalType": "uint256",
              "name": "individualCap",
              "type": "uint256"
            },
            {
              "internalType": "uint256",
              "name": "totalClaimed",
              "type": "uint256"
            },
            {
              "internalType": "uint256",
              "name": "totalCap",
              "type": "uint256"
            }
          ],
          "internalType": "struct IPlayFiLicenseSale.Tier",
          "name": "tier",
          "type": "tuple"
        }
      ],
      "stateMutability": "view",
      "type": "function"
    },
    {
      "inputs": [
        {
          "internalType": "bytes32",
          "name": "role",
          "type": "bytes32"
        },
        {
          "internalType": "address",
          "name": "account",
          "type": "address"
        }
      ],
      "name": "grantRole",
      "outputs": [],
      "stateMutability": "nonpayable",
      "type": "function"
    },
    {
      "inputs": [
        {
          "internalType": "bytes32",
          "name": "role",
          "type": "bytes32"
        },
        {
          "internalType": "address",
          "name": "account",
          "type": "address"
        }
      ],
      "name": "hasRole",
      "outputs": [
        {
          "internalType": "bool",
          "name": "",
          "type": "bool"
        }
      ],
      "stateMutability": "view",
      "type": "function"
    },
    {
      "inputs": [
        {
          "internalType": "address",
          "name": "admin",
          "type": "address"
        },
        {
          "internalType": "address",
          "name": "guardian",
          "type": "address"
        },
        {
          "internalType": "address",
          "name": "merkleManager",
          "type": "address"
        },
        {
          "internalType": "address",
          "name": "referralManager",
          "type": "address"
        }
      ],
      "name": "initialize",
      "outputs": [],
      "stateMutability": "nonpayable",
      "type": "function"
    },
    {
      "inputs": [
        {
          "internalType": "address",
          "name": "",
          "type": "address"
        }
      ],
      "name": "partnerClaimsPerAddress",
      "outputs": [
        {
          "internalType": "uint256",
          "name": "",
          "type": "uint256"
        }
      ],
      "stateMutability": "view",
      "type": "function"
    },
    {
      "inputs": [],
      "name": "partnerMerkleRoot",
      "outputs": [
        {
          "internalType": "bytes32",
          "name": "",
          "type": "bytes32"
        }
      ],
      "stateMutability": "view",
      "type": "function"
    },
    {
      "inputs": [],
      "name": "partnerSaleActive",
      "outputs": [
        {
          "internalType": "bool",
          "name": "",
          "type": "bool"
        }
      ],
      "stateMutability": "view",
      "type": "function"
    },
    {
      "inputs": [
        {
          "internalType": "uint256",
          "name": "amount",
          "type": "uint256"
        },
        {
          "internalType": "uint256",
          "name": "tier",
          "type": "uint256"
        },
        {
          "internalType": "string",
          "name": "referral",
          "type": "string"
        }
      ],
      "name": "paymentDetailsForReferral",
      "outputs": [
        {
          "internalType": "uint256",
          "name": "toPay",
          "type": "uint256"
        },
        {
          "internalType": "uint256",
          "name": "commission",
          "type": "uint256"
        },
        {
          "internalType": "uint256",
          "name": "discount",
          "type": "uint256"
        }
      ],
      "stateMutability": "view",
      "type": "function"
    },
    {
      "inputs": [
        {
          "internalType": "address",
          "name": "",
          "type": "address"
        }
      ],
      "name": "publicClaimsPerAddress",
      "outputs": [
        {
          "internalType": "uint256",
          "name": "",
          "type": "uint256"
        }
      ],
      "stateMutability": "view",
      "type": "function"
    },
    {
      "inputs": [],
      "name": "publicSaleActive",
      "outputs": [
        {
          "internalType": "bool",
          "name": "",
          "type": "bool"
        }
      ],
      "stateMutability": "view",
      "type": "function"
    },
    {
      "inputs": [
        {
          "internalType": "string",
          "name": "",
          "type": "string"
        }
      ],
      "name": "referrals",
      "outputs": [
        {
          "internalType": "uint256",
          "name": "discountPercentage",
          "type": "uint256"
        },
        {
          "internalType": "uint256",
          "name": "commissionPercentage",
          "type": "uint256"
        },
        {
          "internalType": "address",
          "name": "receiver",
          "type": "address"
        }
      ],
      "stateMutability": "view",
      "type": "function"
    },
    {
      "inputs": [
        {
          "internalType": "bytes32",
          "name": "role",
          "type": "bytes32"
        },
        {
          "internalType": "address",
          "name": "callerConfirmation",
          "type": "address"
        }
      ],
      "name": "renounceRole",
      "outputs": [],
      "stateMutability": "nonpayable",
      "type": "function"
    },
    {
      "inputs": [
        {
          "internalType": "bytes32",
          "name": "role",
          "type": "bytes32"
        },
        {
          "internalType": "address",
          "name": "account",
          "type": "address"
        }
      ],
      "name": "revokeRole",
      "outputs": [],
      "stateMutability": "nonpayable",
      "type": "function"
    },
    {
      "inputs": [
        {
          "internalType": "bytes32",
          "name": "_earlyAccessMerkleRoot",
          "type": "bytes32"
        }
      ],
      "name": "setEarlyAccessMerkleRoot",
      "outputs": [],
      "stateMutability": "nonpayable",
      "type": "function"
    },
    {
      "inputs": [
        {
          "internalType": "bool",
          "name": "status",
          "type": "bool"
        }
      ],
      "name": "setEarlyAccessSale",
      "outputs": [],
      "stateMutability": "nonpayable",
      "type": "function"
    },
    {
      "inputs": [
        {
          "internalType": "bytes32",
          "name": "_friendsFamilyMerkleRoot",
          "type": "bytes32"
        }
      ],
      "name": "setFriendsFamilyMerkleRoot",
      "outputs": [],
      "stateMutability": "nonpayable",
      "type": "function"
    },
    {
      "inputs": [
        {
          "internalType": "bool",
          "name": "status",
          "type": "bool"
        }
      ],
      "name": "setFriendsFamilySale",
      "outputs": [],
      "stateMutability": "nonpayable",
      "type": "function"
    },
    {
      "inputs": [
        {
          "internalType": "bytes32",
          "name": "_partnerMerkleRoot",
          "type": "bytes32"
        }
      ],
      "name": "setPartnerMerkleRoot",
      "outputs": [],
      "stateMutability": "nonpayable",
      "type": "function"
    },
    {
      "inputs": [
        {
          "internalType": "bool",
          "name": "status",
          "type": "bool"
        }
      ],
      "name": "setPartnerSale",
      "outputs": [],
      "stateMutability": "nonpayable",
      "type": "function"
    },
    {
      "inputs": [
        {
          "internalType": "bool",
          "name": "status",
          "type": "bool"
        }
      ],
      "name": "setPublicSale",
      "outputs": [],
      "stateMutability": "nonpayable",
      "type": "function"
    },
    {
      "inputs": [
        {
          "internalType": "string",
          "name": "code",
          "type": "string"
        },
        {
          "internalType": "address",
          "name": "receiver",
          "type": "address"
        },
        {
          "internalType": "uint256",
          "name": "commission",
          "type": "uint256"
        },
        {
          "internalType": "uint256",
          "name": "discount",
          "type": "uint256"
        }
      ],
      "name": "setReferral",
      "outputs": [],
      "stateMutability": "nonpayable",
      "type": "function"
    },
    {
      "inputs": [
        {
          "internalType": "bytes32",
          "name": "_teamMerkleRoot",
          "type": "bytes32"
        }
      ],
      "name": "setTeamMerkleRoot",
      "outputs": [],
      "stateMutability": "nonpayable",
      "type": "function"
    },
    {
      "inputs": [
        {
          "internalType": "bool",
          "name": "status",
          "type": "bool"
        }
      ],
      "name": "setTeamSale",
      "outputs": [],
      "stateMutability": "nonpayable",
      "type": "function"
    },
    {
      "inputs": [
        {
          "internalType": "uint256[]",
          "name": "ids",
          "type": "uint256[]"
        },
        {
          "internalType": "uint256[]",
          "name": "prices",
          "type": "uint256[]"
        },
        {
          "internalType": "uint256[]",
          "name": "individualCaps",
          "type": "uint256[]"
        },
        {
          "internalType": "uint256[]",
          "name": "totalCaps",
          "type": "uint256[]"
        }
      ],
      "name": "setTiers",
      "outputs": [],
      "stateMutability": "nonpayable",
      "type": "function"
    },
    {
      "inputs": [],
      "name": "standardCommissionPercentage",
      "outputs": [
        {
          "internalType": "uint256",
          "name": "",
          "type": "uint256"
        }
      ],
      "stateMutability": "view",
      "type": "function"
    },
    {
      "inputs": [],
      "name": "standardDiscountPercentage",
      "outputs": [
        {
          "internalType": "uint256",
          "name": "",
          "type": "uint256"
        }
      ],
      "stateMutability": "view",
      "type": "function"
    },
    {
      "inputs": [
        {
          "internalType": "bytes4",
          "name": "interfaceId",
          "type": "bytes4"
        }
      ],
      "name": "supportsInterface",
      "outputs": [
        {
          "internalType": "bool",
          "name": "",
          "type": "bool"
        }
      ],
      "stateMutability": "view",
      "type": "function"
    },
    {
      "inputs": [
        {
          "internalType": "address",
          "name": "",
          "type": "address"
        }
      ],
      "name": "teamClaimsPerAddress",
      "outputs": [
        {
          "internalType": "uint256",
          "name": "",
          "type": "uint256"
        }
      ],
      "stateMutability": "view",
      "type": "function"
    },
    {
      "inputs": [],
      "name": "teamMerkleRoot",
      "outputs": [
        {
          "internalType": "bytes32",
          "name": "",
          "type": "bytes32"
        }
      ],
      "stateMutability": "view",
      "type": "function"
    },
    {
      "inputs": [],
      "name": "teamSaleActive",
      "outputs": [
        {
          "internalType": "bool",
          "name": "",
          "type": "bool"
        }
      ],
      "stateMutability": "view",
      "type": "function"
    },
    {
      "inputs": [
        {
          "internalType": "uint256",
          "name": "",
          "type": "uint256"
        }
      ],
      "name": "tiers",
      "outputs": [
        {
          "internalType": "uint256",
          "name": "price",
          "type": "uint256"
        },
        {
          "internalType": "uint256",
          "name": "individualCap",
          "type": "uint256"
        },
        {
          "internalType": "uint256",
          "name": "totalClaimed",
          "type": "uint256"
        },
        {
          "internalType": "uint256",
          "name": "totalCap",
          "type": "uint256"
        }
      ],
      "stateMutability": "view",
      "type": "function"
    },
    {
      "inputs": [],
      "name": "totalLicenses",
      "outputs": [
        {
          "internalType": "uint256",
          "name": "",
          "type": "uint256"
        }
      ],
      "stateMutability": "view",
      "type": "function"
    },
    {
      "inputs": [],
      "name": "withdrawProceeds",
      "outputs": [],
      "stateMutability": "nonpayable",
      "type": "function"
    }
  ],
  "transactionHash": "0x2886793da20c72508d4d0aff6c18a77554ab1541e3d30ff5a85fe6ef1b55de65",
  "args": [],
  "numDeployments": 3,
  "solcInputHash": "a87fe58c14dc0eb8a806f34d8ecee706",
  "bytecode": "0x60806040523480156200001157600080fd5b506200001c62000022565b620000d6565b7ff0c57e16840df040f15088dc2f81fe391c3923bec73e23a9662efc9c229c6a00805468010000000000000000900460ff1615620000735760405163f92ee8a960e01b815260040160405180910390fd5b80546001600160401b0390811614620000d35780546001600160401b0319166001600160401b0390811782556040519081527fc7f505b2f371ae2175ee4913f4499e1f2633a7b5936321eed1cdaeb6115181d29060200160405180910390a15b50565b61395d80620000e66000396000f3fe60806040526004361061033f5760003560e01c80639038e693116101b0578063bfc2aa0c116100ec578063d547741f11610095578063dc47dced1161006f578063dc47dced14610b28578063e4a5665f14610b48578063f79eddb814610b68578063f8c8765e14610b9557600080fd5b8063d547741f14610a67578063d55768dd14610a87578063d923780114610b1557600080fd5b8063d244c8d7116100c6578063d244c8d7146109ec578063d3666bc414610a27578063d3d704cf14610a4757600080fd5b8063bfc2aa0c14610992578063ca591036146109b2578063cd98d261146109d257600080fd5b8063a6f04c3011610159578063b21a687711610133578063b21a687714610909578063b4d6866b1461093d578063b6d8f66214610950578063bc8893b41461097057600080fd5b8063a6f04c301461087b578063a749df4b1461089b578063a9391fc0146108f357600080fd5b8063a217fddf1161018a578063a217fddf1461081c578063a2671eb614610831578063a49ef9ef1461084757600080fd5b80639038e6931461076857806391d148541461077d5780639340b78b146107ef57600080fd5b806346f6f4791161027f578063605a25c81161022857806375b238fc1161020257806375b238fc146106c65780637ec8f4b0146106fa57806383b0287f1461071b5780638aea37101461073b57600080fd5b8063605a25c81461064f578063665eecf1146106875780636ec14ac4146106a657600080fd5b806350cd60fc1161025957806350cd60fc146106095780635163d92f1461061c5780635aca1bb61461062f57600080fd5b806346f6f479146105805780634ba0fcee146105965780634f062c5a146105b657600080fd5b8063248a9ca3116102ec5780632f2ff15d116102c65780632f2ff15d146105085780633533b8e01461052a57806336568abe146105405780634458034a1461056057600080fd5b8063248a9ca31461046f57806324ea54f4146104be57806329140819146104f257600080fd5b8063118c04a41161031d578063118c04a4146103ff578063187e33241461042c57806323e586051461044257600080fd5b806301ffc9a714610344578063039af9eb146103795780630e80a287146103db575b600080fd5b34801561035057600080fd5b5061036461035f366004613222565b610bb5565b60405190151581526020015b60405180910390f35b34801561038557600080fd5b506103bb610394366004613264565b600d6020526000908152604090208054600182015460028301546003909301549192909184565b604080519485526020850193909352918301526060820152608001610370565b3480156103e757600080fd5b506103f160075481565b604051908152602001610370565b34801561040b57600080fd5b506103f161041a3660046132a6565b60086020526000908152604090205481565b34801561043857600080fd5b506103f160015481565b34801561044e57600080fd5b506103f161045d3660046132a6565b600b6020526000908152604090205481565b34801561047b57600080fd5b506103f161048a366004613264565b60009081527f02dd7bc7dec4dceedda775e58dd541e08a116c6c53815c0bd028192f7b626800602052604090206001015490565b3480156104ca57600080fd5b506103f17f8b5b16d04624687fcf0d0228f19993c9157c1ed07b41d8d430fd9100eb099fe881565b3480156104fe57600080fd5b506103f160005481565b34801561051457600080fd5b506105286105233660046132c1565b610c4e565b005b34801561053657600080fd5b506103f160025481565b34801561054c57600080fd5b5061052861055b3660046132c1565b610c98565b34801561056c57600080fd5b5061052861057b3660046132ed565b610cf6565b34801561058c57600080fd5b506103f160065481565b3480156105a257600080fd5b506105286105b13660046132ed565b610db6565b3480156105c257600080fd5b506105d66105d1366004613264565b610e6c565b60405161037091908151815260208083015190820152604080830151908201526060918201519181019190915260800190565b61052861061736600461339d565b610edc565b61052861062a36600461339d565b61114c565b34801561063b57600080fd5b5061052861064a3660046132ed565b6113ad565b34801561065b57600080fd5b506103f161066a3660046132c1565b600f60209081526000928352604080842090915290825290205481565b34801561069357600080fd5b5060045461036490610100900460ff1681565b3480156106b257600080fd5b506105286106c136600461339d565b611465565b3480156106d257600080fd5b506103f17fdf8b4c520ffe197c5343c6f5aec59570151ef9a492f2c624fd45ddde6135ec4281565b34801561070657600080fd5b50600454610364906301000000900460ff1681565b34801561072757600080fd5b506004546103649062010000900460ff1681565b34801561074757600080fd5b506103f16107563660046132a6565b600a6020526000908152604090205481565b34801561077457600080fd5b50610528611657565b34801561078957600080fd5b506103646107983660046132c1565b60009182527f02dd7bc7dec4dceedda775e58dd541e08a116c6c53815c0bd028192f7b6268006020908152604080842073ffffffffffffffffffffffffffffffffffffffff93909316845291905290205460ff1690565b3480156107fb57600080fd5b506103f161080a3660046132a6565b600c6020526000908152604090205481565b34801561082857600080fd5b506103f1600081565b34801561083d57600080fd5b506103f160055481565b34801561085357600080fd5b506103f17ffd2994b76294f3a7e0e5e4e40e73799b954c33f4bff642b5e760fef0d694a92481565b34801561088757600080fd5b50610528610896366004613417565b611763565b3480156108a757600080fd5b506108bb6108b63660046135b5565b6119e6565b6040805182518152602080840151908201529181015173ffffffffffffffffffffffffffffffffffffffff1690820152606001610370565b3480156108ff57600080fd5b506103f160035481565b34801561091557600080fd5b506103f17fceb656422d2e5768b364a6526533f6832c483c8cfbd416512fbbd6fa6413f96a81565b61052861094b36600461339d565b611a7c565b34801561095c57600080fd5b5061052861096b366004613264565b611cde565b34801561097c57600080fd5b5060045461036490640100000000900460ff1681565b34801561099e57600080fd5b506105286109ad3660046135ea565b611d62565b3480156109be57600080fd5b506105286109cd3660046132ed565b611dbd565b3480156109de57600080fd5b506004546103649060ff1681565b3480156109f857600080fd5b50610a0c610a07366004613647565b611e6b565b60408051938452602084019290925290820152606001610370565b348015610a3357600080fd5b50610528610a423660046132ed565b611f1b565b348015610a5357600080fd5b50610528610a62366004613264565b611fd2565b348015610a7357600080fd5b50610528610a823660046132c1565b612056565b348015610a9357600080fd5b50610ae4610aa23660046135b5565b8051602081830181018051600e8252928201919093012091528054600182015460029092015490919073ffffffffffffffffffffffffffffffffffffffff1683565b60408051938452602084019290925273ffffffffffffffffffffffffffffffffffffffff1690820152606001610370565b610528610b23366004613647565b61209a565b348015610b3457600080fd5b50610528610b43366004613264565b612413565b348015610b5457600080fd5b50610528610b63366004613264565b612497565b348015610b7457600080fd5b506103f1610b833660046132a6565b60096020526000908152604090205481565b348015610ba157600080fd5b50610528610bb036600461369a565b61251b565b60007fffffffff0000000000000000000000000000000000000000000000000000000082167f7965db0b000000000000000000000000000000000000000000000000000000001480610c4857507f01ffc9a7000000000000000000000000000000000000000000000000000000007fffffffff000000000000000000000000000000000000000000000000000000008316145b92915050565b60008281527f02dd7bc7dec4dceedda775e58dd541e08a116c6c53815c0bd028192f7b6268006020526040902060010154610c8881612a1c565b610c928383612a29565b50505050565b73ffffffffffffffffffffffffffffffffffffffff81163314610ce7576040517f6697b23200000000000000000000000000000000000000000000000000000000815260040160405180910390fd5b610cf18282612b4a565b505050565b3360009081527f1dda541eb5c1fa85177342f00c6b5e15359324832b7f80f6738a34decb92f53a602052604090205460ff16610d4557604051634ca8886760e01b815260040160405180910390fd5b60048054821515610100027fffffffffffffffffffffffffffffffffffffffffffffffffffffffffffff00ff9091161790556040517f9f5cf153333ec6c3f336a73d8dd75b350a36948f61b0b13ae43af5b5c144a6f590610dab90831515815260200190565b60405180910390a150565b3360009081527f1dda541eb5c1fa85177342f00c6b5e15359324832b7f80f6738a34decb92f53a602052604090205460ff16610e0557604051634ca8886760e01b815260040160405180910390fd5b6004805482151562010000027fffffffffffffffffffffffffffffffffffffffffffffffffffffffffff00ffff9091161790556040517f643f3a44207851ae16a2c404fa7307be53087b3a8e378e0c908e592c64f5066990610dab90831515815260200190565b610e976040518060800160405280600081526020016000815260200160008152602001600081525090565b506000908152600d6020908152604091829020825160808101845281548152600182015492810192909252600281015492820192909252600390910154606082015290565b600454610100900460ff16610f1d576040517f7856fae200000000000000000000000000000000000000000000000000000000815260040160405180910390fd5b600080610f2c858701876136ee565b33600090815260096020526040902054919350915081610f4c828a61373f565b1115610f84576040517f7a399cc900000000000000000000000000000000000000000000000000000000815260040160405180910390fd5b60408051602081018590527fffffffffffffffffffffffffffffffffffffffff0000000000000000000000003360601b169181019190915260548101839052600090607401604051602081830303815290604052805190602001209050611022868680806020026020016040519081016040528093929190818152602001838360200280828437600092019190915250506001549150849050612c28565b611058576040517f09bde33900000000000000000000000000000000000000000000000000000000815260040160405180910390fd5b60016000908152600d6020527ffd54ff1ed53f34a900b24c5ba64f85761163b5d82d98a47b9bd80e45466993c554611091908b90613752565b9050803410156110cd576040517fcd1c886700000000000000000000000000000000000000000000000000000000815260040160405180910390fd5b33600090815260096020526040812080548c92906110ec90849061373f565b925050819055508960076000828254611105919061373f565b90915550506040518a815233907ffb5f58e3eb15f9a46ba20457862c4fd077bf7f22ce315297361efd987d0a2c27906020015b60405180910390a250505050505050505050565b60045462010000900460ff1661118e576040517f724187c200000000000000000000000000000000000000000000000000000000815260040160405180910390fd5b60008061119d858701876136ee565b336000908152600a60205260409020549193509150816111bd828a61373f565b11156111f5576040517f7a399cc900000000000000000000000000000000000000000000000000000000815260040160405180910390fd5b60408051602081018590527fffffffffffffffffffffffffffffffffffffffff0000000000000000000000003360601b169181019190915260548101839052600090607401604051602081830303815290604052805190602001209050611293868680806020026020016040519081016040528093929190818152602001838360200280828437600092019190915250506002549150849050612c28565b6112c9576040517f09bde33900000000000000000000000000000000000000000000000000000000815260040160405180910390fd5b60016000908152600d6020527ffd54ff1ed53f34a900b24c5ba64f85761163b5d82d98a47b9bd80e45466993c554611302908b90613752565b90508034101561133e576040517fcd1c886700000000000000000000000000000000000000000000000000000000815260040160405180910390fd5b336000908152600a6020526040812080548c929061135d90849061373f565b925050819055508960076000828254611376919061373f565b90915550506040518a815233907fc521f5d58aeab15bd2115f862bb7d0b7bc2674d4e9aa7db944eac6e356c829a390602001611138565b3360009081527f1dda541eb5c1fa85177342f00c6b5e15359324832b7f80f6738a34decb92f53a602052604090205460ff166113fc57604051634ca8886760e01b815260040160405180910390fd5b60048054821515640100000000027fffffffffffffffffffffffffffffffffffffffffffffffffffffff00ffffffff9091161790556040517f3b7b44afae3b983507896693d669f6119d5ab003ec1ab51123108429bd5d46d790610dab90831515815260200190565b60045460ff166114a1576040517f27dc08c400000000000000000000000000000000000000000000000000000000815260040160405180910390fd5b6000806114b0858701876136ee565b336000908152600860205260409020549193509150816114d0828a61373f565b1115611508576040517f7a399cc900000000000000000000000000000000000000000000000000000000815260040160405180910390fd5b60408051602081018590527fffffffffffffffffffffffffffffffffffffffff0000000000000000000000003360601b1691810191909152605481018390526000906074016040516020818303038152906040528051906020012090506115a48686808060200260200160405190810160405280939291908181526020018383602002808284376000920182905250549250859150612c289050565b6115da576040517f09bde33900000000000000000000000000000000000000000000000000000000815260040160405180910390fd5b33600090815260086020526040812080548b92906115f990849061373f565b925050819055508860076000828254611612919061373f565b909155505060405189815233907fdcf2314e0115a42fe2b3fcfb533c03e95dc48bc7769a9c2b61a14883c0b449e09060200160405180910390a2505050505050505050565b3360009081527f78e571b7bf30584d955e1c6444a2b5147087edf9f00485d94993a04d370525ea602052604090205460ff166116a657604051634ca8886760e01b815260040160405180910390fd5b6040514790600090339083908381818185875af1925050503d80600081146116ea576040519150601f19603f3d011682016040523d82523d6000602084013e6116ef565b606091505b505090508061172a576040517f27fcd9d100000000000000000000000000000000000000000000000000000000815260040160405180910390fd5b60405182815233907f0f2fb75cc1977a496e94837f859e957f68e26e70dc1b75d9945ee92ae57969ba9060200160405180910390a25050565b3360009081527f78e571b7bf30584d955e1c6444a2b5147087edf9f00485d94993a04d370525ea602052604090205460ff166117b257604051634ca8886760e01b815260040160405180910390fd5b86851415806117c15750848314155b806117cc5750828114155b15611803576040517f8d7b788500000000000000000000000000000000000000000000000000000000815260040160405180910390fd5b60005b878110156119db57604051806080016040528088888481811061182b5761182b613769565b90506020020135815260200186868481811061184957611849613769565b905060200201358152602001600d60008c8c8681811061186b5761186b613769565b90506020020135815260200190815260200160002060020154815260200184848481811061189b5761189b613769565b90506020020135815250600d60008b8b858181106118bb576118bb613769565b9050602002013581526020019081526020016000206000820151816000015560208201518160010155604082015181600201556060820151816003015590505088888281811061190d5761190d613769565b905060200201357fefd55558319646aa70e53c48ba0480d26d9fdce9d6399432fac9356ee254944c88888481811061194757611947613769565b9050602002013587878581811061196057611960613769565b90506020020135600d60008e8e8881811061197d5761197d613769565b905060200201358152602001908152602001600020600201548787878181106119a8576119a8613769565b604080519687526020878101969096528601939093525091020135606082015260800160405180910390a2600101611806565b505050505050505050565b611a2060405180606001604052806000815260200160008152602001600073ffffffffffffffffffffffffffffffffffffffff1681525090565b600e82604051611a3091906137bc565b908152604080519182900360209081018320606084018352805484526001810154918401919091526002015473ffffffffffffffffffffffffffffffffffffffff169082015292915050565b6004546301000000900460ff16611abf576040517fb4eb177f00000000000000000000000000000000000000000000000000000000815260040160405180910390fd5b600080611ace858701876136ee565b336000908152600b6020526040902054919350915081611aee828a61373f565b1115611b26576040517f7a399cc900000000000000000000000000000000000000000000000000000000815260040160405180910390fd5b60408051602081018590527fffffffffffffffffffffffffffffffffffffffff0000000000000000000000003360601b169181019190915260548101839052600090607401604051602081830303815290604052805190602001209050611bc4868680806020026020016040519081016040528093929190818152602001838360200280828437600092019190915250506003549150849050612c28565b611bfa576040517f09bde33900000000000000000000000000000000000000000000000000000000815260040160405180910390fd5b60086000908152600d6020527f0b705463cf5f7356780ee6e96132d37412c1b5816a4d207b8dcd42c34976745754611c33908b90613752565b905080341015611c6f576040517fcd1c886700000000000000000000000000000000000000000000000000000000815260040160405180910390fd5b336000908152600b6020526040812080548c9290611c8e90849061373f565b925050819055508960076000828254611ca7919061373f565b90915550506040518a815233907f59e2b257ada6e517306f0d5b79cbe24468bc4191773feb55630afb9a23be1f3390602001611138565b3360009081527fd36dc67018ffa91a582c1665c082102263a7f1afa341f67f14e207441884c9f5602052604090205460ff16611d2d57604051634ca8886760e01b815260040160405180910390fd5b60038190556040518181527fc51bf385a517774504e203c62712392af40bd3ddcee8e29e72fd9584fc4a2deb90602001610dab565b3360009081527f53088e9746d59304d44d762ab494d20173b48e03bcf9c16748a803249ed0556c602052604090205460ff16611db157604051634ca8886760e01b815260040160405180910390fd5b610c9284848484612c3e565b3360009081527f1dda541eb5c1fa85177342f00c6b5e15359324832b7f80f6738a34decb92f53a602052604090205460ff16611e0c57604051634ca8886760e01b815260040160405180910390fd5b600480547fffffffffffffffffffffffffffffffffffffffffffffffffffffffffffffff00168215159081179091556040519081527fadafd3bec1c754707cbddc626a6214c879cecc475375ff8f5a1dbc329939869390602001610dab565b6000838152600d6020526040812054819081908190611e8b908990613752565b90506064600e8787604051611ea19291906137d8565b90815260405190819003602001902054611ebb9083613752565b611ec591906137e8565b91506064600e8787604051611edb9291906137d8565b90815260200160405180910390206001015482611ef89190613752565b611f0291906137e8565b9250611f0e8282613823565b9350509450945094915050565b3360009081527f1dda541eb5c1fa85177342f00c6b5e15359324832b7f80f6738a34decb92f53a602052604090205460ff16611f6a57604051634ca8886760e01b815260040160405180910390fd5b600480548215156301000000027fffffffffffffffffffffffffffffffffffffffffffffffffffffffff00ffffff9091161790556040517fbc3a54bd7c62015269a66d0527ed442c28f1b1e0263b8ed19ee90946b6327d0390610dab90831515815260200190565b3360009081527fd36dc67018ffa91a582c1665c082102263a7f1afa341f67f14e207441884c9f5602052604090205460ff1661202157604051634ca8886760e01b815260040160405180910390fd5b60028190556040518181527fed5a3c80523111a140a98ec8643e5fb5ac073fe6b8528163c00123af11e4b31a90602001610dab565b60008281527f02dd7bc7dec4dceedda775e58dd541e08a116c6c53815c0bd028192f7b626800602052604090206001015461209081612a1c565b610c928383612b4a565b600454640100000000900460ff166120de576040517fc7d08f0400000000000000000000000000000000000000000000000000000000815260040160405180910390fd5b6000838152600d60205260409020600381015460029091015461210290869061373f565b111561213a576040517f98a3f79100000000000000000000000000000000000000000000000000000000815260040160405180910390fd5b6000838152600d6020908152604080832060010154600f83528184203385529092529091205461216b90869061373f565b11156121a3576040517fbbd4c2bd00000000000000000000000000000000000000000000000000000000815260040160405180910390fd5b6000806121b286868686611e6b565b5091509150813410156121f1576040517fcd1c886700000000000000000000000000000000000000000000000000000000815260040160405180910390fd5b8015612321576000600e858560405161220b9291906137d8565b9081526040519081900360200181206002015473ffffffffffffffffffffffffffffffffffffffff1690839060006040518083038185875af1925050503d8060008114612274576040519150601f19603f3d011682016040523d82523d6000602084013e612279565b606091505b50509050806122b4576040517f1ac89c8000000000000000000000000000000000000000000000000000000000815260040160405180910390fd5b600e85856040516122c69291906137d8565b908152604051602091819003820181206002015484825273ffffffffffffffffffffffffffffffffffffffff16917f885e6f6235626292940f78c947a331f4c7c1d7f50a48b38092cf546bc9c7907a910160405180910390a2505b600061232c33612da4565b9050600e8160405161233e91906137bc565b90815260405190819003602001902054600003612365576123658133600554600654612c3e565b6000868152600d60205260408120600201805489929061238690849061373f565b9091555050336000908152600c6020526040812080548992906123aa90849061373f565b9250508190555086600760008282546123c3919061373f565b9091555050604051869033907f667f777d5c0d93b002117ea7ffc49143b4c2180cb35b02848c4ab62631a0cd2590612402908b9088908b908b90613836565b60405180910390a350505050505050565b3360009081527fd36dc67018ffa91a582c1665c082102263a7f1afa341f67f14e207441884c9f5602052604090205460ff1661246257604051634ca8886760e01b815260040160405180910390fd5b60008190556040518181527f9811c75983304a889ec0cb24de6cb2a102ceef14040efeca89e8361047af9daf90602001610dab565b3360009081527fd36dc67018ffa91a582c1665c082102263a7f1afa341f67f14e207441884c9f5602052604090205460ff166124e657604051634ca8886760e01b815260040160405180910390fd5b60018190556040518181527fa9def886987ec775de3f208d9045235d630a49852d8da931fa98c53e9c4a799590602001610dab565b7ff0c57e16840df040f15088dc2f81fe391c3923bec73e23a9662efc9c229c6a00805468010000000000000000810460ff16159067ffffffffffffffff166000811580156125665750825b905060008267ffffffffffffffff1660011480156125835750303b155b905081158015612591575080155b156125c8576040517ff92ee8a900000000000000000000000000000000000000000000000000000000815260040160405180910390fd5b84547fffffffffffffffffffffffffffffffffffffffffffffffff000000000000000016600117855583156126295784547fffffffffffffffffffffffffffffffffffffffffffffff00ffffffffffffffff16680100000000000000001785555b612631612dc7565b73ffffffffffffffffffffffffffffffffffffffff891661269b576040517f8e4c8aa600000000000000000000000000000000000000000000000000000000815273ffffffffffffffffffffffffffffffffffffffff8a1660048201526024015b60405180910390fd5b73ffffffffffffffffffffffffffffffffffffffff8816612700576040517f8e4c8aa600000000000000000000000000000000000000000000000000000000815273ffffffffffffffffffffffffffffffffffffffff89166004820152602401612692565b73ffffffffffffffffffffffffffffffffffffffff8716612765576040517f8e4c8aa600000000000000000000000000000000000000000000000000000000815273ffffffffffffffffffffffffffffffffffffffff88166004820152602401612692565b73ffffffffffffffffffffffffffffffffffffffff86166127ca576040517f8e4c8aa600000000000000000000000000000000000000000000000000000000815273ffffffffffffffffffffffffffffffffffffffff87166004820152602401612692565b6127f47fdf8b4c520ffe197c5343c6f5aec59570151ef9a492f2c624fd45ddde6135ec428a612a29565b5061281f7fdf8b4c520ffe197c5343c6f5aec59570151ef9a492f2c624fd45ddde6135ec4280612dd1565b6128497f8b5b16d04624687fcf0d0228f19993c9157c1ed07b41d8d430fd9100eb099fe889612a29565b506128747f8b5b16d04624687fcf0d0228f19993c9157c1ed07b41d8d430fd9100eb099fe88a612a29565b506128bf7f8b5b16d04624687fcf0d0228f19993c9157c1ed07b41d8d430fd9100eb099fe87fdf8b4c520ffe197c5343c6f5aec59570151ef9a492f2c624fd45ddde6135ec42612dd1565b6128e97ffd2994b76294f3a7e0e5e4e40e73799b954c33f4bff642b5e760fef0d694a92488612a29565b506129347ffd2994b76294f3a7e0e5e4e40e73799b954c33f4bff642b5e760fef0d694a9247fdf8b4c520ffe197c5343c6f5aec59570151ef9a492f2c624fd45ddde6135ec42612dd1565b61295e7fceb656422d2e5768b364a6526533f6832c483c8cfbd416512fbbd6fa6413f96a87612a29565b506129a97fceb656422d2e5768b364a6526533f6832c483c8cfbd416512fbbd6fa6413f96a7fdf8b4c520ffe197c5343c6f5aec59570151ef9a492f2c624fd45ddde6135ec42612dd1565b600580805560065583156119db5784547fffffffffffffffffffffffffffffffffffffffffffffff00ffffffffffffffff168555604051600181527fc7f505b2f371ae2175ee4913f4499e1f2633a7b5936321eed1cdaeb6115181d29060200160405180910390a1505050505050505050565b612a268133612e75565b50565b60008281527f02dd7bc7dec4dceedda775e58dd541e08a116c6c53815c0bd028192f7b6268006020818152604080842073ffffffffffffffffffffffffffffffffffffffff8616855290915282205460ff16612b405760008481526020828152604080832073ffffffffffffffffffffffffffffffffffffffff87168452909152902080547fffffffffffffffffffffffffffffffffffffffffffffffffffffffffffffff00166001179055612adc3390565b73ffffffffffffffffffffffffffffffffffffffff168373ffffffffffffffffffffffffffffffffffffffff16857f2f8788117e7eff1d82e926ec794901d17c78024a50270940304540a733656f0d60405160405180910390a46001915050610c48565b6000915050610c48565b60008281527f02dd7bc7dec4dceedda775e58dd541e08a116c6c53815c0bd028192f7b6268006020818152604080842073ffffffffffffffffffffffffffffffffffffffff8616855290915282205460ff1615612b405760008481526020828152604080832073ffffffffffffffffffffffffffffffffffffffff8716808552925280832080547fffffffffffffffffffffffffffffffffffffffffffffffffffffffffffffff0016905551339287917ff6391f5c32d9c69d2a47ea670b442974b53935d1edc7fd64eb21e047a839171b9190a46001915050610c48565b600082612c358584612f20565b14949350505050565b6032811115612c79576040517f997ea36000000000000000000000000000000000000000000000000000000000815260040160405180910390fd5b6032821115612cb4576040517fdc81db8500000000000000000000000000000000000000000000000000000000815260040160405180910390fd5b80600e85604051612cc591906137bc565b908152604051908190036020018120919091558290600e90612ce89087906137bc565b90815260200160405180910390206001018190555082600e85604051612d0e91906137bc565b908152604051908190036020018120600201805473ffffffffffffffffffffffffffffffffffffffff9384167fffffffffffffffffffffffff0000000000000000000000000000000000000000909116179055908416907f0d007a4ebdfa666cf41db5f20854c66abff335a5417346b5a103312bb5dbe7aa90612d9690879086908690613891565b60405180910390a250505050565b6060610c4873ffffffffffffffffffffffffffffffffffffffff83166014612f63565b612dcf613189565b565b7f02dd7bc7dec4dceedda775e58dd541e08a116c6c53815c0bd028192f7b6268006000612e2c8460009081527f02dd7bc7dec4dceedda775e58dd541e08a116c6c53815c0bd028192f7b626800602052604090206001015490565b600085815260208490526040808220600101869055519192508491839187917fbd79b86ffe0ab8e8776151514217cd7cacd52c909f66475c3af44e129f0b00ff9190a450505050565b60008281527f02dd7bc7dec4dceedda775e58dd541e08a116c6c53815c0bd028192f7b6268006020908152604080832073ffffffffffffffffffffffffffffffffffffffff8516845290915290205460ff16612f1c576040517fe2517d3f00000000000000000000000000000000000000000000000000000000815273ffffffffffffffffffffffffffffffffffffffff8216600482015260248101839052604401612692565b5050565b600081815b8451811015612f5b57612f5182868381518110612f4457612f44613769565b60200260200101516131f0565b9150600101612f25565b509392505050565b6060826000612f73846002613752565b612f7e90600261373f565b67ffffffffffffffff811115612f9657612f966134db565b6040519080825280601f01601f191660200182016040528015612fc0576020820181803683370190505b5090507f300000000000000000000000000000000000000000000000000000000000000081600081518110612ff757612ff7613769565b60200101907effffffffffffffffffffffffffffffffffffffffffffffffffffffffffffff1916908160001a9053507f78000000000000000000000000000000000000000000000000000000000000008160018151811061305a5761305a613769565b60200101907effffffffffffffffffffffffffffffffffffffffffffffffffffffffffffff1916908160001a9053506000613096856002613752565b6130a190600161373f565b90505b600181111561313e577f303132333435363738396162636465660000000000000000000000000000000083600f16601081106130e2576130e2613769565b1a60f81b8282815181106130f8576130f8613769565b60200101907effffffffffffffffffffffffffffffffffffffffffffffffffffffffffffff1916908160001a90535060049290921c91613137816138f2565b90506130a4565b508115613181576040517fe22e27eb0000000000000000000000000000000000000000000000000000000081526004810186905260248101859052604401612692565b949350505050565b7ff0c57e16840df040f15088dc2f81fe391c3923bec73e23a9662efc9c229c6a005468010000000000000000900460ff16612dcf576040517fd7e6bcf800000000000000000000000000000000000000000000000000000000815260040160405180910390fd5b600081831061320c57600082815260208490526040902061321b565b60008381526020839052604090205b9392505050565b60006020828403121561323457600080fd5b81357fffffffff000000000000000000000000000000000000000000000000000000008116811461321b57600080fd5b60006020828403121561327657600080fd5b5035919050565b803573ffffffffffffffffffffffffffffffffffffffff811681146132a157600080fd5b919050565b6000602082840312156132b857600080fd5b61321b8261327d565b600080604083850312156132d457600080fd5b823591506132e46020840161327d565b90509250929050565b6000602082840312156132ff57600080fd5b8135801515811461321b57600080fd5b60008083601f84011261332157600080fd5b50813567ffffffffffffffff81111561333957600080fd5b60208301915083602082850101111561335157600080fd5b9250929050565b60008083601f84011261336a57600080fd5b50813567ffffffffffffffff81111561338257600080fd5b6020830191508360208260051b850101111561335157600080fd5b6000806000806000606086880312156133b557600080fd5b85359450602086013567ffffffffffffffff808211156133d457600080fd5b6133e089838a0161330f565b909650945060408801359150808211156133f957600080fd5b5061340688828901613358565b969995985093965092949392505050565b6000806000806000806000806080898b03121561343357600080fd5b883567ffffffffffffffff8082111561344b57600080fd5b6134578c838d01613358565b909a50985060208b013591508082111561347057600080fd5b61347c8c838d01613358565b909850965060408b013591508082111561349557600080fd5b6134a18c838d01613358565b909650945060608b01359150808211156134ba57600080fd5b506134c78b828c01613358565b999c989b5096995094979396929594505050565b7f4e487b7100000000000000000000000000000000000000000000000000000000600052604160045260246000fd5b600082601f83011261351b57600080fd5b813567ffffffffffffffff80821115613536576135366134db565b604051601f83017fffffffffffffffffffffffffffffffffffffffffffffffffffffffffffffffe0908116603f0116810190828211818310171561357c5761357c6134db565b8160405283815286602085880101111561359557600080fd5b836020870160208301376000602085830101528094505050505092915050565b6000602082840312156135c757600080fd5b813567ffffffffffffffff8111156135de57600080fd5b6131818482850161350a565b6000806000806080858703121561360057600080fd5b843567ffffffffffffffff81111561361757600080fd5b6136238782880161350a565b9450506136326020860161327d565b93969395505050506040820135916060013590565b6000806000806060858703121561365d57600080fd5b8435935060208501359250604085013567ffffffffffffffff81111561368257600080fd5b61368e8782880161330f565b95989497509550505050565b600080600080608085870312156136b057600080fd5b6136b98561327d565b93506136c76020860161327d565b92506136d56040860161327d565b91506136e36060860161327d565b905092959194509250565b6000806040838503121561370157600080fd5b50508035926020909101359150565b7f4e487b7100000000000000000000000000000000000000000000000000000000600052601160045260246000fd5b80820180821115610c4857610c48613710565b8082028115828204841417610c4857610c48613710565b7f4e487b7100000000000000000000000000000000000000000000000000000000600052603260045260246000fd5b60005b838110156137b357818101518382015260200161379b565b50506000910152565b600082516137ce818460208701613798565b9190910192915050565b8183823760009101908152919050565b60008261381e577f4e487b7100000000000000000000000000000000000000000000000000000000600052601260045260246000fd5b500490565b81810381811115610c4857610c48613710565b84815283602082015260606040820152816060820152818360808301376000818301608090810191909152601f9092017fffffffffffffffffffffffffffffffffffffffffffffffffffffffffffffffe01601019392505050565b60608152600084518060608401526138b0816080850160208901613798565b60807fffffffffffffffffffffffffffffffffffffffffffffffffffffffffffffffe0601f830116840101915050836020830152826040830152949350505050565b60008161390157613901613710565b507fffffffffffffffffffffffffffffffffffffffffffffffffffffffffffffffff019056fea2646970667358221220307ae9b5ae96cdcf6f1990bd9ce7a656e0ac554255e51d51986bf39c30649b1064736f6c63430008180033",
  "devdoc": {
    "author": "Archethect",
    "errors": {
      "AccessControlBadConfirmation()": [
        {
          "details": "The caller of a function is not the expected one. NOTE: Don't confuse with {AccessControlUnauthorizedAccount}."
        }
      ],
      "AccessControlUnauthorizedAccount(address,bytes32)": [
        {
          "details": "The `account` is missing a role."
        }
      ],
      "InvalidInitialization()": [
        {
          "details": "The contract is already initialized."
        }
      ],
      "NotInitializing()": [
        {
          "details": "The contract is not initializing."
        }
      ],
      "StringsInsufficientHexLength(uint256,uint256)": [
        {
          "details": "The `value` string doesn't fit in the specified `length`."
        }
      ]
    },
    "events": {
      "Initialized(uint64)": {
        "details": "Triggered when the contract has been initialized or reinitialized."
      },
      "RoleAdminChanged(bytes32,bytes32,bytes32)": {
        "details": "Emitted when `newAdminRole` is set as ``role``'s admin role, replacing `previousAdminRole` `DEFAULT_ADMIN_ROLE` is the starting admin for all roles, despite {RoleAdminChanged} not being emitted signaling this."
      },
      "RoleGranted(bytes32,address,address)": {
        "details": "Emitted when `account` is granted `role`. `sender` is the account that originated the contract call, an admin role bearer except when using {AccessControl-_setupRole}."
      },
      "RoleRevoked(bytes32,address,address)": {
        "details": "Emitted when `account` is revoked `role`. `sender` is the account that originated the contract call:   - if using `revokeRole`, it is the admin role bearer   - if using `renounceRole`, it is the role bearer (i.e. `account`)"
      }
    },
    "kind": "dev",
    "methods": {
      "claimLicenseEarlyAccess(uint256,bytes,bytes32[])": {
        "params": {
          "amount": "The amount of licenses to claim",
          "data": "Index and claimCap in encoded format",
          "merkleProof": "The proof used to verify whether the caller is allowed to claim the licenses"
        }
      },
      "claimLicenseFriendsFamily(uint256,bytes,bytes32[])": {
        "params": {
          "amount": "The amount of licenses to claim",
          "data": "Index and claimCap in encoded format",
          "merkleProof": "The proof used to verify weather the caller is allowed to claim the licenses"
        }
      },
      "claimLicensePartner(uint256,bytes,bytes32[])": {
        "params": {
          "amount": "The amount of licenses to claim",
          "data": "Index and claimCap in encoded format",
          "merkleProof": "The proof used to verify weather the caller is allowed to claim the licenses"
        }
      },
      "claimLicensePublic(uint256,uint256,string)": {
        "params": {
          "amount": "The amount of licenses to claim",
          "referral": "A referral code that can give discounts.",
          "tier": "The tier to buy the licenses from"
        }
      },
      "claimLicenseTeam(uint256,bytes,bytes32[])": {
        "params": {
          "amount": "The amount of licenses to claim",
          "data": "Index and claimCap in encoded format",
          "merkleProof": "The proof used to verify whether the caller is allowed to claim the licenses"
        }
      },
      "constructor": {
        "custom:oz-upgrades-unsafe-allow": "constructor"
      },
      "getReferral(string)": {
        "params": {
          "id": "The referral id"
        },
        "returns": {
          "referral": "The referral"
        }
      },
      "getRoleAdmin(bytes32)": {
        "details": "Returns the admin role that controls `role`. See {grantRole} and {revokeRole}. To change a role's admin, use {_setRoleAdmin}."
      },
      "getTier(uint256)": {
        "params": {
          "id": "The tier id"
        },
        "returns": {
          "tier": "The tier"
        }
      },
      "grantRole(bytes32,address)": {
        "details": "Grants `role` to `account`. If `account` had not been already granted `role`, emits a {RoleGranted} event. Requirements: - the caller must have ``role``'s admin role. May emit a {RoleGranted} event."
      },
      "hasRole(bytes32,address)": {
        "details": "Returns `true` if `account` has been granted `role`."
      },
      "paymentDetailsForReferral(uint256,uint256,string)": {
        "params": {
          "amount": "The amount of licenses to claim",
          "referral": "A referral code that can give discounts.",
          "tier": "The tier to buy the licenses from"
        },
        "returns": {
          "commission": "The commission in ETH that the referrer will get.",
          "discount": "The discount in ETH the claimer will get",
          "toPay": "The amount of ETH that should be paid by the claimer."
        }
      },
      "renounceRole(bytes32,address)": {
        "details": "Revokes `role` from the calling account. Roles are often managed via {grantRole} and {revokeRole}: this function's purpose is to provide a mechanism for accounts to lose their privileges if they are compromised (such as when a trusted device is misplaced). If the calling account had been revoked `role`, emits a {RoleRevoked} event. Requirements: - the caller must be `callerConfirmation`. May emit a {RoleRevoked} event."
      },
      "revokeRole(bytes32,address)": {
        "details": "Revokes `role` from `account`. If `account` had been granted `role`, emits a {RoleRevoked} event. Requirements: - the caller must have ``role``'s admin role. May emit a {RoleRevoked} event."
      },
      "setEarlyAccessMerkleRoot(bytes32)": {
        "params": {
          "_earlyAccessMerkleRoot": "The root of the early access sale merkle tree"
        }
      },
      "setEarlyAccessSale(bool)": {
        "params": {
          "status": "The status to set for the early access sale"
        }
      },
      "setFriendsFamilyMerkleRoot(bytes32)": {
        "params": {
          "_friendsFamilyMerkleRoot": "The root of the friends and family sale merkle tree"
        }
      },
      "setFriendsFamilySale(bool)": {
        "params": {
          "status": "The status to set for the friends and family sale"
        }
      },
      "setPartnerMerkleRoot(bytes32)": {
        "params": {
          "_partnerMerkleRoot": "The root of the partner sale merkle tree"
        }
      },
      "setPartnerSale(bool)": {
        "params": {
          "status": "The status to set for the partner sale"
        }
      },
      "setPublicSale(bool)": {
        "params": {
          "status": "The status to set for the public sale"
        }
      },
      "setReferral(string,address,uint256,uint256)": {
        "params": {
          "code": "The referral code to be used when claiming",
          "commission": "The percentage of the total price to be used as a commission",
          "discount": "The percentage of the total price to be used as a discount",
          "receiver": "The receiver address for the commissions"
        }
      },
      "setTeamMerkleRoot(bytes32)": {
        "params": {
          "_teamMerkleRoot": "The root of the team sale merkle tree"
        }
      },
      "setTeamSale(bool)": {
        "params": {
          "status": "The status to set for the team sale"
        }
      },
      "setTiers(uint256[],uint256[],uint256[],uint256[])": {
        "params": {
          "ids": "The ids of the tiers to set",
          "individualCaps": "The maximum amount of licenses that can be claimed per address for the tiers.",
          "prices": "The prices of each tier to set",
          "totalCaps": "The maximum amount of licenses that can be claimed in total for the tiers."
        }
      },
      "supportsInterface(bytes4)": {
        "details": "See {IERC165-supportsInterface}."
      }
    },
    "title": "PlayFi node license sale contract",
    "version": 1
  },
  "userdoc": {
    "kind": "user",
    "methods": {
      "claimLicenseEarlyAccess(uint256,bytes,bytes32[])": {
        "notice": "Claims licenses for early access addresses + make sure they do not exceed their personal claim cap and that they paid enough."
      },
      "claimLicenseFriendsFamily(uint256,bytes,bytes32[])": {
        "notice": "Claims licenses for friends and family + make sure they do not exceed their personal claim cap and that they paid enough."
      },
      "claimLicensePartner(uint256,bytes,bytes32[])": {
        "notice": "Claims licenses for partners + make sure they do not exceed their personal claim cap and that they paid enough."
      },
      "claimLicensePublic(uint256,uint256,string)": {
        "notice": "Claims licenses for the public in a specific tier + make sure they do not exceed their personal claim cap and total tier cap. Additionally also make sure that they paid enough."
      },
      "claimLicenseTeam(uint256,bytes,bytes32[])": {
        "notice": "Claims licenses for team members and make sure they do not exceed their personal claim cap."
      },
      "getReferral(string)": {
        "notice": "Returns referral details provided a referral id"
      },
      "getTier(uint256)": {
        "notice": "Returns tier details provided a tier id"
      },
      "paymentDetailsForReferral(uint256,uint256,string)": {
        "notice": "Calculates the price, commission and discount for X number of licenses in tier Y given referral code Z"
      },
      "setEarlyAccessMerkleRoot(bytes32)": {
        "notice": "Sets the early access sale merkle root"
      },
      "setEarlyAccessSale(bool)": {
        "notice": "Sets the early access sale status"
      },
      "setFriendsFamilyMerkleRoot(bytes32)": {
        "notice": "Sets the friends and family sale merkle root"
      },
      "setFriendsFamilySale(bool)": {
        "notice": "Sets the friends and family sale status"
      },
      "setPartnerMerkleRoot(bytes32)": {
        "notice": "Sets the partner sale merkle root"
      },
      "setPartnerSale(bool)": {
        "notice": "Sets the partner sale status"
      },
      "setPublicSale(bool)": {
        "notice": "Sets the public sale status"
      },
      "setReferral(string,address,uint256,uint256)": {
        "notice": "Sets referral details"
      },
      "setTeamMerkleRoot(bytes32)": {
        "notice": "Sets the team sale merkle root"
      },
      "setTeamSale(bool)": {
        "notice": "Sets the team sale status"
      },
      "setTiers(uint256[],uint256[],uint256[],uint256[])": {
        "notice": "Sets tier details"
      },
      "withdrawProceeds()": {
        "notice": "Withdraws the sale proceeds"
      }
    },
    "notice": "Contract used to handle whitelist and public node license sales in several tiers.",
    "version": 1
  },
  "storageLayout": {
    "storage": [
      {
        "astId": 2785,
        "contract": "contracts/PlayFiLicenseSale.sol:PlayFiLicenseSale",
        "label": "teamMerkleRoot",
        "offset": 0,
        "slot": "0",
        "type": "t_bytes32"
      },
      {
        "astId": 2788,
        "contract": "contracts/PlayFiLicenseSale.sol:PlayFiLicenseSale",
        "label": "friendsFamilyMerkleRoot",
        "offset": 0,
        "slot": "1",
        "type": "t_bytes32"
      },
      {
        "astId": 2791,
        "contract": "contracts/PlayFiLicenseSale.sol:PlayFiLicenseSale",
        "label": "earlyAccessMerkleRoot",
        "offset": 0,
        "slot": "2",
        "type": "t_bytes32"
      },
      {
        "astId": 2794,
        "contract": "contracts/PlayFiLicenseSale.sol:PlayFiLicenseSale",
        "label": "partnerMerkleRoot",
        "offset": 0,
        "slot": "3",
        "type": "t_bytes32"
      },
      {
        "astId": 2797,
        "contract": "contracts/PlayFiLicenseSale.sol:PlayFiLicenseSale",
        "label": "teamSaleActive",
        "offset": 0,
        "slot": "4",
        "type": "t_bool"
      },
      {
        "astId": 2800,
        "contract": "contracts/PlayFiLicenseSale.sol:PlayFiLicenseSale",
        "label": "friendsFamilySaleActive",
        "offset": 1,
        "slot": "4",
        "type": "t_bool"
      },
      {
        "astId": 2803,
        "contract": "contracts/PlayFiLicenseSale.sol:PlayFiLicenseSale",
        "label": "earlyAccessSaleActive",
        "offset": 2,
        "slot": "4",
        "type": "t_bool"
      },
      {
        "astId": 2806,
        "contract": "contracts/PlayFiLicenseSale.sol:PlayFiLicenseSale",
        "label": "partnerSaleActive",
        "offset": 3,
        "slot": "4",
        "type": "t_bool"
      },
      {
        "astId": 2809,
        "contract": "contracts/PlayFiLicenseSale.sol:PlayFiLicenseSale",
        "label": "publicSaleActive",
        "offset": 4,
        "slot": "4",
        "type": "t_bool"
      },
      {
        "astId": 2812,
        "contract": "contracts/PlayFiLicenseSale.sol:PlayFiLicenseSale",
        "label": "standardCommissionPercentage",
        "offset": 0,
        "slot": "5",
        "type": "t_uint256"
      },
      {
        "astId": 2815,
        "contract": "contracts/PlayFiLicenseSale.sol:PlayFiLicenseSale",
        "label": "standardDiscountPercentage",
        "offset": 0,
        "slot": "6",
        "type": "t_uint256"
      },
      {
        "astId": 2818,
        "contract": "contracts/PlayFiLicenseSale.sol:PlayFiLicenseSale",
        "label": "totalLicenses",
        "offset": 0,
        "slot": "7",
        "type": "t_uint256"
      },
      {
        "astId": 2822,
        "contract": "contracts/PlayFiLicenseSale.sol:PlayFiLicenseSale",
        "label": "teamClaimsPerAddress",
        "offset": 0,
        "slot": "8",
        "type": "t_mapping(t_address,t_uint256)"
      },
      {
        "astId": 2826,
        "contract": "contracts/PlayFiLicenseSale.sol:PlayFiLicenseSale",
        "label": "friendsFamilyClaimsPerAddress",
        "offset": 0,
        "slot": "9",
        "type": "t_mapping(t_address,t_uint256)"
      },
      {
        "astId": 2830,
        "contract": "contracts/PlayFiLicenseSale.sol:PlayFiLicenseSale",
        "label": "earlyAccessClaimsPerAddress",
        "offset": 0,
        "slot": "10",
        "type": "t_mapping(t_address,t_uint256)"
      },
      {
        "astId": 2834,
        "contract": "contracts/PlayFiLicenseSale.sol:PlayFiLicenseSale",
        "label": "partnerClaimsPerAddress",
        "offset": 0,
        "slot": "11",
        "type": "t_mapping(t_address,t_uint256)"
      },
      {
        "astId": 2838,
        "contract": "contracts/PlayFiLicenseSale.sol:PlayFiLicenseSale",
        "label": "publicClaimsPerAddress",
        "offset": 0,
        "slot": "12",
        "type": "t_mapping(t_address,t_uint256)"
      },
      {
        "astId": 2843,
        "contract": "contracts/PlayFiLicenseSale.sol:PlayFiLicenseSale",
        "label": "tiers",
        "offset": 0,
        "slot": "13",
        "type": "t_mapping(t_uint256,t_struct(Tier)4053_storage)"
      },
      {
        "astId": 2848,
        "contract": "contracts/PlayFiLicenseSale.sol:PlayFiLicenseSale",
        "label": "referrals",
        "offset": 0,
        "slot": "14",
        "type": "t_mapping(t_string_memory_ptr,t_struct(Referral)4060_storage)"
      },
      {
        "astId": 2854,
        "contract": "contracts/PlayFiLicenseSale.sol:PlayFiLicenseSale",
        "label": "claimsPerTierPerAddress",
        "offset": 0,
        "slot": "15",
        "type": "t_mapping(t_uint256,t_mapping(t_address,t_uint256))"
      }
    ],
    "types": {
      "t_address": {
        "encoding": "inplace",
        "label": "address",
        "numberOfBytes": "20"
      },
      "t_bool": {
        "encoding": "inplace",
        "label": "bool",
        "numberOfBytes": "1"
      },
      "t_bytes32": {
        "encoding": "inplace",
        "label": "bytes32",
        "numberOfBytes": "32"
      },
      "t_mapping(t_address,t_uint256)": {
        "encoding": "mapping",
        "key": "t_address",
        "label": "mapping(address => uint256)",
        "numberOfBytes": "32",
        "value": "t_uint256"
      },
      "t_mapping(t_string_memory_ptr,t_struct(Referral)4060_storage)": {
        "encoding": "mapping",
        "key": "t_string_memory_ptr",
        "label": "mapping(string => struct IPlayFiLicenseSale.Referral)",
        "numberOfBytes": "32",
        "value": "t_struct(Referral)4060_storage"
      },
      "t_mapping(t_uint256,t_mapping(t_address,t_uint256))": {
        "encoding": "mapping",
        "key": "t_uint256",
        "label": "mapping(uint256 => mapping(address => uint256))",
        "numberOfBytes": "32",
        "value": "t_mapping(t_address,t_uint256)"
      },
      "t_mapping(t_uint256,t_struct(Tier)4053_storage)": {
        "encoding": "mapping",
        "key": "t_uint256",
        "label": "mapping(uint256 => struct IPlayFiLicenseSale.Tier)",
        "numberOfBytes": "32",
        "value": "t_struct(Tier)4053_storage"
      },
      "t_string_memory_ptr": {
        "encoding": "bytes",
        "label": "string",
        "numberOfBytes": "32"
      },
      "t_struct(Referral)4060_storage": {
        "encoding": "inplace",
        "label": "struct IPlayFiLicenseSale.Referral",
        "members": [
          {
            "astId": 4055,
            "contract": "contracts/PlayFiLicenseSale.sol:PlayFiLicenseSale",
            "label": "discountPercentage",
            "offset": 0,
            "slot": "0",
            "type": "t_uint256"
          },
          {
            "astId": 4057,
            "contract": "contracts/PlayFiLicenseSale.sol:PlayFiLicenseSale",
            "label": "commissionPercentage",
            "offset": 0,
            "slot": "1",
            "type": "t_uint256"
          },
          {
            "astId": 4059,
            "contract": "contracts/PlayFiLicenseSale.sol:PlayFiLicenseSale",
            "label": "receiver",
            "offset": 0,
            "slot": "2",
            "type": "t_address"
          }
        ],
        "numberOfBytes": "96"
      },
      "t_struct(Tier)4053_storage": {
        "encoding": "inplace",
        "label": "struct IPlayFiLicenseSale.Tier",
        "members": [
          {
            "astId": 4046,
            "contract": "contracts/PlayFiLicenseSale.sol:PlayFiLicenseSale",
            "label": "price",
            "offset": 0,
            "slot": "0",
            "type": "t_uint256"
          },
          {
            "astId": 4048,
            "contract": "contracts/PlayFiLicenseSale.sol:PlayFiLicenseSale",
            "label": "individualCap",
            "offset": 0,
            "slot": "1",
            "type": "t_uint256"
          },
          {
            "astId": 4050,
            "contract": "contracts/PlayFiLicenseSale.sol:PlayFiLicenseSale",
            "label": "totalClaimed",
            "offset": 0,
            "slot": "2",
            "type": "t_uint256"
          },
          {
            "astId": 4052,
            "contract": "contracts/PlayFiLicenseSale.sol:PlayFiLicenseSale",
            "label": "totalCap",
            "offset": 0,
            "slot": "3",
            "type": "t_uint256"
          }
        ],
        "numberOfBytes": "128"
      },
      "t_uint256": {
        "encoding": "inplace",
        "label": "uint256",
        "numberOfBytes": "32"
      }
    }
  }
}