{
  "address": "0xfdCB1800534F922CF772efb169894ce55277c63A",
  "abi": [
    {
      "inputs": [],
      "stateMutability": "nonpayable",
      "type": "constructor"
    },
    {
      "inputs": [],
      "name": "AccessDenied",
      "type": "error"
    },
    {
      "inputs": [],
      "name": "CommissionPayoutFailed",
      "type": "error"
    },
    {
      "inputs": [],
      "name": "EarlyAccessSaleNotActive",
      "type": "error"
    },
    {
      "inputs": [],
      "name": "FriendsFamilySaleNotActive",
      "type": "error"
    },
    {
      "inputs": [],
      "name": "IndividualClaimCapExceeded",
      "type": "error"
    },
    {
      "inputs": [],
      "name": "IndividualTierCapExceeded",
      "type": "error"
    },
    {
      "inputs": [],
      "name": "InsufficientPayment",
      "type": "error"
    },
    {
      "inputs": [
        {
          "internalType": "address",
          "name": "account",
          "type": "address"
        }
      ],
      "name": "InvalidAddress",
      "type": "error"
    },
    {
      "inputs": [],
      "name": "InvalidCode",
      "type": "error"
    },
    {
      "inputs": [],
      "name": "InvalidCommission",
      "type": "error"
    },
    {
      "inputs": [],
      "name": "InvalidDiscount",
      "type": "error"
    },
    {
      "inputs": [],
      "name": "InvalidProof",
      "type": "error"
    },
    {
      "inputs": [],
      "name": "InvalidTierInputs",
      "type": "error"
    },
    {
      "inputs": [],
      "name": "PartnerSaleNotActive",
      "type": "error"
    },
    {
      "inputs": [],
      "name": "PublicSaleNotActive",
      "type": "error"
    },
    {
      "inputs": [],
      "name": "ReferralCodeInUse",
      "type": "error"
    },
    {
      "inputs": [],
      "name": "TeamSaleNotActive",
      "type": "error"
    },
    {
      "inputs": [],
      "name": "TotalTierCapExceeded",
      "type": "error"
    },
    {
      "inputs": [],
      "name": "WithdrawalFailed",
      "type": "error"
    },
    {
      "anonymous": false,
      "inputs": [
        {
          "indexed": false,
          "internalType": "string",
          "name": "code",
          "type": "string"
        },
        {
          "indexed": true,
          "internalType": "address",
          "name": "receiver",
          "type": "address"
        },
        {
          "indexed": false,
          "internalType": "uint256",
          "name": "amount",
          "type": "uint256"
        }
      ],
      "name": "CommissionPaid",
      "type": "event"
    },
    {
      "anonymous": false,
      "inputs": [],
      "name": "ContractInitialized",
      "type": "event"
    },
    {
      "anonymous": false,
      "inputs": [
        {
          "indexed": true,
          "internalType": "address",
          "name": "account",
          "type": "address"
        },
        {
          "indexed": false,
          "internalType": "uint256",
          "name": "paid",
          "type": "uint256"
        },
        {
          "indexed": false,
          "internalType": "uint256",
          "name": "amount",
          "type": "uint256"
        }
      ],
      "name": "EarlyAccessLicensesClaimed",
      "type": "event"
    },
    {
      "anonymous": false,
      "inputs": [
        {
          "indexed": false,
          "internalType": "bytes32",
          "name": "merkleRoot",
          "type": "bytes32"
        }
      ],
      "name": "EarlyAccessMerkleRootSet",
      "type": "event"
    },
    {
      "anonymous": false,
      "inputs": [
        {
          "indexed": false,
          "internalType": "bool",
          "name": "status",
          "type": "bool"
        }
      ],
      "name": "EarlyAccessSaleStatusSet",
      "type": "event"
    },
    {
      "anonymous": false,
      "inputs": [
        {
          "indexed": true,
          "internalType": "address",
          "name": "account",
          "type": "address"
        },
        {
          "indexed": false,
          "internalType": "uint256",
          "name": "paid",
          "type": "uint256"
        },
        {
          "indexed": false,
          "internalType": "uint256",
          "name": "amount",
          "type": "uint256"
        }
      ],
      "name": "FriendsFamilyLicensesClaimed",
      "type": "event"
    },
    {
      "anonymous": false,
      "inputs": [
        {
          "indexed": false,
          "internalType": "bytes32",
          "name": "merkleRoot",
          "type": "bytes32"
        }
      ],
      "name": "FriendsFamilyMerkleRootSet",
      "type": "event"
    },
    {
      "anonymous": false,
      "inputs": [
        {
          "indexed": false,
          "internalType": "bool",
          "name": "status",
          "type": "bool"
        }
      ],
      "name": "FriendsFamilySaleStatusSet",
      "type": "event"
    },
    {
      "anonymous": false,
      "inputs": [
        {
          "indexed": false,
          "internalType": "uint8",
          "name": "version",
          "type": "uint8"
        }
      ],
      "name": "Initialized",
      "type": "event"
    },
    {
      "anonymous": false,
      "inputs": [
        {
          "indexed": true,
          "internalType": "address",
          "name": "account",
          "type": "address"
        },
        {
          "indexed": false,
          "internalType": "uint256",
          "name": "amount",
          "type": "uint256"
        },
        {
          "indexed": true,
          "internalType": "uint256",
          "name": "tier",
          "type": "uint256"
        },
        {
          "indexed": false,
          "internalType": "uint256",
          "name": "paid",
          "type": "uint256"
        },
        {
          "indexed": false,
          "internalType": "string",
          "name": "partnerCode",
          "type": "string"
        },
        {
          "indexed": false,
          "internalType": "string",
          "name": "referral",
          "type": "string"
        }
      ],
      "name": "PartnerLicensesClaimed",
      "type": "event"
    },
    {
      "anonymous": false,
      "inputs": [
        {
          "indexed": false,
          "internalType": "string",
          "name": "partnerCode",
          "type": "string"
        },
        {
          "indexed": false,
          "internalType": "address",
          "name": "receiver",
          "type": "address"
        }
      ],
      "name": "PartnerReceiverAddressSet",
      "type": "event"
    },
    {
      "anonymous": false,
      "inputs": [
        {
          "indexed": false,
          "internalType": "bool",
          "name": "status",
          "type": "bool"
        },
        {
          "indexed": false,
          "internalType": "string",
          "name": "partnerCode",
          "type": "string"
        }
      ],
      "name": "PartnerSaleStatusSet",
      "type": "event"
    },
    {
      "anonymous": false,
      "inputs": [
        {
          "indexed": false,
          "internalType": "string",
          "name": "partnerCode",
          "type": "string"
        },
        {
          "indexed": true,
          "internalType": "uint256",
          "name": "tierId",
          "type": "uint256"
        },
        {
          "indexed": false,
          "internalType": "uint256",
          "name": "price",
          "type": "uint256"
        },
        {
          "indexed": false,
          "internalType": "uint256",
          "name": "individualCap",
          "type": "uint256"
        },
        {
          "indexed": false,
          "internalType": "uint256",
          "name": "totalClaimed",
          "type": "uint256"
        },
        {
          "indexed": false,
          "internalType": "uint256",
          "name": "totalCap",
          "type": "uint256"
        }
      ],
      "name": "PartnerTierSet",
      "type": "event"
    },
    {
      "anonymous": false,
      "inputs": [
        {
          "indexed": true,
          "internalType": "address",
          "name": "receiver",
          "type": "address"
        },
        {
          "indexed": false,
          "internalType": "uint256",
          "name": "amount",
          "type": "uint256"
        }
      ],
      "name": "ProceedsWithdrawn",
      "type": "event"
    },
    {
      "anonymous": false,
      "inputs": [
        {
          "indexed": true,
          "internalType": "address",
          "name": "account",
          "type": "address"
        },
        {
          "indexed": false,
          "internalType": "uint256",
          "name": "amount",
          "type": "uint256"
        },
        {
          "indexed": true,
          "internalType": "uint256",
          "name": "tier",
          "type": "uint256"
        },
        {
          "indexed": false,
          "internalType": "uint256",
          "name": "paid",
          "type": "uint256"
        },
        {
          "indexed": false,
          "internalType": "string",
          "name": "referral",
          "type": "string"
        }
      ],
      "name": "PublicLicensesClaimed",
      "type": "event"
    },
    {
      "anonymous": false,
      "inputs": [
        {
          "indexed": false,
          "internalType": "bytes32",
          "name": "merkleRoot",
          "type": "bytes32"
        }
      ],
      "name": "PublicMerkleRootSet",
      "type": "event"
    },
    {
      "anonymous": false,
      "inputs": [
        {
          "indexed": false,
          "internalType": "bool",
          "name": "status",
          "type": "bool"
        }
      ],
      "name": "PublicSaleStatusSet",
      "type": "event"
    },
    {
      "anonymous": false,
      "inputs": [
        {
          "indexed": true,
          "internalType": "address",
          "name": "account",
          "type": "address"
        },
        {
          "indexed": false,
          "internalType": "uint256",
          "name": "amount",
          "type": "uint256"
        },
        {
          "indexed": true,
          "internalType": "uint256",
          "name": "tier",
          "type": "uint256"
        },
        {
          "indexed": false,
          "internalType": "uint256",
          "name": "paid",
          "type": "uint256"
        },
        {
          "indexed": false,
          "internalType": "string",
          "name": "referral",
          "type": "string"
        }
      ],
      "name": "PublicWhitelistLicensesClaimed",
      "type": "event"
    },
    {
      "anonymous": false,
      "inputs": [
        {
          "indexed": false,
          "internalType": "string",
          "name": "code",
          "type": "string"
        },
        {
          "indexed": true,
          "internalType": "address",
          "name": "receiver",
          "type": "address"
        }
      ],
      "name": "ReferralUpdated",
      "type": "event"
    },
    {
      "anonymous": false,
      "inputs": [
        {
          "indexed": true,
          "internalType": "bytes32",
          "name": "role",
          "type": "bytes32"
        },
        {
          "indexed": true,
          "internalType": "bytes32",
          "name": "previousAdminRole",
          "type": "bytes32"
        },
        {
          "indexed": true,
          "internalType": "bytes32",
          "name": "newAdminRole",
          "type": "bytes32"
        }
      ],
      "name": "RoleAdminChanged",
      "type": "event"
    },
    {
      "anonymous": false,
      "inputs": [
        {
          "indexed": true,
          "internalType": "bytes32",
          "name": "role",
          "type": "bytes32"
        },
        {
          "indexed": true,
          "internalType": "address",
          "name": "account",
          "type": "address"
        },
        {
          "indexed": true,
          "internalType": "address",
          "name": "sender",
          "type": "address"
        }
      ],
      "name": "RoleGranted",
      "type": "event"
    },
    {
      "anonymous": false,
      "inputs": [
        {
          "indexed": true,
          "internalType": "bytes32",
          "name": "role",
          "type": "bytes32"
        },
        {
          "indexed": true,
          "internalType": "address",
          "name": "account",
          "type": "address"
        },
        {
          "indexed": true,
          "internalType": "address",
          "name": "sender",
          "type": "address"
        }
      ],
      "name": "RoleRevoked",
      "type": "event"
    },
    {
      "anonymous": false,
      "inputs": [
        {
          "indexed": true,
          "internalType": "address",
          "name": "account",
          "type": "address"
        },
        {
          "indexed": false,
          "internalType": "uint256",
          "name": "amount",
          "type": "uint256"
        }
      ],
      "name": "TeamLicensesClaimed",
      "type": "event"
    },
    {
      "anonymous": false,
      "inputs": [
        {
          "indexed": false,
          "internalType": "bytes32",
          "name": "merkleRoot",
          "type": "bytes32"
        }
      ],
      "name": "TeamMerkleRootSet",
      "type": "event"
    },
    {
      "anonymous": false,
      "inputs": [
        {
          "indexed": false,
          "internalType": "bool",
          "name": "status",
          "type": "bool"
        }
      ],
      "name": "TeamSaleStatusSet",
      "type": "event"
    },
    {
      "anonymous": false,
      "inputs": [
        {
          "indexed": true,
          "internalType": "uint256",
          "name": "tierId",
          "type": "uint256"
        },
        {
          "indexed": false,
          "internalType": "uint256",
          "name": "price",
          "type": "uint256"
        },
        {
          "indexed": false,
          "internalType": "uint256",
          "name": "individualCap",
          "type": "uint256"
        },
        {
          "indexed": false,
          "internalType": "uint256",
          "name": "totalClaimed",
          "type": "uint256"
        },
        {
          "indexed": false,
          "internalType": "uint256",
          "name": "totalCap",
          "type": "uint256"
        }
      ],
      "name": "TierSet",
      "type": "event"
    },
    {
      "anonymous": false,
      "inputs": [
        {
          "indexed": true,
          "internalType": "uint256",
          "name": "tierId",
          "type": "uint256"
        },
        {
          "indexed": false,
          "internalType": "uint256",
          "name": "price",
          "type": "uint256"
        },
        {
          "indexed": false,
          "internalType": "uint256",
          "name": "individualCap",
          "type": "uint256"
        },
        {
          "indexed": false,
          "internalType": "uint256",
          "name": "totalClaimed",
          "type": "uint256"
        },
        {
          "indexed": false,
          "internalType": "uint256",
          "name": "totalCap",
          "type": "uint256"
        }
      ],
      "name": "WhitelistTierSet",
      "type": "event"
    },
    {
      "inputs": [],
      "name": "ADMIN_ROLE",
      "outputs": [
        {
          "internalType": "bytes32",
          "name": "",
          "type": "bytes32"
        }
      ],
      "stateMutability": "view",
      "type": "function"
    },
    {
      "inputs": [],
      "name": "DEFAULT_ADMIN_ROLE",
      "outputs": [
        {
          "internalType": "bytes32",
          "name": "",
          "type": "bytes32"
        }
      ],
      "stateMutability": "view",
      "type": "function"
    },
    {
      "inputs": [],
      "name": "GUARDIAN_ROLE",
      "outputs": [
        {
          "internalType": "bytes32",
          "name": "",
          "type": "bytes32"
        }
      ],
      "stateMutability": "view",
      "type": "function"
    },
    {
      "inputs": [],
      "name": "MERKLE_MANAGER_ROLE",
      "outputs": [
        {
          "internalType": "bytes32",
          "name": "",
          "type": "bytes32"
        }
      ],
      "stateMutability": "view",
      "type": "function"
    },
    {
      "inputs": [],
      "name": "REFERRAL_MANAGER_ROLE",
      "outputs": [
        {
          "internalType": "bytes32",
          "name": "",
          "type": "bytes32"
        }
      ],
      "stateMutability": "view",
      "type": "function"
    },
    {
      "inputs": [
        {
          "internalType": "uint256",
          "name": "amount",
          "type": "uint256"
        },
        {
          "internalType": "bytes",
          "name": "data",
          "type": "bytes"
        },
        {
          "internalType": "bytes32[]",
          "name": "merkleProof",
          "type": "bytes32[]"
        }
      ],
      "name": "claimLicenseEarlyAccess",
      "outputs": [],
      "stateMutability": "payable",
      "type": "function"
    },
    {
      "inputs": [
        {
          "internalType": "uint256",
          "name": "amount",
          "type": "uint256"
        },
        {
          "internalType": "bytes",
          "name": "data",
          "type": "bytes"
        },
        {
          "internalType": "bytes32[]",
          "name": "merkleProof",
          "type": "bytes32[]"
        }
      ],
      "name": "claimLicenseFriendsFamily",
      "outputs": [],
      "stateMutability": "payable",
      "type": "function"
    },
    {
      "inputs": [
        {
          "internalType": "uint256",
          "name": "amount",
          "type": "uint256"
        },
        {
          "internalType": "uint256",
          "name": "tier",
          "type": "uint256"
        },
        {
          "internalType": "string",
          "name": "partnerCode",
          "type": "string"
        },
        {
          "internalType": "string",
          "name": "referral",
          "type": "string"
        }
      ],
      "name": "claimLicensePartner",
      "outputs": [],
      "stateMutability": "payable",
      "type": "function"
    },
    {
      "inputs": [
        {
          "internalType": "uint256",
          "name": "amount",
          "type": "uint256"
        },
        {
          "internalType": "uint256",
          "name": "tier",
          "type": "uint256"
        },
        {
          "internalType": "string",
          "name": "referral",
          "type": "string"
        }
      ],
      "name": "claimLicensePublic",
      "outputs": [],
      "stateMutability": "payable",
      "type": "function"
    },
    {
      "inputs": [
        {
          "internalType": "uint256",
          "name": "amount",
          "type": "uint256"
        },
        {
          "internalType": "uint256",
          "name": "tier",
          "type": "uint256"
        },
        {
          "internalType": "bytes",
          "name": "data",
          "type": "bytes"
        },
        {
          "internalType": "bytes32[]",
          "name": "merkleProof",
          "type": "bytes32[]"
        }
      ],
      "name": "claimLicensePublicWhitelist",
      "outputs": [],
      "stateMutability": "payable",
      "type": "function"
    },
    {
      "inputs": [
        {
          "internalType": "uint256",
          "name": "amount",
          "type": "uint256"
        },
        {
          "internalType": "bytes",
          "name": "data",
          "type": "bytes"
        },
        {
          "internalType": "bytes32[]",
          "name": "merkleProof",
          "type": "bytes32[]"
        }
      ],
      "name": "claimLicenseTeam",
      "outputs": [],
      "stateMutability": "nonpayable",
      "type": "function"
    },
    {
      "inputs": [
        {
          "internalType": "uint256",
          "name": "",
          "type": "uint256"
        },
        {
          "internalType": "address",
          "name": "",
          "type": "address"
        }
      ],
      "name": "claimsPerTierPerAddress",
      "outputs": [
        {
          "internalType": "uint256",
          "name": "",
          "type": "uint256"
        }
      ],
      "stateMutability": "view",
      "type": "function"
    },
    {
      "inputs": [
        {
          "internalType": "address",
          "name": "",
          "type": "address"
        }
      ],
      "name": "earlyAccessClaimsPerAddress",
      "outputs": [
        {
          "internalType": "uint256",
          "name": "",
          "type": "uint256"
        }
      ],
      "stateMutability": "view",
      "type": "function"
    },
    {
      "inputs": [],
      "name": "earlyAccessMerkleRoot",
      "outputs": [
        {
          "internalType": "bytes32",
          "name": "",
          "type": "bytes32"
        }
      ],
      "stateMutability": "view",
      "type": "function"
    },
    {
      "inputs": [],
      "name": "earlyAccessSaleActive",
      "outputs": [
        {
          "internalType": "bool",
          "name": "",
          "type": "bool"
        }
      ],
      "stateMutability": "view",
      "type": "function"
    },
    {
      "inputs": [
        {
          "internalType": "address",
          "name": "",
          "type": "address"
        }
      ],
      "name": "friendsFamilyClaimsPerAddress",
      "outputs": [
        {
          "internalType": "uint256",
          "name": "",
          "type": "uint256"
        }
      ],
      "stateMutability": "view",
      "type": "function"
    },
    {
      "inputs": [],
      "name": "friendsFamilyMerkleRoot",
      "outputs": [
        {
          "internalType": "bytes32",
          "name": "",
          "type": "bytes32"
        }
      ],
      "stateMutability": "view",
      "type": "function"
    },
    {
      "inputs": [],
      "name": "friendsFamilySaleActive",
      "outputs": [
        {
          "internalType": "bool",
          "name": "",
          "type": "bool"
        }
      ],
      "stateMutability": "view",
      "type": "function"
    },
    {
      "inputs": [
        {
          "internalType": "string",
          "name": "partnerCode",
          "type": "string"
        },
        {
          "internalType": "uint256",
          "name": "id",
          "type": "uint256"
        }
      ],
      "name": "getPartnerTier",
      "outputs": [
        {
          "components": [
            {
              "internalType": "uint256",
              "name": "price",
              "type": "uint256"
            },
            {
              "internalType": "uint256",
              "name": "individualCap",
              "type": "uint256"
            },
            {
              "internalType": "uint256",
              "name": "totalClaimed",
              "type": "uint256"
            },
            {
              "internalType": "uint256",
              "name": "totalCap",
              "type": "uint256"
            }
          ],
          "internalType": "struct IPlayFiLicenseSale.Tier",
          "name": "tier",
          "type": "tuple"
        }
      ],
      "stateMutability": "view",
      "type": "function"
    },
    {
      "inputs": [
        {
          "internalType": "string",
          "name": "id",
          "type": "string"
        }
      ],
      "name": "getReferral",
      "outputs": [
        {
          "components": [
            {
              "internalType": "uint256",
              "name": "totalClaims",
              "type": "uint256"
            },
            {
              "internalType": "address",
              "name": "receiver",
              "type": "address"
            }
          ],
          "internalType": "struct IPlayFiLicenseSale.Referral",
          "name": "referral",
          "type": "tuple"
        }
      ],
      "stateMutability": "view",
      "type": "function"
    },
    {
      "inputs": [
        {
          "internalType": "bytes32",
          "name": "role",
          "type": "bytes32"
        }
      ],
      "name": "getRoleAdmin",
      "outputs": [
        {
          "internalType": "bytes32",
          "name": "",
          "type": "bytes32"
        }
      ],
      "stateMutability": "view",
      "type": "function"
    },
    {
      "inputs": [
        {
          "internalType": "uint256",
          "name": "id",
          "type": "uint256"
        },
        {
          "internalType": "bool",
          "name": "isWhitelist",
          "type": "bool"
        }
      ],
      "name": "getTier",
      "outputs": [
        {
          "components": [
            {
              "internalType": "uint256",
              "name": "price",
              "type": "uint256"
            },
            {
              "internalType": "uint256",
              "name": "individualCap",
              "type": "uint256"
            },
            {
              "internalType": "uint256",
              "name": "totalClaimed",
              "type": "uint256"
            },
            {
              "internalType": "uint256",
              "name": "totalCap",
              "type": "uint256"
            }
          ],
          "internalType": "struct IPlayFiLicenseSale.Tier",
          "name": "tier",
          "type": "tuple"
        }
      ],
      "stateMutability": "view",
      "type": "function"
    },
    {
      "inputs": [
        {
          "internalType": "bytes32",
          "name": "role",
          "type": "bytes32"
        },
        {
          "internalType": "address",
          "name": "account",
          "type": "address"
        }
      ],
      "name": "grantRole",
      "outputs": [],
      "stateMutability": "nonpayable",
      "type": "function"
    },
    {
      "inputs": [
        {
          "internalType": "bytes32",
          "name": "role",
          "type": "bytes32"
        },
        {
          "internalType": "address",
          "name": "account",
          "type": "address"
        }
      ],
      "name": "hasRole",
      "outputs": [
        {
          "internalType": "bool",
          "name": "",
          "type": "bool"
        }
      ],
      "stateMutability": "view",
      "type": "function"
    },
    {
      "inputs": [
        {
          "internalType": "address",
          "name": "admin",
          "type": "address"
        },
        {
          "internalType": "address",
          "name": "guardian",
          "type": "address"
        },
        {
          "internalType": "address",
          "name": "merkleManager",
          "type": "address"
        },
        {
          "internalType": "address",
          "name": "referralManager",
          "type": "address"
        }
      ],
      "name": "initialize",
      "outputs": [],
      "stateMutability": "nonpayable",
      "type": "function"
    },
    {
      "inputs": [
        {
          "internalType": "string",
          "name": "",
          "type": "string"
        },
        {
          "internalType": "address",
          "name": "",
          "type": "address"
        }
      ],
      "name": "partnerClaimsPerAddress",
      "outputs": [
        {
          "internalType": "uint256",
          "name": "",
          "type": "uint256"
        }
      ],
      "stateMutability": "view",
      "type": "function"
    },
    {
      "inputs": [
        {
          "internalType": "string",
          "name": "",
          "type": "string"
        },
        {
          "internalType": "uint256",
          "name": "",
          "type": "uint256"
        },
        {
          "internalType": "address",
          "name": "",
          "type": "address"
        }
      ],
      "name": "partnerClaimsPerTierPerAddress",
      "outputs": [
        {
          "internalType": "uint256",
          "name": "",
          "type": "uint256"
        }
      ],
      "stateMutability": "view",
      "type": "function"
    },
    {
      "inputs": [
        {
          "internalType": "string",
          "name": "",
          "type": "string"
        }
      ],
      "name": "partnerReceiverAddress",
      "outputs": [
        {
          "internalType": "address",
          "name": "",
          "type": "address"
        }
      ],
      "stateMutability": "view",
      "type": "function"
    },
    {
      "inputs": [
        {
          "internalType": "string",
          "name": "",
          "type": "string"
        }
      ],
      "name": "partnerSaleActive",
      "outputs": [
        {
          "internalType": "bool",
          "name": "",
          "type": "bool"
        }
      ],
      "stateMutability": "view",
      "type": "function"
    },
    {
      "inputs": [
        {
          "internalType": "string",
          "name": "",
          "type": "string"
        },
        {
          "internalType": "uint256",
          "name": "",
          "type": "uint256"
        }
      ],
      "name": "partnerTiers",
      "outputs": [
        {
          "internalType": "uint256",
          "name": "price",
          "type": "uint256"
        },
        {
          "internalType": "uint256",
          "name": "individualCap",
          "type": "uint256"
        },
        {
          "internalType": "uint256",
          "name": "totalClaimed",
          "type": "uint256"
        },
        {
          "internalType": "uint256",
          "name": "totalCap",
          "type": "uint256"
        }
      ],
      "stateMutability": "view",
      "type": "function"
    },
    {
      "inputs": [
        {
          "internalType": "uint256",
          "name": "amount",
          "type": "uint256"
        },
        {
          "internalType": "uint256",
          "name": "tier",
          "type": "uint256"
        },
        {
          "internalType": "string",
          "name": "partnerCode",
          "type": "string"
        },
        {
          "internalType": "string",
          "name": "referral",
          "type": "string"
        }
      ],
      "name": "paymentDetailsForPartnerReferral",
      "outputs": [
        {
          "internalType": "uint256",
          "name": "toPay",
          "type": "uint256"
        },
        {
          "internalType": "uint256",
          "name": "commission",
          "type": "uint256"
        },
        {
          "internalType": "uint256",
          "name": "discount",
          "type": "uint256"
        }
      ],
      "stateMutability": "view",
      "type": "function"
    },
    {
      "inputs": [
        {
          "internalType": "uint256",
          "name": "amount",
          "type": "uint256"
        },
        {
          "internalType": "uint256",
          "name": "tier",
          "type": "uint256"
        },
        {
          "internalType": "string",
          "name": "referral",
          "type": "string"
        },
        {
          "internalType": "bool",
          "name": "isWhitelist",
          "type": "bool"
        }
      ],
      "name": "paymentDetailsForReferral",
      "outputs": [
        {
          "internalType": "uint256",
          "name": "toPay",
          "type": "uint256"
        },
        {
          "internalType": "uint256",
          "name": "commission",
          "type": "uint256"
        },
        {
          "internalType": "uint256",
          "name": "discount",
          "type": "uint256"
        }
      ],
      "stateMutability": "view",
      "type": "function"
    },
    {
      "inputs": [
        {
          "internalType": "address",
          "name": "",
          "type": "address"
        }
      ],
      "name": "publicClaimsPerAddress",
      "outputs": [
        {
          "internalType": "uint256",
          "name": "",
          "type": "uint256"
        }
      ],
      "stateMutability": "view",
      "type": "function"
    },
    {
      "inputs": [],
      "name": "publicMerkleRoot",
      "outputs": [
        {
          "internalType": "bytes32",
          "name": "",
          "type": "bytes32"
        }
      ],
      "stateMutability": "view",
      "type": "function"
    },
    {
      "inputs": [],
      "name": "publicSaleActive",
      "outputs": [
        {
          "internalType": "bool",
          "name": "",
          "type": "bool"
        }
      ],
      "stateMutability": "view",
      "type": "function"
    },
    {
      "inputs": [
        {
          "internalType": "address",
          "name": "",
          "type": "address"
        },
        {
          "internalType": "string",
          "name": "",
          "type": "string"
        }
      ],
      "name": "publicWhitelistClaimsPerAddressAndReferral",
      "outputs": [
        {
          "internalType": "uint256",
          "name": "",
          "type": "uint256"
        }
      ],
      "stateMutability": "view",
      "type": "function"
    },
    {
      "inputs": [
        {
          "internalType": "address",
          "name": "",
          "type": "address"
        }
      ],
      "name": "receiverToReferralCode",
      "outputs": [
        {
          "internalType": "string",
          "name": "",
          "type": "string"
        }
      ],
      "stateMutability": "view",
      "type": "function"
    },
    {
      "inputs": [
        {
          "internalType": "string",
          "name": "",
          "type": "string"
        }
      ],
      "name": "referrals",
      "outputs": [
        {
          "internalType": "uint256",
          "name": "totalClaims",
          "type": "uint256"
        },
        {
          "internalType": "address",
          "name": "receiver",
          "type": "address"
        }
      ],
      "stateMutability": "view",
      "type": "function"
    },
    {
      "inputs": [
        {
          "internalType": "bytes32",
          "name": "role",
          "type": "bytes32"
        },
        {
          "internalType": "address",
          "name": "account",
          "type": "address"
        }
      ],
      "name": "renounceRole",
      "outputs": [],
      "stateMutability": "nonpayable",
      "type": "function"
    },
    {
      "inputs": [
        {
          "internalType": "bytes32",
          "name": "role",
          "type": "bytes32"
        },
        {
          "internalType": "address",
          "name": "account",
          "type": "address"
        }
      ],
      "name": "revokeRole",
      "outputs": [],
      "stateMutability": "nonpayable",
      "type": "function"
    },
    {
      "inputs": [
        {
          "internalType": "bytes32",
          "name": "_earlyAccessMerkleRoot",
          "type": "bytes32"
        }
      ],
      "name": "setEarlyAccessMerkleRoot",
      "outputs": [],
      "stateMutability": "nonpayable",
      "type": "function"
    },
    {
      "inputs": [
        {
          "internalType": "bool",
          "name": "status",
          "type": "bool"
        }
      ],
      "name": "setEarlyAccessSale",
      "outputs": [],
      "stateMutability": "nonpayable",
      "type": "function"
    },
    {
      "inputs": [
        {
          "internalType": "bytes32",
          "name": "_friendsFamilyMerkleRoot",
          "type": "bytes32"
        }
      ],
      "name": "setFriendsFamilyMerkleRoot",
      "outputs": [],
      "stateMutability": "nonpayable",
      "type": "function"
    },
    {
      "inputs": [
        {
          "internalType": "bool",
          "name": "status",
          "type": "bool"
        }
      ],
      "name": "setFriendsFamilySale",
      "outputs": [],
      "stateMutability": "nonpayable",
      "type": "function"
    },
    {
      "inputs": [
        {
          "internalType": "string",
          "name": "partnerCode",
          "type": "string"
        },
        {
          "internalType": "address",
          "name": "receiver",
          "type": "address"
        }
      ],
      "name": "setPartnerReceiverAddress",
      "outputs": [],
      "stateMutability": "nonpayable",
      "type": "function"
    },
    {
      "inputs": [
        {
          "internalType": "string",
          "name": "partnerCode",
          "type": "string"
        },
        {
          "internalType": "bool",
          "name": "status",
          "type": "bool"
        }
      ],
      "name": "setPartnerSale",
      "outputs": [],
      "stateMutability": "nonpayable",
      "type": "function"
    },
    {
      "inputs": [
        {
          "internalType": "string[]",
          "name": "partnerCodes",
          "type": "string[]"
        },
        {
          "internalType": "uint256[]",
          "name": "ids",
          "type": "uint256[]"
        },
        {
          "internalType": "uint256[]",
          "name": "prices",
          "type": "uint256[]"
        },
        {
          "internalType": "uint256[]",
          "name": "individualCaps",
          "type": "uint256[]"
        },
        {
          "internalType": "uint256[]",
          "name": "totalCaps",
          "type": "uint256[]"
        }
      ],
      "name": "setPartnerTiers",
      "outputs": [],
      "stateMutability": "nonpayable",
      "type": "function"
    },
    {
      "inputs": [
        {
          "internalType": "bytes32",
          "name": "_publicMerkleRoot",
          "type": "bytes32"
        }
      ],
      "name": "setPublicMerkleRoot",
      "outputs": [],
      "stateMutability": "nonpayable",
      "type": "function"
    },
    {
      "inputs": [
        {
          "internalType": "bool",
          "name": "status",
          "type": "bool"
        }
      ],
      "name": "setPublicSale",
      "outputs": [],
      "stateMutability": "nonpayable",
      "type": "function"
    },
    {
      "inputs": [
        {
          "internalType": "string",
          "name": "code",
          "type": "string"
        }
      ],
      "name": "setReferral",
      "outputs": [],
      "stateMutability": "nonpayable",
      "type": "function"
    },
    {
      "inputs": [
        {
          "internalType": "string",
          "name": "code",
          "type": "string"
        },
        {
          "internalType": "address",
          "name": "receiver",
          "type": "address"
        }
      ],
      "name": "setReferralForReceiver",
      "outputs": [],
      "stateMutability": "nonpayable",
      "type": "function"
    },
    {
      "inputs": [
        {
          "internalType": "bytes32",
          "name": "_teamMerkleRoot",
          "type": "bytes32"
        }
      ],
      "name": "setTeamMerkleRoot",
      "outputs": [],
      "stateMutability": "nonpayable",
      "type": "function"
    },
    {
      "inputs": [
        {
          "internalType": "bool",
          "name": "status",
          "type": "bool"
        }
      ],
      "name": "setTeamSale",
      "outputs": [],
      "stateMutability": "nonpayable",
      "type": "function"
    },
    {
      "inputs": [
        {
          "internalType": "uint256[]",
          "name": "ids",
          "type": "uint256[]"
        },
        {
          "internalType": "uint256[]",
          "name": "prices",
          "type": "uint256[]"
        },
        {
          "internalType": "uint256[]",
          "name": "individualCaps",
          "type": "uint256[]"
        },
        {
          "internalType": "uint256[]",
          "name": "totalCaps",
          "type": "uint256[]"
        }
      ],
      "name": "setTiers",
      "outputs": [],
      "stateMutability": "nonpayable",
      "type": "function"
    },
    {
      "inputs": [
        {
          "internalType": "uint256[]",
          "name": "ids",
          "type": "uint256[]"
        },
        {
          "internalType": "uint256[]",
          "name": "prices",
          "type": "uint256[]"
        },
        {
          "internalType": "uint256[]",
          "name": "individualCaps",
          "type": "uint256[]"
        },
        {
          "internalType": "uint256[]",
          "name": "totalCaps",
          "type": "uint256[]"
        }
      ],
      "name": "setWhitelistTiers",
      "outputs": [],
      "stateMutability": "nonpayable",
      "type": "function"
    },
    {
      "inputs": [
        {
          "internalType": "bytes4",
          "name": "interfaceId",
          "type": "bytes4"
        }
      ],
      "name": "supportsInterface",
      "outputs": [
        {
          "internalType": "bool",
          "name": "",
          "type": "bool"
        }
      ],
      "stateMutability": "view",
      "type": "function"
    },
    {
      "inputs": [
        {
          "internalType": "address",
          "name": "",
          "type": "address"
        }
      ],
      "name": "teamClaimsPerAddress",
      "outputs": [
        {
          "internalType": "uint256",
          "name": "",
          "type": "uint256"
        }
      ],
      "stateMutability": "view",
      "type": "function"
    },
    {
      "inputs": [],
      "name": "teamMerkleRoot",
      "outputs": [
        {
          "internalType": "bytes32",
          "name": "",
          "type": "bytes32"
        }
      ],
      "stateMutability": "view",
      "type": "function"
    },
    {
      "inputs": [],
      "name": "teamSaleActive",
      "outputs": [
        {
          "internalType": "bool",
          "name": "",
          "type": "bool"
        }
      ],
      "stateMutability": "view",
      "type": "function"
    },
    {
      "inputs": [
        {
          "internalType": "uint256",
          "name": "",
          "type": "uint256"
        }
      ],
      "name": "tiers",
      "outputs": [
        {
          "internalType": "uint256",
          "name": "price",
          "type": "uint256"
        },
        {
          "internalType": "uint256",
          "name": "individualCap",
          "type": "uint256"
        },
        {
          "internalType": "uint256",
          "name": "totalClaimed",
          "type": "uint256"
        },
        {
          "internalType": "uint256",
          "name": "totalCap",
          "type": "uint256"
        }
      ],
      "stateMutability": "view",
      "type": "function"
    },
    {
      "inputs": [],
      "name": "totalLicenses",
      "outputs": [
        {
          "internalType": "uint256",
          "name": "",
          "type": "uint256"
        }
      ],
      "stateMutability": "view",
      "type": "function"
    },
    {
      "inputs": [
        {
          "internalType": "uint256",
          "name": "",
          "type": "uint256"
        }
      ],
      "name": "whitelistTiers",
      "outputs": [
        {
          "internalType": "uint256",
          "name": "price",
          "type": "uint256"
        },
        {
          "internalType": "uint256",
          "name": "individualCap",
          "type": "uint256"
        },
        {
          "internalType": "uint256",
          "name": "totalClaimed",
          "type": "uint256"
        },
        {
          "internalType": "uint256",
          "name": "totalCap",
          "type": "uint256"
        }
      ],
      "stateMutability": "view",
      "type": "function"
    },
    {
      "inputs": [],
      "name": "withdrawProceeds",
      "outputs": [],
      "stateMutability": "nonpayable",
      "type": "function"
    }
  ],
  "transactionHash": "0x9f8551df5a130bebf62d80db5d998157aebef1fc4b3acac1b7f3b9155284e8fe",
  "args": [],
  "numDeployments": 1,
  "solcInputHash": "32febad95a51e2b2e1780c21e00acedb",
  "bytecode": "0x60806040523480156200001157600080fd5b506200001c62000022565b620000e3565b600054610100900460ff16156200008f5760405162461bcd60e51b815260206004820152602760248201527f496e697469616c697a61626c653a20636f6e747261637420697320696e697469604482015266616c697a696e6760c81b606482015260840160405180910390fd5b60005460ff90811614620000e1576000805460ff191660ff9081179091556040519081527f7f26b83ff96e1f2b6a682f133852f6798a09c465da95921460cefb38474024989060200160405180910390a15b565b61543380620000f36000396000f3fe6080604052600436106103b85760003560e01c80636d5143d6116101f2578063bbbb28dc1161010d578063d55768dd116100a0578063e633fbf21161006f578063e633fbf214610dbd578063e88e08a814610dd0578063f79eddb814610df0578063f8c8765e14610e1d57600080fd5b8063d55768dd14610d05578063d923780114610d6a578063dc47dced14610d7d578063e4a5665f14610d9d57600080fd5b8063cb75f4b2116100dc578063cb75f4b214610c8b578063cd98d26114610cab578063d3d704cf14610cc5578063d547741f14610ce557600080fd5b8063bbbb28dc14610c0a578063bc8893b414610c2a578063bff7094f14610c4b578063ca59103614610c6b57600080fd5b80639d1d9aa611610185578063a6f04c3011610154578063a6f04c3014610b24578063a749df4b14610b44578063b21a687714610b88578063b5e132f014610bbc57600080fd5b80639d1d9aa614610aa5578063a217fddf14610abb578063a49ef9ef14610ad0578063a4ced6cd14610b0457600080fd5b80638aea3710116101c15780638aea3710146109f05780639038e69314610a1d57806391d1485414610a325780639340b78b14610a7857600080fd5b80636d5143d6146109335780636ec14ac41461097c57806375b238fc1461099c57806383b0287f146109d057600080fd5b80633533b8e0116102e25780635163d92f116102755780635fd5606e116102445780635fd5606e14610863578063605a25c814610883578063653c95a6146108bb578063665eecf11461091457600080fd5b80635163d92f146107ce57806355366621146107e15780635822b9d7146108015780635aca1bb61461084357600080fd5b80634a0b6cf9116102b15780634a0b6cf91461072b5780634ba0fcee146107885780634dd16dba146107a857806350cd60fc146107bb57600080fd5b80633533b8e01461069a57806336568abe146106b0578063386de5ac146106d05780634458034a1461070b57600080fd5b8063118c04a41161035a578063248a9ca311610329578063248a9ca31461060057806324ea54f41461063057806329140819146106645780632f2ff15d1461067a57600080fd5b8063118c04a41461054a5780631462358514610577578063187e3324146105ca5780631b8c0268146105e057600080fd5b80630492cb71116103965780630492cb711461048f57806305d17876146104b15780630a2b2252146105075780630e80a2871461053457600080fd5b806301ffc9a7146103bd578063039af9eb146103f2578063041cb72814610454575b600080fd5b3480156103c957600080fd5b506103dd6103d836600461455d565b610e3d565b60405190151581526020015b60405180910390f35b3480156103fe57600080fd5b5061043461040d36600461459f565b60a36020526000908152604090208054600182015460028301546003909301549192909184565b6040805194855260208501939093529183015260608201526080016103e9565b34801561046057600080fd5b506103dd61046f366004614674565b805160208183018101805160aa8252928201919093012091525460ff1681565b34801561049b57600080fd5b506104af6104aa366004614674565b610ed6565b005b3480156104bd57600080fd5b506104f96104cc3660046146cd565b815160208184018101805160a0825292820194820194909420919093529091526000908152604090205481565b6040519081526020016103e9565b34801561051357600080fd5b5061052761052236600461471b565b610ee3565b6040516103e99190614786565b34801561054057600080fd5b506104f9609c5481565b34801561055657600080fd5b506104f961056536600461471b565b609d6020526000908152604090205481565b34801561058357600080fd5b506105976105923660046147e2565b610f7d565b6040516103e991908151815260208083015190820152604080830151908201526060918201519181019190915260800190565b3480156105d657600080fd5b506104f960985481565b3480156105ec57600080fd5b506104af6105fb36600461483e565b611005565b34801561060c57600080fd5b506104f961061b36600461459f565b60009081526065602052604090206001015490565b34801561063c57600080fd5b506104f97f8b5b16d04624687fcf0d0228f19993c9157c1ed07b41d8d430fd9100eb099fe881565b34801561067057600080fd5b506104f960975481565b34801561068657600080fd5b506104af610695366004614883565b6110c1565b3480156106a657600080fd5b506104f960995481565b3480156106bc57600080fd5b506104af6106cb366004614883565b6110eb565b3480156106dc57600080fd5b506106f06106eb3660046148a6565b611196565b604080519384526020840192909252908201526060016103e9565b34801561071757600080fd5b506104af61072636600461491d565b611371565b34801561073757600080fd5b50610434610746366004614938565b815160208184018101805160a5825292820194820194909420919093529091526000908152604090208054600182015460028301546003909301549192909184565b34801561079457600080fd5b506104af6107a336600461491d565b611431565b6104af6107b63660046148a6565b6114e7565b6104af6107c93660046149c2565b611a68565b6104af6107dc3660046149c2565b611cde565b3480156107ed57600080fd5b506104af6107fc366004614a3c565b611f45565b34801561080d57600080fd5b5061043461081c36600461459f565b60a46020526000908152604090208054600182015460028301546003909301549192909184565b34801561084f57600080fd5b506104af61085e36600461491d565b612247565b34801561086f57600080fd5b506104af61087e3660046146cd565b6122fe565b34801561088f57600080fd5b506104f961089e366004614883565b60a860209081526000928352604080842090915290825290205481565b3480156108c757600080fd5b506108fc6108d6366004614674565b805160208183018101805160ab825292820191909301209152546001600160a01b031681565b6040516001600160a01b0390911681526020016103e9565b34801561092057600080fd5b50609b546103dd90610100900460ff1681565b34801561093f57600080fd5b506104f961094e366004614b2d565b60a2602090815260009283526040909220815180830184018051928152908401929093019190912091525481565b34801561098857600080fd5b506104af6109973660046149c2565b6123d5565b3480156109a857600080fd5b506104f97fdf8b4c520ffe197c5343c6f5aec59570151ef9a492f2c624fd45ddde6135ec4281565b3480156109dc57600080fd5b50609b546103dd9062010000900460ff1681565b3480156109fc57600080fd5b506104f9610a0b36600461471b565b609f6020526000908152604090205481565b348015610a2957600080fd5b506104af6125c9565b348015610a3e57600080fd5b506103dd610a4d366004614883565b60009182526065602090815260408084206001600160a01b0393909316845291905290205460ff1690565b348015610a8457600080fd5b506104f9610a9336600461471b565b60a16020526000908152604090205481565b348015610ab157600080fd5b506104f9609a5481565b348015610ac757600080fd5b506104f9600081565b348015610adc57600080fd5b506104f97ffd2994b76294f3a7e0e5e4e40e73799b954c33f4bff642b5e760fef0d694a92481565b348015610b1057600080fd5b506104af610b1f3660046146cd565b6126d5565b348015610b3057600080fd5b506104af610b3f366004614b7b565b61272e565b348015610b5057600080fd5b50610b64610b5f366004614674565b612989565b60408051825181526020928301516001600160a01b031692810192909252016103e9565b348015610b9457600080fd5b506104f97fceb656422d2e5768b364a6526533f6832c483c8cfbd416512fbbd6fa6413f96a81565b348015610bc857600080fd5b506104f9610bd7366004614c3f565b825160208185018101805160a9825292820195820195909520919094528352600091825260408083209093528152205481565b348015610c1657600080fd5b506104af610c25366004614b7b565b6129e2565b348015610c3657600080fd5b50609b546103dd906301000000900460ff1681565b348015610c5757600080fd5b506104af610c6636600461459f565b612c32565b348015610c7757600080fd5b506104af610c8636600461491d565b612cb6565b348015610c9757600080fd5b50610597610ca6366004614c96565b612d46565b348015610cb757600080fd5b50609b546103dd9060ff1681565b348015610cd157600080fd5b506104af610ce036600461459f565b612e0a565b348015610cf157600080fd5b506104af610d00366004614883565b612e8e565b348015610d1157600080fd5b50610d4d610d20366004614674565b805160208183018101805160a682529282019190930120915280546001909101546001600160a01b031682565b604080519283526001600160a01b039091166020830152016103e9565b6104af610d78366004614cb9565b612eb3565b348015610d8957600080fd5b506104af610d9836600461459f565b613206565b348015610da957600080fd5b506104af610db836600461459f565b61328a565b6104af610dcb366004614d09565b61330e565b348015610ddc57600080fd5b506106f0610deb366004614d8c565b61375a565b348015610dfc57600080fd5b506104f9610e0b36600461471b565b609e6020526000908152604090205481565b348015610e2957600080fd5b506104af610e38366004614ded565b613801565b60007fffffffff0000000000000000000000000000000000000000000000000000000082167f7965db0b000000000000000000000000000000000000000000000000000000001480610ed057507f01ffc9a7000000000000000000000000000000000000000000000000000000007fffffffff000000000000000000000000000000000000000000000000000000008316145b92915050565b610ee08133613ca8565b50565b60a76020526000908152604090208054610efc90614e36565b80601f0160208091040260200160405190810160405280929190818152602001828054610f2890614e36565b8015610f755780601f10610f4a57610100808354040283529160200191610f75565b820191906000526020600020905b815481529060010190602001808311610f5857829003601f168201915b505050505081565b610fa86040518060800160405280600081526020016000815260200160008152602001600081525090565b60a58484604051610fba929190614e89565b90815260408051602092819003830181206000958652835293819020608085018252805485526001810154928501929092526002820154908401526003015460608301525092915050565b3360009081527f3a5f6b5b20ab0e425b1c7c9823b9866065cea388466bf7d4f12b2ad1dfbaf604602052604090205460ff1661105457604051634ca8886760e01b815260040160405180910390fd5b8060aa836040516110659190614e99565b908152604051908190036020018120805492151560ff19909316929092179091557f81a0ab3096d0711caafd488b7a6d925320dbb9e6ae99f862b35ec7323af98265906110b59083908590614eb5565b60405180910390a15050565b6000828152606560205260409020600101546110dc81613fc1565b6110e68383613fcb565b505050565b6001600160a01b0381163314611188576040517f08c379a000000000000000000000000000000000000000000000000000000000815260206004820152602f60248201527f416363657373436f6e74726f6c3a2063616e206f6e6c792072656e6f756e636560448201527f20726f6c657320666f722073656c66000000000000000000000000000000000060648201526084015b60405180910390fd5b611192828261406d565b5050565b60008060008060a5866040516111ac9190614e99565b908152604080516020928190038301902060008a8152925281205491506111d38983614eff565b905060006001600160a01b031660ab886040516111f09190614e99565b908152604051908190036020019020546001600160a01b03161461122c57606461121b82600a614eff565b6112259190614f16565b9350611359565b60006001600160a01b031660a6876040516112479190614e99565b908152604051908190036020019020600101546001600160a01b03161461135957606461127582600a614eff565b61127f9190614f16565b9250600060a6876040516112939190614e99565b90815260405190819003602001902054905060198110156112cc5760646112bb83600a614eff565b6112c59190614f16565b9450611357565b60328110156112e3576103e86112bb83607d614eff565b604b8110156112f95760646112bb83600f614eff565b6064811015611310576103e86112bb8360af614eff565b60968110156113265760646112bb836014614eff565b60c881101561133d576103e86112bb8360e1614eff565b606461134a836019614eff565b6113549190614f16565b94505b505b6113638382614f51565b945050509450945094915050565b3360009081527f3a5f6b5b20ab0e425b1c7c9823b9866065cea388466bf7d4f12b2ad1dfbaf604602052604090205460ff166113c057604051634ca8886760e01b815260040160405180910390fd5b609b8054821515610100027fffffffffffffffffffffffffffffffffffffffffffffffffffffffffffff00ff9091161790556040517f9f5cf153333ec6c3f336a73d8dd75b350a36948f61b0b13ae43af5b5c144a6f59061142690831515815260200190565b60405180910390a150565b3360009081527f3a5f6b5b20ab0e425b1c7c9823b9866065cea388466bf7d4f12b2ad1dfbaf604602052604090205460ff1661148057604051634ca8886760e01b815260040160405180910390fd5b609b805482151562010000027fffffffffffffffffffffffffffffffffffffffffffffffffffffffffff00ffff9091161790556040517f643f3a44207851ae16a2c404fa7307be53087b3a8e378e0c908e592c64f506699061142690831515815260200190565b60aa826040516114f79190614e99565b9081526040519081900360200190205460ff16611540576040517fb4eb177f00000000000000000000000000000000000000000000000000000000815260040160405180910390fd5b60a5826040516115509190614e99565b90815260408051918290036020908101832060008781529152206003015490859060a59061157f908690614e99565b90815260200160405180910390206000868152602001908152602001600020600201546115ac9190614f64565b11156115e4576040517f98a3f79100000000000000000000000000000000000000000000000000000000815260040160405180910390fd5b60a5826040516115f49190614e99565b90815260408051918290036020908101832060008781529152206001015490859060a990611623908690614e99565b908152604080516020928190038301902060008881529083528181203382529092529020546116529190614f64565b111561168a576040517fbbd4c2bd00000000000000000000000000000000000000000000000000000000815260040160405180910390fd5b60008061169986868686611196565b5091509150813410156116d8576040517fcd1c886700000000000000000000000000000000000000000000000000000000815260040160405180910390fd5b60006001600160a01b031660ab856040516116f39190614e99565b908152604051908190036020019020546001600160a01b03161461182a57801561182557600060ab856040516117299190614e99565b908152604051908190036020018120546001600160a01b031690839060006040518083038185875af1925050503d8060008114611782576040519150601f19603f3d011682016040523d82523d6000602084013e611787565b606091505b50509050806117c2576040517f1ac89c8000000000000000000000000000000000000000000000000000000000815260040160405180910390fd5b60ab856040516117d29190614e99565b908152604051908190036020018120546001600160a01b0316907f32f584d0754f9710dea21e509acf4c6b5885c93f3cf96f1ed74256887485d1309061181b9088908690614f77565b60405180910390a2505b61197b565b801561194457600060a6846040516118429190614e99565b908152604051908190036020018120600101546001600160a01b031690839060006040518083038185875af1925050503d806000811461189e576040519150601f19603f3d011682016040523d82523d6000602084013e6118a3565b606091505b50509050806118de576040517f1ac89c8000000000000000000000000000000000000000000000000000000000815260040160405180910390fd5b60a6846040516118ee9190614e99565b908152604051908190036020018120600101546001600160a01b0316907f32f584d0754f9710dea21e509acf4c6b5885c93f3cf96f1ed74256887485d1309061193a9087908690614f77565b60405180910390a2505b8560a6846040516119559190614e99565b908152602001604051809103902060000160008282546119759190614f64565b90915550505b8560a58560405161198c9190614e99565b9081526020016040518091039020600087815260200190815260200160002060020160008282546119bd9190614f64565b925050819055508560a0856040516119d59190614e99565b9081526040805160209281900383019020336000908152925281208054909190611a00908490614f64565b9250508190555085609c6000828254611a199190614f64565b9091555050604051859033907fa85906c3100968a0ea21181f8a4c6d299823828a0573f27a6c17a68c1af4a4ec90611a58908a9087908a908a90614f99565b60405180910390a3505050505050565b609b54610100900460ff16611aa9576040517f7856fae200000000000000000000000000000000000000000000000000000000815260040160405180910390fd5b600080611ab885870187614fd5565b336000908152609e6020526040902054919350915081611ad8828a614f64565b1115611b10576040517f7a399cc900000000000000000000000000000000000000000000000000000000815260040160405180910390fd5b60408051602081018590527fffffffffffffffffffffffffffffffffffffffff0000000000000000000000003360601b169181019190915260548101839052600090607401604051602081830303815290604052805190602001209050611bae8686808060200260200160405190810160405280939291908181526020018383602002808284376000920191909152505060985491508490506140f0565b611be4576040517f09bde33900000000000000000000000000000000000000000000000000000000815260040160405180910390fd5b6001600090815260a36020527fc3869149e653ab70ab3abed8edc49ed99ccd0c8cf7ca81486b7adbd034773b1054611c1d908b90614eff565b905080341015611c59576040517fcd1c886700000000000000000000000000000000000000000000000000000000815260040160405180910390fd5b336000908152609e6020526040812080548c9290611c78908490614f64565b9250508190555089609c6000828254611c919190614f64565b909155505060408051828152602081018c905233917f09f1b238e0c956383f51f6a0a249784a40ca5b7a87c8b151a727016be60cccd591015b60405180910390a250505050505050505050565b609b5462010000900460ff16611d20576040517f724187c200000000000000000000000000000000000000000000000000000000815260040160405180910390fd5b600080611d2f85870187614fd5565b336000908152609f6020526040902054919350915081611d4f828a614f64565b1115611d87576040517f7a399cc900000000000000000000000000000000000000000000000000000000815260040160405180910390fd5b60408051602081018590527fffffffffffffffffffffffffffffffffffffffff0000000000000000000000003360601b169181019190915260548101839052600090607401604051602081830303815290604052805190602001209050611e258686808060200260200160405190810160405280939291908181526020018383602002808284376000920191909152505060995491508490506140f0565b611e5b576040517f09bde33900000000000000000000000000000000000000000000000000000000815260040160405180910390fd5b6001600090815260a36020527fc3869149e653ab70ab3abed8edc49ed99ccd0c8cf7ca81486b7adbd034773b1054611e94908b90614eff565b905080341015611ed0576040517fcd1c886700000000000000000000000000000000000000000000000000000000815260040160405180910390fd5b336000908152609f6020526040812080548c9290611eef908490614f64565b9250508190555089609c6000828254611f089190614f64565b909155505060408051828152602081018c905233917f7d6d20e50ff90d3c35b2d0182ab7dd6825df9759011eb6ae1499640a2c2b2eeb9101611cca565b3360009081527f9de19bebcfec5fefaa13a42edbcc11cb6ff633bb0eb0a7f29bcb2311657057e0602052604090205460ff16611f9457604051634ca8886760e01b815260040160405180910390fd5b8887141580611fa35750868514155b80611fae5750848314155b80611fb95750828114155b15611ff0576040517f8d7b788500000000000000000000000000000000000000000000000000000000815260040160405180910390fd5b60005b8781101561223a57600060a58c8c8481811061201157612011614ff7565b90506020028101906120239190615026565b604051612031929190614e89565b908152602001604051809103902060008b8b8581811061205357612053614ff7565b905060200201358152602001908152602001600020600201549050604051806080016040528089898581811061208b5761208b614ff7565b9050602002013581526020018787858181106120a9576120a9614ff7565b9050602002013581526020018281526020018585858181106120cd576120cd614ff7565b9050602002013581525060a58d8d858181106120eb576120eb614ff7565b90506020028101906120fd9190615026565b60405161210b929190614e89565b908152602001604051809103902060008c8c8681811061212d5761212d614ff7565b9050602002013581526020019081526020016000206000820151816000015560208201518160010155604082015181600201556060820151816003015590505089898381811061217f5761217f614ff7565b905060200201357fb594049245992a738d373cbadb4c71bff13c5415bb08132a24528b25700adc8f8d8d858181106121b9576121b9614ff7565b90506020028101906121cb9190615026565b8b8b878181106121dd576121dd614ff7565b905060200201358a8a888181106121f6576121f6614ff7565b90506020020135868a8a8a81811061221057612210614ff7565b905060200201356040516122299695949392919061508b565b60405180910390a250600101611ff3565b5050505050505050505050565b3360009081527f3a5f6b5b20ab0e425b1c7c9823b9866065cea388466bf7d4f12b2ad1dfbaf604602052604090205460ff1661229657604051634ca8886760e01b815260040160405180910390fd5b609b80548215156301000000027fffffffffffffffffffffffffffffffffffffffffffffffffffffffff00ffffff9091161790556040517f3b7b44afae3b983507896693d669f6119d5ab003ec1ab51123108429bd5d46d79061142690831515815260200190565b3360009081527f93597da006e5eb572f6ec69e1ccdaa385853d6a136697cd54f88b4acaace9499602052604090205460ff1661234d57604051634ca8886760e01b815260040160405180910390fd5b8060ab8360405161235e9190614e99565b90815260405190819003602001812080546001600160a01b03939093167fffffffffffffffffffffffff0000000000000000000000000000000000000000909316929092179091557fde9abf233be44afb6ffb075220f982d58534ace6cb7770013f265ae1acd52d2b906110b590849084906150d9565b609b5460ff16612411576040517f27dc08c400000000000000000000000000000000000000000000000000000000815260040160405180910390fd5b60008061242085870187614fd5565b336000908152609d6020526040902054919350915081612440828a614f64565b1115612478576040517f7a399cc900000000000000000000000000000000000000000000000000000000815260040160405180910390fd5b60408051602081018590527fffffffffffffffffffffffffffffffffffffffff0000000000000000000000003360601b1691810191909152605481018390526000906074016040516020818303038152906040528051906020012090506125168686808060200260200160405190810160405280939291908181526020018383602002808284376000920191909152505060975491508490506140f0565b61254c576040517f09bde33900000000000000000000000000000000000000000000000000000000815260040160405180910390fd5b336000908152609d6020526040812080548b929061256b908490614f64565b9250508190555088609c60008282546125849190614f64565b909155505060405189815233907fdcf2314e0115a42fe2b3fcfb533c03e95dc48bc7769a9c2b61a14883c0b449e09060200160405180910390a2505050505050505050565b3360009081527f9de19bebcfec5fefaa13a42edbcc11cb6ff633bb0eb0a7f29bcb2311657057e0602052604090205460ff1661261857604051634ca8886760e01b815260040160405180910390fd5b6040514790600090339083908381818185875af1925050503d806000811461265c576040519150601f19603f3d011682016040523d82523d6000602084013e612661565b606091505b505090508061269c576040517f27fcd9d100000000000000000000000000000000000000000000000000000000815260040160405180910390fd5b60405182815233907f0f2fb75cc1977a496e94837f859e957f68e26e70dc1b75d9945ee92ae57969ba9060200160405180910390a25050565b3360009081527f93597da006e5eb572f6ec69e1ccdaa385853d6a136697cd54f88b4acaace9499602052604090205460ff1661272457604051634ca8886760e01b815260040160405180910390fd5b6111928282613ca8565b3360009081527f9de19bebcfec5fefaa13a42edbcc11cb6ff633bb0eb0a7f29bcb2311657057e0602052604090205460ff1661277d57604051634ca8886760e01b815260040160405180910390fd5b868514158061278c5750848314155b806127975750828114155b156127ce576040517f8d7b788500000000000000000000000000000000000000000000000000000000815260040160405180910390fd5b60005b8781101561297e57600060a360008b8b858181106127f1576127f1614ff7565b905060200201358152602001908152602001600020600201549050604051806080016040528089898581811061282957612829614ff7565b90506020020135815260200187878581811061284757612847614ff7565b90506020020135815260200182815260200185858581811061286b5761286b614ff7565b9050602002013581525060a360008c8c8681811061288b5761288b614ff7565b905060200201358152602001908152602001600020600082015181600001556020820151816001015560408201518160020155606082015181600301559050508989838181106128dd576128dd614ff7565b905060200201357fefd55558319646aa70e53c48ba0480d26d9fdce9d6399432fac9356ee254944c89898581811061291757612917614ff7565b9050602002013588888681811061293057612930614ff7565b905060200201358488888881811061294a5761294a614ff7565b604080519687526020878101969096528601939093525091020135606082015260800160405180910390a2506001016127d1565b505050505050505050565b604080518082019091526000808252602082015260a6826040516129ad9190614e99565b908152604080519182900360209081018320838301909252815483526001909101546001600160a01b03169082015292915050565b3360009081527f9de19bebcfec5fefaa13a42edbcc11cb6ff633bb0eb0a7f29bcb2311657057e0602052604090205460ff16612a3157604051634ca8886760e01b815260040160405180910390fd5b8685141580612a405750848314155b80612a4b5750828114155b15612a82576040517f8d7b788500000000000000000000000000000000000000000000000000000000815260040160405180910390fd5b60005b8781101561297e57600060a460008b8b85818110612aa557612aa5614ff7565b9050602002013581526020019081526020016000206002015490506040518060800160405280898985818110612add57612add614ff7565b905060200201358152602001878785818110612afb57612afb614ff7565b905060200201358152602001828152602001858585818110612b1f57612b1f614ff7565b9050602002013581525060a460008c8c86818110612b3f57612b3f614ff7565b90506020020135815260200190815260200160002060008201518160000155602082015181600101556040820151816002015560608201518160030155905050898983818110612b9157612b91614ff7565b905060200201357fc9dc860a4ebff48880e12d6561e76353bec03d096d8339da1a00c77b2e672ccb898985818110612bcb57612bcb614ff7565b90506020020135888886818110612be457612be4614ff7565b9050602002013584888888818110612bfe57612bfe614ff7565b604080519687526020878101969096528601939093525091020135606082015260800160405180910390a250600101612a85565b3360009081527f0f8f48858e118d2eab32cf95c88221b6c0a0d6e1fed7aef78e355435fa71bc6f602052604090205460ff16612c8157604051634ca8886760e01b815260040160405180910390fd5b609a8190556040518181527f1113c739a7b79ad7fe9572522e32b648f09eb5b1c329efd91dcb309da05541fb90602001611426565b3360009081527f3a5f6b5b20ab0e425b1c7c9823b9866065cea388466bf7d4f12b2ad1dfbaf604602052604090205460ff16612d0557604051634ca8886760e01b815260040160405180910390fd5b609b805460ff19168215159081179091556040519081527fadafd3bec1c754707cbddc626a6214c879cecc475375ff8f5a1dbc329939869390602001611426565b612d716040518060800160405280600081526020016000815260200160008152602001600081525090565b8115612dc45760a360008481526020019081526020016000206040518060800160405290816000820154815260200160018201548152602001600282015481526020016003820154815250509050610ed0565b5050600090815260a46020908152604091829020825160808101845281548152600182015492810192909252600281015492820192909252600390910154606082015290565b3360009081527f0f8f48858e118d2eab32cf95c88221b6c0a0d6e1fed7aef78e355435fa71bc6f602052604090205460ff16612e5957604051634ca8886760e01b815260040160405180910390fd5b60998190556040518181527fed5a3c80523111a140a98ec8643e5fb5ac073fe6b8528163c00123af11e4b31a90602001611426565b600082815260656020526040902060010154612ea981613fc1565b6110e6838361406d565b609b546301000000900460ff16612ef6576040517fc7d08f0400000000000000000000000000000000000000000000000000000000815260040160405180910390fd5b600082815260a3602052604090206003810154600290910154612f1a908590614f64565b1115612f52576040517f98a3f79100000000000000000000000000000000000000000000000000000000815260040160405180910390fd5b600082815260a3602090815260408083206001015460a8835281842033855290925290912054612f83908590614f64565b1115612fbb576040517fbbd4c2bd00000000000000000000000000000000000000000000000000000000815260040160405180910390fd5b600080612fcb858585600061375a565b50915091508134101561300a576040517fcd1c886700000000000000000000000000000000000000000000000000000000815260040160405180910390fd5b801561312457600060a6846040516130229190614e99565b908152604051908190036020018120600101546001600160a01b031690839060006040518083038185875af1925050503d806000811461307e576040519150601f19603f3d011682016040523d82523d6000602084013e613083565b606091505b50509050806130be576040517f1ac89c8000000000000000000000000000000000000000000000000000000000815260040160405180910390fd5b60a6846040516130ce9190614e99565b908152604051908190036020018120600101546001600160a01b0316907f32f584d0754f9710dea21e509acf4c6b5885c93f3cf96f1ed74256887485d1309061311a9087908690614f77565b60405180910390a2505b600084815260a3602052604081206002018054879290613145908490614f64565b909155505033600090815260a1602052604081208054879290613169908490614f64565b9250508190555084609c60008282546131829190614f64565b925050819055508460a68460405161319a9190614e99565b908152602001604051809103902060000160008282546131ba9190614f64565b9091555050604051849033907f667f777d5c0d93b002117ea7ffc49143b4c2180cb35b02848c4ab62631a0cd25906131f790899087908990615104565b60405180910390a35050505050565b3360009081527f0f8f48858e118d2eab32cf95c88221b6c0a0d6e1fed7aef78e355435fa71bc6f602052604090205460ff1661325557604051634ca8886760e01b815260040160405180910390fd5b60978190556040518181527f9811c75983304a889ec0cb24de6cb2a102ceef14040efeca89e8361047af9daf90602001611426565b3360009081527f0f8f48858e118d2eab32cf95c88221b6c0a0d6e1fed7aef78e355435fa71bc6f602052604090205460ff166132d957604051634ca8886760e01b815260040160405180910390fd5b60988190556040518181527fa9def886987ec775de3f208d9045235d630a49852d8da931fa98c53e9c4a799590602001611426565b609b546301000000900460ff16613351576040517fc7d08f0400000000000000000000000000000000000000000000000000000000815260040160405180910390fd5b6000808061336186880188614cb9565b60008b815260a460205260409020600381015460029091015493965091945092509061338e908b90614f64565b11156133c6576040517f98a3f79100000000000000000000000000000000000000000000000000000000815260040160405180910390fd5b33600090815260a2602052604080822090516133e3908490614e99565b90815260405190819003602001902054905082613400828c614f64565b1115613438576040517f7a399cc900000000000000000000000000000000000000000000000000000000815260040160405180910390fd5b600084338585604051602001613451949392919061512c565b6040516020818303038152906040528051906020012090506134aa87878080602002602001604051908101604052809392919081815260200183836020028082843760009201919091525050609a5491508490506140f0565b6134e0576040517f09bde33900000000000000000000000000000000000000000000000000000000815260040160405180910390fd5b506000806134f18c8c86600161375a565b509150915081341015613530576040517fcd1c886700000000000000000000000000000000000000000000000000000000815260040160405180910390fd5b801561364a57600060a6856040516135489190614e99565b908152604051908190036020018120600101546001600160a01b031690839060006040518083038185875af1925050503d80600081146135a4576040519150601f19603f3d011682016040523d82523d6000602084013e6135a9565b606091505b50509050806135e4576040517f1ac89c8000000000000000000000000000000000000000000000000000000000815260040160405180910390fd5b60a6856040516135f49190614e99565b908152604051908190036020018120600101546001600160a01b0316907f32f584d0754f9710dea21e509acf4c6b5885c93f3cf96f1ed74256887485d130906136409088908690614f77565b60405180910390a2505b60008b815260a46020526040812060020180548e929061366b908490614f64565b909155505033600090815260a260205260409081902090518d9190613691908790614e99565b908152602001604051809103902060008282546136ae9190614f64565b925050819055508b609c60008282546136c79190614f64565b925050819055508b60a6856040516136df9190614e99565b908152602001604051809103902060000160008282546136ff9190614f64565b925050819055508a336001600160a01b03167fc72e71a3feffde96ea8e1ea0580c51515589e1191e54ae4152c6446d43770b8c8e858860405161374493929190615104565b60405180910390a3505050505050505050505050565b600080600080841561377b5750600086815260a4602052604090205461378c565b50600086815260a360205260409020545b60006137988983614eff565b905060006001600160a01b031660a6886040516137b59190614e99565b908152604051908190036020019020600101546001600160a01b0316146113595760646137e382600a614eff565b6137ed9190614f16565b9250600060a6886040516112939190614e99565b600054610100900460ff16158080156138215750600054600160ff909116105b8061383b5750303b15801561383b575060005460ff166001145b6138c7576040517f08c379a000000000000000000000000000000000000000000000000000000000815260206004820152602e60248201527f496e697469616c697a61626c653a20636f6e747261637420697320616c72656160448201527f647920696e697469616c697a6564000000000000000000000000000000000000606482015260840161117f565b6000805460ff19166001179055801561390757600080547fffffffffffffffffffffffffffffffffffffffffffffffffffffffffffff00ff166101001790555b61390f614106565b6001600160a01b03851661395a576040517f8e4c8aa60000000000000000000000000000000000000000000000000000000081526001600160a01b038616600482015260240161117f565b6001600160a01b0384166139a5576040517f8e4c8aa60000000000000000000000000000000000000000000000000000000081526001600160a01b038516600482015260240161117f565b6001600160a01b0383166139f0576040517f8e4c8aa60000000000000000000000000000000000000000000000000000000081526001600160a01b038416600482015260240161117f565b6001600160a01b038216613a3b576040517f8e4c8aa60000000000000000000000000000000000000000000000000000000081526001600160a01b038316600482015260240161117f565b613a657fdf8b4c520ffe197c5343c6f5aec59570151ef9a492f2c624fd45ddde6135ec4286613fcb565b613a8f7fdf8b4c520ffe197c5343c6f5aec59570151ef9a492f2c624fd45ddde6135ec428061419f565b613ab97f8b5b16d04624687fcf0d0228f19993c9157c1ed07b41d8d430fd9100eb099fe885613fcb565b613ae37f8b5b16d04624687fcf0d0228f19993c9157c1ed07b41d8d430fd9100eb099fe886613fcb565b613b2d7f8b5b16d04624687fcf0d0228f19993c9157c1ed07b41d8d430fd9100eb099fe87fdf8b4c520ffe197c5343c6f5aec59570151ef9a492f2c624fd45ddde6135ec4261419f565b613b577ffd2994b76294f3a7e0e5e4e40e73799b954c33f4bff642b5e760fef0d694a92484613fcb565b613ba17ffd2994b76294f3a7e0e5e4e40e73799b954c33f4bff642b5e760fef0d694a9247fdf8b4c520ffe197c5343c6f5aec59570151ef9a492f2c624fd45ddde6135ec4261419f565b613bcb7fceb656422d2e5768b364a6526533f6832c483c8cfbd416512fbbd6fa6413f96a83613fcb565b613c157fceb656422d2e5768b364a6526533f6832c483c8cfbd416512fbbd6fa6413f96a7fdf8b4c520ffe197c5343c6f5aec59570151ef9a492f2c624fd45ddde6135ec4261419f565b6040517f9f4eefba9f06bdd612ec93892ddb6d0bf72365e3835c1159ce2f0b9f172bfcbd90600090a18015613ca157600080547fffffffffffffffffffffffffffffffffffffffffffffffffffffffffffff00ff169055604051600181527f7f26b83ff96e1f2b6a682f133852f6798a09c465da95921460cefb38474024989060200160405180910390a15b5050505050565b60006001600160a01b031660a683604051613cc39190614e99565b908152604051908190036020019020600101546001600160a01b031614613d16576040517fe55eccb400000000000000000000000000000000000000000000000000000000815260040160405180910390fd5b604080516020808201909252600090528251908301207fc5d2460186f7233c927e7db2dcc703c0e500b653ca82273b7bfad8045d85a47003613d84576040517f6606a46200000000000000000000000000000000000000000000000000000000815260040160405180910390fd5b6001600160a01b038116600090815260a7602052604081208054613da790614e36565b80601f0160208091040260200160405190810160405280929190818152602001828054613dd390614e36565b8015613e205780601f10613df557610100808354040283529160200191613e20565b820191906000526020600020905b815481529060010190602001808311613e0357829003601f168201915b505050505090506000613e4b60405180602001604052806000815250836141ea90919063ffffffff16565b613eee576001600160a01b038316600090815260a7602052604090819020905160a691613e7791615185565b908152604080519182900360209081018320546001600160a01b038716600090815260a790925291902090925060a691613eb19190615185565b9081526040519081900360200190206000815560010180547fffffffffffffffffffffffff00000000000000000000000000000000000000001690555b8260a685604051613eff9190614e99565b908152602001604051809103902060010160006101000a8154816001600160a01b0302191690836001600160a01b031602179055508060a685604051613f459190614e99565b9081526040805160209281900383019020929092556001600160a01b038516600090815260a790915220613f79858261524b565b50826001600160a01b03167f1b4b97cc23465384984469781dfd8ffaf069cd39c70dfb0568ea8d074cf909e185604051613fb39190614786565b60405180910390a250505050565b610ee08133614200565b60008281526065602090815260408083206001600160a01b038516845290915290205460ff166111925760008281526065602090815260408083206001600160a01b03851684529091529020805460ff191660011790556140293390565b6001600160a01b0316816001600160a01b0316837f2f8788117e7eff1d82e926ec794901d17c78024a50270940304540a733656f0d60405160405180910390a45050565b60008281526065602090815260408083206001600160a01b038516845290915290205460ff16156111925760008281526065602090815260408083206001600160a01b0385168085529252808320805460ff1916905551339285917ff6391f5c32d9c69d2a47ea670b442974b53935d1edc7fd64eb21e047a839171b9190a45050565b6000826140fd858461428f565b14949350505050565b600054610100900460ff1661419d576040517f08c379a000000000000000000000000000000000000000000000000000000000815260206004820152602b60248201527f496e697469616c697a61626c653a20636f6e7472616374206973206e6f74206960448201527f6e697469616c697a696e67000000000000000000000000000000000000000000606482015260840161117f565b565b600082815260656020526040808220600101805490849055905190918391839186917fbd79b86ffe0ab8e8776151514217cd7cacd52c909f66475c3af44e129f0b00ff9190a4505050565b8051602091820120825192909101919091201490565b60008281526065602090815260408083206001600160a01b038516845290915290205460ff1661119257614233816142d2565b61423e8360206142e4565b60405160200161424f929190615347565b60408051601f19818403018152908290527f08c379a000000000000000000000000000000000000000000000000000000000825261117f91600401614786565b600081815b84518110156142ca576142c0828683815181106142b3576142b3614ff7565b602002602001015161452e565b9150600101614294565b509392505050565b6060610ed06001600160a01b03831660145b606060006142f3836002614eff565b6142fe906002614f64565b67ffffffffffffffff811115614316576143166145b8565b6040519080825280601f01601f191660200182016040528015614340576020820181803683370190505b5090507f30000000000000000000000000000000000000000000000000000000000000008160008151811061437757614377614ff7565b60200101907effffffffffffffffffffffffffffffffffffffffffffffffffffffffffffff1916908160001a9053507f7800000000000000000000000000000000000000000000000000000000000000816001815181106143da576143da614ff7565b60200101907effffffffffffffffffffffffffffffffffffffffffffffffffffffffffffff1916908160001a9053506000614416846002614eff565b614421906001614f64565b90505b60018111156144be577f303132333435363738396162636465660000000000000000000000000000000085600f166010811061446257614462614ff7565b1a60f81b82828151811061447857614478614ff7565b60200101907effffffffffffffffffffffffffffffffffffffffffffffffffffffffffffff1916908160001a90535060049490941c936144b7816153c8565b9050614424565b508315614527576040517f08c379a000000000000000000000000000000000000000000000000000000000815260206004820181905260248201527f537472696e67733a20686578206c656e67746820696e73756666696369656e74604482015260640161117f565b9392505050565b600081831061454a576000828152602084905260409020614527565b6000838152602083905260409020614527565b60006020828403121561456f57600080fd5b81357fffffffff000000000000000000000000000000000000000000000000000000008116811461452757600080fd5b6000602082840312156145b157600080fd5b5035919050565b7f4e487b7100000000000000000000000000000000000000000000000000000000600052604160045260246000fd5b600082601f8301126145f857600080fd5b813567ffffffffffffffff80821115614613576146136145b8565b604051601f8301601f19908116603f0116810190828211818310171561463b5761463b6145b8565b8160405283815286602085880101111561465457600080fd5b836020870160208301376000602085830101528094505050505092915050565b60006020828403121561468657600080fd5b813567ffffffffffffffff81111561469d57600080fd5b6146a9848285016145e7565b949350505050565b80356001600160a01b03811681146146c857600080fd5b919050565b600080604083850312156146e057600080fd5b823567ffffffffffffffff8111156146f757600080fd5b614703858286016145e7565b925050614712602084016146b1565b90509250929050565b60006020828403121561472d57600080fd5b614527826146b1565b60005b83811015614751578181015183820152602001614739565b50506000910152565b60008151808452614772816020860160208601614736565b601f01601f19169290920160200192915050565b602081526000614527602083018461475a565b60008083601f8401126147ab57600080fd5b50813567ffffffffffffffff8111156147c357600080fd5b6020830191508360208285010111156147db57600080fd5b9250929050565b6000806000604084860312156147f757600080fd5b833567ffffffffffffffff81111561480e57600080fd5b61481a86828701614799565b909790965060209590950135949350505050565b803580151581146146c857600080fd5b6000806040838503121561485157600080fd5b823567ffffffffffffffff81111561486857600080fd5b614874858286016145e7565b9250506147126020840161482e565b6000806040838503121561489657600080fd5b82359150614712602084016146b1565b600080600080608085870312156148bc57600080fd5b8435935060208501359250604085013567ffffffffffffffff808211156148e257600080fd5b6148ee888389016145e7565b9350606087013591508082111561490457600080fd5b50614911878288016145e7565b91505092959194509250565b60006020828403121561492f57600080fd5b6145278261482e565b6000806040838503121561494b57600080fd5b823567ffffffffffffffff81111561496257600080fd5b61496e858286016145e7565b95602094909401359450505050565b60008083601f84011261498f57600080fd5b50813567ffffffffffffffff8111156149a757600080fd5b6020830191508360208260051b85010111156147db57600080fd5b6000806000806000606086880312156149da57600080fd5b85359450602086013567ffffffffffffffff808211156149f957600080fd5b614a0589838a01614799565b90965094506040880135915080821115614a1e57600080fd5b50614a2b8882890161497d565b969995985093965092949392505050565b60008060008060008060008060008060a08b8d031215614a5b57600080fd5b8a3567ffffffffffffffff80821115614a7357600080fd5b614a7f8e838f0161497d565b909c509a5060208d0135915080821115614a9857600080fd5b614aa48e838f0161497d565b909a50985060408d0135915080821115614abd57600080fd5b614ac98e838f0161497d565b909850965060608d0135915080821115614ae257600080fd5b614aee8e838f0161497d565b909650945060808d0135915080821115614b0757600080fd5b50614b148d828e0161497d565b915080935050809150509295989b9194979a5092959850565b60008060408385031215614b4057600080fd5b614b49836146b1565b9150602083013567ffffffffffffffff811115614b6557600080fd5b614b71858286016145e7565b9150509250929050565b6000806000806000806000806080898b031215614b9757600080fd5b883567ffffffffffffffff80821115614baf57600080fd5b614bbb8c838d0161497d565b909a50985060208b0135915080821115614bd457600080fd5b614be08c838d0161497d565b909850965060408b0135915080821115614bf957600080fd5b614c058c838d0161497d565b909650945060608b0135915080821115614c1e57600080fd5b50614c2b8b828c0161497d565b999c989b5096995094979396929594505050565b600080600060608486031215614c5457600080fd5b833567ffffffffffffffff811115614c6b57600080fd5b614c77868287016145e7565b93505060208401359150614c8d604085016146b1565b90509250925092565b60008060408385031215614ca957600080fd5b823591506147126020840161482e565b600080600060608486031215614cce57600080fd5b8335925060208401359150604084013567ffffffffffffffff811115614cf357600080fd5b614cff868287016145e7565b9150509250925092565b60008060008060008060808789031215614d2257600080fd5b8635955060208701359450604087013567ffffffffffffffff80821115614d4857600080fd5b614d548a838b01614799565b90965094506060890135915080821115614d6d57600080fd5b50614d7a89828a0161497d565b979a9699509497509295939492505050565b60008060008060808587031215614da257600080fd5b8435935060208501359250604085013567ffffffffffffffff811115614dc757600080fd5b614dd3878288016145e7565b925050614de26060860161482e565b905092959194509250565b60008060008060808587031215614e0357600080fd5b614e0c856146b1565b9350614e1a602086016146b1565b9250614e28604086016146b1565b9150614de2606086016146b1565b600181811c90821680614e4a57607f821691505b602082108103614e83577f4e487b7100000000000000000000000000000000000000000000000000000000600052602260045260246000fd5b50919050565b8183823760009101908152919050565b60008251614eab818460208701614736565b9190910192915050565b82151581526040602082015260006146a9604083018461475a565b7f4e487b7100000000000000000000000000000000000000000000000000000000600052601160045260246000fd5b8082028115828204841417610ed057610ed0614ed0565b600082614f4c577f4e487b7100000000000000000000000000000000000000000000000000000000600052601260045260246000fd5b500490565b81810381811115610ed057610ed0614ed0565b80820180821115610ed057610ed0614ed0565b604081526000614f8a604083018561475a565b90508260208301529392505050565b848152836020820152608060408201526000614fb8608083018561475a565b8281036060840152614fca818561475a565b979650505050505050565b60008060408385031215614fe857600080fd5b50508035926020909101359150565b7f4e487b7100000000000000000000000000000000000000000000000000000000600052603260045260246000fd5b60008083357fffffffffffffffffffffffffffffffffffffffffffffffffffffffffffffffe184360301811261505b57600080fd5b83018035915067ffffffffffffffff82111561507657600080fd5b6020019150368190038213156147db57600080fd5b60a081528560a0820152858760c0830137600060c08783010152600060c0601f19601f8901168301019050856020830152846040830152836060830152826080830152979650505050505050565b6040815260006150ec604083018561475a565b90506001600160a01b03831660208301529392505050565b838152826020820152606060408201526000615123606083018461475a565b95945050505050565b8481527fffffffffffffffffffffffffffffffffffffffff0000000000000000000000008460601b16602082015282603482015260008251615175816054850160208701614736565b9190910160540195945050505050565b600080835461519381614e36565b600182811680156151ab57600181146151c0576151ef565b60ff19841687528215158302870194506151ef565b8760005260208060002060005b858110156151e65781548a8201529084019082016151cd565b50505082870194505b50929695505050505050565b601f8211156110e6576000816000526020600020601f850160051c810160208610156152245750805b601f850160051c820191505b8181101561524357828155600101615230565b505050505050565b815167ffffffffffffffff811115615265576152656145b8565b615279816152738454614e36565b846151fb565b602080601f8311600181146152cc57600084156152965750858301515b7fffffffffffffffffffffffffffffffffffffffffffffffffffffffffffffffff600386901b1c1916600185901b178555615243565b600085815260208120601f198616915b828110156152fb578886015182559484019460019091019084016152dc565b508582101561533757878501517fffffffffffffffffffffffffffffffffffffffffffffffffffffffffffffffff600388901b60f8161c191681555b5050505050600190811b01905550565b7f416363657373436f6e74726f6c3a206163636f756e742000000000000000000081526000835161537f816017850160208801614736565b7f206973206d697373696e6720726f6c652000000000000000000000000000000060179184019182015283516153bc816028840160208801614736565b01602801949350505050565b6000816153d7576153d7614ed0565b507fffffffffffffffffffffffffffffffffffffffffffffffffffffffffffffffff019056fea26469706673582212203b539403cccfbea482dfd99eaf69a3930d91929e7c65d4f4d97900c3f33cfb4f64736f6c63430008180033",
  "devdoc": {
    "author": "Archethect",
    "events": {
      "Initialized(uint8)": {
        "details": "Triggered when the contract has been initialized or reinitialized."
      },
      "RoleAdminChanged(bytes32,bytes32,bytes32)": {
        "details": "Emitted when `newAdminRole` is set as ``role``'s admin role, replacing `previousAdminRole` `DEFAULT_ADMIN_ROLE` is the starting admin for all roles, despite {RoleAdminChanged} not being emitted signaling this. _Available since v3.1._"
      },
      "RoleGranted(bytes32,address,address)": {
        "details": "Emitted when `account` is granted `role`. `sender` is the account that originated the contract call, an admin role bearer except when using {AccessControl-_setupRole}."
      },
      "RoleRevoked(bytes32,address,address)": {
        "details": "Emitted when `account` is revoked `role`. `sender` is the account that originated the contract call:   - if using `revokeRole`, it is the admin role bearer   - if using `renounceRole`, it is the role bearer (i.e. `account`)"
      }
    },
    "kind": "dev",
    "methods": {
      "claimLicenseEarlyAccess(uint256,bytes,bytes32[])": {
        "params": {
          "amount": "The amount of licenses to claim",
          "data": "Index and claimCap in encoded format",
          "merkleProof": "The proof used to verify whether the caller is allowed to claim the licenses"
        }
      },
      "claimLicenseFriendsFamily(uint256,bytes,bytes32[])": {
        "params": {
          "amount": "The amount of licenses to claim",
          "data": "Index and claimCap in encoded format",
          "merkleProof": "The proof used to verify weather the caller is allowed to claim the licenses"
        }
      },
      "claimLicensePartner(uint256,uint256,string,string)": {
        "params": {
          "amount": "The amount of licenses to claim",
          "partnerCode": "The code of the partner sale"
        }
      },
      "claimLicensePublic(uint256,uint256,string)": {
        "params": {
          "amount": "The amount of licenses to claim",
          "referral": "A referral code that can give discounts.",
          "tier": "The tier to buy the licenses from"
        }
      },
      "claimLicensePublicWhitelist(uint256,uint256,bytes,bytes32[])": {
        "params": {
          "amount": "The amount of licenses to claim",
          "data": "Index, claimCap and referral in encoded format",
          "merkleProof": "The proof used to verify weather the caller is allowed to claim the licenses",
          "tier": "The tier to buy the licenses from"
        }
      },
      "claimLicenseTeam(uint256,bytes,bytes32[])": {
        "params": {
          "amount": "The amount of licenses to claim",
          "data": "Index and claimCap in encoded format",
          "merkleProof": "The proof used to verify whether the caller is allowed to claim the licenses"
        }
      },
      "constructor": {
        "custom:oz-upgrades-unsafe-allow": "constructor"
      },
      "getPartnerTier(string,uint256)": {
        "params": {
          "id": "The tier id",
          "partnerCode": "The code of the partner to return the tier from"
        },
        "returns": {
          "tier": "The tier"
        }
      },
      "getReferral(string)": {
        "params": {
          "id": "The referral id"
        },
        "returns": {
          "referral": "The referral"
        }
      },
      "getRoleAdmin(bytes32)": {
        "details": "Returns the admin role that controls `role`. See {grantRole} and {revokeRole}. To change a role's admin, use {_setRoleAdmin}."
      },
      "getTier(uint256,bool)": {
        "params": {
          "id": "The tier id",
          "isWhitelist": "Whether the tier is used for the whitelist sale or not"
        },
        "returns": {
          "tier": "The tier"
        }
      },
      "grantRole(bytes32,address)": {
        "details": "Grants `role` to `account`. If `account` had not been already granted `role`, emits a {RoleGranted} event. Requirements: - the caller must have ``role``'s admin role. May emit a {RoleGranted} event."
      },
      "hasRole(bytes32,address)": {
        "details": "Returns `true` if `account` has been granted `role`."
      },
      "paymentDetailsForPartnerReferral(uint256,uint256,string,string)": {
        "params": {
          "amount": "The amount of licenses to claim",
          "partnerCode": "The code identifying the partner sale",
          "tier": "The tier to buy the licenses from"
        },
        "returns": {
          "commission": "The commission in ETH that the referrer will get.",
          "discount": "The discount in ETH the claimer will get",
          "toPay": "The amount of ETH that should be paid by the claimer."
        }
      },
      "paymentDetailsForReferral(uint256,uint256,string,bool)": {
        "params": {
          "amount": "The amount of licenses to claim",
          "isWhitelist": "Whether the tier is used for the whitelist sale or not",
          "referral": "A referral code that can give discounts.",
          "tier": "The tier to buy the licenses from"
        },
        "returns": {
          "commission": "The commission in ETH that the referrer will get.",
          "discount": "The discount in ETH the claimer will get",
          "toPay": "The amount of ETH that should be paid by the claimer."
        }
      },
      "renounceRole(bytes32,address)": {
        "details": "Revokes `role` from the calling account. Roles are often managed via {grantRole} and {revokeRole}: this function's purpose is to provide a mechanism for accounts to lose their privileges if they are compromised (such as when a trusted device is misplaced). If the calling account had been revoked `role`, emits a {RoleRevoked} event. Requirements: - the caller must be `account`. May emit a {RoleRevoked} event."
      },
      "revokeRole(bytes32,address)": {
        "details": "Revokes `role` from `account`. If `account` had been granted `role`, emits a {RoleRevoked} event. Requirements: - the caller must have ``role``'s admin role. May emit a {RoleRevoked} event."
      },
      "setEarlyAccessMerkleRoot(bytes32)": {
        "params": {
          "_earlyAccessMerkleRoot": "The root of the early access sale merkle tree"
        }
      },
      "setEarlyAccessSale(bool)": {
        "params": {
          "status": "The status to set for the early access sale"
        }
      },
      "setFriendsFamilyMerkleRoot(bytes32)": {
        "params": {
          "_friendsFamilyMerkleRoot": "The root of the friends and family sale merkle tree"
        }
      },
      "setFriendsFamilySale(bool)": {
        "params": {
          "status": "The status to set for the friends and family sale"
        }
      },
      "setPartnerReceiverAddress(string,address)": {
        "params": {
          "partnerCode": "The code of the partner sale to set the status from",
          "receiver": "The receiver address of the partner"
        }
      },
      "setPartnerSale(string,bool)": {
        "params": {
          "partnerCode": "The code of the partner sale to set the status from",
          "status": "The status to set for the partner sale"
        }
      },
      "setPartnerTiers(string[],uint256[],uint256[],uint256[],uint256[])": {
        "params": {
          "ids": "The ids of the tiers to set",
          "individualCaps": "The maximum amount of licenses that can be claimed per address for the tiers.",
          "partnerCodes": "The codes of the partners to configure the tiers for",
          "prices": "The prices of each tier to set",
          "totalCaps": "The maximum amount of licenses that can be claimed in total for the tiers."
        }
      },
      "setPublicMerkleRoot(bytes32)": {
        "params": {
          "_publicMerkleRoot": "The root of the public sale merkle tree"
        }
      },
      "setPublicSale(bool)": {
        "params": {
          "status": "The status to set for the public sale"
        }
      },
      "setReferral(string)": {
        "params": {
          "code": "The referral code to be used when claiming"
        }
      },
      "setReferralForReceiver(string,address)": {
        "params": {
          "code": "The referral code to be used when claiming",
          "receiver": "The receiver address for the commissions"
        }
      },
      "setTeamMerkleRoot(bytes32)": {
        "params": {
          "_teamMerkleRoot": "The root of the team sale merkle tree"
        }
      },
      "setTeamSale(bool)": {
        "params": {
          "status": "The status to set for the team sale"
        }
      },
      "setTiers(uint256[],uint256[],uint256[],uint256[])": {
        "params": {
          "ids": "The ids of the tiers to set",
          "individualCaps": "The maximum amount of licenses that can be claimed per address for the tiers.",
          "prices": "The prices of each tier to set",
          "totalCaps": "The maximum amount of licenses that can be claimed in total for the tiers."
        }
      },
      "setWhitelistTiers(uint256[],uint256[],uint256[],uint256[])": {
        "params": {
          "ids": "The ids of the tiers to set",
          "individualCaps": "The maximum amount of licenses that can be claimed per address for the tiers.",
          "prices": "The prices of each tier to set",
          "totalCaps": "The maximum amount of licenses that can be claimed in total for the tiers."
        }
      },
      "supportsInterface(bytes4)": {
        "details": "See {IERC165-supportsInterface}."
      }
    },
    "title": "PlayFi node license sale contract",
    "version": 1
  },
  "userdoc": {
    "kind": "user",
    "methods": {
      "claimLicenseEarlyAccess(uint256,bytes,bytes32[])": {
        "notice": "Claims licenses for early access addresses + make sure they do not exceed their personal claim cap and that they paid enough."
      },
      "claimLicenseFriendsFamily(uint256,bytes,bytes32[])": {
        "notice": "Claims licenses for friends and family + make sure they do not exceed their personal claim cap and that they paid enough."
      },
      "claimLicensePartner(uint256,uint256,string,string)": {
        "notice": "Claims licenses for partners + make sure they do not exceed their personal claim cap and that they paid enough."
      },
      "claimLicensePublic(uint256,uint256,string)": {
        "notice": "Claims licenses for the public in a specific tier + make sure they do not exceed their personal claim cap and total tier cap. Additionally also make sure that they paid enough."
      },
      "claimLicensePublicWhitelist(uint256,uint256,bytes,bytes32[])": {
        "notice": "Claims licenses for whitelisted addresses during the public sale + make sure they do not exceed their personal claim cap and that they paid enough."
      },
      "claimLicenseTeam(uint256,bytes,bytes32[])": {
        "notice": "Claims licenses for team members and make sure they do not exceed their personal claim cap."
      },
      "getPartnerTier(string,uint256)": {
        "notice": "Returns partner tier details provided a partner code and tier id"
      },
      "getReferral(string)": {
        "notice": "Returns referral details provided a referral id"
      },
      "getTier(uint256,bool)": {
        "notice": "Returns tier details provided a tier id"
      },
      "paymentDetailsForPartnerReferral(uint256,uint256,string,string)": {
        "notice": "Calculates the price, commission and discount for X number of licenses in partner tier Y given partnerCod Z"
      },
      "paymentDetailsForReferral(uint256,uint256,string,bool)": {
        "notice": "Calculates the price, commission and discount for X number of licenses in tier Y given referral code Z"
      },
      "setEarlyAccessMerkleRoot(bytes32)": {
        "notice": "Sets the early access sale merkle root"
      },
      "setEarlyAccessSale(bool)": {
        "notice": "Sets the early access sale status"
      },
      "setFriendsFamilyMerkleRoot(bytes32)": {
        "notice": "Sets the friends and family sale merkle root"
      },
      "setFriendsFamilySale(bool)": {
        "notice": "Sets the friends and family sale status"
      },
      "setPartnerReceiverAddress(string,address)": {
        "notice": "Sets the partner receiver address"
      },
      "setPartnerSale(string,bool)": {
        "notice": "Sets the partner sale status"
      },
      "setPartnerTiers(string[],uint256[],uint256[],uint256[],uint256[])": {
        "notice": "Sets partner tier details"
      },
      "setPublicMerkleRoot(bytes32)": {
        "notice": "Sets the public sale merkle root"
      },
      "setPublicSale(bool)": {
        "notice": "Sets the public sale status"
      },
      "setReferral(string)": {
        "notice": "Sets referral details"
      },
      "setReferralForReceiver(string,address)": {
        "notice": "Sets referral details for a specific receiver"
      },
      "setTeamMerkleRoot(bytes32)": {
        "notice": "Sets the team sale merkle root"
      },
      "setTeamSale(bool)": {
        "notice": "Sets the team sale status"
      },
      "setTiers(uint256[],uint256[],uint256[],uint256[])": {
        "notice": "Sets tier details"
      },
      "setWhitelistTiers(uint256[],uint256[],uint256[],uint256[])": {
        "notice": "Sets whitelist tier details"
      },
      "withdrawProceeds()": {
        "notice": "Withdraws the sale proceeds"
      }
    },
    "notice": "Contract used to handle whitelist and public node license sales in several tiers.",
    "version": 1
  },
  "storageLayout": {
    "storage": [
      {
        "astId": 416,
        "contract": "contracts/PlayFiLicenseSale.sol:PlayFiLicenseSale",
        "label": "_initialized",
        "offset": 0,
        "slot": "0",
        "type": "t_uint8"
      },
      {
        "astId": 419,
        "contract": "contracts/PlayFiLicenseSale.sol:PlayFiLicenseSale",
        "label": "_initializing",
        "offset": 1,
        "slot": "0",
        "type": "t_bool"
      },
      {
        "astId": 958,
        "contract": "contracts/PlayFiLicenseSale.sol:PlayFiLicenseSale",
        "label": "__gap",
        "offset": 0,
        "slot": "1",
        "type": "t_array(t_uint256)50_storage"
      },
      {
        "astId": 1232,
        "contract": "contracts/PlayFiLicenseSale.sol:PlayFiLicenseSale",
        "label": "__gap",
        "offset": 0,
        "slot": "51",
        "type": "t_array(t_uint256)50_storage"
      },
      {
        "astId": 28,
        "contract": "contracts/PlayFiLicenseSale.sol:PlayFiLicenseSale",
        "label": "_roles",
        "offset": 0,
        "slot": "101",
        "type": "t_mapping(t_bytes32,t_struct(RoleData)23_storage)"
      },
      {
        "astId": 335,
        "contract": "contracts/PlayFiLicenseSale.sol:PlayFiLicenseSale",
        "label": "__gap",
        "offset": 0,
        "slot": "102",
        "type": "t_array(t_uint256)49_storage"
      },
      {
        "astId": 3984,
        "contract": "contracts/PlayFiLicenseSale.sol:PlayFiLicenseSale",
        "label": "teamMerkleRoot",
        "offset": 0,
        "slot": "151",
        "type": "t_bytes32"
      },
      {
        "astId": 3987,
        "contract": "contracts/PlayFiLicenseSale.sol:PlayFiLicenseSale",
        "label": "friendsFamilyMerkleRoot",
        "offset": 0,
        "slot": "152",
        "type": "t_bytes32"
      },
      {
        "astId": 3990,
        "contract": "contracts/PlayFiLicenseSale.sol:PlayFiLicenseSale",
        "label": "earlyAccessMerkleRoot",
        "offset": 0,
        "slot": "153",
        "type": "t_bytes32"
      },
      {
        "astId": 3993,
        "contract": "contracts/PlayFiLicenseSale.sol:PlayFiLicenseSale",
        "label": "publicMerkleRoot",
        "offset": 0,
        "slot": "154",
        "type": "t_bytes32"
      },
      {
        "astId": 3996,
        "contract": "contracts/PlayFiLicenseSale.sol:PlayFiLicenseSale",
        "label": "teamSaleActive",
        "offset": 0,
        "slot": "155",
        "type": "t_bool"
      },
      {
        "astId": 3999,
        "contract": "contracts/PlayFiLicenseSale.sol:PlayFiLicenseSale",
        "label": "friendsFamilySaleActive",
        "offset": 1,
        "slot": "155",
        "type": "t_bool"
      },
      {
        "astId": 4002,
        "contract": "contracts/PlayFiLicenseSale.sol:PlayFiLicenseSale",
        "label": "earlyAccessSaleActive",
        "offset": 2,
        "slot": "155",
        "type": "t_bool"
      },
      {
        "astId": 4005,
        "contract": "contracts/PlayFiLicenseSale.sol:PlayFiLicenseSale",
        "label": "publicSaleActive",
        "offset": 3,
        "slot": "155",
        "type": "t_bool"
      },
      {
        "astId": 4008,
        "contract": "contracts/PlayFiLicenseSale.sol:PlayFiLicenseSale",
        "label": "totalLicenses",
        "offset": 0,
        "slot": "156",
        "type": "t_uint256"
      },
      {
        "astId": 4012,
        "contract": "contracts/PlayFiLicenseSale.sol:PlayFiLicenseSale",
        "label": "teamClaimsPerAddress",
        "offset": 0,
        "slot": "157",
        "type": "t_mapping(t_address,t_uint256)"
      },
      {
        "astId": 4016,
        "contract": "contracts/PlayFiLicenseSale.sol:PlayFiLicenseSale",
        "label": "friendsFamilyClaimsPerAddress",
        "offset": 0,
        "slot": "158",
        "type": "t_mapping(t_address,t_uint256)"
      },
      {
        "astId": 4020,
        "contract": "contracts/PlayFiLicenseSale.sol:PlayFiLicenseSale",
        "label": "earlyAccessClaimsPerAddress",
        "offset": 0,
        "slot": "159",
        "type": "t_mapping(t_address,t_uint256)"
      },
      {
        "astId": 4026,
        "contract": "contracts/PlayFiLicenseSale.sol:PlayFiLicenseSale",
        "label": "partnerClaimsPerAddress",
        "offset": 0,
        "slot": "160",
        "type": "t_mapping(t_string_memory_ptr,t_mapping(t_address,t_uint256))"
      },
      {
        "astId": 4030,
        "contract": "contracts/PlayFiLicenseSale.sol:PlayFiLicenseSale",
        "label": "publicClaimsPerAddress",
        "offset": 0,
        "slot": "161",
        "type": "t_mapping(t_address,t_uint256)"
      },
      {
        "astId": 4036,
        "contract": "contracts/PlayFiLicenseSale.sol:PlayFiLicenseSale",
        "label": "publicWhitelistClaimsPerAddressAndReferral",
        "offset": 0,
        "slot": "162",
        "type": "t_mapping(t_address,t_mapping(t_string_memory_ptr,t_uint256))"
      },
      {
        "astId": 4041,
        "contract": "contracts/PlayFiLicenseSale.sol:PlayFiLicenseSale",
        "label": "tiers",
        "offset": 0,
        "slot": "163",
        "type": "t_mapping(t_uint256,t_struct(Tier)6398_storage)"
      },
      {
        "astId": 4046,
        "contract": "contracts/PlayFiLicenseSale.sol:PlayFiLicenseSale",
        "label": "whitelistTiers",
        "offset": 0,
        "slot": "164",
        "type": "t_mapping(t_uint256,t_struct(Tier)6398_storage)"
      },
      {
        "astId": 4053,
        "contract": "contracts/PlayFiLicenseSale.sol:PlayFiLicenseSale",
        "label": "partnerTiers",
        "offset": 0,
        "slot": "165",
        "type": "t_mapping(t_string_memory_ptr,t_mapping(t_uint256,t_struct(Tier)6398_storage))"
      },
      {
        "astId": 4058,
        "contract": "contracts/PlayFiLicenseSale.sol:PlayFiLicenseSale",
        "label": "referrals",
        "offset": 0,
        "slot": "166",
        "type": "t_mapping(t_string_memory_ptr,t_struct(Referral)6403_storage)"
      },
      {
        "astId": 4062,
        "contract": "contracts/PlayFiLicenseSale.sol:PlayFiLicenseSale",
        "label": "receiverToReferralCode",
        "offset": 0,
        "slot": "167",
        "type": "t_mapping(t_address,t_string_storage)"
      },
      {
        "astId": 4068,
        "contract": "contracts/PlayFiLicenseSale.sol:PlayFiLicenseSale",
        "label": "claimsPerTierPerAddress",
        "offset": 0,
        "slot": "168",
        "type": "t_mapping(t_uint256,t_mapping(t_address,t_uint256))"
      },
      {
        "astId": 4076,
        "contract": "contracts/PlayFiLicenseSale.sol:PlayFiLicenseSale",
        "label": "partnerClaimsPerTierPerAddress",
        "offset": 0,
        "slot": "169",
        "type": "t_mapping(t_string_memory_ptr,t_mapping(t_uint256,t_mapping(t_address,t_uint256)))"
      },
      {
        "astId": 4080,
        "contract": "contracts/PlayFiLicenseSale.sol:PlayFiLicenseSale",
        "label": "partnerSaleActive",
        "offset": 0,
        "slot": "170",
        "type": "t_mapping(t_string_memory_ptr,t_bool)"
      },
      {
        "astId": 4084,
        "contract": "contracts/PlayFiLicenseSale.sol:PlayFiLicenseSale",
        "label": "partnerReceiverAddress",
        "offset": 0,
        "slot": "171",
        "type": "t_mapping(t_string_memory_ptr,t_address)"
      }
    ],
    "types": {
      "t_address": {
        "encoding": "inplace",
        "label": "address",
        "numberOfBytes": "20"
      },
      "t_array(t_uint256)49_storage": {
        "base": "t_uint256",
        "encoding": "inplace",
        "label": "uint256[49]",
        "numberOfBytes": "1568"
      },
      "t_array(t_uint256)50_storage": {
        "base": "t_uint256",
        "encoding": "inplace",
        "label": "uint256[50]",
        "numberOfBytes": "1600"
      },
      "t_bool": {
        "encoding": "inplace",
        "label": "bool",
        "numberOfBytes": "1"
      },
      "t_bytes32": {
        "encoding": "inplace",
        "label": "bytes32",
        "numberOfBytes": "32"
      },
      "t_mapping(t_address,t_bool)": {
        "encoding": "mapping",
        "key": "t_address",
        "label": "mapping(address => bool)",
        "numberOfBytes": "32",
        "value": "t_bool"
      },
      "t_mapping(t_address,t_mapping(t_string_memory_ptr,t_uint256))": {
        "encoding": "mapping",
        "key": "t_address",
        "label": "mapping(address => mapping(string => uint256))",
        "numberOfBytes": "32",
        "value": "t_mapping(t_string_memory_ptr,t_uint256)"
      },
      "t_mapping(t_address,t_string_storage)": {
        "encoding": "mapping",
        "key": "t_address",
        "label": "mapping(address => string)",
        "numberOfBytes": "32",
        "value": "t_string_storage"
      },
      "t_mapping(t_address,t_uint256)": {
        "encoding": "mapping",
        "key": "t_address",
        "label": "mapping(address => uint256)",
        "numberOfBytes": "32",
        "value": "t_uint256"
      },
      "t_mapping(t_bytes32,t_struct(RoleData)23_storage)": {
        "encoding": "mapping",
        "key": "t_bytes32",
        "label": "mapping(bytes32 => struct AccessControlUpgradeable.RoleData)",
        "numberOfBytes": "32",
        "value": "t_struct(RoleData)23_storage"
      },
      "t_mapping(t_string_memory_ptr,t_address)": {
        "encoding": "mapping",
        "key": "t_string_memory_ptr",
        "label": "mapping(string => address)",
        "numberOfBytes": "32",
        "value": "t_address"
      },
      "t_mapping(t_string_memory_ptr,t_bool)": {
        "encoding": "mapping",
        "key": "t_string_memory_ptr",
        "label": "mapping(string => bool)",
        "numberOfBytes": "32",
        "value": "t_bool"
      },
      "t_mapping(t_string_memory_ptr,t_mapping(t_address,t_uint256))": {
        "encoding": "mapping",
        "key": "t_string_memory_ptr",
        "label": "mapping(string => mapping(address => uint256))",
        "numberOfBytes": "32",
        "value": "t_mapping(t_address,t_uint256)"
      },
      "t_mapping(t_string_memory_ptr,t_mapping(t_uint256,t_mapping(t_address,t_uint256)))": {
        "encoding": "mapping",
        "key": "t_string_memory_ptr",
        "label": "mapping(string => mapping(uint256 => mapping(address => uint256)))",
        "numberOfBytes": "32",
        "value": "t_mapping(t_uint256,t_mapping(t_address,t_uint256))"
      },
      "t_mapping(t_string_memory_ptr,t_mapping(t_uint256,t_struct(Tier)6398_storage))": {
        "encoding": "mapping",
        "key": "t_string_memory_ptr",
        "label": "mapping(string => mapping(uint256 => struct IPlayFiLicenseSale.Tier))",
        "numberOfBytes": "32",
        "value": "t_mapping(t_uint256,t_struct(Tier)6398_storage)"
      },
      "t_mapping(t_string_memory_ptr,t_struct(Referral)6403_storage)": {
        "encoding": "mapping",
        "key": "t_string_memory_ptr",
        "label": "mapping(string => struct IPlayFiLicenseSale.Referral)",
        "numberOfBytes": "32",
        "value": "t_struct(Referral)6403_storage"
      },
      "t_mapping(t_string_memory_ptr,t_uint256)": {
        "encoding": "mapping",
        "key": "t_string_memory_ptr",
        "label": "mapping(string => uint256)",
        "numberOfBytes": "32",
        "value": "t_uint256"
      },
      "t_mapping(t_uint256,t_mapping(t_address,t_uint256))": {
        "encoding": "mapping",
        "key": "t_uint256",
        "label": "mapping(uint256 => mapping(address => uint256))",
        "numberOfBytes": "32",
        "value": "t_mapping(t_address,t_uint256)"
      },
      "t_mapping(t_uint256,t_struct(Tier)6398_storage)": {
        "encoding": "mapping",
        "key": "t_uint256",
        "label": "mapping(uint256 => struct IPlayFiLicenseSale.Tier)",
        "numberOfBytes": "32",
        "value": "t_struct(Tier)6398_storage"
      },
      "t_string_memory_ptr": {
        "encoding": "bytes",
        "label": "string",
        "numberOfBytes": "32"
      },
      "t_string_storage": {
        "encoding": "bytes",
        "label": "string",
        "numberOfBytes": "32"
      },
      "t_struct(Referral)6403_storage": {
        "encoding": "inplace",
        "label": "struct IPlayFiLicenseSale.Referral",
        "members": [
          {
            "astId": 6400,
            "contract": "contracts/PlayFiLicenseSale.sol:PlayFiLicenseSale",
            "label": "totalClaims",
            "offset": 0,
            "slot": "0",
            "type": "t_uint256"
          },
          {
            "astId": 6402,
            "contract": "contracts/PlayFiLicenseSale.sol:PlayFiLicenseSale",
            "label": "receiver",
            "offset": 0,
            "slot": "1",
            "type": "t_address"
          }
        ],
        "numberOfBytes": "64"
      },
      "t_struct(RoleData)23_storage": {
        "encoding": "inplace",
        "label": "struct AccessControlUpgradeable.RoleData",
        "members": [
          {
            "astId": 20,
            "contract": "contracts/PlayFiLicenseSale.sol:PlayFiLicenseSale",
            "label": "members",
            "offset": 0,
            "slot": "0",
            "type": "t_mapping(t_address,t_bool)"
          },
          {
            "astId": 22,
            "contract": "contracts/PlayFiLicenseSale.sol:PlayFiLicenseSale",
            "label": "adminRole",
            "offset": 0,
            "slot": "1",
            "type": "t_bytes32"
          }
        ],
        "numberOfBytes": "64"
      },
      "t_struct(Tier)6398_storage": {
        "encoding": "inplace",
        "label": "struct IPlayFiLicenseSale.Tier",
        "members": [
          {
            "astId": 6391,
            "contract": "contracts/PlayFiLicenseSale.sol:PlayFiLicenseSale",
            "label": "price",
            "offset": 0,
            "slot": "0",
            "type": "t_uint256"
          },
          {
            "astId": 6393,
            "contract": "contracts/PlayFiLicenseSale.sol:PlayFiLicenseSale",
            "label": "individualCap",
            "offset": 0,
            "slot": "1",
            "type": "t_uint256"
          },
          {
            "astId": 6395,
            "contract": "contracts/PlayFiLicenseSale.sol:PlayFiLicenseSale",
            "label": "totalClaimed",
            "offset": 0,
            "slot": "2",
            "type": "t_uint256"
          },
          {
            "astId": 6397,
            "contract": "contracts/PlayFiLicenseSale.sol:PlayFiLicenseSale",
            "label": "totalCap",
            "offset": 0,
            "slot": "3",
            "type": "t_uint256"
          }
        ],
        "numberOfBytes": "128"
      },
      "t_uint256": {
        "encoding": "inplace",
        "label": "uint256",
        "numberOfBytes": "32"
      },
      "t_uint8": {
        "encoding": "inplace",
        "label": "uint8",
        "numberOfBytes": "1"
      }
    }
  }
}