{
  "address": "0x0081D3A01bC94c03fCe323e772C97B9413C098B7",
  "abi": [
    {
      "inputs": [],
      "stateMutability": "nonpayable",
      "type": "constructor"
    },
    {
      "inputs": [],
      "name": "AccessDenied",
      "type": "error"
    },
    {
      "inputs": [],
      "name": "CommissionPayoutFailed",
      "type": "error"
    },
    {
      "inputs": [],
      "name": "EarlyAccessSaleNotActive",
      "type": "error"
    },
    {
      "inputs": [],
      "name": "FriendsFamilySaleNotActive",
      "type": "error"
    },
    {
      "inputs": [],
      "name": "IndividualClaimCapExceeded",
      "type": "error"
    },
    {
      "inputs": [],
      "name": "IndividualTierCapExceeded",
      "type": "error"
    },
    {
      "inputs": [],
      "name": "InsufficientPayment",
      "type": "error"
    },
    {
      "inputs": [
        {
          "internalType": "address",
          "name": "account",
          "type": "address"
        }
      ],
      "name": "InvalidAddress",
      "type": "error"
    },
    {
      "inputs": [],
      "name": "InvalidCommission",
      "type": "error"
    },
    {
      "inputs": [],
      "name": "InvalidDiscount",
      "type": "error"
    },
    {
      "inputs": [],
      "name": "InvalidProof",
      "type": "error"
    },
    {
      "inputs": [],
      "name": "InvalidTierInputs",
      "type": "error"
    },
    {
      "inputs": [],
      "name": "PartnerSaleNotActive",
      "type": "error"
    },
    {
      "inputs": [],
      "name": "PublicSaleNotActive",
      "type": "error"
    },
    {
      "inputs": [],
      "name": "TeamSaleNotActive",
      "type": "error"
    },
    {
      "inputs": [],
      "name": "TotalTierCapExceeded",
      "type": "error"
    },
    {
      "inputs": [],
      "name": "WithdrawalFailed",
      "type": "error"
    },
    {
      "anonymous": false,
      "inputs": [
        {
          "indexed": false,
          "internalType": "string",
          "name": "code",
          "type": "string"
        },
        {
          "indexed": true,
          "internalType": "address",
          "name": "receiver",
          "type": "address"
        },
        {
          "indexed": false,
          "internalType": "uint256",
          "name": "amount",
          "type": "uint256"
        }
      ],
      "name": "CommissionPaid",
      "type": "event"
    },
    {
      "anonymous": false,
      "inputs": [],
      "name": "ContractInitialized",
      "type": "event"
    },
    {
      "anonymous": false,
      "inputs": [
        {
          "indexed": true,
          "internalType": "address",
          "name": "account",
          "type": "address"
        },
        {
          "indexed": false,
          "internalType": "uint256",
          "name": "paid",
          "type": "uint256"
        },
        {
          "indexed": false,
          "internalType": "uint256",
          "name": "amount",
          "type": "uint256"
        }
      ],
      "name": "EarlyAccessLicensesClaimed",
      "type": "event"
    },
    {
      "anonymous": false,
      "inputs": [
        {
          "indexed": false,
          "internalType": "bytes32",
          "name": "merkleRoot",
          "type": "bytes32"
        }
      ],
      "name": "EarlyAccessMerkleRootSet",
      "type": "event"
    },
    {
      "anonymous": false,
      "inputs": [
        {
          "indexed": false,
          "internalType": "bool",
          "name": "status",
          "type": "bool"
        }
      ],
      "name": "EarlyAccessSaleStatusSet",
      "type": "event"
    },
    {
      "anonymous": false,
      "inputs": [
        {
          "indexed": true,
          "internalType": "address",
          "name": "account",
          "type": "address"
        },
        {
          "indexed": false,
          "internalType": "uint256",
          "name": "paid",
          "type": "uint256"
        },
        {
          "indexed": false,
          "internalType": "uint256",
          "name": "amount",
          "type": "uint256"
        }
      ],
      "name": "FriendsFamilyLicensesClaimed",
      "type": "event"
    },
    {
      "anonymous": false,
      "inputs": [
        {
          "indexed": false,
          "internalType": "bytes32",
          "name": "merkleRoot",
          "type": "bytes32"
        }
      ],
      "name": "FriendsFamilyMerkleRootSet",
      "type": "event"
    },
    {
      "anonymous": false,
      "inputs": [
        {
          "indexed": false,
          "internalType": "bool",
          "name": "status",
          "type": "bool"
        }
      ],
      "name": "FriendsFamilySaleStatusSet",
      "type": "event"
    },
    {
      "anonymous": false,
      "inputs": [
        {
          "indexed": false,
          "internalType": "uint8",
          "name": "version",
          "type": "uint8"
        }
      ],
      "name": "Initialized",
      "type": "event"
    },
    {
      "anonymous": false,
      "inputs": [
        {
          "indexed": true,
          "internalType": "address",
          "name": "account",
          "type": "address"
        },
        {
          "indexed": false,
          "internalType": "uint256",
          "name": "paid",
          "type": "uint256"
        },
        {
          "indexed": false,
          "internalType": "uint256",
          "name": "amount",
          "type": "uint256"
        }
      ],
      "name": "PartnerLicensesClaimed",
      "type": "event"
    },
    {
      "anonymous": false,
      "inputs": [
        {
          "indexed": false,
          "internalType": "bytes32",
          "name": "merkleRoot",
          "type": "bytes32"
        }
      ],
      "name": "PartnerMerkleRootSet",
      "type": "event"
    },
    {
      "anonymous": false,
      "inputs": [
        {
          "indexed": false,
          "internalType": "bool",
          "name": "status",
          "type": "bool"
        }
      ],
      "name": "PartnerSaleStatusSet",
      "type": "event"
    },
    {
      "anonymous": false,
      "inputs": [
        {
          "indexed": true,
          "internalType": "address",
          "name": "receiver",
          "type": "address"
        },
        {
          "indexed": false,
          "internalType": "uint256",
          "name": "amount",
          "type": "uint256"
        }
      ],
      "name": "ProceedsWithdrawn",
      "type": "event"
    },
    {
      "anonymous": false,
      "inputs": [
        {
          "indexed": true,
          "internalType": "address",
          "name": "account",
          "type": "address"
        },
        {
          "indexed": false,
          "internalType": "uint256",
          "name": "amount",
          "type": "uint256"
        },
        {
          "indexed": true,
          "internalType": "uint256",
          "name": "tier",
          "type": "uint256"
        },
        {
          "indexed": false,
          "internalType": "uint256",
          "name": "paid",
          "type": "uint256"
        },
        {
          "indexed": false,
          "internalType": "string",
          "name": "referral",
          "type": "string"
        }
      ],
      "name": "PublicLicensesClaimed",
      "type": "event"
    },
    {
      "anonymous": false,
      "inputs": [
        {
          "indexed": false,
          "internalType": "bool",
          "name": "status",
          "type": "bool"
        }
      ],
      "name": "PublicSaleStatusSet",
      "type": "event"
    },
    {
      "anonymous": false,
      "inputs": [
        {
          "indexed": false,
          "internalType": "string",
          "name": "code",
          "type": "string"
        },
        {
          "indexed": true,
          "internalType": "address",
          "name": "receiver",
          "type": "address"
        },
        {
          "indexed": false,
          "internalType": "uint256",
          "name": "commission",
          "type": "uint256"
        },
        {
          "indexed": false,
          "internalType": "uint256",
          "name": "discount",
          "type": "uint256"
        }
      ],
      "name": "ReferralUpdated",
      "type": "event"
    },
    {
      "anonymous": false,
      "inputs": [
        {
          "indexed": true,
          "internalType": "bytes32",
          "name": "role",
          "type": "bytes32"
        },
        {
          "indexed": true,
          "internalType": "bytes32",
          "name": "previousAdminRole",
          "type": "bytes32"
        },
        {
          "indexed": true,
          "internalType": "bytes32",
          "name": "newAdminRole",
          "type": "bytes32"
        }
      ],
      "name": "RoleAdminChanged",
      "type": "event"
    },
    {
      "anonymous": false,
      "inputs": [
        {
          "indexed": true,
          "internalType": "bytes32",
          "name": "role",
          "type": "bytes32"
        },
        {
          "indexed": true,
          "internalType": "address",
          "name": "account",
          "type": "address"
        },
        {
          "indexed": true,
          "internalType": "address",
          "name": "sender",
          "type": "address"
        }
      ],
      "name": "RoleGranted",
      "type": "event"
    },
    {
      "anonymous": false,
      "inputs": [
        {
          "indexed": true,
          "internalType": "bytes32",
          "name": "role",
          "type": "bytes32"
        },
        {
          "indexed": true,
          "internalType": "address",
          "name": "account",
          "type": "address"
        },
        {
          "indexed": true,
          "internalType": "address",
          "name": "sender",
          "type": "address"
        }
      ],
      "name": "RoleRevoked",
      "type": "event"
    },
    {
      "anonymous": false,
      "inputs": [
        {
          "indexed": true,
          "internalType": "address",
          "name": "account",
          "type": "address"
        },
        {
          "indexed": false,
          "internalType": "uint256",
          "name": "amount",
          "type": "uint256"
        }
      ],
      "name": "TeamLicensesClaimed",
      "type": "event"
    },
    {
      "anonymous": false,
      "inputs": [
        {
          "indexed": false,
          "internalType": "bytes32",
          "name": "merkleRoot",
          "type": "bytes32"
        }
      ],
      "name": "TeamMerkleRootSet",
      "type": "event"
    },
    {
      "anonymous": false,
      "inputs": [
        {
          "indexed": false,
          "internalType": "bool",
          "name": "status",
          "type": "bool"
        }
      ],
      "name": "TeamSaleStatusSet",
      "type": "event"
    },
    {
      "anonymous": false,
      "inputs": [
        {
          "indexed": true,
          "internalType": "uint256",
          "name": "tierId",
          "type": "uint256"
        },
        {
          "indexed": false,
          "internalType": "uint256",
          "name": "price",
          "type": "uint256"
        },
        {
          "indexed": false,
          "internalType": "uint256",
          "name": "individualCap",
          "type": "uint256"
        },
        {
          "indexed": false,
          "internalType": "uint256",
          "name": "totalClaimed",
          "type": "uint256"
        },
        {
          "indexed": false,
          "internalType": "uint256",
          "name": "totalCap",
          "type": "uint256"
        }
      ],
      "name": "TierSet",
      "type": "event"
    },
    {
      "inputs": [],
      "name": "ADMIN_ROLE",
      "outputs": [
        {
          "internalType": "bytes32",
          "name": "",
          "type": "bytes32"
        }
      ],
      "stateMutability": "view",
      "type": "function"
    },
    {
      "inputs": [],
      "name": "DEFAULT_ADMIN_ROLE",
      "outputs": [
        {
          "internalType": "bytes32",
          "name": "",
          "type": "bytes32"
        }
      ],
      "stateMutability": "view",
      "type": "function"
    },
    {
      "inputs": [],
      "name": "GUARDIAN_ROLE",
      "outputs": [
        {
          "internalType": "bytes32",
          "name": "",
          "type": "bytes32"
        }
      ],
      "stateMutability": "view",
      "type": "function"
    },
    {
      "inputs": [],
      "name": "MERKLE_MANAGER_ROLE",
      "outputs": [
        {
          "internalType": "bytes32",
          "name": "",
          "type": "bytes32"
        }
      ],
      "stateMutability": "view",
      "type": "function"
    },
    {
      "inputs": [],
      "name": "REFERRAL_MANAGER_ROLE",
      "outputs": [
        {
          "internalType": "bytes32",
          "name": "",
          "type": "bytes32"
        }
      ],
      "stateMutability": "view",
      "type": "function"
    },
    {
      "inputs": [
        {
          "internalType": "uint256",
          "name": "amount",
          "type": "uint256"
        },
        {
          "internalType": "bytes",
          "name": "data",
          "type": "bytes"
        },
        {
          "internalType": "bytes32[]",
          "name": "merkleProof",
          "type": "bytes32[]"
        }
      ],
      "name": "claimLicenseEarlyAccess",
      "outputs": [],
      "stateMutability": "payable",
      "type": "function"
    },
    {
      "inputs": [
        {
          "internalType": "uint256",
          "name": "amount",
          "type": "uint256"
        },
        {
          "internalType": "bytes",
          "name": "data",
          "type": "bytes"
        },
        {
          "internalType": "bytes32[]",
          "name": "merkleProof",
          "type": "bytes32[]"
        }
      ],
      "name": "claimLicenseFriendsFamily",
      "outputs": [],
      "stateMutability": "payable",
      "type": "function"
    },
    {
      "inputs": [
        {
          "internalType": "uint256",
          "name": "amount",
          "type": "uint256"
        },
        {
          "internalType": "bytes",
          "name": "data",
          "type": "bytes"
        },
        {
          "internalType": "bytes32[]",
          "name": "merkleProof",
          "type": "bytes32[]"
        }
      ],
      "name": "claimLicensePartner",
      "outputs": [],
      "stateMutability": "payable",
      "type": "function"
    },
    {
      "inputs": [
        {
          "internalType": "uint256",
          "name": "amount",
          "type": "uint256"
        },
        {
          "internalType": "uint256",
          "name": "tier",
          "type": "uint256"
        },
        {
          "internalType": "string",
          "name": "referral",
          "type": "string"
        }
      ],
      "name": "claimLicensePublic",
      "outputs": [],
      "stateMutability": "payable",
      "type": "function"
    },
    {
      "inputs": [
        {
          "internalType": "uint256",
          "name": "amount",
          "type": "uint256"
        },
        {
          "internalType": "bytes",
          "name": "data",
          "type": "bytes"
        },
        {
          "internalType": "bytes32[]",
          "name": "merkleProof",
          "type": "bytes32[]"
        }
      ],
      "name": "claimLicenseTeam",
      "outputs": [],
      "stateMutability": "nonpayable",
      "type": "function"
    },
    {
      "inputs": [
        {
          "internalType": "uint256",
          "name": "",
          "type": "uint256"
        },
        {
          "internalType": "address",
          "name": "",
          "type": "address"
        }
      ],
      "name": "claimsPerTierPerAddress",
      "outputs": [
        {
          "internalType": "uint256",
          "name": "",
          "type": "uint256"
        }
      ],
      "stateMutability": "view",
      "type": "function"
    },
    {
      "inputs": [
        {
          "internalType": "address",
          "name": "",
          "type": "address"
        }
      ],
      "name": "earlyAccessClaimsPerAddress",
      "outputs": [
        {
          "internalType": "uint256",
          "name": "",
          "type": "uint256"
        }
      ],
      "stateMutability": "view",
      "type": "function"
    },
    {
      "inputs": [],
      "name": "earlyAccessMerkleRoot",
      "outputs": [
        {
          "internalType": "bytes32",
          "name": "",
          "type": "bytes32"
        }
      ],
      "stateMutability": "view",
      "type": "function"
    },
    {
      "inputs": [],
      "name": "earlyAccessSaleActive",
      "outputs": [
        {
          "internalType": "bool",
          "name": "",
          "type": "bool"
        }
      ],
      "stateMutability": "view",
      "type": "function"
    },
    {
      "inputs": [
        {
          "internalType": "address",
          "name": "",
          "type": "address"
        }
      ],
      "name": "friendsFamilyClaimsPerAddress",
      "outputs": [
        {
          "internalType": "uint256",
          "name": "",
          "type": "uint256"
        }
      ],
      "stateMutability": "view",
      "type": "function"
    },
    {
      "inputs": [],
      "name": "friendsFamilyMerkleRoot",
      "outputs": [
        {
          "internalType": "bytes32",
          "name": "",
          "type": "bytes32"
        }
      ],
      "stateMutability": "view",
      "type": "function"
    },
    {
      "inputs": [],
      "name": "friendsFamilySaleActive",
      "outputs": [
        {
          "internalType": "bool",
          "name": "",
          "type": "bool"
        }
      ],
      "stateMutability": "view",
      "type": "function"
    },
    {
      "inputs": [
        {
          "internalType": "string",
          "name": "id",
          "type": "string"
        }
      ],
      "name": "getReferral",
      "outputs": [
        {
          "components": [
            {
              "internalType": "uint256",
              "name": "discountPercentage",
              "type": "uint256"
            },
            {
              "internalType": "uint256",
              "name": "commissionPercentage",
              "type": "uint256"
            },
            {
              "internalType": "address",
              "name": "receiver",
              "type": "address"
            }
          ],
          "internalType": "struct IPlayFiLicenseSale.Referral",
          "name": "referral",
          "type": "tuple"
        }
      ],
      "stateMutability": "view",
      "type": "function"
    },
    {
      "inputs": [
        {
          "internalType": "bytes32",
          "name": "role",
          "type": "bytes32"
        }
      ],
      "name": "getRoleAdmin",
      "outputs": [
        {
          "internalType": "bytes32",
          "name": "",
          "type": "bytes32"
        }
      ],
      "stateMutability": "view",
      "type": "function"
    },
    {
      "inputs": [
        {
          "internalType": "uint256",
          "name": "id",
          "type": "uint256"
        }
      ],
      "name": "getTier",
      "outputs": [
        {
          "components": [
            {
              "internalType": "uint256",
              "name": "price",
              "type": "uint256"
            },
            {
              "internalType": "uint256",
              "name": "individualCap",
              "type": "uint256"
            },
            {
              "internalType": "uint256",
              "name": "totalClaimed",
              "type": "uint256"
            },
            {
              "internalType": "uint256",
              "name": "totalCap",
              "type": "uint256"
            }
          ],
          "internalType": "struct IPlayFiLicenseSale.Tier",
          "name": "tier",
          "type": "tuple"
        }
      ],
      "stateMutability": "view",
      "type": "function"
    },
    {
      "inputs": [
        {
          "internalType": "bytes32",
          "name": "role",
          "type": "bytes32"
        },
        {
          "internalType": "address",
          "name": "account",
          "type": "address"
        }
      ],
      "name": "grantRole",
      "outputs": [],
      "stateMutability": "nonpayable",
      "type": "function"
    },
    {
      "inputs": [
        {
          "internalType": "bytes32",
          "name": "role",
          "type": "bytes32"
        },
        {
          "internalType": "address",
          "name": "account",
          "type": "address"
        }
      ],
      "name": "hasRole",
      "outputs": [
        {
          "internalType": "bool",
          "name": "",
          "type": "bool"
        }
      ],
      "stateMutability": "view",
      "type": "function"
    },
    {
      "inputs": [
        {
          "internalType": "address",
          "name": "admin",
          "type": "address"
        },
        {
          "internalType": "address",
          "name": "guardian",
          "type": "address"
        },
        {
          "internalType": "address",
          "name": "merkleManager",
          "type": "address"
        },
        {
          "internalType": "address",
          "name": "referralManager",
          "type": "address"
        }
      ],
      "name": "initialize",
      "outputs": [],
      "stateMutability": "nonpayable",
      "type": "function"
    },
    {
      "inputs": [
        {
          "internalType": "address",
          "name": "",
          "type": "address"
        }
      ],
      "name": "partnerClaimsPerAddress",
      "outputs": [
        {
          "internalType": "uint256",
          "name": "",
          "type": "uint256"
        }
      ],
      "stateMutability": "view",
      "type": "function"
    },
    {
      "inputs": [],
      "name": "partnerMerkleRoot",
      "outputs": [
        {
          "internalType": "bytes32",
          "name": "",
          "type": "bytes32"
        }
      ],
      "stateMutability": "view",
      "type": "function"
    },
    {
      "inputs": [],
      "name": "partnerSaleActive",
      "outputs": [
        {
          "internalType": "bool",
          "name": "",
          "type": "bool"
        }
      ],
      "stateMutability": "view",
      "type": "function"
    },
    {
      "inputs": [
        {
          "internalType": "uint256",
          "name": "amount",
          "type": "uint256"
        },
        {
          "internalType": "uint256",
          "name": "tier",
          "type": "uint256"
        },
        {
          "internalType": "string",
          "name": "referral",
          "type": "string"
        }
      ],
      "name": "paymentDetailsForReferral",
      "outputs": [
        {
          "internalType": "uint256",
          "name": "toPay",
          "type": "uint256"
        },
        {
          "internalType": "uint256",
          "name": "commission",
          "type": "uint256"
        },
        {
          "internalType": "uint256",
          "name": "discount",
          "type": "uint256"
        }
      ],
      "stateMutability": "view",
      "type": "function"
    },
    {
      "inputs": [
        {
          "internalType": "address",
          "name": "",
          "type": "address"
        }
      ],
      "name": "publicClaimsPerAddress",
      "outputs": [
        {
          "internalType": "uint256",
          "name": "",
          "type": "uint256"
        }
      ],
      "stateMutability": "view",
      "type": "function"
    },
    {
      "inputs": [],
      "name": "publicSaleActive",
      "outputs": [
        {
          "internalType": "bool",
          "name": "",
          "type": "bool"
        }
      ],
      "stateMutability": "view",
      "type": "function"
    },
    {
      "inputs": [
        {
          "internalType": "string",
          "name": "",
          "type": "string"
        }
      ],
      "name": "referrals",
      "outputs": [
        {
          "internalType": "uint256",
          "name": "discountPercentage",
          "type": "uint256"
        },
        {
          "internalType": "uint256",
          "name": "commissionPercentage",
          "type": "uint256"
        },
        {
          "internalType": "address",
          "name": "receiver",
          "type": "address"
        }
      ],
      "stateMutability": "view",
      "type": "function"
    },
    {
      "inputs": [
        {
          "internalType": "bytes32",
          "name": "role",
          "type": "bytes32"
        },
        {
          "internalType": "address",
          "name": "account",
          "type": "address"
        }
      ],
      "name": "renounceRole",
      "outputs": [],
      "stateMutability": "nonpayable",
      "type": "function"
    },
    {
      "inputs": [
        {
          "internalType": "bytes32",
          "name": "role",
          "type": "bytes32"
        },
        {
          "internalType": "address",
          "name": "account",
          "type": "address"
        }
      ],
      "name": "revokeRole",
      "outputs": [],
      "stateMutability": "nonpayable",
      "type": "function"
    },
    {
      "inputs": [
        {
          "internalType": "bytes32",
          "name": "_earlyAccessMerkleRoot",
          "type": "bytes32"
        }
      ],
      "name": "setEarlyAccessMerkleRoot",
      "outputs": [],
      "stateMutability": "nonpayable",
      "type": "function"
    },
    {
      "inputs": [
        {
          "internalType": "bool",
          "name": "status",
          "type": "bool"
        }
      ],
      "name": "setEarlyAccessSale",
      "outputs": [],
      "stateMutability": "nonpayable",
      "type": "function"
    },
    {
      "inputs": [
        {
          "internalType": "bytes32",
          "name": "_friendsFamilyMerkleRoot",
          "type": "bytes32"
        }
      ],
      "name": "setFriendsFamilyMerkleRoot",
      "outputs": [],
      "stateMutability": "nonpayable",
      "type": "function"
    },
    {
      "inputs": [
        {
          "internalType": "bool",
          "name": "status",
          "type": "bool"
        }
      ],
      "name": "setFriendsFamilySale",
      "outputs": [],
      "stateMutability": "nonpayable",
      "type": "function"
    },
    {
      "inputs": [
        {
          "internalType": "bytes32",
          "name": "_partnerMerkleRoot",
          "type": "bytes32"
        }
      ],
      "name": "setPartnerMerkleRoot",
      "outputs": [],
      "stateMutability": "nonpayable",
      "type": "function"
    },
    {
      "inputs": [
        {
          "internalType": "bool",
          "name": "status",
          "type": "bool"
        }
      ],
      "name": "setPartnerSale",
      "outputs": [],
      "stateMutability": "nonpayable",
      "type": "function"
    },
    {
      "inputs": [
        {
          "internalType": "bool",
          "name": "status",
          "type": "bool"
        }
      ],
      "name": "setPublicSale",
      "outputs": [],
      "stateMutability": "nonpayable",
      "type": "function"
    },
    {
      "inputs": [
        {
          "internalType": "string",
          "name": "code",
          "type": "string"
        },
        {
          "internalType": "address",
          "name": "receiver",
          "type": "address"
        },
        {
          "internalType": "uint256",
          "name": "commission",
          "type": "uint256"
        },
        {
          "internalType": "uint256",
          "name": "discount",
          "type": "uint256"
        }
      ],
      "name": "setReferral",
      "outputs": [],
      "stateMutability": "nonpayable",
      "type": "function"
    },
    {
      "inputs": [
        {
          "internalType": "bytes32",
          "name": "_teamMerkleRoot",
          "type": "bytes32"
        }
      ],
      "name": "setTeamMerkleRoot",
      "outputs": [],
      "stateMutability": "nonpayable",
      "type": "function"
    },
    {
      "inputs": [
        {
          "internalType": "bool",
          "name": "status",
          "type": "bool"
        }
      ],
      "name": "setTeamSale",
      "outputs": [],
      "stateMutability": "nonpayable",
      "type": "function"
    },
    {
      "inputs": [
        {
          "internalType": "uint256[]",
          "name": "ids",
          "type": "uint256[]"
        },
        {
          "internalType": "uint256[]",
          "name": "prices",
          "type": "uint256[]"
        },
        {
          "internalType": "uint256[]",
          "name": "individualCaps",
          "type": "uint256[]"
        },
        {
          "internalType": "uint256[]",
          "name": "totalCaps",
          "type": "uint256[]"
        }
      ],
      "name": "setTiers",
      "outputs": [],
      "stateMutability": "nonpayable",
      "type": "function"
    },
    {
      "inputs": [],
      "name": "standardCommissionPercentage",
      "outputs": [
        {
          "internalType": "uint256",
          "name": "",
          "type": "uint256"
        }
      ],
      "stateMutability": "view",
      "type": "function"
    },
    {
      "inputs": [],
      "name": "standardDiscountPercentage",
      "outputs": [
        {
          "internalType": "uint256",
          "name": "",
          "type": "uint256"
        }
      ],
      "stateMutability": "view",
      "type": "function"
    },
    {
      "inputs": [
        {
          "internalType": "bytes4",
          "name": "interfaceId",
          "type": "bytes4"
        }
      ],
      "name": "supportsInterface",
      "outputs": [
        {
          "internalType": "bool",
          "name": "",
          "type": "bool"
        }
      ],
      "stateMutability": "view",
      "type": "function"
    },
    {
      "inputs": [
        {
          "internalType": "address",
          "name": "",
          "type": "address"
        }
      ],
      "name": "teamClaimsPerAddress",
      "outputs": [
        {
          "internalType": "uint256",
          "name": "",
          "type": "uint256"
        }
      ],
      "stateMutability": "view",
      "type": "function"
    },
    {
      "inputs": [],
      "name": "teamMerkleRoot",
      "outputs": [
        {
          "internalType": "bytes32",
          "name": "",
          "type": "bytes32"
        }
      ],
      "stateMutability": "view",
      "type": "function"
    },
    {
      "inputs": [],
      "name": "teamSaleActive",
      "outputs": [
        {
          "internalType": "bool",
          "name": "",
          "type": "bool"
        }
      ],
      "stateMutability": "view",
      "type": "function"
    },
    {
      "inputs": [
        {
          "internalType": "uint256",
          "name": "",
          "type": "uint256"
        }
      ],
      "name": "tiers",
      "outputs": [
        {
          "internalType": "uint256",
          "name": "price",
          "type": "uint256"
        },
        {
          "internalType": "uint256",
          "name": "individualCap",
          "type": "uint256"
        },
        {
          "internalType": "uint256",
          "name": "totalClaimed",
          "type": "uint256"
        },
        {
          "internalType": "uint256",
          "name": "totalCap",
          "type": "uint256"
        }
      ],
      "stateMutability": "view",
      "type": "function"
    },
    {
      "inputs": [],
      "name": "totalLicenses",
      "outputs": [
        {
          "internalType": "uint256",
          "name": "",
          "type": "uint256"
        }
      ],
      "stateMutability": "view",
      "type": "function"
    },
    {
      "inputs": [],
      "name": "withdrawProceeds",
      "outputs": [],
      "stateMutability": "nonpayable",
      "type": "function"
    }
  ],
  "transactionHash": "0x7f3fe72f53cead689545da28114104e63f98f5b7eef007976d3a0d57285ae319",
  "args": [],
  "numDeployments": 1,
  "solcInputHash": "ba0771373b68701e3af8c7fe1738bbd9",
  "bytecode": "0x60806040523480156200001157600080fd5b506200001c62000022565b620000e3565b600054610100900460ff16156200008f5760405162461bcd60e51b815260206004820152602760248201527f496e697469616c697a61626c653a20636f6e747261637420697320696e697469604482015266616c697a696e6760c81b606482015260840160405180910390fd5b60005460ff90811614620000e1576000805460ff191660ff9081179091556040519081527f7f26b83ff96e1f2b6a682f133852f6798a09c465da95921460cefb38474024989060200160405180910390a15b565b613c2280620000f36000396000f3fe60806040526004361061033f5760003560e01c80639038e693116101b0578063bfc2aa0c116100ec578063d547741f11610095578063dc47dced1161006f578063dc47dced14610aea578063e4a5665f14610b0a578063f79eddb814610b2a578063f8c8765e14610b5757600080fd5b8063d547741f14610a29578063d55768dd14610a49578063d923780114610ad757600080fd5b8063d244c8d7116100c6578063d244c8d7146109ae578063d3666bc4146109e9578063d3d704cf14610a0957600080fd5b8063bfc2aa0c14610954578063ca59103614610974578063cd98d2611461099457600080fd5b8063a6f04c3011610159578063b21a687711610133578063b21a6877146108cb578063b4d6866b146108ff578063b6d8f66214610912578063bc8893b41461093257600080fd5b8063a6f04c301461083d578063a749df4b1461085d578063a9391fc0146108b557600080fd5b8063a217fddf1161018a578063a217fddf146107de578063a2671eb6146107f3578063a49ef9ef1461080957600080fd5b80639038e6931461074957806391d148541461075e5780639340b78b146107b157600080fd5b806346f6f4791161027f578063605a25c81161022857806375b238fc1161020257806375b238fc146106a75780637ec8f4b0146106db57806383b0287f146106fc5780638aea37101461071c57600080fd5b8063605a25c814610630578063665eecf1146106685780636ec14ac41461068757600080fd5b806350cd60fc1161025957806350cd60fc146105ea5780635163d92f146105fd5780635aca1bb61461061057600080fd5b806346f6f479146105615780634ba0fcee146105775780634f062c5a1461059757600080fd5b8063248a9ca3116102ec5780632f2ff15d116102c65780632f2ff15d146104e95780633533b8e01461050b57806336568abe146105215780634458034a1461054157600080fd5b8063248a9ca31461046f57806324ea54f41461049f57806329140819146104d357600080fd5b8063118c04a41161031d578063118c04a4146103ff578063187e33241461042c57806323e586051461044257600080fd5b806301ffc9a714610344578063039af9eb146103795780630e80a287146103db575b600080fd5b34801561035057600080fd5b5061036461035f366004613401565b610b77565b60405190151581526020015b60405180910390f35b34801561038557600080fd5b506103bb610394366004613443565b60a46020526000908152604090208054600182015460028301546003909301549192909184565b604080519485526020850193909352918301526060820152608001610370565b3480156103e757600080fd5b506103f1609e5481565b604051908152602001610370565b34801561040b57600080fd5b506103f161041a366004613485565b609f6020526000908152604090205481565b34801561043857600080fd5b506103f160985481565b34801561044e57600080fd5b506103f161045d366004613485565b60a26020526000908152604090205481565b34801561047b57600080fd5b506103f161048a366004613443565b60009081526065602052604090206001015490565b3480156104ab57600080fd5b506103f17f8b5b16d04624687fcf0d0228f19993c9157c1ed07b41d8d430fd9100eb099fe881565b3480156104df57600080fd5b506103f160975481565b3480156104f557600080fd5b506105096105043660046134a0565b610c10565b005b34801561051757600080fd5b506103f160995481565b34801561052d57600080fd5b5061050961053c3660046134a0565b610c3a565b34801561054d57600080fd5b5061050961055c3660046134cc565b610cf2565b34801561056d57600080fd5b506103f1609d5481565b34801561058357600080fd5b506105096105923660046134cc565b610db2565b3480156105a357600080fd5b506105b76105b2366004613443565b610e68565b60405161037091908151815260208083015190820152604080830151908201526060918201519181019190915260800190565b6105096105f836600461357c565b610ed8565b61050961060b36600461357c565b61114e565b34801561061c57600080fd5b5061050961062b3660046134cc565b6113b5565b34801561063c57600080fd5b506103f161064b3660046134a0565b60a660209081526000928352604080842090915290825290205481565b34801561067457600080fd5b50609b5461036490610100900460ff1681565b34801561069357600080fd5b506105096106a236600461357c565b61146d565b3480156106b357600080fd5b506103f17fdf8b4c520ffe197c5343c6f5aec59570151ef9a492f2c624fd45ddde6135ec4281565b3480156106e757600080fd5b50609b54610364906301000000900460ff1681565b34801561070857600080fd5b50609b546103649062010000900460ff1681565b34801561072857600080fd5b506103f1610737366004613485565b60a16020526000908152604090205481565b34801561075557600080fd5b50610509611661565b34801561076a57600080fd5b506103646107793660046134a0565b600091825260656020908152604080842073ffffffffffffffffffffffffffffffffffffffff93909316845291905290205460ff1690565b3480156107bd57600080fd5b506103f16107cc366004613485565b60a36020526000908152604090205481565b3480156107ea57600080fd5b506103f1600081565b3480156107ff57600080fd5b506103f1609c5481565b34801561081557600080fd5b506103f17ffd2994b76294f3a7e0e5e4e40e73799b954c33f4bff642b5e760fef0d694a92481565b34801561084957600080fd5b506105096108583660046135f6565b61176d565b34801561086957600080fd5b5061087d610878366004613794565b6119f0565b6040805182518152602080840151908201529181015173ffffffffffffffffffffffffffffffffffffffff1690820152606001610370565b3480156108c157600080fd5b506103f1609a5481565b3480156108d757600080fd5b506103f17fceb656422d2e5768b364a6526533f6832c483c8cfbd416512fbbd6fa6413f96a81565b61050961090d36600461357c565b611a86565b34801561091e57600080fd5b5061050961092d366004613443565b611cee565b34801561093e57600080fd5b50609b5461036490640100000000900460ff1681565b34801561096057600080fd5b5061050961096f3660046137d1565b611d72565b34801561098057600080fd5b5061050961098f3660046134cc565b611dd3565b3480156109a057600080fd5b50609b546103649060ff1681565b3480156109ba57600080fd5b506109ce6109c936600461382e565b611e81565b60408051938452602084019290925290820152606001610370565b3480156109f557600080fd5b50610509610a043660046134cc565b611f31565b348015610a1557600080fd5b50610509610a24366004613443565b611fe8565b348015610a3557600080fd5b50610509610a443660046134a0565b61206c565b348015610a5557600080fd5b50610aa6610a64366004613794565b805160208183018101805160a58252928201919093012091528054600182015460029092015490919073ffffffffffffffffffffffffffffffffffffffff1683565b60408051938452602084019290925273ffffffffffffffffffffffffffffffffffffffff1690820152606001610370565b610509610ae536600461382e565b612091565b348015610af657600080fd5b50610509610b05366004613443565b612414565b348015610b1657600080fd5b50610509610b25366004613443565b612498565b348015610b3657600080fd5b506103f1610b45366004613485565b60a06020526000908152604090205481565b348015610b6357600080fd5b50610509610b72366004613881565b61251c565b60007fffffffff0000000000000000000000000000000000000000000000000000000082167f7965db0b000000000000000000000000000000000000000000000000000000001480610c0a57507f01ffc9a7000000000000000000000000000000000000000000000000000000007fffffffff000000000000000000000000000000000000000000000000000000008316145b92915050565b600082815260656020526040902060010154610c2b81612a53565b610c358383612a60565b505050565b73ffffffffffffffffffffffffffffffffffffffff81163314610ce4576040517f08c379a000000000000000000000000000000000000000000000000000000000815260206004820152602f60248201527f416363657373436f6e74726f6c3a2063616e206f6e6c792072656e6f756e636560448201527f20726f6c657320666f722073656c66000000000000000000000000000000000060648201526084015b60405180910390fd5b610cee8282612b54565b5050565b3360009081527f3a5f6b5b20ab0e425b1c7c9823b9866065cea388466bf7d4f12b2ad1dfbaf604602052604090205460ff16610d4157604051634ca8886760e01b815260040160405180910390fd5b609b8054821515610100027fffffffffffffffffffffffffffffffffffffffffffffffffffffffffffff00ff9091161790556040517f9f5cf153333ec6c3f336a73d8dd75b350a36948f61b0b13ae43af5b5c144a6f590610da790831515815260200190565b60405180910390a150565b3360009081527f3a5f6b5b20ab0e425b1c7c9823b9866065cea388466bf7d4f12b2ad1dfbaf604602052604090205460ff16610e0157604051634ca8886760e01b815260040160405180910390fd5b609b805482151562010000027fffffffffffffffffffffffffffffffffffffffffffffffffffffffffff00ffff9091161790556040517f643f3a44207851ae16a2c404fa7307be53087b3a8e378e0c908e592c64f5066990610da790831515815260200190565b610e936040518060800160405280600081526020016000815260200160008152602001600081525090565b50600090815260a46020908152604091829020825160808101845281548152600182015492810192909252600281015492820192909252600390910154606082015290565b609b54610100900460ff16610f19576040517f7856fae200000000000000000000000000000000000000000000000000000000815260040160405180910390fd5b600080610f28858701876138d5565b33600090815260a06020526040902054919350915081610f48828a613926565b1115610f80576040517f7a399cc900000000000000000000000000000000000000000000000000000000815260040160405180910390fd5b60408051602081018590527fffffffffffffffffffffffffffffffffffffffff0000000000000000000000003360601b16918101919091526054810183905260009060740160405160208183030381529060405280519060200120905061101e868680806020026020016040519081016040528093929190818152602001838360200280828437600092019190915250506098549150849050612c0f565b611054576040517f09bde33900000000000000000000000000000000000000000000000000000000815260040160405180910390fd5b6001600090815260a46020527f3ab5dcf47126747c0704cb686c5b362a3f19c34c1a7f9e61bd557bb2aac5bcac5461108d908b90613939565b9050803410156110c9576040517fcd1c886700000000000000000000000000000000000000000000000000000000815260040160405180910390fd5b33600090815260a06020526040812080548c92906110e8908490613926565b9250508190555089609e60008282546111019190613926565b909155505060408051828152602081018c905233917f09f1b238e0c956383f51f6a0a249784a40ca5b7a87c8b151a727016be60cccd591015b60405180910390a250505050505050505050565b609b5462010000900460ff16611190576040517f724187c200000000000000000000000000000000000000000000000000000000815260040160405180910390fd5b60008061119f858701876138d5565b33600090815260a160205260409020549193509150816111bf828a613926565b11156111f7576040517f7a399cc900000000000000000000000000000000000000000000000000000000815260040160405180910390fd5b60408051602081018590527fffffffffffffffffffffffffffffffffffffffff0000000000000000000000003360601b169181019190915260548101839052600090607401604051602081830303815290604052805190602001209050611295868680806020026020016040519081016040528093929190818152602001838360200280828437600092019190915250506099549150849050612c0f565b6112cb576040517f09bde33900000000000000000000000000000000000000000000000000000000815260040160405180910390fd5b6001600090815260a46020527f3ab5dcf47126747c0704cb686c5b362a3f19c34c1a7f9e61bd557bb2aac5bcac54611304908b90613939565b905080341015611340576040517fcd1c886700000000000000000000000000000000000000000000000000000000815260040160405180910390fd5b33600090815260a16020526040812080548c929061135f908490613926565b9250508190555089609e60008282546113789190613926565b909155505060408051828152602081018c905233917f7d6d20e50ff90d3c35b2d0182ab7dd6825df9759011eb6ae1499640a2c2b2eeb910161113a565b3360009081527f3a5f6b5b20ab0e425b1c7c9823b9866065cea388466bf7d4f12b2ad1dfbaf604602052604090205460ff1661140457604051634ca8886760e01b815260040160405180910390fd5b609b8054821515640100000000027fffffffffffffffffffffffffffffffffffffffffffffffffffffff00ffffffff9091161790556040517f3b7b44afae3b983507896693d669f6119d5ab003ec1ab51123108429bd5d46d790610da790831515815260200190565b609b5460ff166114a9576040517f27dc08c400000000000000000000000000000000000000000000000000000000815260040160405180910390fd5b6000806114b8858701876138d5565b336000908152609f60205260409020549193509150816114d8828a613926565b1115611510576040517f7a399cc900000000000000000000000000000000000000000000000000000000815260040160405180910390fd5b60408051602081018590527fffffffffffffffffffffffffffffffffffffffff0000000000000000000000003360601b1691810191909152605481018390526000906074016040516020818303038152906040528051906020012090506115ae868680806020026020016040519081016040528093929190818152602001838360200280828437600092019190915250506097549150849050612c0f565b6115e4576040517f09bde33900000000000000000000000000000000000000000000000000000000815260040160405180910390fd5b336000908152609f6020526040812080548b9290611603908490613926565b9250508190555088609e600082825461161c9190613926565b909155505060405189815233907fdcf2314e0115a42fe2b3fcfb533c03e95dc48bc7769a9c2b61a14883c0b449e09060200160405180910390a2505050505050505050565b3360009081527f9de19bebcfec5fefaa13a42edbcc11cb6ff633bb0eb0a7f29bcb2311657057e0602052604090205460ff166116b057604051634ca8886760e01b815260040160405180910390fd5b6040514790600090339083908381818185875af1925050503d80600081146116f4576040519150601f19603f3d011682016040523d82523d6000602084013e6116f9565b606091505b5050905080611734576040517f27fcd9d100000000000000000000000000000000000000000000000000000000815260040160405180910390fd5b60405182815233907f0f2fb75cc1977a496e94837f859e957f68e26e70dc1b75d9945ee92ae57969ba9060200160405180910390a25050565b3360009081527f9de19bebcfec5fefaa13a42edbcc11cb6ff633bb0eb0a7f29bcb2311657057e0602052604090205460ff166117bc57604051634ca8886760e01b815260040160405180910390fd5b86851415806117cb5750848314155b806117d65750828114155b1561180d576040517f8d7b788500000000000000000000000000000000000000000000000000000000815260040160405180910390fd5b60005b878110156119e557604051806080016040528088888481811061183557611835613950565b90506020020135815260200186868481811061185357611853613950565b90506020020135815260200160a460008c8c8681811061187557611875613950565b9050602002013581526020019081526020016000206002015481526020018484848181106118a5576118a5613950565b9050602002013581525060a460008b8b858181106118c5576118c5613950565b9050602002013581526020019081526020016000206000820151816000015560208201518160010155604082015181600201556060820151816003015590505088888281811061191757611917613950565b905060200201357fefd55558319646aa70e53c48ba0480d26d9fdce9d6399432fac9356ee254944c88888481811061195157611951613950565b9050602002013587878581811061196a5761196a613950565b9050602002013560a460008e8e8881811061198757611987613950565b905060200201358152602001908152602001600020600201548787878181106119b2576119b2613950565b604080519687526020878101969096528601939093525091020135606082015260800160405180910390a2600101611810565b505050505050505050565b611a2a60405180606001604052806000815260200160008152602001600073ffffffffffffffffffffffffffffffffffffffff1681525090565b60a582604051611a3a91906139a3565b908152604080519182900360209081018320606084018352805484526001810154918401919091526002015473ffffffffffffffffffffffffffffffffffffffff169082015292915050565b609b546301000000900460ff16611ac9576040517fb4eb177f00000000000000000000000000000000000000000000000000000000815260040160405180910390fd5b600080611ad8858701876138d5565b33600090815260a26020526040902054919350915081611af8828a613926565b1115611b30576040517f7a399cc900000000000000000000000000000000000000000000000000000000815260040160405180910390fd5b60408051602081018590527fffffffffffffffffffffffffffffffffffffffff0000000000000000000000003360601b169181019190915260548101839052600090607401604051602081830303815290604052805190602001209050611bce86868080602002602001604051908101604052809392919081815260200183836020028082843760009201919091525050609a549150849050612c0f565b611c04576040517f09bde33900000000000000000000000000000000000000000000000000000000815260040160405180910390fd5b6008600090815260a46020527fd9058c2826ef0496d703be02540a33f7926ce1c4d7cb190dfde6a34a8f6dcdeb54611c3d908b90613939565b905080341015611c79576040517fcd1c886700000000000000000000000000000000000000000000000000000000815260040160405180910390fd5b33600090815260a26020526040812080548c9290611c98908490613926565b9250508190555089609e6000828254611cb19190613926565b909155505060408051828152602081018c905233917ffe967ea7790b7bd18d9060933cc6b30cd2ebe3ec63dbfb00d5655a2af4bdfc50910161113a565b3360009081527f0f8f48858e118d2eab32cf95c88221b6c0a0d6e1fed7aef78e355435fa71bc6f602052604090205460ff16611d3d57604051634ca8886760e01b815260040160405180910390fd5b609a8190556040518181527fc51bf385a517774504e203c62712392af40bd3ddcee8e29e72fd9584fc4a2deb90602001610da7565b3360009081527f93597da006e5eb572f6ec69e1ccdaa385853d6a136697cd54f88b4acaace9499602052604090205460ff16611dc157604051634ca8886760e01b815260040160405180910390fd5b611dcd84848484612c25565b50505050565b3360009081527f3a5f6b5b20ab0e425b1c7c9823b9866065cea388466bf7d4f12b2ad1dfbaf604602052604090205460ff16611e2257604051634ca8886760e01b815260040160405180910390fd5b609b80547fffffffffffffffffffffffffffffffffffffffffffffffffffffffffffffff00168215159081179091556040519081527fadafd3bec1c754707cbddc626a6214c879cecc475375ff8f5a1dbc329939869390602001610da7565b600083815260a46020526040812054819081908190611ea1908990613939565b9050606460a58787604051611eb79291906139bf565b90815260405190819003602001902054611ed19083613939565b611edb91906139cf565b9150606460a58787604051611ef19291906139bf565b90815260200160405180910390206001015482611f0e9190613939565b611f1891906139cf565b9250611f248282613a0a565b9350509450945094915050565b3360009081527f3a5f6b5b20ab0e425b1c7c9823b9866065cea388466bf7d4f12b2ad1dfbaf604602052604090205460ff16611f8057604051634ca8886760e01b815260040160405180910390fd5b609b80548215156301000000027fffffffffffffffffffffffffffffffffffffffffffffffffffffffff00ffffff9091161790556040517fbc3a54bd7c62015269a66d0527ed442c28f1b1e0263b8ed19ee90946b6327d0390610da790831515815260200190565b3360009081527f0f8f48858e118d2eab32cf95c88221b6c0a0d6e1fed7aef78e355435fa71bc6f602052604090205460ff1661203757604051634ca8886760e01b815260040160405180910390fd5b60998190556040518181527fed5a3c80523111a140a98ec8643e5fb5ac073fe6b8528163c00123af11e4b31a90602001610da7565b60008281526065602052604090206001015461208781612a53565b610c358383612b54565b609b54640100000000900460ff166120d5576040517fc7d08f0400000000000000000000000000000000000000000000000000000000815260040160405180910390fd5b600083815260a46020526040902060038101546002909101546120f9908690613926565b1115612131576040517f98a3f79100000000000000000000000000000000000000000000000000000000815260040160405180910390fd5b600083815260a4602090815260408083206001015460a6835281842033855290925290912054612162908690613926565b111561219a576040517fbbd4c2bd00000000000000000000000000000000000000000000000000000000815260040160405180910390fd5b6000806121a986868686611e81565b5091509150813410156121e8576040517fcd1c886700000000000000000000000000000000000000000000000000000000815260040160405180910390fd5b801561232257600060a585856040516122029291906139bf565b9081526040519081900360200181206002015473ffffffffffffffffffffffffffffffffffffffff1690839060006040518083038185875af1925050503d806000811461226b576040519150601f19603f3d011682016040523d82523d6000602084013e612270565b606091505b50509050806122ab576040517f1ac89c8000000000000000000000000000000000000000000000000000000000815260040160405180910390fd5b60a585856040516122bd9291906139bf565b9081526040519081900360200181206002015473ffffffffffffffffffffffffffffffffffffffff16907f32f584d0754f9710dea21e509acf4c6b5885c93f3cf96f1ed74256887485d1309061231890889088908790613a66565b60405180910390a2505b600061232d33612d8b565b905060a58160405161233f91906139a3565b90815260405190819003602001902054600003612366576123668133609c54609d54612c25565b600086815260a4602052604081206002018054899290612387908490613926565b909155505033600090815260a36020526040812080548992906123ab908490613926565b9250508190555086609e60008282546123c49190613926565b9091555050604051869033907f667f777d5c0d93b002117ea7ffc49143b4c2180cb35b02848c4ab62631a0cd2590612403908b9088908b908b90613a8a565b60405180910390a350505050505050565b3360009081527f0f8f48858e118d2eab32cf95c88221b6c0a0d6e1fed7aef78e355435fa71bc6f602052604090205460ff1661246357604051634ca8886760e01b815260040160405180910390fd5b60978190556040518181527f9811c75983304a889ec0cb24de6cb2a102ceef14040efeca89e8361047af9daf90602001610da7565b3360009081527f0f8f48858e118d2eab32cf95c88221b6c0a0d6e1fed7aef78e355435fa71bc6f602052604090205460ff166124e757604051634ca8886760e01b815260040160405180910390fd5b60988190556040518181527fa9def886987ec775de3f208d9045235d630a49852d8da931fa98c53e9c4a799590602001610da7565b600054610100900460ff161580801561253c5750600054600160ff909116105b806125565750303b158015612556575060005460ff166001145b6125e2576040517f08c379a000000000000000000000000000000000000000000000000000000000815260206004820152602e60248201527f496e697469616c697a61626c653a20636f6e747261637420697320616c72656160448201527f647920696e697469616c697a65640000000000000000000000000000000000006064820152608401610cdb565b600080547fffffffffffffffffffffffffffffffffffffffffffffffffffffffffffffff00166001179055801561264057600080547fffffffffffffffffffffffffffffffffffffffffffffffffffffffffffff00ff166101001790555b612648612dae565b73ffffffffffffffffffffffffffffffffffffffff85166126ad576040517f8e4c8aa600000000000000000000000000000000000000000000000000000000815273ffffffffffffffffffffffffffffffffffffffff86166004820152602401610cdb565b73ffffffffffffffffffffffffffffffffffffffff8416612712576040517f8e4c8aa600000000000000000000000000000000000000000000000000000000815273ffffffffffffffffffffffffffffffffffffffff85166004820152602401610cdb565b73ffffffffffffffffffffffffffffffffffffffff8316612777576040517f8e4c8aa600000000000000000000000000000000000000000000000000000000815273ffffffffffffffffffffffffffffffffffffffff84166004820152602401610cdb565b73ffffffffffffffffffffffffffffffffffffffff82166127dc576040517f8e4c8aa600000000000000000000000000000000000000000000000000000000815273ffffffffffffffffffffffffffffffffffffffff83166004820152602401610cdb565b6128067fdf8b4c520ffe197c5343c6f5aec59570151ef9a492f2c624fd45ddde6135ec4286612a60565b6128307fdf8b4c520ffe197c5343c6f5aec59570151ef9a492f2c624fd45ddde6135ec4280612e47565b61285a7f8b5b16d04624687fcf0d0228f19993c9157c1ed07b41d8d430fd9100eb099fe885612a60565b6128847f8b5b16d04624687fcf0d0228f19993c9157c1ed07b41d8d430fd9100eb099fe886612a60565b6128ce7f8b5b16d04624687fcf0d0228f19993c9157c1ed07b41d8d430fd9100eb099fe87fdf8b4c520ffe197c5343c6f5aec59570151ef9a492f2c624fd45ddde6135ec42612e47565b6128f87ffd2994b76294f3a7e0e5e4e40e73799b954c33f4bff642b5e760fef0d694a92484612a60565b6129427ffd2994b76294f3a7e0e5e4e40e73799b954c33f4bff642b5e760fef0d694a9247fdf8b4c520ffe197c5343c6f5aec59570151ef9a492f2c624fd45ddde6135ec42612e47565b61296c7fceb656422d2e5768b364a6526533f6832c483c8cfbd416512fbbd6fa6413f96a83612a60565b6129b67fceb656422d2e5768b364a6526533f6832c483c8cfbd416512fbbd6fa6413f96a7fdf8b4c520ffe197c5343c6f5aec59570151ef9a492f2c624fd45ddde6135ec42612e47565b6005609c819055609d556040517f9f4eefba9f06bdd612ec93892ddb6d0bf72365e3835c1159ce2f0b9f172bfcbd90600090a18015612a4c57600080547fffffffffffffffffffffffffffffffffffffffffffffffffffffffffffff00ff169055604051600181527f7f26b83ff96e1f2b6a682f133852f6798a09c465da95921460cefb38474024989060200160405180910390a15b5050505050565b612a5d8133612e92565b50565b600082815260656020908152604080832073ffffffffffffffffffffffffffffffffffffffff8516845290915290205460ff16610cee57600082815260656020908152604080832073ffffffffffffffffffffffffffffffffffffffff85168452909152902080547fffffffffffffffffffffffffffffffffffffffffffffffffffffffffffffff00166001179055612af63390565b73ffffffffffffffffffffffffffffffffffffffff168173ffffffffffffffffffffffffffffffffffffffff16837f2f8788117e7eff1d82e926ec794901d17c78024a50270940304540a733656f0d60405160405180910390a45050565b600082815260656020908152604080832073ffffffffffffffffffffffffffffffffffffffff8516845290915290205460ff1615610cee57600082815260656020908152604080832073ffffffffffffffffffffffffffffffffffffffff8516808552925280832080547fffffffffffffffffffffffffffffffffffffffffffffffffffffffffffffff0016905551339285917ff6391f5c32d9c69d2a47ea670b442974b53935d1edc7fd64eb21e047a839171b9190a45050565b600082612c1c8584612f4c565b14949350505050565b6032811115612c60576040517f997ea36000000000000000000000000000000000000000000000000000000000815260040160405180910390fd5b6032821115612c9b576040517fdc81db8500000000000000000000000000000000000000000000000000000000815260040160405180910390fd5b8060a585604051612cac91906139a3565b90815260405190819003602001812091909155829060a590612ccf9087906139a3565b9081526020016040518091039020600101819055508260a585604051612cf591906139a3565b908152604051908190036020018120600201805473ffffffffffffffffffffffffffffffffffffffff9384167fffffffffffffffffffffffff0000000000000000000000000000000000000000909116179055908416907fab01b91658e399ea84d00e2fef9a83efae42fb6f4114c76abf714ff3a34db4c390612d7d90879086908690613afe565b60405180910390a250505050565b6060610c0a73ffffffffffffffffffffffffffffffffffffffff83166014612f8f565b600054610100900460ff16612e45576040517f08c379a000000000000000000000000000000000000000000000000000000000815260206004820152602b60248201527f496e697469616c697a61626c653a20636f6e7472616374206973206e6f74206960448201527f6e697469616c697a696e670000000000000000000000000000000000000000006064820152608401610cdb565b565b600082815260656020526040808220600101805490849055905190918391839186917fbd79b86ffe0ab8e8776151514217cd7cacd52c909f66475c3af44e129f0b00ff9190a4505050565b600082815260656020908152604080832073ffffffffffffffffffffffffffffffffffffffff8516845290915290205460ff16610cee57612ed2816131d9565b612edd8360206131f8565b604051602001612eee929190613b23565b604080517fffffffffffffffffffffffffffffffffffffffffffffffffffffffffffffffe0818403018152908290527f08c379a0000000000000000000000000000000000000000000000000000000008252610cdb91600401613ba4565b600081815b8451811015612f8757612f7d82868381518110612f7057612f70613950565b60200260200101516133d2565b9150600101612f51565b509392505050565b60606000612f9e836002613939565b612fa9906002613926565b67ffffffffffffffff811115612fc157612fc16136ba565b6040519080825280601f01601f191660200182016040528015612feb576020820181803683370190505b5090507f30000000000000000000000000000000000000000000000000000000000000008160008151811061302257613022613950565b60200101907effffffffffffffffffffffffffffffffffffffffffffffffffffffffffffff1916908160001a9053507f78000000000000000000000000000000000000000000000000000000000000008160018151811061308557613085613950565b60200101907effffffffffffffffffffffffffffffffffffffffffffffffffffffffffffff1916908160001a90535060006130c1846002613939565b6130cc906001613926565b90505b6001811115613169577f303132333435363738396162636465660000000000000000000000000000000085600f166010811061310d5761310d613950565b1a60f81b82828151811061312357613123613950565b60200101907effffffffffffffffffffffffffffffffffffffffffffffffffffffffffffff1916908160001a90535060049490941c9361316281613bb7565b90506130cf565b5083156131d2576040517f08c379a000000000000000000000000000000000000000000000000000000000815260206004820181905260248201527f537472696e67733a20686578206c656e67746820696e73756666696369656e746044820152606401610cdb565b9392505050565b6060610c0a73ffffffffffffffffffffffffffffffffffffffff831660145b60606000613207836002613939565b613212906002613926565b67ffffffffffffffff81111561322a5761322a6136ba565b6040519080825280601f01601f191660200182016040528015613254576020820181803683370190505b5090507f30000000000000000000000000000000000000000000000000000000000000008160008151811061328b5761328b613950565b60200101907effffffffffffffffffffffffffffffffffffffffffffffffffffffffffffff1916908160001a9053507f7800000000000000000000000000000000000000000000000000000000000000816001815181106132ee576132ee613950565b60200101907effffffffffffffffffffffffffffffffffffffffffffffffffffffffffffff1916908160001a905350600061332a846002613939565b613335906001613926565b90505b6001811115613169577f303132333435363738396162636465660000000000000000000000000000000085600f166010811061337657613376613950565b1a60f81b82828151811061338c5761338c613950565b60200101907effffffffffffffffffffffffffffffffffffffffffffffffffffffffffffff1916908160001a90535060049490941c936133cb81613bb7565b9050613338565b60008183106133ee5760008281526020849052604090206131d2565b60008381526020839052604090206131d2565b60006020828403121561341357600080fd5b81357fffffffff00000000000000000000000000000000000000000000000000000000811681146131d257600080fd5b60006020828403121561345557600080fd5b5035919050565b803573ffffffffffffffffffffffffffffffffffffffff8116811461348057600080fd5b919050565b60006020828403121561349757600080fd5b6131d28261345c565b600080604083850312156134b357600080fd5b823591506134c36020840161345c565b90509250929050565b6000602082840312156134de57600080fd5b813580151581146131d257600080fd5b60008083601f84011261350057600080fd5b50813567ffffffffffffffff81111561351857600080fd5b60208301915083602082850101111561353057600080fd5b9250929050565b60008083601f84011261354957600080fd5b50813567ffffffffffffffff81111561356157600080fd5b6020830191508360208260051b850101111561353057600080fd5b60008060008060006060868803121561359457600080fd5b85359450602086013567ffffffffffffffff808211156135b357600080fd5b6135bf89838a016134ee565b909650945060408801359150808211156135d857600080fd5b506135e588828901613537565b969995985093965092949392505050565b6000806000806000806000806080898b03121561361257600080fd5b883567ffffffffffffffff8082111561362a57600080fd5b6136368c838d01613537565b909a50985060208b013591508082111561364f57600080fd5b61365b8c838d01613537565b909850965060408b013591508082111561367457600080fd5b6136808c838d01613537565b909650945060608b013591508082111561369957600080fd5b506136a68b828c01613537565b999c989b5096995094979396929594505050565b7f4e487b7100000000000000000000000000000000000000000000000000000000600052604160045260246000fd5b600082601f8301126136fa57600080fd5b813567ffffffffffffffff80821115613715576137156136ba565b604051601f83017fffffffffffffffffffffffffffffffffffffffffffffffffffffffffffffffe0908116603f0116810190828211818310171561375b5761375b6136ba565b8160405283815286602085880101111561377457600080fd5b836020870160208301376000602085830101528094505050505092915050565b6000602082840312156137a657600080fd5b813567ffffffffffffffff8111156137bd57600080fd5b6137c9848285016136e9565b949350505050565b600080600080608085870312156137e757600080fd5b843567ffffffffffffffff8111156137fe57600080fd5b61380a878288016136e9565b9450506138196020860161345c565b93969395505050506040820135916060013590565b6000806000806060858703121561384457600080fd5b8435935060208501359250604085013567ffffffffffffffff81111561386957600080fd5b613875878288016134ee565b95989497509550505050565b6000806000806080858703121561389757600080fd5b6138a08561345c565b93506138ae6020860161345c565b92506138bc6040860161345c565b91506138ca6060860161345c565b905092959194509250565b600080604083850312156138e857600080fd5b50508035926020909101359150565b7f4e487b7100000000000000000000000000000000000000000000000000000000600052601160045260246000fd5b80820180821115610c0a57610c0a6138f7565b8082028115828204841417610c0a57610c0a6138f7565b7f4e487b7100000000000000000000000000000000000000000000000000000000600052603260045260246000fd5b60005b8381101561399a578181015183820152602001613982565b50506000910152565b600082516139b581846020870161397f565b9190910192915050565b8183823760009101908152919050565b600082613a05577f4e487b7100000000000000000000000000000000000000000000000000000000600052601260045260246000fd5b500490565b81810381811115610c0a57610c0a6138f7565b8183528181602085013750600060208284010152600060207fffffffffffffffffffffffffffffffffffffffffffffffffffffffffffffffe0601f840116840101905092915050565b604081526000613a7a604083018587613a1d565b9050826020830152949350505050565b848152836020820152606060408201526000613aaa606083018486613a1d565b9695505050505050565b60008151808452613acc81602086016020860161397f565b601f017fffffffffffffffffffffffffffffffffffffffffffffffffffffffffffffffe0169290920160200192915050565b606081526000613b116060830186613ab4565b60208301949094525060400152919050565b7f416363657373436f6e74726f6c3a206163636f756e7420000000000000000000815260008351613b5b81601785016020880161397f565b7f206973206d697373696e6720726f6c65200000000000000000000000000000006017918401918201528351613b9881602884016020880161397f565b01602801949350505050565b6020815260006131d26020830184613ab4565b600081613bc657613bc66138f7565b507fffffffffffffffffffffffffffffffffffffffffffffffffffffffffffffffff019056fea2646970667358221220a1ae16333092ab6d1decb7f3e894a99bc3344119b6826fd07bf9838eef08204564736f6c63430008180033",
  "devdoc": {
    "author": "Archethect",
    "events": {
      "Initialized(uint8)": {
        "details": "Triggered when the contract has been initialized or reinitialized."
      },
      "RoleAdminChanged(bytes32,bytes32,bytes32)": {
        "details": "Emitted when `newAdminRole` is set as ``role``'s admin role, replacing `previousAdminRole` `DEFAULT_ADMIN_ROLE` is the starting admin for all roles, despite {RoleAdminChanged} not being emitted signaling this. _Available since v3.1._"
      },
      "RoleGranted(bytes32,address,address)": {
        "details": "Emitted when `account` is granted `role`. `sender` is the account that originated the contract call, an admin role bearer except when using {AccessControl-_setupRole}."
      },
      "RoleRevoked(bytes32,address,address)": {
        "details": "Emitted when `account` is revoked `role`. `sender` is the account that originated the contract call:   - if using `revokeRole`, it is the admin role bearer   - if using `renounceRole`, it is the role bearer (i.e. `account`)"
      }
    },
    "kind": "dev",
    "methods": {
      "claimLicenseEarlyAccess(uint256,bytes,bytes32[])": {
        "params": {
          "amount": "The amount of licenses to claim",
          "data": "Index and claimCap in encoded format",
          "merkleProof": "The proof used to verify whether the caller is allowed to claim the licenses"
        }
      },
      "claimLicenseFriendsFamily(uint256,bytes,bytes32[])": {
        "params": {
          "amount": "The amount of licenses to claim",
          "data": "Index and claimCap in encoded format",
          "merkleProof": "The proof used to verify weather the caller is allowed to claim the licenses"
        }
      },
      "claimLicensePartner(uint256,bytes,bytes32[])": {
        "params": {
          "amount": "The amount of licenses to claim",
          "data": "Index and claimCap in encoded format",
          "merkleProof": "The proof used to verify weather the caller is allowed to claim the licenses"
        }
      },
      "claimLicensePublic(uint256,uint256,string)": {
        "params": {
          "amount": "The amount of licenses to claim",
          "referral": "A referral code that can give discounts.",
          "tier": "The tier to buy the licenses from"
        }
      },
      "claimLicenseTeam(uint256,bytes,bytes32[])": {
        "params": {
          "amount": "The amount of licenses to claim",
          "data": "Index and claimCap in encoded format",
          "merkleProof": "The proof used to verify whether the caller is allowed to claim the licenses"
        }
      },
      "constructor": {
        "custom:oz-upgrades-unsafe-allow": "constructor"
      },
      "getReferral(string)": {
        "params": {
          "id": "The referral id"
        },
        "returns": {
          "referral": "The referral"
        }
      },
      "getRoleAdmin(bytes32)": {
        "details": "Returns the admin role that controls `role`. See {grantRole} and {revokeRole}. To change a role's admin, use {_setRoleAdmin}."
      },
      "getTier(uint256)": {
        "params": {
          "id": "The tier id"
        },
        "returns": {
          "tier": "The tier"
        }
      },
      "grantRole(bytes32,address)": {
        "details": "Grants `role` to `account`. If `account` had not been already granted `role`, emits a {RoleGranted} event. Requirements: - the caller must have ``role``'s admin role. May emit a {RoleGranted} event."
      },
      "hasRole(bytes32,address)": {
        "details": "Returns `true` if `account` has been granted `role`."
      },
      "paymentDetailsForReferral(uint256,uint256,string)": {
        "params": {
          "amount": "The amount of licenses to claim",
          "referral": "A referral code that can give discounts.",
          "tier": "The tier to buy the licenses from"
        },
        "returns": {
          "commission": "The commission in ETH that the referrer will get.",
          "discount": "The discount in ETH the claimer will get",
          "toPay": "The amount of ETH that should be paid by the claimer."
        }
      },
      "renounceRole(bytes32,address)": {
        "details": "Revokes `role` from the calling account. Roles are often managed via {grantRole} and {revokeRole}: this function's purpose is to provide a mechanism for accounts to lose their privileges if they are compromised (such as when a trusted device is misplaced). If the calling account had been revoked `role`, emits a {RoleRevoked} event. Requirements: - the caller must be `account`. May emit a {RoleRevoked} event."
      },
      "revokeRole(bytes32,address)": {
        "details": "Revokes `role` from `account`. If `account` had been granted `role`, emits a {RoleRevoked} event. Requirements: - the caller must have ``role``'s admin role. May emit a {RoleRevoked} event."
      },
      "setEarlyAccessMerkleRoot(bytes32)": {
        "params": {
          "_earlyAccessMerkleRoot": "The root of the early access sale merkle tree"
        }
      },
      "setEarlyAccessSale(bool)": {
        "params": {
          "status": "The status to set for the early access sale"
        }
      },
      "setFriendsFamilyMerkleRoot(bytes32)": {
        "params": {
          "_friendsFamilyMerkleRoot": "The root of the friends and family sale merkle tree"
        }
      },
      "setFriendsFamilySale(bool)": {
        "params": {
          "status": "The status to set for the friends and family sale"
        }
      },
      "setPartnerMerkleRoot(bytes32)": {
        "params": {
          "_partnerMerkleRoot": "The root of the partner sale merkle tree"
        }
      },
      "setPartnerSale(bool)": {
        "params": {
          "status": "The status to set for the partner sale"
        }
      },
      "setPublicSale(bool)": {
        "params": {
          "status": "The status to set for the public sale"
        }
      },
      "setReferral(string,address,uint256,uint256)": {
        "params": {
          "code": "The referral code to be used when claiming",
          "commission": "The percentage of the total price to be used as a commission",
          "discount": "The percentage of the total price to be used as a discount",
          "receiver": "The receiver address for the commissions"
        }
      },
      "setTeamMerkleRoot(bytes32)": {
        "params": {
          "_teamMerkleRoot": "The root of the team sale merkle tree"
        }
      },
      "setTeamSale(bool)": {
        "params": {
          "status": "The status to set for the team sale"
        }
      },
      "setTiers(uint256[],uint256[],uint256[],uint256[])": {
        "params": {
          "ids": "The ids of the tiers to set",
          "individualCaps": "The maximum amount of licenses that can be claimed per address for the tiers.",
          "prices": "The prices of each tier to set",
          "totalCaps": "The maximum amount of licenses that can be claimed in total for the tiers."
        }
      },
      "supportsInterface(bytes4)": {
        "details": "See {IERC165-supportsInterface}."
      }
    },
    "title": "PlayFi node license sale contract",
    "version": 1
  },
  "userdoc": {
    "kind": "user",
    "methods": {
      "claimLicenseEarlyAccess(uint256,bytes,bytes32[])": {
        "notice": "Claims licenses for early access addresses + make sure they do not exceed their personal claim cap and that they paid enough."
      },
      "claimLicenseFriendsFamily(uint256,bytes,bytes32[])": {
        "notice": "Claims licenses for friends and family + make sure they do not exceed their personal claim cap and that they paid enough."
      },
      "claimLicensePartner(uint256,bytes,bytes32[])": {
        "notice": "Claims licenses for partners + make sure they do not exceed their personal claim cap and that they paid enough."
      },
      "claimLicensePublic(uint256,uint256,string)": {
        "notice": "Claims licenses for the public in a specific tier + make sure they do not exceed their personal claim cap and total tier cap. Additionally also make sure that they paid enough."
      },
      "claimLicenseTeam(uint256,bytes,bytes32[])": {
        "notice": "Claims licenses for team members and make sure they do not exceed their personal claim cap."
      },
      "getReferral(string)": {
        "notice": "Returns referral details provided a referral id"
      },
      "getTier(uint256)": {
        "notice": "Returns tier details provided a tier id"
      },
      "paymentDetailsForReferral(uint256,uint256,string)": {
        "notice": "Calculates the price, commission and discount for X number of licenses in tier Y given referral code Z"
      },
      "setEarlyAccessMerkleRoot(bytes32)": {
        "notice": "Sets the early access sale merkle root"
      },
      "setEarlyAccessSale(bool)": {
        "notice": "Sets the early access sale status"
      },
      "setFriendsFamilyMerkleRoot(bytes32)": {
        "notice": "Sets the friends and family sale merkle root"
      },
      "setFriendsFamilySale(bool)": {
        "notice": "Sets the friends and family sale status"
      },
      "setPartnerMerkleRoot(bytes32)": {
        "notice": "Sets the partner sale merkle root"
      },
      "setPartnerSale(bool)": {
        "notice": "Sets the partner sale status"
      },
      "setPublicSale(bool)": {
        "notice": "Sets the public sale status"
      },
      "setReferral(string,address,uint256,uint256)": {
        "notice": "Sets referral details"
      },
      "setTeamMerkleRoot(bytes32)": {
        "notice": "Sets the team sale merkle root"
      },
      "setTeamSale(bool)": {
        "notice": "Sets the team sale status"
      },
      "setTiers(uint256[],uint256[],uint256[],uint256[])": {
        "notice": "Sets tier details"
      },
      "withdrawProceeds()": {
        "notice": "Withdraws the sale proceeds"
      }
    },
    "notice": "Contract used to handle whitelist and public node license sales in several tiers.",
    "version": 1
  },
  "storageLayout": {
    "storage": [
      {
        "astId": 416,
        "contract": "contracts/PlayFiLicenseSale.sol:PlayFiLicenseSale",
        "label": "_initialized",
        "offset": 0,
        "slot": "0",
        "type": "t_uint8"
      },
      {
        "astId": 419,
        "contract": "contracts/PlayFiLicenseSale.sol:PlayFiLicenseSale",
        "label": "_initializing",
        "offset": 1,
        "slot": "0",
        "type": "t_bool"
      },
      {
        "astId": 958,
        "contract": "contracts/PlayFiLicenseSale.sol:PlayFiLicenseSale",
        "label": "__gap",
        "offset": 0,
        "slot": "1",
        "type": "t_array(t_uint256)50_storage"
      },
      {
        "astId": 1232,
        "contract": "contracts/PlayFiLicenseSale.sol:PlayFiLicenseSale",
        "label": "__gap",
        "offset": 0,
        "slot": "51",
        "type": "t_array(t_uint256)50_storage"
      },
      {
        "astId": 28,
        "contract": "contracts/PlayFiLicenseSale.sol:PlayFiLicenseSale",
        "label": "_roles",
        "offset": 0,
        "slot": "101",
        "type": "t_mapping(t_bytes32,t_struct(RoleData)23_storage)"
      },
      {
        "astId": 335,
        "contract": "contracts/PlayFiLicenseSale.sol:PlayFiLicenseSale",
        "label": "__gap",
        "offset": 0,
        "slot": "102",
        "type": "t_array(t_uint256)49_storage"
      },
      {
        "astId": 3981,
        "contract": "contracts/PlayFiLicenseSale.sol:PlayFiLicenseSale",
        "label": "teamMerkleRoot",
        "offset": 0,
        "slot": "151",
        "type": "t_bytes32"
      },
      {
        "astId": 3984,
        "contract": "contracts/PlayFiLicenseSale.sol:PlayFiLicenseSale",
        "label": "friendsFamilyMerkleRoot",
        "offset": 0,
        "slot": "152",
        "type": "t_bytes32"
      },
      {
        "astId": 3987,
        "contract": "contracts/PlayFiLicenseSale.sol:PlayFiLicenseSale",
        "label": "earlyAccessMerkleRoot",
        "offset": 0,
        "slot": "153",
        "type": "t_bytes32"
      },
      {
        "astId": 3990,
        "contract": "contracts/PlayFiLicenseSale.sol:PlayFiLicenseSale",
        "label": "partnerMerkleRoot",
        "offset": 0,
        "slot": "154",
        "type": "t_bytes32"
      },
      {
        "astId": 3993,
        "contract": "contracts/PlayFiLicenseSale.sol:PlayFiLicenseSale",
        "label": "teamSaleActive",
        "offset": 0,
        "slot": "155",
        "type": "t_bool"
      },
      {
        "astId": 3996,
        "contract": "contracts/PlayFiLicenseSale.sol:PlayFiLicenseSale",
        "label": "friendsFamilySaleActive",
        "offset": 1,
        "slot": "155",
        "type": "t_bool"
      },
      {
        "astId": 3999,
        "contract": "contracts/PlayFiLicenseSale.sol:PlayFiLicenseSale",
        "label": "earlyAccessSaleActive",
        "offset": 2,
        "slot": "155",
        "type": "t_bool"
      },
      {
        "astId": 4002,
        "contract": "contracts/PlayFiLicenseSale.sol:PlayFiLicenseSale",
        "label": "partnerSaleActive",
        "offset": 3,
        "slot": "155",
        "type": "t_bool"
      },
      {
        "astId": 4005,
        "contract": "contracts/PlayFiLicenseSale.sol:PlayFiLicenseSale",
        "label": "publicSaleActive",
        "offset": 4,
        "slot": "155",
        "type": "t_bool"
      },
      {
        "astId": 4008,
        "contract": "contracts/PlayFiLicenseSale.sol:PlayFiLicenseSale",
        "label": "standardCommissionPercentage",
        "offset": 0,
        "slot": "156",
        "type": "t_uint256"
      },
      {
        "astId": 4011,
        "contract": "contracts/PlayFiLicenseSale.sol:PlayFiLicenseSale",
        "label": "standardDiscountPercentage",
        "offset": 0,
        "slot": "157",
        "type": "t_uint256"
      },
      {
        "astId": 4014,
        "contract": "contracts/PlayFiLicenseSale.sol:PlayFiLicenseSale",
        "label": "totalLicenses",
        "offset": 0,
        "slot": "158",
        "type": "t_uint256"
      },
      {
        "astId": 4018,
        "contract": "contracts/PlayFiLicenseSale.sol:PlayFiLicenseSale",
        "label": "teamClaimsPerAddress",
        "offset": 0,
        "slot": "159",
        "type": "t_mapping(t_address,t_uint256)"
      },
      {
        "astId": 4022,
        "contract": "contracts/PlayFiLicenseSale.sol:PlayFiLicenseSale",
        "label": "friendsFamilyClaimsPerAddress",
        "offset": 0,
        "slot": "160",
        "type": "t_mapping(t_address,t_uint256)"
      },
      {
        "astId": 4026,
        "contract": "contracts/PlayFiLicenseSale.sol:PlayFiLicenseSale",
        "label": "earlyAccessClaimsPerAddress",
        "offset": 0,
        "slot": "161",
        "type": "t_mapping(t_address,t_uint256)"
      },
      {
        "astId": 4030,
        "contract": "contracts/PlayFiLicenseSale.sol:PlayFiLicenseSale",
        "label": "partnerClaimsPerAddress",
        "offset": 0,
        "slot": "162",
        "type": "t_mapping(t_address,t_uint256)"
      },
      {
        "astId": 4034,
        "contract": "contracts/PlayFiLicenseSale.sol:PlayFiLicenseSale",
        "label": "publicClaimsPerAddress",
        "offset": 0,
        "slot": "163",
        "type": "t_mapping(t_address,t_uint256)"
      },
      {
        "astId": 4039,
        "contract": "contracts/PlayFiLicenseSale.sol:PlayFiLicenseSale",
        "label": "tiers",
        "offset": 0,
        "slot": "164",
        "type": "t_mapping(t_uint256,t_struct(Tier)5256_storage)"
      },
      {
        "astId": 4044,
        "contract": "contracts/PlayFiLicenseSale.sol:PlayFiLicenseSale",
        "label": "referrals",
        "offset": 0,
        "slot": "165",
        "type": "t_mapping(t_string_memory_ptr,t_struct(Referral)5263_storage)"
      },
      {
        "astId": 4050,
        "contract": "contracts/PlayFiLicenseSale.sol:PlayFiLicenseSale",
        "label": "claimsPerTierPerAddress",
        "offset": 0,
        "slot": "166",
        "type": "t_mapping(t_uint256,t_mapping(t_address,t_uint256))"
      }
    ],
    "types": {
      "t_address": {
        "encoding": "inplace",
        "label": "address",
        "numberOfBytes": "20"
      },
      "t_array(t_uint256)49_storage": {
        "base": "t_uint256",
        "encoding": "inplace",
        "label": "uint256[49]",
        "numberOfBytes": "1568"
      },
      "t_array(t_uint256)50_storage": {
        "base": "t_uint256",
        "encoding": "inplace",
        "label": "uint256[50]",
        "numberOfBytes": "1600"
      },
      "t_bool": {
        "encoding": "inplace",
        "label": "bool",
        "numberOfBytes": "1"
      },
      "t_bytes32": {
        "encoding": "inplace",
        "label": "bytes32",
        "numberOfBytes": "32"
      },
      "t_mapping(t_address,t_bool)": {
        "encoding": "mapping",
        "key": "t_address",
        "label": "mapping(address => bool)",
        "numberOfBytes": "32",
        "value": "t_bool"
      },
      "t_mapping(t_address,t_uint256)": {
        "encoding": "mapping",
        "key": "t_address",
        "label": "mapping(address => uint256)",
        "numberOfBytes": "32",
        "value": "t_uint256"
      },
      "t_mapping(t_bytes32,t_struct(RoleData)23_storage)": {
        "encoding": "mapping",
        "key": "t_bytes32",
        "label": "mapping(bytes32 => struct AccessControlUpgradeable.RoleData)",
        "numberOfBytes": "32",
        "value": "t_struct(RoleData)23_storage"
      },
      "t_mapping(t_string_memory_ptr,t_struct(Referral)5263_storage)": {
        "encoding": "mapping",
        "key": "t_string_memory_ptr",
        "label": "mapping(string => struct IPlayFiLicenseSale.Referral)",
        "numberOfBytes": "32",
        "value": "t_struct(Referral)5263_storage"
      },
      "t_mapping(t_uint256,t_mapping(t_address,t_uint256))": {
        "encoding": "mapping",
        "key": "t_uint256",
        "label": "mapping(uint256 => mapping(address => uint256))",
        "numberOfBytes": "32",
        "value": "t_mapping(t_address,t_uint256)"
      },
      "t_mapping(t_uint256,t_struct(Tier)5256_storage)": {
        "encoding": "mapping",
        "key": "t_uint256",
        "label": "mapping(uint256 => struct IPlayFiLicenseSale.Tier)",
        "numberOfBytes": "32",
        "value": "t_struct(Tier)5256_storage"
      },
      "t_string_memory_ptr": {
        "encoding": "bytes",
        "label": "string",
        "numberOfBytes": "32"
      },
      "t_struct(Referral)5263_storage": {
        "encoding": "inplace",
        "label": "struct IPlayFiLicenseSale.Referral",
        "members": [
          {
            "astId": 5258,
            "contract": "contracts/PlayFiLicenseSale.sol:PlayFiLicenseSale",
            "label": "discountPercentage",
            "offset": 0,
            "slot": "0",
            "type": "t_uint256"
          },
          {
            "astId": 5260,
            "contract": "contracts/PlayFiLicenseSale.sol:PlayFiLicenseSale",
            "label": "commissionPercentage",
            "offset": 0,
            "slot": "1",
            "type": "t_uint256"
          },
          {
            "astId": 5262,
            "contract": "contracts/PlayFiLicenseSale.sol:PlayFiLicenseSale",
            "label": "receiver",
            "offset": 0,
            "slot": "2",
            "type": "t_address"
          }
        ],
        "numberOfBytes": "96"
      },
      "t_struct(RoleData)23_storage": {
        "encoding": "inplace",
        "label": "struct AccessControlUpgradeable.RoleData",
        "members": [
          {
            "astId": 20,
            "contract": "contracts/PlayFiLicenseSale.sol:PlayFiLicenseSale",
            "label": "members",
            "offset": 0,
            "slot": "0",
            "type": "t_mapping(t_address,t_bool)"
          },
          {
            "astId": 22,
            "contract": "contracts/PlayFiLicenseSale.sol:PlayFiLicenseSale",
            "label": "adminRole",
            "offset": 0,
            "slot": "1",
            "type": "t_bytes32"
          }
        ],
        "numberOfBytes": "64"
      },
      "t_struct(Tier)5256_storage": {
        "encoding": "inplace",
        "label": "struct IPlayFiLicenseSale.Tier",
        "members": [
          {
            "astId": 5249,
            "contract": "contracts/PlayFiLicenseSale.sol:PlayFiLicenseSale",
            "label": "price",
            "offset": 0,
            "slot": "0",
            "type": "t_uint256"
          },
          {
            "astId": 5251,
            "contract": "contracts/PlayFiLicenseSale.sol:PlayFiLicenseSale",
            "label": "individualCap",
            "offset": 0,
            "slot": "1",
            "type": "t_uint256"
          },
          {
            "astId": 5253,
            "contract": "contracts/PlayFiLicenseSale.sol:PlayFiLicenseSale",
            "label": "totalClaimed",
            "offset": 0,
            "slot": "2",
            "type": "t_uint256"
          },
          {
            "astId": 5255,
            "contract": "contracts/PlayFiLicenseSale.sol:PlayFiLicenseSale",
            "label": "totalCap",
            "offset": 0,
            "slot": "3",
            "type": "t_uint256"
          }
        ],
        "numberOfBytes": "128"
      },
      "t_uint256": {
        "encoding": "inplace",
        "label": "uint256",
        "numberOfBytes": "32"
      },
      "t_uint8": {
        "encoding": "inplace",
        "label": "uint8",
        "numberOfBytes": "1"
      }
    }
  }
}