{
  "address": "0x1a440C0549bd87Bd2Ea889dcdfC82751Bf934487",
  "abi": [
    {
      "inputs": [],
      "stateMutability": "nonpayable",
      "type": "constructor"
    },
    {
      "inputs": [],
      "name": "AccessDenied",
      "type": "error"
    },
    {
      "inputs": [],
      "name": "CommissionPayoutFailed",
      "type": "error"
    },
    {
      "inputs": [],
      "name": "EarlyAccessSaleNotActive",
      "type": "error"
    },
    {
      "inputs": [],
      "name": "FriendsFamilySaleNotActive",
      "type": "error"
    },
    {
      "inputs": [],
      "name": "IndividualClaimCapExceeded",
      "type": "error"
    },
    {
      "inputs": [],
      "name": "IndividualTierCapExceeded",
      "type": "error"
    },
    {
      "inputs": [],
      "name": "InsufficientPayment",
      "type": "error"
    },
    {
      "inputs": [
        {
          "internalType": "address",
          "name": "account",
          "type": "address"
        }
      ],
      "name": "InvalidAddress",
      "type": "error"
    },
    {
      "inputs": [],
      "name": "InvalidCommission",
      "type": "error"
    },
    {
      "inputs": [],
      "name": "InvalidDiscount",
      "type": "error"
    },
    {
      "inputs": [],
      "name": "InvalidProof",
      "type": "error"
    },
    {
      "inputs": [],
      "name": "InvalidTierInputs",
      "type": "error"
    },
    {
      "inputs": [],
      "name": "PartnerSaleNotActive",
      "type": "error"
    },
    {
      "inputs": [],
      "name": "PublicSaleNotActive",
      "type": "error"
    },
    {
      "inputs": [],
      "name": "TeamSaleNotActive",
      "type": "error"
    },
    {
      "inputs": [],
      "name": "TotalTierCapExceeded",
      "type": "error"
    },
    {
      "inputs": [],
      "name": "WithdrawalFailed",
      "type": "error"
    },
    {
      "anonymous": false,
      "inputs": [
        {
          "indexed": false,
          "internalType": "string",
          "name": "code",
          "type": "string"
        },
        {
          "indexed": true,
          "internalType": "address",
          "name": "receiver",
          "type": "address"
        },
        {
          "indexed": false,
          "internalType": "uint256",
          "name": "amount",
          "type": "uint256"
        }
      ],
      "name": "CommissionPaid",
      "type": "event"
    },
    {
      "anonymous": false,
      "inputs": [],
      "name": "ContractInitialized",
      "type": "event"
    },
    {
      "anonymous": false,
      "inputs": [
        {
          "indexed": true,
          "internalType": "address",
          "name": "account",
          "type": "address"
        },
        {
          "indexed": false,
          "internalType": "uint256",
          "name": "paid",
          "type": "uint256"
        },
        {
          "indexed": false,
          "internalType": "uint256",
          "name": "amount",
          "type": "uint256"
        }
      ],
      "name": "EarlyAccessLicensesClaimed",
      "type": "event"
    },
    {
      "anonymous": false,
      "inputs": [
        {
          "indexed": false,
          "internalType": "bytes32",
          "name": "merkleRoot",
          "type": "bytes32"
        }
      ],
      "name": "EarlyAccessMerkleRootSet",
      "type": "event"
    },
    {
      "anonymous": false,
      "inputs": [
        {
          "indexed": false,
          "internalType": "bool",
          "name": "status",
          "type": "bool"
        }
      ],
      "name": "EarlyAccessSaleStatusSet",
      "type": "event"
    },
    {
      "anonymous": false,
      "inputs": [
        {
          "indexed": true,
          "internalType": "address",
          "name": "account",
          "type": "address"
        },
        {
          "indexed": false,
          "internalType": "uint256",
          "name": "paid",
          "type": "uint256"
        },
        {
          "indexed": false,
          "internalType": "uint256",
          "name": "amount",
          "type": "uint256"
        }
      ],
      "name": "FriendsFamilyLicensesClaimed",
      "type": "event"
    },
    {
      "anonymous": false,
      "inputs": [
        {
          "indexed": false,
          "internalType": "bytes32",
          "name": "merkleRoot",
          "type": "bytes32"
        }
      ],
      "name": "FriendsFamilyMerkleRootSet",
      "type": "event"
    },
    {
      "anonymous": false,
      "inputs": [
        {
          "indexed": false,
          "internalType": "bool",
          "name": "status",
          "type": "bool"
        }
      ],
      "name": "FriendsFamilySaleStatusSet",
      "type": "event"
    },
    {
      "anonymous": false,
      "inputs": [
        {
          "indexed": false,
          "internalType": "uint8",
          "name": "version",
          "type": "uint8"
        }
      ],
      "name": "Initialized",
      "type": "event"
    },
    {
      "anonymous": false,
      "inputs": [
        {
          "indexed": true,
          "internalType": "address",
          "name": "account",
          "type": "address"
        },
        {
          "indexed": false,
          "internalType": "uint256",
          "name": "amount",
          "type": "uint256"
        },
        {
          "indexed": true,
          "internalType": "uint256",
          "name": "tier",
          "type": "uint256"
        },
        {
          "indexed": false,
          "internalType": "uint256",
          "name": "paid",
          "type": "uint256"
        },
        {
          "indexed": false,
          "internalType": "string",
          "name": "partnerCode",
          "type": "string"
        },
        {
          "indexed": false,
          "internalType": "string",
          "name": "referral",
          "type": "string"
        }
      ],
      "name": "PartnerLicensesClaimed",
      "type": "event"
    },
    {
      "anonymous": false,
      "inputs": [
        {
          "indexed": false,
          "internalType": "bool",
          "name": "status",
          "type": "bool"
        },
        {
          "indexed": false,
          "internalType": "string",
          "name": "partnerCode",
          "type": "string"
        }
      ],
      "name": "PartnerSaleStatusSet",
      "type": "event"
    },
    {
      "anonymous": false,
      "inputs": [
        {
          "indexed": false,
          "internalType": "string",
          "name": "partnerCode",
          "type": "string"
        },
        {
          "indexed": true,
          "internalType": "uint256",
          "name": "tierId",
          "type": "uint256"
        },
        {
          "indexed": false,
          "internalType": "uint256",
          "name": "price",
          "type": "uint256"
        },
        {
          "indexed": false,
          "internalType": "uint256",
          "name": "individualCap",
          "type": "uint256"
        },
        {
          "indexed": false,
          "internalType": "uint256",
          "name": "totalClaimed",
          "type": "uint256"
        },
        {
          "indexed": false,
          "internalType": "uint256",
          "name": "totalCap",
          "type": "uint256"
        }
      ],
      "name": "PartnerTierSet",
      "type": "event"
    },
    {
      "anonymous": false,
      "inputs": [
        {
          "indexed": true,
          "internalType": "address",
          "name": "receiver",
          "type": "address"
        },
        {
          "indexed": false,
          "internalType": "uint256",
          "name": "amount",
          "type": "uint256"
        }
      ],
      "name": "ProceedsWithdrawn",
      "type": "event"
    },
    {
      "anonymous": false,
      "inputs": [
        {
          "indexed": true,
          "internalType": "address",
          "name": "account",
          "type": "address"
        },
        {
          "indexed": false,
          "internalType": "uint256",
          "name": "amount",
          "type": "uint256"
        },
        {
          "indexed": true,
          "internalType": "uint256",
          "name": "tier",
          "type": "uint256"
        },
        {
          "indexed": false,
          "internalType": "uint256",
          "name": "paid",
          "type": "uint256"
        },
        {
          "indexed": false,
          "internalType": "string",
          "name": "referral",
          "type": "string"
        }
      ],
      "name": "PublicLicensesClaimed",
      "type": "event"
    },
    {
      "anonymous": false,
      "inputs": [
        {
          "indexed": false,
          "internalType": "bytes32",
          "name": "merkleRoot",
          "type": "bytes32"
        }
      ],
      "name": "PublicMerkleRootSet",
      "type": "event"
    },
    {
      "anonymous": false,
      "inputs": [
        {
          "indexed": false,
          "internalType": "bool",
          "name": "status",
          "type": "bool"
        }
      ],
      "name": "PublicSaleStatusSet",
      "type": "event"
    },
    {
      "anonymous": false,
      "inputs": [
        {
          "indexed": true,
          "internalType": "address",
          "name": "account",
          "type": "address"
        },
        {
          "indexed": false,
          "internalType": "uint256",
          "name": "amount",
          "type": "uint256"
        },
        {
          "indexed": true,
          "internalType": "uint256",
          "name": "tier",
          "type": "uint256"
        },
        {
          "indexed": false,
          "internalType": "uint256",
          "name": "paid",
          "type": "uint256"
        },
        {
          "indexed": false,
          "internalType": "string",
          "name": "referral",
          "type": "string"
        }
      ],
      "name": "PublicWhitelistLicensesClaimed",
      "type": "event"
    },
    {
      "anonymous": false,
      "inputs": [
        {
          "indexed": false,
          "internalType": "string",
          "name": "code",
          "type": "string"
        },
        {
          "indexed": true,
          "internalType": "address",
          "name": "receiver",
          "type": "address"
        },
        {
          "indexed": false,
          "internalType": "bool",
          "name": "active",
          "type": "bool"
        }
      ],
      "name": "ReferralUpdated",
      "type": "event"
    },
    {
      "anonymous": false,
      "inputs": [
        {
          "indexed": true,
          "internalType": "bytes32",
          "name": "role",
          "type": "bytes32"
        },
        {
          "indexed": true,
          "internalType": "bytes32",
          "name": "previousAdminRole",
          "type": "bytes32"
        },
        {
          "indexed": true,
          "internalType": "bytes32",
          "name": "newAdminRole",
          "type": "bytes32"
        }
      ],
      "name": "RoleAdminChanged",
      "type": "event"
    },
    {
      "anonymous": false,
      "inputs": [
        {
          "indexed": true,
          "internalType": "bytes32",
          "name": "role",
          "type": "bytes32"
        },
        {
          "indexed": true,
          "internalType": "address",
          "name": "account",
          "type": "address"
        },
        {
          "indexed": true,
          "internalType": "address",
          "name": "sender",
          "type": "address"
        }
      ],
      "name": "RoleGranted",
      "type": "event"
    },
    {
      "anonymous": false,
      "inputs": [
        {
          "indexed": true,
          "internalType": "bytes32",
          "name": "role",
          "type": "bytes32"
        },
        {
          "indexed": true,
          "internalType": "address",
          "name": "account",
          "type": "address"
        },
        {
          "indexed": true,
          "internalType": "address",
          "name": "sender",
          "type": "address"
        }
      ],
      "name": "RoleRevoked",
      "type": "event"
    },
    {
      "anonymous": false,
      "inputs": [
        {
          "indexed": true,
          "internalType": "address",
          "name": "account",
          "type": "address"
        },
        {
          "indexed": false,
          "internalType": "uint256",
          "name": "amount",
          "type": "uint256"
        }
      ],
      "name": "TeamLicensesClaimed",
      "type": "event"
    },
    {
      "anonymous": false,
      "inputs": [
        {
          "indexed": false,
          "internalType": "bytes32",
          "name": "merkleRoot",
          "type": "bytes32"
        }
      ],
      "name": "TeamMerkleRootSet",
      "type": "event"
    },
    {
      "anonymous": false,
      "inputs": [
        {
          "indexed": false,
          "internalType": "bool",
          "name": "status",
          "type": "bool"
        }
      ],
      "name": "TeamSaleStatusSet",
      "type": "event"
    },
    {
      "anonymous": false,
      "inputs": [
        {
          "indexed": true,
          "internalType": "uint256",
          "name": "tierId",
          "type": "uint256"
        },
        {
          "indexed": false,
          "internalType": "uint256",
          "name": "price",
          "type": "uint256"
        },
        {
          "indexed": false,
          "internalType": "uint256",
          "name": "individualCap",
          "type": "uint256"
        },
        {
          "indexed": false,
          "internalType": "uint256",
          "name": "totalClaimed",
          "type": "uint256"
        },
        {
          "indexed": false,
          "internalType": "uint256",
          "name": "totalCap",
          "type": "uint256"
        }
      ],
      "name": "TierSet",
      "type": "event"
    },
    {
      "anonymous": false,
      "inputs": [
        {
          "indexed": true,
          "internalType": "uint256",
          "name": "tierId",
          "type": "uint256"
        },
        {
          "indexed": false,
          "internalType": "uint256",
          "name": "price",
          "type": "uint256"
        },
        {
          "indexed": false,
          "internalType": "uint256",
          "name": "individualCap",
          "type": "uint256"
        },
        {
          "indexed": false,
          "internalType": "uint256",
          "name": "totalClaimed",
          "type": "uint256"
        },
        {
          "indexed": false,
          "internalType": "uint256",
          "name": "totalCap",
          "type": "uint256"
        }
      ],
      "name": "WhitelistTierSet",
      "type": "event"
    },
    {
      "inputs": [],
      "name": "ADMIN_ROLE",
      "outputs": [
        {
          "internalType": "bytes32",
          "name": "",
          "type": "bytes32"
        }
      ],
      "stateMutability": "view",
      "type": "function"
    },
    {
      "inputs": [],
      "name": "DEFAULT_ADMIN_ROLE",
      "outputs": [
        {
          "internalType": "bytes32",
          "name": "",
          "type": "bytes32"
        }
      ],
      "stateMutability": "view",
      "type": "function"
    },
    {
      "inputs": [],
      "name": "GUARDIAN_ROLE",
      "outputs": [
        {
          "internalType": "bytes32",
          "name": "",
          "type": "bytes32"
        }
      ],
      "stateMutability": "view",
      "type": "function"
    },
    {
      "inputs": [],
      "name": "MERKLE_MANAGER_ROLE",
      "outputs": [
        {
          "internalType": "bytes32",
          "name": "",
          "type": "bytes32"
        }
      ],
      "stateMutability": "view",
      "type": "function"
    },
    {
      "inputs": [],
      "name": "REFERRAL_MANAGER_ROLE",
      "outputs": [
        {
          "internalType": "bytes32",
          "name": "",
          "type": "bytes32"
        }
      ],
      "stateMutability": "view",
      "type": "function"
    },
    {
      "inputs": [
        {
          "internalType": "uint256",
          "name": "amount",
          "type": "uint256"
        },
        {
          "internalType": "bytes",
          "name": "data",
          "type": "bytes"
        },
        {
          "internalType": "bytes32[]",
          "name": "merkleProof",
          "type": "bytes32[]"
        }
      ],
      "name": "claimLicenseEarlyAccess",
      "outputs": [],
      "stateMutability": "payable",
      "type": "function"
    },
    {
      "inputs": [
        {
          "internalType": "uint256",
          "name": "amount",
          "type": "uint256"
        },
        {
          "internalType": "bytes",
          "name": "data",
          "type": "bytes"
        },
        {
          "internalType": "bytes32[]",
          "name": "merkleProof",
          "type": "bytes32[]"
        }
      ],
      "name": "claimLicenseFriendsFamily",
      "outputs": [],
      "stateMutability": "payable",
      "type": "function"
    },
    {
      "inputs": [
        {
          "internalType": "uint256",
          "name": "amount",
          "type": "uint256"
        },
        {
          "internalType": "uint256",
          "name": "tier",
          "type": "uint256"
        },
        {
          "internalType": "string",
          "name": "partnerCode",
          "type": "string"
        },
        {
          "internalType": "string",
          "name": "referral",
          "type": "string"
        }
      ],
      "name": "claimLicensePartner",
      "outputs": [],
      "stateMutability": "payable",
      "type": "function"
    },
    {
      "inputs": [
        {
          "internalType": "uint256",
          "name": "amount",
          "type": "uint256"
        },
        {
          "internalType": "uint256",
          "name": "tier",
          "type": "uint256"
        },
        {
          "internalType": "string",
          "name": "referral",
          "type": "string"
        }
      ],
      "name": "claimLicensePublic",
      "outputs": [],
      "stateMutability": "payable",
      "type": "function"
    },
    {
      "inputs": [
        {
          "internalType": "uint256",
          "name": "amount",
          "type": "uint256"
        },
        {
          "internalType": "uint256",
          "name": "tier",
          "type": "uint256"
        },
        {
          "internalType": "bytes",
          "name": "data",
          "type": "bytes"
        },
        {
          "internalType": "bytes32[]",
          "name": "merkleProof",
          "type": "bytes32[]"
        }
      ],
      "name": "claimLicensePublicWhitelist",
      "outputs": [],
      "stateMutability": "payable",
      "type": "function"
    },
    {
      "inputs": [
        {
          "internalType": "uint256",
          "name": "amount",
          "type": "uint256"
        },
        {
          "internalType": "bytes",
          "name": "data",
          "type": "bytes"
        },
        {
          "internalType": "bytes32[]",
          "name": "merkleProof",
          "type": "bytes32[]"
        }
      ],
      "name": "claimLicenseTeam",
      "outputs": [],
      "stateMutability": "nonpayable",
      "type": "function"
    },
    {
      "inputs": [
        {
          "internalType": "uint256",
          "name": "",
          "type": "uint256"
        },
        {
          "internalType": "address",
          "name": "",
          "type": "address"
        }
      ],
      "name": "claimsPerTierPerAddress",
      "outputs": [
        {
          "internalType": "uint256",
          "name": "",
          "type": "uint256"
        }
      ],
      "stateMutability": "view",
      "type": "function"
    },
    {
      "inputs": [
        {
          "internalType": "address",
          "name": "",
          "type": "address"
        }
      ],
      "name": "earlyAccessClaimsPerAddress",
      "outputs": [
        {
          "internalType": "uint256",
          "name": "",
          "type": "uint256"
        }
      ],
      "stateMutability": "view",
      "type": "function"
    },
    {
      "inputs": [],
      "name": "earlyAccessMerkleRoot",
      "outputs": [
        {
          "internalType": "bytes32",
          "name": "",
          "type": "bytes32"
        }
      ],
      "stateMutability": "view",
      "type": "function"
    },
    {
      "inputs": [],
      "name": "earlyAccessSaleActive",
      "outputs": [
        {
          "internalType": "bool",
          "name": "",
          "type": "bool"
        }
      ],
      "stateMutability": "view",
      "type": "function"
    },
    {
      "inputs": [
        {
          "internalType": "address",
          "name": "",
          "type": "address"
        }
      ],
      "name": "friendsFamilyClaimsPerAddress",
      "outputs": [
        {
          "internalType": "uint256",
          "name": "",
          "type": "uint256"
        }
      ],
      "stateMutability": "view",
      "type": "function"
    },
    {
      "inputs": [],
      "name": "friendsFamilyMerkleRoot",
      "outputs": [
        {
          "internalType": "bytes32",
          "name": "",
          "type": "bytes32"
        }
      ],
      "stateMutability": "view",
      "type": "function"
    },
    {
      "inputs": [],
      "name": "friendsFamilySaleActive",
      "outputs": [
        {
          "internalType": "bool",
          "name": "",
          "type": "bool"
        }
      ],
      "stateMutability": "view",
      "type": "function"
    },
    {
      "inputs": [
        {
          "internalType": "string",
          "name": "partnerCode",
          "type": "string"
        },
        {
          "internalType": "uint256",
          "name": "id",
          "type": "uint256"
        }
      ],
      "name": "getPartnerTier",
      "outputs": [
        {
          "components": [
            {
              "internalType": "uint256",
              "name": "price",
              "type": "uint256"
            },
            {
              "internalType": "uint256",
              "name": "individualCap",
              "type": "uint256"
            },
            {
              "internalType": "uint256",
              "name": "totalClaimed",
              "type": "uint256"
            },
            {
              "internalType": "uint256",
              "name": "totalCap",
              "type": "uint256"
            }
          ],
          "internalType": "struct IPlayFiLicenseSale.Tier",
          "name": "tier",
          "type": "tuple"
        }
      ],
      "stateMutability": "view",
      "type": "function"
    },
    {
      "inputs": [
        {
          "internalType": "string",
          "name": "id",
          "type": "string"
        }
      ],
      "name": "getReferral",
      "outputs": [
        {
          "components": [
            {
              "internalType": "bool",
              "name": "active",
              "type": "bool"
            },
            {
              "internalType": "uint256",
              "name": "totalClaims",
              "type": "uint256"
            },
            {
              "internalType": "address",
              "name": "receiver",
              "type": "address"
            }
          ],
          "internalType": "struct IPlayFiLicenseSale.Referral",
          "name": "referral",
          "type": "tuple"
        }
      ],
      "stateMutability": "view",
      "type": "function"
    },
    {
      "inputs": [
        {
          "internalType": "bytes32",
          "name": "role",
          "type": "bytes32"
        }
      ],
      "name": "getRoleAdmin",
      "outputs": [
        {
          "internalType": "bytes32",
          "name": "",
          "type": "bytes32"
        }
      ],
      "stateMutability": "view",
      "type": "function"
    },
    {
      "inputs": [
        {
          "internalType": "uint256",
          "name": "id",
          "type": "uint256"
        },
        {
          "internalType": "bool",
          "name": "isWhitelist",
          "type": "bool"
        }
      ],
      "name": "getTier",
      "outputs": [
        {
          "components": [
            {
              "internalType": "uint256",
              "name": "price",
              "type": "uint256"
            },
            {
              "internalType": "uint256",
              "name": "individualCap",
              "type": "uint256"
            },
            {
              "internalType": "uint256",
              "name": "totalClaimed",
              "type": "uint256"
            },
            {
              "internalType": "uint256",
              "name": "totalCap",
              "type": "uint256"
            }
          ],
          "internalType": "struct IPlayFiLicenseSale.Tier",
          "name": "tier",
          "type": "tuple"
        }
      ],
      "stateMutability": "view",
      "type": "function"
    },
    {
      "inputs": [
        {
          "internalType": "bytes32",
          "name": "role",
          "type": "bytes32"
        },
        {
          "internalType": "address",
          "name": "account",
          "type": "address"
        }
      ],
      "name": "grantRole",
      "outputs": [],
      "stateMutability": "nonpayable",
      "type": "function"
    },
    {
      "inputs": [
        {
          "internalType": "bytes32",
          "name": "role",
          "type": "bytes32"
        },
        {
          "internalType": "address",
          "name": "account",
          "type": "address"
        }
      ],
      "name": "hasRole",
      "outputs": [
        {
          "internalType": "bool",
          "name": "",
          "type": "bool"
        }
      ],
      "stateMutability": "view",
      "type": "function"
    },
    {
      "inputs": [
        {
          "internalType": "address",
          "name": "admin",
          "type": "address"
        },
        {
          "internalType": "address",
          "name": "guardian",
          "type": "address"
        },
        {
          "internalType": "address",
          "name": "merkleManager",
          "type": "address"
        },
        {
          "internalType": "address",
          "name": "referralManager",
          "type": "address"
        }
      ],
      "name": "initialize",
      "outputs": [],
      "stateMutability": "nonpayable",
      "type": "function"
    },
    {
      "inputs": [
        {
          "internalType": "string",
          "name": "",
          "type": "string"
        },
        {
          "internalType": "address",
          "name": "",
          "type": "address"
        }
      ],
      "name": "partnerClaimsPerAddress",
      "outputs": [
        {
          "internalType": "uint256",
          "name": "",
          "type": "uint256"
        }
      ],
      "stateMutability": "view",
      "type": "function"
    },
    {
      "inputs": [
        {
          "internalType": "string",
          "name": "",
          "type": "string"
        },
        {
          "internalType": "uint256",
          "name": "",
          "type": "uint256"
        },
        {
          "internalType": "address",
          "name": "",
          "type": "address"
        }
      ],
      "name": "partnerClaimsPerTierPerAddress",
      "outputs": [
        {
          "internalType": "uint256",
          "name": "",
          "type": "uint256"
        }
      ],
      "stateMutability": "view",
      "type": "function"
    },
    {
      "inputs": [
        {
          "internalType": "string",
          "name": "",
          "type": "string"
        }
      ],
      "name": "partnerSaleActive",
      "outputs": [
        {
          "internalType": "bool",
          "name": "",
          "type": "bool"
        }
      ],
      "stateMutability": "view",
      "type": "function"
    },
    {
      "inputs": [
        {
          "internalType": "string",
          "name": "",
          "type": "string"
        },
        {
          "internalType": "uint256",
          "name": "",
          "type": "uint256"
        }
      ],
      "name": "partnerTiers",
      "outputs": [
        {
          "internalType": "uint256",
          "name": "price",
          "type": "uint256"
        },
        {
          "internalType": "uint256",
          "name": "individualCap",
          "type": "uint256"
        },
        {
          "internalType": "uint256",
          "name": "totalClaimed",
          "type": "uint256"
        },
        {
          "internalType": "uint256",
          "name": "totalCap",
          "type": "uint256"
        }
      ],
      "stateMutability": "view",
      "type": "function"
    },
    {
      "inputs": [
        {
          "internalType": "uint256",
          "name": "amount",
          "type": "uint256"
        },
        {
          "internalType": "uint256",
          "name": "tier",
          "type": "uint256"
        },
        {
          "internalType": "string",
          "name": "partnerCode",
          "type": "string"
        },
        {
          "internalType": "string",
          "name": "referral",
          "type": "string"
        }
      ],
      "name": "paymentDetailsForPartnerReferral",
      "outputs": [
        {
          "internalType": "uint256",
          "name": "toPay",
          "type": "uint256"
        },
        {
          "internalType": "uint256",
          "name": "commission",
          "type": "uint256"
        },
        {
          "internalType": "uint256",
          "name": "discount",
          "type": "uint256"
        }
      ],
      "stateMutability": "view",
      "type": "function"
    },
    {
      "inputs": [
        {
          "internalType": "uint256",
          "name": "amount",
          "type": "uint256"
        },
        {
          "internalType": "uint256",
          "name": "tier",
          "type": "uint256"
        },
        {
          "internalType": "string",
          "name": "referral",
          "type": "string"
        },
        {
          "internalType": "bool",
          "name": "isWhitelist",
          "type": "bool"
        }
      ],
      "name": "paymentDetailsForReferral",
      "outputs": [
        {
          "internalType": "uint256",
          "name": "toPay",
          "type": "uint256"
        },
        {
          "internalType": "uint256",
          "name": "commission",
          "type": "uint256"
        },
        {
          "internalType": "uint256",
          "name": "discount",
          "type": "uint256"
        }
      ],
      "stateMutability": "view",
      "type": "function"
    },
    {
      "inputs": [
        {
          "internalType": "address",
          "name": "",
          "type": "address"
        }
      ],
      "name": "publicClaimsPerAddress",
      "outputs": [
        {
          "internalType": "uint256",
          "name": "",
          "type": "uint256"
        }
      ],
      "stateMutability": "view",
      "type": "function"
    },
    {
      "inputs": [],
      "name": "publicMerkleRoot",
      "outputs": [
        {
          "internalType": "bytes32",
          "name": "",
          "type": "bytes32"
        }
      ],
      "stateMutability": "view",
      "type": "function"
    },
    {
      "inputs": [],
      "name": "publicSaleActive",
      "outputs": [
        {
          "internalType": "bool",
          "name": "",
          "type": "bool"
        }
      ],
      "stateMutability": "view",
      "type": "function"
    },
    {
      "inputs": [
        {
          "internalType": "address",
          "name": "",
          "type": "address"
        },
        {
          "internalType": "string",
          "name": "",
          "type": "string"
        }
      ],
      "name": "publicWhitelistClaimsPerAddressAndReferral",
      "outputs": [
        {
          "internalType": "uint256",
          "name": "",
          "type": "uint256"
        }
      ],
      "stateMutability": "view",
      "type": "function"
    },
    {
      "inputs": [
        {
          "internalType": "string",
          "name": "",
          "type": "string"
        }
      ],
      "name": "referrals",
      "outputs": [
        {
          "internalType": "bool",
          "name": "active",
          "type": "bool"
        },
        {
          "internalType": "uint256",
          "name": "totalClaims",
          "type": "uint256"
        },
        {
          "internalType": "address",
          "name": "receiver",
          "type": "address"
        }
      ],
      "stateMutability": "view",
      "type": "function"
    },
    {
      "inputs": [
        {
          "internalType": "bytes32",
          "name": "role",
          "type": "bytes32"
        },
        {
          "internalType": "address",
          "name": "account",
          "type": "address"
        }
      ],
      "name": "renounceRole",
      "outputs": [],
      "stateMutability": "nonpayable",
      "type": "function"
    },
    {
      "inputs": [
        {
          "internalType": "bytes32",
          "name": "role",
          "type": "bytes32"
        },
        {
          "internalType": "address",
          "name": "account",
          "type": "address"
        }
      ],
      "name": "revokeRole",
      "outputs": [],
      "stateMutability": "nonpayable",
      "type": "function"
    },
    {
      "inputs": [
        {
          "internalType": "bytes32",
          "name": "_earlyAccessMerkleRoot",
          "type": "bytes32"
        }
      ],
      "name": "setEarlyAccessMerkleRoot",
      "outputs": [],
      "stateMutability": "nonpayable",
      "type": "function"
    },
    {
      "inputs": [
        {
          "internalType": "bool",
          "name": "status",
          "type": "bool"
        }
      ],
      "name": "setEarlyAccessSale",
      "outputs": [],
      "stateMutability": "nonpayable",
      "type": "function"
    },
    {
      "inputs": [
        {
          "internalType": "bytes32",
          "name": "_friendsFamilyMerkleRoot",
          "type": "bytes32"
        }
      ],
      "name": "setFriendsFamilyMerkleRoot",
      "outputs": [],
      "stateMutability": "nonpayable",
      "type": "function"
    },
    {
      "inputs": [
        {
          "internalType": "bool",
          "name": "status",
          "type": "bool"
        }
      ],
      "name": "setFriendsFamilySale",
      "outputs": [],
      "stateMutability": "nonpayable",
      "type": "function"
    },
    {
      "inputs": [
        {
          "internalType": "string",
          "name": "partnerCode",
          "type": "string"
        },
        {
          "internalType": "bool",
          "name": "status",
          "type": "bool"
        }
      ],
      "name": "setPartnerSale",
      "outputs": [],
      "stateMutability": "nonpayable",
      "type": "function"
    },
    {
      "inputs": [
        {
          "internalType": "string[]",
          "name": "partnerCodes",
          "type": "string[]"
        },
        {
          "internalType": "uint256[]",
          "name": "ids",
          "type": "uint256[]"
        },
        {
          "internalType": "uint256[]",
          "name": "prices",
          "type": "uint256[]"
        },
        {
          "internalType": "uint256[]",
          "name": "individualCaps",
          "type": "uint256[]"
        },
        {
          "internalType": "uint256[]",
          "name": "totalCaps",
          "type": "uint256[]"
        }
      ],
      "name": "setPartnerTiers",
      "outputs": [],
      "stateMutability": "nonpayable",
      "type": "function"
    },
    {
      "inputs": [
        {
          "internalType": "bytes32",
          "name": "_publicMerkleRoot",
          "type": "bytes32"
        }
      ],
      "name": "setPublicMerkleRoot",
      "outputs": [],
      "stateMutability": "nonpayable",
      "type": "function"
    },
    {
      "inputs": [
        {
          "internalType": "bool",
          "name": "status",
          "type": "bool"
        }
      ],
      "name": "setPublicSale",
      "outputs": [],
      "stateMutability": "nonpayable",
      "type": "function"
    },
    {
      "inputs": [
        {
          "internalType": "string",
          "name": "code",
          "type": "string"
        },
        {
          "internalType": "address",
          "name": "receiver",
          "type": "address"
        },
        {
          "internalType": "bool",
          "name": "active",
          "type": "bool"
        }
      ],
      "name": "setReferral",
      "outputs": [],
      "stateMutability": "nonpayable",
      "type": "function"
    },
    {
      "inputs": [
        {
          "internalType": "bytes32",
          "name": "_teamMerkleRoot",
          "type": "bytes32"
        }
      ],
      "name": "setTeamMerkleRoot",
      "outputs": [],
      "stateMutability": "nonpayable",
      "type": "function"
    },
    {
      "inputs": [
        {
          "internalType": "bool",
          "name": "status",
          "type": "bool"
        }
      ],
      "name": "setTeamSale",
      "outputs": [],
      "stateMutability": "nonpayable",
      "type": "function"
    },
    {
      "inputs": [
        {
          "internalType": "uint256[]",
          "name": "ids",
          "type": "uint256[]"
        },
        {
          "internalType": "uint256[]",
          "name": "prices",
          "type": "uint256[]"
        },
        {
          "internalType": "uint256[]",
          "name": "individualCaps",
          "type": "uint256[]"
        },
        {
          "internalType": "uint256[]",
          "name": "totalCaps",
          "type": "uint256[]"
        }
      ],
      "name": "setTiers",
      "outputs": [],
      "stateMutability": "nonpayable",
      "type": "function"
    },
    {
      "inputs": [
        {
          "internalType": "uint256[]",
          "name": "ids",
          "type": "uint256[]"
        },
        {
          "internalType": "uint256[]",
          "name": "prices",
          "type": "uint256[]"
        },
        {
          "internalType": "uint256[]",
          "name": "individualCaps",
          "type": "uint256[]"
        },
        {
          "internalType": "uint256[]",
          "name": "totalCaps",
          "type": "uint256[]"
        }
      ],
      "name": "setWhitelistTiers",
      "outputs": [],
      "stateMutability": "nonpayable",
      "type": "function"
    },
    {
      "inputs": [
        {
          "internalType": "bytes4",
          "name": "interfaceId",
          "type": "bytes4"
        }
      ],
      "name": "supportsInterface",
      "outputs": [
        {
          "internalType": "bool",
          "name": "",
          "type": "bool"
        }
      ],
      "stateMutability": "view",
      "type": "function"
    },
    {
      "inputs": [
        {
          "internalType": "address",
          "name": "",
          "type": "address"
        }
      ],
      "name": "teamClaimsPerAddress",
      "outputs": [
        {
          "internalType": "uint256",
          "name": "",
          "type": "uint256"
        }
      ],
      "stateMutability": "view",
      "type": "function"
    },
    {
      "inputs": [],
      "name": "teamMerkleRoot",
      "outputs": [
        {
          "internalType": "bytes32",
          "name": "",
          "type": "bytes32"
        }
      ],
      "stateMutability": "view",
      "type": "function"
    },
    {
      "inputs": [],
      "name": "teamSaleActive",
      "outputs": [
        {
          "internalType": "bool",
          "name": "",
          "type": "bool"
        }
      ],
      "stateMutability": "view",
      "type": "function"
    },
    {
      "inputs": [
        {
          "internalType": "uint256",
          "name": "",
          "type": "uint256"
        }
      ],
      "name": "tiers",
      "outputs": [
        {
          "internalType": "uint256",
          "name": "price",
          "type": "uint256"
        },
        {
          "internalType": "uint256",
          "name": "individualCap",
          "type": "uint256"
        },
        {
          "internalType": "uint256",
          "name": "totalClaimed",
          "type": "uint256"
        },
        {
          "internalType": "uint256",
          "name": "totalCap",
          "type": "uint256"
        }
      ],
      "stateMutability": "view",
      "type": "function"
    },
    {
      "inputs": [],
      "name": "totalLicenses",
      "outputs": [
        {
          "internalType": "uint256",
          "name": "",
          "type": "uint256"
        }
      ],
      "stateMutability": "view",
      "type": "function"
    },
    {
      "inputs": [
        {
          "internalType": "uint256",
          "name": "",
          "type": "uint256"
        }
      ],
      "name": "whitelistTiers",
      "outputs": [
        {
          "internalType": "uint256",
          "name": "price",
          "type": "uint256"
        },
        {
          "internalType": "uint256",
          "name": "individualCap",
          "type": "uint256"
        },
        {
          "internalType": "uint256",
          "name": "totalClaimed",
          "type": "uint256"
        },
        {
          "internalType": "uint256",
          "name": "totalCap",
          "type": "uint256"
        }
      ],
      "stateMutability": "view",
      "type": "function"
    },
    {
      "inputs": [],
      "name": "withdrawProceeds",
      "outputs": [],
      "stateMutability": "nonpayable",
      "type": "function"
    }
  ],
  "transactionHash": "0xc8de8f6383858e2a955e2791ea82495bbec9d36adc8bec5f8a78fd877e6dcb3e",
  "args": [],
  "numDeployments": 1,
  "solcInputHash": "5eca9b204f50d6a6fcbd87dea417afa5",
  "bytecode": "0x60806040523480156200001157600080fd5b506200001c62000022565b620000e3565b600054610100900460ff16156200008f5760405162461bcd60e51b815260206004820152602760248201527f496e697469616c697a61626c653a20636f6e747261637420697320696e697469604482015266616c697a696e6760c81b606482015260840160405180910390fd5b60005460ff90811614620000e1576000805460ff191660ff9081179091556040519081527f7f26b83ff96e1f2b6a682f133852f6798a09c465da95921460cefb38474024989060200160405180910390a15b565b61527080620000f36000396000f3fe60806040526004361061038c5760003560e01c806375b238fc116101dc578063bff7094f11610102578063d55768dd116100a0578063e633fbf21161006f578063e633fbf214610d1d578063e88e08a814610d30578063f79eddb814610d50578063f8c8765e14610d7d57600080fd5b8063d55768dd14610c36578063d923780114610cca578063dc47dced14610cdd578063e4a5665f14610cfd57600080fd5b8063cd98d261116100dc578063cd98d26114610bbc578063cf57b2a014610bd6578063d3d704cf14610bf6578063d547741f14610c1657600080fd5b8063bff7094f14610b5c578063ca59103614610b7c578063cb75f4b214610b9c57600080fd5b8063a217fddf1161017a578063b21a687711610149578063b21a687714610a99578063b5e132f014610acd578063bbbb28dc14610b1b578063bc8893b414610b3b57600080fd5b8063a217fddf146109d6578063a49ef9ef146109eb578063a6f04c3014610a1f578063a749df4b14610a3f57600080fd5b80639038e693116101b65780639038e6931461092b57806391d14854146109405780639340b78b146109935780639d1d9aa6146109c057600080fd5b806375b238fc146108aa57806383b0287f146108de5780638aea3710146108fe57600080fd5b806336568abe116102c15780635163d92f1161025f578063605a25c81161022e578063605a25c8146107ea578063665eecf1146108225780636d5143d6146108415780636ec14ac41461088a57600080fd5b80635163d92f1461075557806355366621146107685780635822b9d7146107885780635aca1bb6146107ca57600080fd5b80634a0b6cf91161029b5780634a0b6cf9146106b25780634ba0fcee1461070f5780634dd16dba1461072f57806350cd60fc1461074257600080fd5b806336568abe14610637578063386de5ac146106575780634458034a1461069257600080fd5b8063187e33241161032e57806324ea54f41161030857806324ea54f4146105b757806329140819146105eb5780632f2ff15d146106015780633533b8e01461062157600080fd5b8063187e33241461054f5780631b8c026814610565578063248a9ca31461058757600080fd5b806305d178761161036a57806305d17876146104635780630e80a287146104b9578063118c04a4146104cf57806314623585146104fc57600080fd5b806301ffc9a714610391578063039af9eb146103c6578063041cb72814610428575b600080fd5b34801561039d57600080fd5b506103b16103ac3660046144fa565b610d9d565b60405190151581526020015b60405180910390f35b3480156103d257600080fd5b506104086103e136600461453c565b60a36020526000908152604090208054600182015460028301546003909301549192909184565b6040805194855260208501939093529183015260608201526080016103bd565b34801561043457600080fd5b506103b161044336600461462f565b805160208183018101805160a98252928201919093012091525460ff1681565b34801561046f57600080fd5b506104ab61047e366004614695565b815160208184018101805160a0825292820194820194909420919093529091526000908152604090205481565b6040519081526020016103bd565b3480156104c557600080fd5b506104ab609c5481565b3480156104db57600080fd5b506104ab6104ea3660046146e3565b609d6020526000908152604090205481565b34801561050857600080fd5b5061051c610517366004614747565b610e36565b6040516103bd91908151815260208083015190820152604080830151908201526060918201519181019190915260800190565b34801561055b57600080fd5b506104ab60985481565b34801561057157600080fd5b506105856105803660046147a3565b610ebe565b005b34801561059357600080fd5b506104ab6105a236600461453c565b60009081526065602052604090206001015490565b3480156105c357600080fd5b506104ab7f8b5b16d04624687fcf0d0228f19993c9157c1ed07b41d8d430fd9100eb099fe881565b3480156105f757600080fd5b506104ab60975481565b34801561060d57600080fd5b5061058561061c3660046147e8565b610f7a565b34801561062d57600080fd5b506104ab60995481565b34801561064357600080fd5b506105856106523660046147e8565b610fa4565b34801561066357600080fd5b5061067761067236600461480b565b61105c565b604080519384526020840192909252908201526060016103bd565b34801561069e57600080fd5b506105856106ad366004614882565b611214565b3480156106be57600080fd5b506104086106cd36600461489d565b815160208184018101805160a5825292820194820194909420919093529091526000908152604090208054600182015460028301546003909301549192909184565b34801561071b57600080fd5b5061058561072a366004614882565b6112d4565b61058561073d36600461480b565b61138a565b610585610750366004614927565b611975565b610585610763366004614927565b611beb565b34801561077457600080fd5b506105856107833660046149a1565b611e52565b34801561079457600080fd5b506104086107a336600461453c565b60a46020526000908152604090208054600182015460028301546003909301549192909184565b3480156107d657600080fd5b506105856107e5366004614882565b612154565b3480156107f657600080fd5b506104ab6108053660046147e8565b60a760209081526000928352604080842090915290825290205481565b34801561082e57600080fd5b50609b546103b190610100900460ff1681565b34801561084d57600080fd5b506104ab61085c366004614a92565b60a2602090815260009283526040909220815180830184018051928152908401929093019190912091525481565b34801561089657600080fd5b506105856108a5366004614927565b61220b565b3480156108b657600080fd5b506104ab7fdf8b4c520ffe197c5343c6f5aec59570151ef9a492f2c624fd45ddde6135ec4281565b3480156108ea57600080fd5b50609b546103b19062010000900460ff1681565b34801561090a57600080fd5b506104ab6109193660046146e3565b609f6020526000908152604090205481565b34801561093757600080fd5b506105856123ff565b34801561094c57600080fd5b506103b161095b3660046147e8565b600091825260656020908152604080842073ffffffffffffffffffffffffffffffffffffffff93909316845291905290205460ff1690565b34801561099f57600080fd5b506104ab6109ae3660046146e3565b60a16020526000908152604090205481565b3480156109cc57600080fd5b506104ab609a5481565b3480156109e257600080fd5b506104ab600081565b3480156109f757600080fd5b506104ab7ffd2994b76294f3a7e0e5e4e40e73799b954c33f4bff642b5e760fef0d694a92481565b348015610a2b57600080fd5b50610585610a3a366004614ae0565b61250b565b348015610a4b57600080fd5b50610a5f610a5a36600461462f565b612766565b60408051825115158152602080840151908201529181015173ffffffffffffffffffffffffffffffffffffffff16908201526060016103bd565b348015610aa557600080fd5b506104ab7fceb656422d2e5768b364a6526533f6832c483c8cfbd416512fbbd6fa6413f96a81565b348015610ad957600080fd5b506104ab610ae8366004614ba4565b825160208185018101805160a8825292820195820195909520919094528352600091825260408083209093528152205481565b348015610b2757600080fd5b50610585610b36366004614ae0565b6127e1565b348015610b4757600080fd5b50609b546103b1906301000000900460ff1681565b348015610b6857600080fd5b50610585610b7736600461453c565b612a31565b348015610b8857600080fd5b50610585610b97366004614882565b612ab5565b348015610ba857600080fd5b5061051c610bb7366004614bfb565b612b45565b348015610bc857600080fd5b50609b546103b19060ff1681565b348015610be257600080fd5b50610585610bf1366004614c1e565b612c09565b348015610c0257600080fd5b50610585610c1136600461453c565b612c63565b348015610c2257600080fd5b50610585610c313660046147e8565b612ce7565b348015610c4257600080fd5b50610c97610c5136600461462f565b805160208183018101805160a68252928201919093012091528054600182015460029092015460ff909116919073ffffffffffffffffffffffffffffffffffffffff1683565b604080519315158452602084019290925273ffffffffffffffffffffffffffffffffffffffff16908201526060016103bd565b610585610cd8366004614c73565b612d0c565b348015610ce957600080fd5b50610585610cf836600461453c565b6130aa565b348015610d0957600080fd5b50610585610d1836600461453c565b61312e565b610585610d2b366004614cc3565b6131b2565b348015610d3c57600080fd5b50610677610d4b366004614d46565b613666565b348015610d5c57600080fd5b506104ab610d6b3660046146e3565b609e6020526000908152604090205481565b348015610d8957600080fd5b50610585610d98366004614da7565b6136f9565b60007fffffffff0000000000000000000000000000000000000000000000000000000082167f7965db0b000000000000000000000000000000000000000000000000000000001480610e3057507f01ffc9a7000000000000000000000000000000000000000000000000000000007fffffffff000000000000000000000000000000000000000000000000000000008316145b92915050565b610e616040518060800160405280600081526020016000815260200160008152602001600081525090565b60a58484604051610e73929190614df0565b90815260408051602092819003830181206000958652835293819020608085018252805485526001810154928501929092526002820154908401526003015460608301525092915050565b3360009081527f3a5f6b5b20ab0e425b1c7c9823b9866065cea388466bf7d4f12b2ad1dfbaf604602052604090205460ff16610f0d57604051634ca8886760e01b815260040160405180910390fd5b8060a983604051610f1e9190614e24565b908152604051908190036020018120805492151560ff19909316929092179091557f81a0ab3096d0711caafd488b7a6d925320dbb9e6ae99f862b35ec7323af9826590610f6e9083908590614e8a565b60405180910390a15050565b600082815260656020526040902060010154610f9581613c08565b610f9f8383613c15565b505050565b73ffffffffffffffffffffffffffffffffffffffff8116331461104e576040517f08c379a000000000000000000000000000000000000000000000000000000000815260206004820152602f60248201527f416363657373436f6e74726f6c3a2063616e206f6e6c792072656e6f756e636560448201527f20726f6c657320666f722073656c66000000000000000000000000000000000060648201526084015b60405180910390fd5b6110588282613ceb565b5050565b60008060008060a5866040516110729190614e24565b908152604080516020928190038301902060008a8152925281205491506110998983614ed4565b905060a6876040516110ab9190614e24565b9081526040519081900360200190205460ff16156110e15760646110d082600a614ed4565b6110da9190614eeb565b93506111fc565b60a6866040516110f19190614e24565b9081526040519081900360200190205460ff16156111fc576064611116826005614ed4565b6111209190614eeb565b9250600060a6876040516111349190614e24565b9081526020016040518091039020600101549050601981101561116f57606461115e83600a614ed4565b6111689190614eeb565b94506111fa565b6032811015611186576103e861115e83607d614ed4565b604b81101561119c57606461115e83600f614ed4565b60648110156111b3576103e861115e8360af614ed4565b60968110156111c957606461115e836014614ed4565b60c88110156111e0576103e861115e8360e1614ed4565b60646111ed836019614ed4565b6111f79190614eeb565b94505b505b6112068382614f26565b945050509450945094915050565b3360009081527f3a5f6b5b20ab0e425b1c7c9823b9866065cea388466bf7d4f12b2ad1dfbaf604602052604090205460ff1661126357604051634ca8886760e01b815260040160405180910390fd5b609b8054821515610100027fffffffffffffffffffffffffffffffffffffffffffffffffffffffffffff00ff9091161790556040517f9f5cf153333ec6c3f336a73d8dd75b350a36948f61b0b13ae43af5b5c144a6f5906112c990831515815260200190565b60405180910390a150565b3360009081527f3a5f6b5b20ab0e425b1c7c9823b9866065cea388466bf7d4f12b2ad1dfbaf604602052604090205460ff1661132357604051634ca8886760e01b815260040160405180910390fd5b609b805482151562010000027fffffffffffffffffffffffffffffffffffffffffffffffffffffffffff00ffff9091161790556040517f643f3a44207851ae16a2c404fa7307be53087b3a8e378e0c908e592c64f50669906112c990831515815260200190565b60a98260405161139a9190614e24565b9081526040519081900360200190205460ff166113e3576040517fb4eb177f00000000000000000000000000000000000000000000000000000000815260040160405180910390fd5b60a5826040516113f39190614e24565b90815260408051918290036020908101832060008781529152206003015490859060a590611422908690614e24565b908152602001604051809103902060008681526020019081526020016000206002015461144f9190614f39565b1115611487576040517f98a3f79100000000000000000000000000000000000000000000000000000000815260040160405180910390fd5b60a5826040516114979190614e24565b90815260408051918290036020908101832060008781529152206001015490859060a8906114c6908690614e24565b908152604080516020928190038301902060008881529083528181203382529092529020546114f59190614f39565b111561152d576040517fbbd4c2bd00000000000000000000000000000000000000000000000000000000815260040160405180910390fd5b60008061153c8686868661105c565b50915091508134101561157b576040517fcd1c886700000000000000000000000000000000000000000000000000000000815260040160405180910390fd5b60a68460405161158b9190614e24565b9081526040519081900360200190205460ff16156116dc5780156116d757600060a6856040516115bb9190614e24565b9081526040519081900360200181206002015473ffffffffffffffffffffffffffffffffffffffff1690839060006040518083038185875af1925050503d8060008114611624576040519150601f19603f3d011682016040523d82523d6000602084013e611629565b606091505b5050905080611664576040517f1ac89c8000000000000000000000000000000000000000000000000000000000815260040160405180910390fd5b60a6856040516116749190614e24565b9081526040519081900360200181206002015473ffffffffffffffffffffffffffffffffffffffff16907f32f584d0754f9710dea21e509acf4c6b5885c93f3cf96f1ed74256887485d130906116cd9088908690614f4c565b60405180910390a2505b611888565b801561181057600060a6846040516116f49190614e24565b9081526040519081900360200181206002015473ffffffffffffffffffffffffffffffffffffffff1690839060006040518083038185875af1925050503d806000811461175d576040519150601f19603f3d011682016040523d82523d6000602084013e611762565b606091505b505090508061179d576040517f1ac89c8000000000000000000000000000000000000000000000000000000000815260040160405180910390fd5b60a6846040516117ad9190614e24565b9081526040519081900360200181206002015473ffffffffffffffffffffffffffffffffffffffff16907f32f584d0754f9710dea21e509acf4c6b5885c93f3cf96f1ed74256887485d130906118069087908690614f4c565b60405180910390a2505b600061181b33613d88565b905060a68160405161182d9190614e24565b9081526040519081900360200190205460ff166118505761185081336001613dab565b8660a6856040516118619190614e24565b908152602001604051809103902060010160008282546118819190614f39565b9091555050505b8560a5856040516118999190614e24565b9081526020016040518091039020600087815260200190815260200160002060020160008282546118ca9190614f39565b925050819055508560a0856040516118e29190614e24565b908152604080516020928190038301902033600090815292528120805490919061190d908490614f39565b9250508190555085609c60008282546119269190614f39565b9091555050604051859033907fa85906c3100968a0ea21181f8a4c6d299823828a0573f27a6c17a68c1af4a4ec90611965908a9087908a908a90614f6e565b60405180910390a3505050505050565b609b54610100900460ff166119b6576040517f7856fae200000000000000000000000000000000000000000000000000000000815260040160405180910390fd5b6000806119c585870187614faa565b336000908152609e60205260409020549193509150816119e5828a614f39565b1115611a1d576040517f7a399cc900000000000000000000000000000000000000000000000000000000815260040160405180910390fd5b60408051602081018590527fffffffffffffffffffffffffffffffffffffffff0000000000000000000000003360601b169181019190915260548101839052600090607401604051602081830303815290604052805190602001209050611abb868680806020026020016040519081016040528093929190818152602001838360200280828437600092019190915250506098549150849050613e91565b611af1576040517f09bde33900000000000000000000000000000000000000000000000000000000815260040160405180910390fd5b6001600090815260a36020527fc3869149e653ab70ab3abed8edc49ed99ccd0c8cf7ca81486b7adbd034773b1054611b2a908b90614ed4565b905080341015611b66576040517fcd1c886700000000000000000000000000000000000000000000000000000000815260040160405180910390fd5b336000908152609e6020526040812080548c9290611b85908490614f39565b9250508190555089609c6000828254611b9e9190614f39565b909155505060408051828152602081018c905233917f09f1b238e0c956383f51f6a0a249784a40ca5b7a87c8b151a727016be60cccd591015b60405180910390a250505050505050505050565b609b5462010000900460ff16611c2d576040517f724187c200000000000000000000000000000000000000000000000000000000815260040160405180910390fd5b600080611c3c85870187614faa565b336000908152609f6020526040902054919350915081611c5c828a614f39565b1115611c94576040517f7a399cc900000000000000000000000000000000000000000000000000000000815260040160405180910390fd5b60408051602081018590527fffffffffffffffffffffffffffffffffffffffff0000000000000000000000003360601b169181019190915260548101839052600090607401604051602081830303815290604052805190602001209050611d32868680806020026020016040519081016040528093929190818152602001838360200280828437600092019190915250506099549150849050613e91565b611d68576040517f09bde33900000000000000000000000000000000000000000000000000000000815260040160405180910390fd5b6001600090815260a36020527fc3869149e653ab70ab3abed8edc49ed99ccd0c8cf7ca81486b7adbd034773b1054611da1908b90614ed4565b905080341015611ddd576040517fcd1c886700000000000000000000000000000000000000000000000000000000815260040160405180910390fd5b336000908152609f6020526040812080548c9290611dfc908490614f39565b9250508190555089609c6000828254611e159190614f39565b909155505060408051828152602081018c905233917f7d6d20e50ff90d3c35b2d0182ab7dd6825df9759011eb6ae1499640a2c2b2eeb9101611bd7565b3360009081527f9de19bebcfec5fefaa13a42edbcc11cb6ff633bb0eb0a7f29bcb2311657057e0602052604090205460ff16611ea157604051634ca8886760e01b815260040160405180910390fd5b8887141580611eb05750868514155b80611ebb5750848314155b80611ec65750828114155b15611efd576040517f8d7b788500000000000000000000000000000000000000000000000000000000815260040160405180910390fd5b60005b8781101561214757600060a58c8c84818110611f1e57611f1e614fcc565b9050602002810190611f309190614ffb565b604051611f3e929190614df0565b908152602001604051809103902060008b8b85818110611f6057611f60614fcc565b9050602002013581526020019081526020016000206002015490506040518060800160405280898985818110611f9857611f98614fcc565b905060200201358152602001878785818110611fb657611fb6614fcc565b905060200201358152602001828152602001858585818110611fda57611fda614fcc565b9050602002013581525060a58d8d85818110611ff857611ff8614fcc565b905060200281019061200a9190614ffb565b604051612018929190614df0565b908152602001604051809103902060008c8c8681811061203a5761203a614fcc565b9050602002013581526020019081526020016000206000820151816000015560208201518160010155604082015181600201556060820151816003015590505089898381811061208c5761208c614fcc565b905060200201357fb594049245992a738d373cbadb4c71bff13c5415bb08132a24528b25700adc8f8d8d858181106120c6576120c6614fcc565b90506020028101906120d89190614ffb565b8b8b878181106120ea576120ea614fcc565b905060200201358a8a8881811061210357612103614fcc565b90506020020135868a8a8a81811061211d5761211d614fcc565b9050602002013560405161213696959493929190615060565b60405180910390a250600101611f00565b5050505050505050505050565b3360009081527f3a5f6b5b20ab0e425b1c7c9823b9866065cea388466bf7d4f12b2ad1dfbaf604602052604090205460ff166121a357604051634ca8886760e01b815260040160405180910390fd5b609b80548215156301000000027fffffffffffffffffffffffffffffffffffffffffffffffffffffffff00ffffff9091161790556040517f3b7b44afae3b983507896693d669f6119d5ab003ec1ab51123108429bd5d46d7906112c990831515815260200190565b609b5460ff16612247576040517f27dc08c400000000000000000000000000000000000000000000000000000000815260040160405180910390fd5b60008061225685870187614faa565b336000908152609d6020526040902054919350915081612276828a614f39565b11156122ae576040517f7a399cc900000000000000000000000000000000000000000000000000000000815260040160405180910390fd5b60408051602081018590527fffffffffffffffffffffffffffffffffffffffff0000000000000000000000003360601b16918101919091526054810183905260009060740160405160208183030381529060405280519060200120905061234c868680806020026020016040519081016040528093929190818152602001838360200280828437600092019190915250506097549150849050613e91565b612382576040517f09bde33900000000000000000000000000000000000000000000000000000000815260040160405180910390fd5b336000908152609d6020526040812080548b92906123a1908490614f39565b9250508190555088609c60008282546123ba9190614f39565b909155505060405189815233907fdcf2314e0115a42fe2b3fcfb533c03e95dc48bc7769a9c2b61a14883c0b449e09060200160405180910390a2505050505050505050565b3360009081527f9de19bebcfec5fefaa13a42edbcc11cb6ff633bb0eb0a7f29bcb2311657057e0602052604090205460ff1661244e57604051634ca8886760e01b815260040160405180910390fd5b6040514790600090339083908381818185875af1925050503d8060008114612492576040519150601f19603f3d011682016040523d82523d6000602084013e612497565b606091505b50509050806124d2576040517f27fcd9d100000000000000000000000000000000000000000000000000000000815260040160405180910390fd5b60405182815233907f0f2fb75cc1977a496e94837f859e957f68e26e70dc1b75d9945ee92ae57969ba9060200160405180910390a25050565b3360009081527f9de19bebcfec5fefaa13a42edbcc11cb6ff633bb0eb0a7f29bcb2311657057e0602052604090205460ff1661255a57604051634ca8886760e01b815260040160405180910390fd5b86851415806125695750848314155b806125745750828114155b156125ab576040517f8d7b788500000000000000000000000000000000000000000000000000000000815260040160405180910390fd5b60005b8781101561275b57600060a360008b8b858181106125ce576125ce614fcc565b905060200201358152602001908152602001600020600201549050604051806080016040528089898581811061260657612606614fcc565b90506020020135815260200187878581811061262457612624614fcc565b90506020020135815260200182815260200185858581811061264857612648614fcc565b9050602002013581525060a360008c8c8681811061266857612668614fcc565b905060200201358152602001908152602001600020600082015181600001556020820151816001015560408201518160020155606082015181600301559050508989838181106126ba576126ba614fcc565b905060200201357fefd55558319646aa70e53c48ba0480d26d9fdce9d6399432fac9356ee254944c8989858181106126f4576126f4614fcc565b9050602002013588888681811061270d5761270d614fcc565b905060200201358488888881811061272757612727614fcc565b604080519687526020878101969096528601939093525091020135606082015260800160405180910390a2506001016125ae565b505050505050505050565b6040805160608101825260008082526020820181905281830152905160a690612790908490614e24565b908152604080519182900360209081018320606084018352805460ff16151584526001810154918401919091526002015473ffffffffffffffffffffffffffffffffffffffff169082015292915050565b3360009081527f9de19bebcfec5fefaa13a42edbcc11cb6ff633bb0eb0a7f29bcb2311657057e0602052604090205460ff1661283057604051634ca8886760e01b815260040160405180910390fd5b868514158061283f5750848314155b8061284a5750828114155b15612881576040517f8d7b788500000000000000000000000000000000000000000000000000000000815260040160405180910390fd5b60005b8781101561275b57600060a460008b8b858181106128a4576128a4614fcc565b90506020020135815260200190815260200160002060020154905060405180608001604052808989858181106128dc576128dc614fcc565b9050602002013581526020018787858181106128fa576128fa614fcc565b90506020020135815260200182815260200185858581811061291e5761291e614fcc565b9050602002013581525060a460008c8c8681811061293e5761293e614fcc565b9050602002013581526020019081526020016000206000820151816000015560208201518160010155604082015181600201556060820151816003015590505089898381811061299057612990614fcc565b905060200201357fc9dc860a4ebff48880e12d6561e76353bec03d096d8339da1a00c77b2e672ccb8989858181106129ca576129ca614fcc565b905060200201358888868181106129e3576129e3614fcc565b90506020020135848888888181106129fd576129fd614fcc565b604080519687526020878101969096528601939093525091020135606082015260800160405180910390a250600101612884565b3360009081527f0f8f48858e118d2eab32cf95c88221b6c0a0d6e1fed7aef78e355435fa71bc6f602052604090205460ff16612a8057604051634ca8886760e01b815260040160405180910390fd5b609a8190556040518181527f1113c739a7b79ad7fe9572522e32b648f09eb5b1c329efd91dcb309da05541fb906020016112c9565b3360009081527f3a5f6b5b20ab0e425b1c7c9823b9866065cea388466bf7d4f12b2ad1dfbaf604602052604090205460ff16612b0457604051634ca8886760e01b815260040160405180910390fd5b609b805460ff19168215159081179091556040519081527fadafd3bec1c754707cbddc626a6214c879cecc475375ff8f5a1dbc3299398693906020016112c9565b612b706040518060800160405280600081526020016000815260200160008152602001600081525090565b8115612bc35760a360008481526020019081526020016000206040518060800160405290816000820154815260200160018201548152602001600282015481526020016003820154815250509050610e30565b5050600090815260a46020908152604091829020825160808101845281548152600182015492810192909252600281015492820192909252600390910154606082015290565b3360009081527f93597da006e5eb572f6ec69e1ccdaa385853d6a136697cd54f88b4acaace9499602052604090205460ff16612c5857604051634ca8886760e01b815260040160405180910390fd5b610f9f838383613dab565b3360009081527f0f8f48858e118d2eab32cf95c88221b6c0a0d6e1fed7aef78e355435fa71bc6f602052604090205460ff16612cb257604051634ca8886760e01b815260040160405180910390fd5b60998190556040518181527fed5a3c80523111a140a98ec8643e5fb5ac073fe6b8528163c00123af11e4b31a906020016112c9565b600082815260656020526040902060010154612d0281613c08565b610f9f8383613ceb565b609b546301000000900460ff16612d4f576040517fc7d08f0400000000000000000000000000000000000000000000000000000000815260040160405180910390fd5b600082815260a3602052604090206003810154600290910154612d73908590614f39565b1115612dab576040517f98a3f79100000000000000000000000000000000000000000000000000000000815260040160405180910390fd5b600082815260a3602090815260408083206001015460a7835281842033855290925290912054612ddc908590614f39565b1115612e14576040517fbbd4c2bd00000000000000000000000000000000000000000000000000000000815260040160405180910390fd5b600080612e248585856000613666565b509150915081341015612e63576040517fcd1c886700000000000000000000000000000000000000000000000000000000815260040160405180910390fd5b8015612f9757600060a684604051612e7b9190614e24565b9081526040519081900360200181206002015473ffffffffffffffffffffffffffffffffffffffff1690839060006040518083038185875af1925050503d8060008114612ee4576040519150601f19603f3d011682016040523d82523d6000602084013e612ee9565b606091505b5050905080612f24576040517f1ac89c8000000000000000000000000000000000000000000000000000000000815260040160405180910390fd5b60a684604051612f349190614e24565b9081526040519081900360200181206002015473ffffffffffffffffffffffffffffffffffffffff16907f32f584d0754f9710dea21e509acf4c6b5885c93f3cf96f1ed74256887485d13090612f8d9087908690614f4c565b60405180910390a2505b6000612fa233613d88565b905060a681604051612fb49190614e24565b9081526040519081900360200190205460ff16612fd757612fd781336001613dab565b600085815260a3602052604081206002018054889290612ff8908490614f39565b909155505033600090815260a160205260408120805488929061301c908490614f39565b9250508190555085609c60008282546130359190614f39565b925050819055508560a68560405161304d9190614e24565b9081526020016040518091039020600101600082825461306d9190614f39565b9091555050604051859033907f667f777d5c0d93b002117ea7ffc49143b4c2180cb35b02848c4ab62631a0cd2590611965908a9088908a906150cc565b3360009081527f0f8f48858e118d2eab32cf95c88221b6c0a0d6e1fed7aef78e355435fa71bc6f602052604090205460ff166130f957604051634ca8886760e01b815260040160405180910390fd5b60978190556040518181527f9811c75983304a889ec0cb24de6cb2a102ceef14040efeca89e8361047af9daf906020016112c9565b3360009081527f0f8f48858e118d2eab32cf95c88221b6c0a0d6e1fed7aef78e355435fa71bc6f602052604090205460ff1661317d57604051634ca8886760e01b815260040160405180910390fd5b60988190556040518181527fa9def886987ec775de3f208d9045235d630a49852d8da931fa98c53e9c4a7995906020016112c9565b609b546301000000900460ff166131f5576040517fc7d08f0400000000000000000000000000000000000000000000000000000000815260040160405180910390fd5b6000808061320586880188614c73565b60008b815260a4602052604090206003810154600290910154939650919450925090613232908b90614f39565b111561326a576040517f98a3f79100000000000000000000000000000000000000000000000000000000815260040160405180910390fd5b33600090815260a260205260408082209051613287908490614e24565b908152604051908190036020019020549050826132a4828c614f39565b11156132dc576040517f7a399cc900000000000000000000000000000000000000000000000000000000815260040160405180910390fd5b6000843385856040516020016132f594939291906150f4565b60405160208183030381529060405280519060200120905061334e87878080602002602001604051908101604052809392919081815260200183836020028082843760009201919091525050609a549150849050613e91565b613384576040517f09bde33900000000000000000000000000000000000000000000000000000000815260040160405180910390fd5b506000806133958c8c866001613666565b5091509150813410156133d4576040517fcd1c886700000000000000000000000000000000000000000000000000000000815260040160405180910390fd5b801561350857600060a6856040516133ec9190614e24565b9081526040519081900360200181206002015473ffffffffffffffffffffffffffffffffffffffff1690839060006040518083038185875af1925050503d8060008114613455576040519150601f19603f3d011682016040523d82523d6000602084013e61345a565b606091505b5050905080613495576040517f1ac89c8000000000000000000000000000000000000000000000000000000000815260040160405180910390fd5b60a6856040516134a59190614e24565b9081526040519081900360200181206002015473ffffffffffffffffffffffffffffffffffffffff16907f32f584d0754f9710dea21e509acf4c6b5885c93f3cf96f1ed74256887485d130906134fe9088908690614f4c565b60405180910390a2505b600061351333613d88565b905060a6816040516135259190614e24565b9081526040519081900360200190205460ff166135485761354881336001613dab565b60008c815260a46020526040812060020180548f9290613569908490614f39565b909155505033600090815260a260205260409081902090518e919061358f908890614e24565b908152602001604051809103902060008282546135ac9190614f39565b925050819055508c609c60008282546135c59190614f39565b925050819055508c60a6866040516135dd9190614e24565b908152602001604051809103902060010160008282546135fd9190614f39565b925050819055508b3373ffffffffffffffffffffffffffffffffffffffff167fc72e71a3feffde96ea8e1ea0580c51515589e1191e54ae4152c6446d43770b8c8f868960405161364f939291906150cc565b60405180910390a350505050505050505050505050565b60008060008084156136875750600086815260a46020526040902054613698565b50600086815260a360205260409020545b60006136a48983614ed4565b905060a6876040516136b69190614e24565b9081526040519081900360200190205460ff16156111fc5760646136db826005614ed4565b6136e59190614eeb565b9250600060a6886040516111349190614e24565b600054610100900460ff16158080156137195750600054600160ff909116105b806137335750303b158015613733575060005460ff166001145b6137bf576040517f08c379a000000000000000000000000000000000000000000000000000000000815260206004820152602e60248201527f496e697469616c697a61626c653a20636f6e747261637420697320616c72656160448201527f647920696e697469616c697a65640000000000000000000000000000000000006064820152608401611045565b6000805460ff1916600117905580156137ff57600080547fffffffffffffffffffffffffffffffffffffffffffffffffffffffffffff00ff166101001790555b613807613ea7565b73ffffffffffffffffffffffffffffffffffffffff851661386c576040517f8e4c8aa600000000000000000000000000000000000000000000000000000000815273ffffffffffffffffffffffffffffffffffffffff86166004820152602401611045565b73ffffffffffffffffffffffffffffffffffffffff84166138d1576040517f8e4c8aa600000000000000000000000000000000000000000000000000000000815273ffffffffffffffffffffffffffffffffffffffff85166004820152602401611045565b73ffffffffffffffffffffffffffffffffffffffff8316613936576040517f8e4c8aa600000000000000000000000000000000000000000000000000000000815273ffffffffffffffffffffffffffffffffffffffff84166004820152602401611045565b73ffffffffffffffffffffffffffffffffffffffff821661399b576040517f8e4c8aa600000000000000000000000000000000000000000000000000000000815273ffffffffffffffffffffffffffffffffffffffff83166004820152602401611045565b6139c57fdf8b4c520ffe197c5343c6f5aec59570151ef9a492f2c624fd45ddde6135ec4286613c15565b6139ef7fdf8b4c520ffe197c5343c6f5aec59570151ef9a492f2c624fd45ddde6135ec4280613f40565b613a197f8b5b16d04624687fcf0d0228f19993c9157c1ed07b41d8d430fd9100eb099fe885613c15565b613a437f8b5b16d04624687fcf0d0228f19993c9157c1ed07b41d8d430fd9100eb099fe886613c15565b613a8d7f8b5b16d04624687fcf0d0228f19993c9157c1ed07b41d8d430fd9100eb099fe87fdf8b4c520ffe197c5343c6f5aec59570151ef9a492f2c624fd45ddde6135ec42613f40565b613ab77ffd2994b76294f3a7e0e5e4e40e73799b954c33f4bff642b5e760fef0d694a92484613c15565b613b017ffd2994b76294f3a7e0e5e4e40e73799b954c33f4bff642b5e760fef0d694a9247fdf8b4c520ffe197c5343c6f5aec59570151ef9a492f2c624fd45ddde6135ec42613f40565b613b2b7fceb656422d2e5768b364a6526533f6832c483c8cfbd416512fbbd6fa6413f96a83613c15565b613b757fceb656422d2e5768b364a6526533f6832c483c8cfbd416512fbbd6fa6413f96a7fdf8b4c520ffe197c5343c6f5aec59570151ef9a492f2c624fd45ddde6135ec42613f40565b6040517f9f4eefba9f06bdd612ec93892ddb6d0bf72365e3835c1159ce2f0b9f172bfcbd90600090a18015613c0157600080547fffffffffffffffffffffffffffffffffffffffffffffffffffffffffffff00ff169055604051600181527f7f26b83ff96e1f2b6a682f133852f6798a09c465da95921460cefb38474024989060200160405180910390a15b5050505050565b613c128133613f8b565b50565b600082815260656020908152604080832073ffffffffffffffffffffffffffffffffffffffff8516845290915290205460ff1661105857600082815260656020908152604080832073ffffffffffffffffffffffffffffffffffffffff851684529091529020805460ff19166001179055613c8d3390565b73ffffffffffffffffffffffffffffffffffffffff168173ffffffffffffffffffffffffffffffffffffffff16837f2f8788117e7eff1d82e926ec794901d17c78024a50270940304540a733656f0d60405160405180910390a45050565b600082815260656020908152604080832073ffffffffffffffffffffffffffffffffffffffff8516845290915290205460ff161561105857600082815260656020908152604080832073ffffffffffffffffffffffffffffffffffffffff85168085529252808320805460ff1916905551339285917ff6391f5c32d9c69d2a47ea670b442974b53935d1edc7fd64eb21e047a839171b9190a45050565b6060610e3073ffffffffffffffffffffffffffffffffffffffff83166014614045565b8160a684604051613dbc9190614e24565b908152602001604051809103902060020160006101000a81548173ffffffffffffffffffffffffffffffffffffffff021916908373ffffffffffffffffffffffffffffffffffffffff1602179055508060a684604051613e1c9190614e24565b908152604051908190036020018120805492151560ff199093169290921790915573ffffffffffffffffffffffffffffffffffffffff8316907f41fee0599dd3c53d5b4f50da87e6f639c257fbfcd8b2247f263064690de4b71990613e84908690859061514d565b60405180910390a2505050565b600082613e9e858461428f565b14949350505050565b600054610100900460ff16613f3e576040517f08c379a000000000000000000000000000000000000000000000000000000000815260206004820152602b60248201527f496e697469616c697a61626c653a20636f6e7472616374206973206e6f74206960448201527f6e697469616c697a696e670000000000000000000000000000000000000000006064820152608401611045565b565b600082815260656020526040808220600101805490849055905190918391839186917fbd79b86ffe0ab8e8776151514217cd7cacd52c909f66475c3af44e129f0b00ff9190a4505050565b600082815260656020908152604080832073ffffffffffffffffffffffffffffffffffffffff8516845290915290205460ff1661105857613fcb816142d2565b613fd68360206142f1565b604051602001613fe7929190615171565b604080517fffffffffffffffffffffffffffffffffffffffffffffffffffffffffffffffe0818403018152908290527f08c379a0000000000000000000000000000000000000000000000000000000008252611045916004016151f2565b60606000614054836002614ed4565b61405f906002614f39565b67ffffffffffffffff81111561407757614077614555565b6040519080825280601f01601f1916602001820160405280156140a1576020820181803683370190505b5090507f3000000000000000000000000000000000000000000000000000000000000000816000815181106140d8576140d8614fcc565b60200101907effffffffffffffffffffffffffffffffffffffffffffffffffffffffffffff1916908160001a9053507f78000000000000000000000000000000000000000000000000000000000000008160018151811061413b5761413b614fcc565b60200101907effffffffffffffffffffffffffffffffffffffffffffffffffffffffffffff1916908160001a9053506000614177846002614ed4565b614182906001614f39565b90505b600181111561421f577f303132333435363738396162636465660000000000000000000000000000000085600f16601081106141c3576141c3614fcc565b1a60f81b8282815181106141d9576141d9614fcc565b60200101907effffffffffffffffffffffffffffffffffffffffffffffffffffffffffffff1916908160001a90535060049490941c9361421881615205565b9050614185565b508315614288576040517f08c379a000000000000000000000000000000000000000000000000000000000815260206004820181905260248201527f537472696e67733a20686578206c656e67746820696e73756666696369656e746044820152606401611045565b9392505050565b600081815b84518110156142ca576142c0828683815181106142b3576142b3614fcc565b60200260200101516144cb565b9150600101614294565b509392505050565b6060610e3073ffffffffffffffffffffffffffffffffffffffff831660145b60606000614300836002614ed4565b61430b906002614f39565b67ffffffffffffffff81111561432357614323614555565b6040519080825280601f01601f19166020018201604052801561434d576020820181803683370190505b5090507f30000000000000000000000000000000000000000000000000000000000000008160008151811061438457614384614fcc565b60200101907effffffffffffffffffffffffffffffffffffffffffffffffffffffffffffff1916908160001a9053507f7800000000000000000000000000000000000000000000000000000000000000816001815181106143e7576143e7614fcc565b60200101907effffffffffffffffffffffffffffffffffffffffffffffffffffffffffffff1916908160001a9053506000614423846002614ed4565b61442e906001614f39565b90505b600181111561421f577f303132333435363738396162636465660000000000000000000000000000000085600f166010811061446f5761446f614fcc565b1a60f81b82828151811061448557614485614fcc565b60200101907effffffffffffffffffffffffffffffffffffffffffffffffffffffffffffff1916908160001a90535060049490941c936144c481615205565b9050614431565b60008183106144e7576000828152602084905260409020614288565b6000838152602083905260409020614288565b60006020828403121561450c57600080fd5b81357fffffffff000000000000000000000000000000000000000000000000000000008116811461428857600080fd5b60006020828403121561454e57600080fd5b5035919050565b7f4e487b7100000000000000000000000000000000000000000000000000000000600052604160045260246000fd5b600082601f83011261459557600080fd5b813567ffffffffffffffff808211156145b0576145b0614555565b604051601f83017fffffffffffffffffffffffffffffffffffffffffffffffffffffffffffffffe0908116603f011681019082821181831017156145f6576145f6614555565b8160405283815286602085880101111561460f57600080fd5b836020870160208301376000602085830101528094505050505092915050565b60006020828403121561464157600080fd5b813567ffffffffffffffff81111561465857600080fd5b61466484828501614584565b949350505050565b803573ffffffffffffffffffffffffffffffffffffffff8116811461469057600080fd5b919050565b600080604083850312156146a857600080fd5b823567ffffffffffffffff8111156146bf57600080fd5b6146cb85828601614584565b9250506146da6020840161466c565b90509250929050565b6000602082840312156146f557600080fd5b6142888261466c565b60008083601f84011261471057600080fd5b50813567ffffffffffffffff81111561472857600080fd5b60208301915083602082850101111561474057600080fd5b9250929050565b60008060006040848603121561475c57600080fd5b833567ffffffffffffffff81111561477357600080fd5b61477f868287016146fe565b909790965060209590950135949350505050565b8035801515811461469057600080fd5b600080604083850312156147b657600080fd5b823567ffffffffffffffff8111156147cd57600080fd5b6147d985828601614584565b9250506146da60208401614793565b600080604083850312156147fb57600080fd5b823591506146da6020840161466c565b6000806000806080858703121561482157600080fd5b8435935060208501359250604085013567ffffffffffffffff8082111561484757600080fd5b61485388838901614584565b9350606087013591508082111561486957600080fd5b5061487687828801614584565b91505092959194509250565b60006020828403121561489457600080fd5b61428882614793565b600080604083850312156148b057600080fd5b823567ffffffffffffffff8111156148c757600080fd5b6148d385828601614584565b95602094909401359450505050565b60008083601f8401126148f457600080fd5b50813567ffffffffffffffff81111561490c57600080fd5b6020830191508360208260051b850101111561474057600080fd5b60008060008060006060868803121561493f57600080fd5b85359450602086013567ffffffffffffffff8082111561495e57600080fd5b61496a89838a016146fe565b9096509450604088013591508082111561498357600080fd5b50614990888289016148e2565b969995985093965092949392505050565b60008060008060008060008060008060a08b8d0312156149c057600080fd5b8a3567ffffffffffffffff808211156149d857600080fd5b6149e48e838f016148e2565b909c509a5060208d01359150808211156149fd57600080fd5b614a098e838f016148e2565b909a50985060408d0135915080821115614a2257600080fd5b614a2e8e838f016148e2565b909850965060608d0135915080821115614a4757600080fd5b614a538e838f016148e2565b909650945060808d0135915080821115614a6c57600080fd5b50614a798d828e016148e2565b915080935050809150509295989b9194979a5092959850565b60008060408385031215614aa557600080fd5b614aae8361466c565b9150602083013567ffffffffffffffff811115614aca57600080fd5b614ad685828601614584565b9150509250929050565b6000806000806000806000806080898b031215614afc57600080fd5b883567ffffffffffffffff80821115614b1457600080fd5b614b208c838d016148e2565b909a50985060208b0135915080821115614b3957600080fd5b614b458c838d016148e2565b909850965060408b0135915080821115614b5e57600080fd5b614b6a8c838d016148e2565b909650945060608b0135915080821115614b8357600080fd5b50614b908b828c016148e2565b999c989b5096995094979396929594505050565b600080600060608486031215614bb957600080fd5b833567ffffffffffffffff811115614bd057600080fd5b614bdc86828701614584565b93505060208401359150614bf26040850161466c565b90509250925092565b60008060408385031215614c0e57600080fd5b823591506146da60208401614793565b600080600060608486031215614c3357600080fd5b833567ffffffffffffffff811115614c4a57600080fd5b614c5686828701614584565b935050614c656020850161466c565b9150614bf260408501614793565b600080600060608486031215614c8857600080fd5b8335925060208401359150604084013567ffffffffffffffff811115614cad57600080fd5b614cb986828701614584565b9150509250925092565b60008060008060008060808789031215614cdc57600080fd5b8635955060208701359450604087013567ffffffffffffffff80821115614d0257600080fd5b614d0e8a838b016146fe565b90965094506060890135915080821115614d2757600080fd5b50614d3489828a016148e2565b979a9699509497509295939492505050565b60008060008060808587031215614d5c57600080fd5b8435935060208501359250604085013567ffffffffffffffff811115614d8157600080fd5b614d8d87828801614584565b925050614d9c60608601614793565b905092959194509250565b60008060008060808587031215614dbd57600080fd5b614dc68561466c565b9350614dd46020860161466c565b9250614de26040860161466c565b9150614d9c6060860161466c565b8183823760009101908152919050565b60005b83811015614e1b578181015183820152602001614e03565b50506000910152565b60008251614e36818460208701614e00565b9190910192915050565b60008151808452614e58816020860160208601614e00565b601f017fffffffffffffffffffffffffffffffffffffffffffffffffffffffffffffffe0169290920160200192915050565b82151581526040602082015260006146646040830184614e40565b7f4e487b7100000000000000000000000000000000000000000000000000000000600052601160045260246000fd5b8082028115828204841417610e3057610e30614ea5565b600082614f21577f4e487b7100000000000000000000000000000000000000000000000000000000600052601260045260246000fd5b500490565b81810381811115610e3057610e30614ea5565b80820180821115610e3057610e30614ea5565b604081526000614f5f6040830185614e40565b90508260208301529392505050565b848152836020820152608060408201526000614f8d6080830185614e40565b8281036060840152614f9f8185614e40565b979650505050505050565b60008060408385031215614fbd57600080fd5b50508035926020909101359150565b7f4e487b7100000000000000000000000000000000000000000000000000000000600052603260045260246000fd5b60008083357fffffffffffffffffffffffffffffffffffffffffffffffffffffffffffffffe184360301811261503057600080fd5b83018035915067ffffffffffffffff82111561504b57600080fd5b60200191503681900382131561474057600080fd5b60a081528560a0820152858760c0830137600060c08783010152600060c07fffffffffffffffffffffffffffffffffffffffffffffffffffffffffffffffe0601f8901168301019050856020830152846040830152836060830152826080830152979650505050505050565b8381528260208201526060604082015260006150eb6060830184614e40565b95945050505050565b8481527fffffffffffffffffffffffffffffffffffffffff0000000000000000000000008460601b1660208201528260348201526000825161513d816054850160208701614e00565b9190910160540195945050505050565b6040815260006151606040830185614e40565b905082151560208301529392505050565b7f416363657373436f6e74726f6c3a206163636f756e74200000000000000000008152600083516151a9816017850160208801614e00565b7f206973206d697373696e6720726f6c652000000000000000000000000000000060179184019182015283516151e6816028840160208801614e00565b01602801949350505050565b6020815260006142886020830184614e40565b60008161521457615214614ea5565b507fffffffffffffffffffffffffffffffffffffffffffffffffffffffffffffffff019056fea26469706673582212202ee5aec1f5b5297b2381944f527168df51a47dd0c9aecfdd23a99addec36c0ef64736f6c63430008180033",
  "devdoc": {
    "author": "Archethect",
    "events": {
      "Initialized(uint8)": {
        "details": "Triggered when the contract has been initialized or reinitialized."
      },
      "RoleAdminChanged(bytes32,bytes32,bytes32)": {
        "details": "Emitted when `newAdminRole` is set as ``role``'s admin role, replacing `previousAdminRole` `DEFAULT_ADMIN_ROLE` is the starting admin for all roles, despite {RoleAdminChanged} not being emitted signaling this. _Available since v3.1._"
      },
      "RoleGranted(bytes32,address,address)": {
        "details": "Emitted when `account` is granted `role`. `sender` is the account that originated the contract call, an admin role bearer except when using {AccessControl-_setupRole}."
      },
      "RoleRevoked(bytes32,address,address)": {
        "details": "Emitted when `account` is revoked `role`. `sender` is the account that originated the contract call:   - if using `revokeRole`, it is the admin role bearer   - if using `renounceRole`, it is the role bearer (i.e. `account`)"
      }
    },
    "kind": "dev",
    "methods": {
      "claimLicenseEarlyAccess(uint256,bytes,bytes32[])": {
        "params": {
          "amount": "The amount of licenses to claim",
          "data": "Index and claimCap in encoded format",
          "merkleProof": "The proof used to verify whether the caller is allowed to claim the licenses"
        }
      },
      "claimLicenseFriendsFamily(uint256,bytes,bytes32[])": {
        "params": {
          "amount": "The amount of licenses to claim",
          "data": "Index and claimCap in encoded format",
          "merkleProof": "The proof used to verify weather the caller is allowed to claim the licenses"
        }
      },
      "claimLicensePartner(uint256,uint256,string,string)": {
        "params": {
          "amount": "The amount of licenses to claim",
          "partnerCode": "The code of the partner sale"
        }
      },
      "claimLicensePublic(uint256,uint256,string)": {
        "params": {
          "amount": "The amount of licenses to claim",
          "referral": "A referral code that can give discounts.",
          "tier": "The tier to buy the licenses from"
        }
      },
      "claimLicensePublicWhitelist(uint256,uint256,bytes,bytes32[])": {
        "params": {
          "amount": "The amount of licenses to claim",
          "data": "Index, claimCap and referral in encoded format",
          "merkleProof": "The proof used to verify weather the caller is allowed to claim the licenses",
          "tier": "The tier to buy the licenses from"
        }
      },
      "claimLicenseTeam(uint256,bytes,bytes32[])": {
        "params": {
          "amount": "The amount of licenses to claim",
          "data": "Index and claimCap in encoded format",
          "merkleProof": "The proof used to verify whether the caller is allowed to claim the licenses"
        }
      },
      "constructor": {
        "custom:oz-upgrades-unsafe-allow": "constructor"
      },
      "getPartnerTier(string,uint256)": {
        "params": {
          "id": "The tier id",
          "partnerCode": "The code of the partner to return the tier from"
        },
        "returns": {
          "tier": "The tier"
        }
      },
      "getReferral(string)": {
        "params": {
          "id": "The referral id"
        },
        "returns": {
          "referral": "The referral"
        }
      },
      "getRoleAdmin(bytes32)": {
        "details": "Returns the admin role that controls `role`. See {grantRole} and {revokeRole}. To change a role's admin, use {_setRoleAdmin}."
      },
      "getTier(uint256,bool)": {
        "params": {
          "id": "The tier id",
          "isWhitelist": "Whether the tier is used for the whitelist sale or not"
        },
        "returns": {
          "tier": "The tier"
        }
      },
      "grantRole(bytes32,address)": {
        "details": "Grants `role` to `account`. If `account` had not been already granted `role`, emits a {RoleGranted} event. Requirements: - the caller must have ``role``'s admin role. May emit a {RoleGranted} event."
      },
      "hasRole(bytes32,address)": {
        "details": "Returns `true` if `account` has been granted `role`."
      },
      "paymentDetailsForPartnerReferral(uint256,uint256,string,string)": {
        "params": {
          "amount": "The amount of licenses to claim",
          "partnerCode": "The code identifying the partner sale",
          "tier": "The tier to buy the licenses from"
        },
        "returns": {
          "commission": "The commission in ETH that the referrer will get.",
          "discount": "The discount in ETH the claimer will get",
          "toPay": "The amount of ETH that should be paid by the claimer."
        }
      },
      "paymentDetailsForReferral(uint256,uint256,string,bool)": {
        "params": {
          "amount": "The amount of licenses to claim",
          "isWhitelist": "Whether the tier is used for the whitelist sale or not",
          "referral": "A referral code that can give discounts.",
          "tier": "The tier to buy the licenses from"
        },
        "returns": {
          "commission": "The commission in ETH that the referrer will get.",
          "discount": "The discount in ETH the claimer will get",
          "toPay": "The amount of ETH that should be paid by the claimer."
        }
      },
      "renounceRole(bytes32,address)": {
        "details": "Revokes `role` from the calling account. Roles are often managed via {grantRole} and {revokeRole}: this function's purpose is to provide a mechanism for accounts to lose their privileges if they are compromised (such as when a trusted device is misplaced). If the calling account had been revoked `role`, emits a {RoleRevoked} event. Requirements: - the caller must be `account`. May emit a {RoleRevoked} event."
      },
      "revokeRole(bytes32,address)": {
        "details": "Revokes `role` from `account`. If `account` had been granted `role`, emits a {RoleRevoked} event. Requirements: - the caller must have ``role``'s admin role. May emit a {RoleRevoked} event."
      },
      "setEarlyAccessMerkleRoot(bytes32)": {
        "params": {
          "_earlyAccessMerkleRoot": "The root of the early access sale merkle tree"
        }
      },
      "setEarlyAccessSale(bool)": {
        "params": {
          "status": "The status to set for the early access sale"
        }
      },
      "setFriendsFamilyMerkleRoot(bytes32)": {
        "params": {
          "_friendsFamilyMerkleRoot": "The root of the friends and family sale merkle tree"
        }
      },
      "setFriendsFamilySale(bool)": {
        "params": {
          "status": "The status to set for the friends and family sale"
        }
      },
      "setPartnerSale(string,bool)": {
        "params": {
          "partnerCode": "The code of the partner sale to set the status from",
          "status": "The status to set for the partner sale"
        }
      },
      "setPartnerTiers(string[],uint256[],uint256[],uint256[],uint256[])": {
        "params": {
          "ids": "The ids of the tiers to set",
          "individualCaps": "The maximum amount of licenses that can be claimed per address for the tiers.",
          "partnerCodes": "The codes of the partners to configure the tiers for",
          "prices": "The prices of each tier to set",
          "totalCaps": "The maximum amount of licenses that can be claimed in total for the tiers."
        }
      },
      "setPublicMerkleRoot(bytes32)": {
        "params": {
          "_publicMerkleRoot": "The root of the public sale merkle tree"
        }
      },
      "setPublicSale(bool)": {
        "params": {
          "status": "The status to set for the public sale"
        }
      },
      "setReferral(string,address,bool)": {
        "params": {
          "active": "Whether the referral should be active or not",
          "code": "The referral code to be used when claiming",
          "receiver": "The receiver address for the commissions"
        }
      },
      "setTeamMerkleRoot(bytes32)": {
        "params": {
          "_teamMerkleRoot": "The root of the team sale merkle tree"
        }
      },
      "setTeamSale(bool)": {
        "params": {
          "status": "The status to set for the team sale"
        }
      },
      "setTiers(uint256[],uint256[],uint256[],uint256[])": {
        "params": {
          "ids": "The ids of the tiers to set",
          "individualCaps": "The maximum amount of licenses that can be claimed per address for the tiers.",
          "prices": "The prices of each tier to set",
          "totalCaps": "The maximum amount of licenses that can be claimed in total for the tiers."
        }
      },
      "setWhitelistTiers(uint256[],uint256[],uint256[],uint256[])": {
        "params": {
          "ids": "The ids of the tiers to set",
          "individualCaps": "The maximum amount of licenses that can be claimed per address for the tiers.",
          "prices": "The prices of each tier to set",
          "totalCaps": "The maximum amount of licenses that can be claimed in total for the tiers."
        }
      },
      "supportsInterface(bytes4)": {
        "details": "See {IERC165-supportsInterface}."
      }
    },
    "title": "PlayFi node license sale contract",
    "version": 1
  },
  "userdoc": {
    "kind": "user",
    "methods": {
      "claimLicenseEarlyAccess(uint256,bytes,bytes32[])": {
        "notice": "Claims licenses for early access addresses + make sure they do not exceed their personal claim cap and that they paid enough."
      },
      "claimLicenseFriendsFamily(uint256,bytes,bytes32[])": {
        "notice": "Claims licenses for friends and family + make sure they do not exceed their personal claim cap and that they paid enough."
      },
      "claimLicensePartner(uint256,uint256,string,string)": {
        "notice": "Claims licenses for partners + make sure they do not exceed their personal claim cap and that they paid enough."
      },
      "claimLicensePublic(uint256,uint256,string)": {
        "notice": "Claims licenses for the public in a specific tier + make sure they do not exceed their personal claim cap and total tier cap. Additionally also make sure that they paid enough."
      },
      "claimLicensePublicWhitelist(uint256,uint256,bytes,bytes32[])": {
        "notice": "Claims licenses for whitelisted addresses during the public sale + make sure they do not exceed their personal claim cap and that they paid enough."
      },
      "claimLicenseTeam(uint256,bytes,bytes32[])": {
        "notice": "Claims licenses for team members and make sure they do not exceed their personal claim cap."
      },
      "getPartnerTier(string,uint256)": {
        "notice": "Returns partner tier details provided a partner code and tier id"
      },
      "getReferral(string)": {
        "notice": "Returns referral details provided a referral id"
      },
      "getTier(uint256,bool)": {
        "notice": "Returns tier details provided a tier id"
      },
      "paymentDetailsForPartnerReferral(uint256,uint256,string,string)": {
        "notice": "Calculates the price, commission and discount for X number of licenses in partner tier Y given partnerCod Z"
      },
      "paymentDetailsForReferral(uint256,uint256,string,bool)": {
        "notice": "Calculates the price, commission and discount for X number of licenses in tier Y given referral code Z"
      },
      "setEarlyAccessMerkleRoot(bytes32)": {
        "notice": "Sets the early access sale merkle root"
      },
      "setEarlyAccessSale(bool)": {
        "notice": "Sets the early access sale status"
      },
      "setFriendsFamilyMerkleRoot(bytes32)": {
        "notice": "Sets the friends and family sale merkle root"
      },
      "setFriendsFamilySale(bool)": {
        "notice": "Sets the friends and family sale status"
      },
      "setPartnerSale(string,bool)": {
        "notice": "Sets the partner sale status"
      },
      "setPartnerTiers(string[],uint256[],uint256[],uint256[],uint256[])": {
        "notice": "Sets partner tier details"
      },
      "setPublicMerkleRoot(bytes32)": {
        "notice": "Sets the public sale merkle root"
      },
      "setPublicSale(bool)": {
        "notice": "Sets the public sale status"
      },
      "setReferral(string,address,bool)": {
        "notice": "Sets referral details"
      },
      "setTeamMerkleRoot(bytes32)": {
        "notice": "Sets the team sale merkle root"
      },
      "setTeamSale(bool)": {
        "notice": "Sets the team sale status"
      },
      "setTiers(uint256[],uint256[],uint256[],uint256[])": {
        "notice": "Sets tier details"
      },
      "setWhitelistTiers(uint256[],uint256[],uint256[],uint256[])": {
        "notice": "Sets whitelist tier details"
      },
      "withdrawProceeds()": {
        "notice": "Withdraws the sale proceeds"
      }
    },
    "notice": "Contract used to handle whitelist and public node license sales in several tiers.",
    "version": 1
  },
  "storageLayout": {
    "storage": [
      {
        "astId": 416,
        "contract": "contracts/PlayFiLicenseSale.sol:PlayFiLicenseSale",
        "label": "_initialized",
        "offset": 0,
        "slot": "0",
        "type": "t_uint8"
      },
      {
        "astId": 419,
        "contract": "contracts/PlayFiLicenseSale.sol:PlayFiLicenseSale",
        "label": "_initializing",
        "offset": 1,
        "slot": "0",
        "type": "t_bool"
      },
      {
        "astId": 958,
        "contract": "contracts/PlayFiLicenseSale.sol:PlayFiLicenseSale",
        "label": "__gap",
        "offset": 0,
        "slot": "1",
        "type": "t_array(t_uint256)50_storage"
      },
      {
        "astId": 1232,
        "contract": "contracts/PlayFiLicenseSale.sol:PlayFiLicenseSale",
        "label": "__gap",
        "offset": 0,
        "slot": "51",
        "type": "t_array(t_uint256)50_storage"
      },
      {
        "astId": 28,
        "contract": "contracts/PlayFiLicenseSale.sol:PlayFiLicenseSale",
        "label": "_roles",
        "offset": 0,
        "slot": "101",
        "type": "t_mapping(t_bytes32,t_struct(RoleData)23_storage)"
      },
      {
        "astId": 335,
        "contract": "contracts/PlayFiLicenseSale.sol:PlayFiLicenseSale",
        "label": "__gap",
        "offset": 0,
        "slot": "102",
        "type": "t_array(t_uint256)49_storage"
      },
      {
        "astId": 3981,
        "contract": "contracts/PlayFiLicenseSale.sol:PlayFiLicenseSale",
        "label": "teamMerkleRoot",
        "offset": 0,
        "slot": "151",
        "type": "t_bytes32"
      },
      {
        "astId": 3984,
        "contract": "contracts/PlayFiLicenseSale.sol:PlayFiLicenseSale",
        "label": "friendsFamilyMerkleRoot",
        "offset": 0,
        "slot": "152",
        "type": "t_bytes32"
      },
      {
        "astId": 3987,
        "contract": "contracts/PlayFiLicenseSale.sol:PlayFiLicenseSale",
        "label": "earlyAccessMerkleRoot",
        "offset": 0,
        "slot": "153",
        "type": "t_bytes32"
      },
      {
        "astId": 3990,
        "contract": "contracts/PlayFiLicenseSale.sol:PlayFiLicenseSale",
        "label": "publicMerkleRoot",
        "offset": 0,
        "slot": "154",
        "type": "t_bytes32"
      },
      {
        "astId": 3993,
        "contract": "contracts/PlayFiLicenseSale.sol:PlayFiLicenseSale",
        "label": "teamSaleActive",
        "offset": 0,
        "slot": "155",
        "type": "t_bool"
      },
      {
        "astId": 3996,
        "contract": "contracts/PlayFiLicenseSale.sol:PlayFiLicenseSale",
        "label": "friendsFamilySaleActive",
        "offset": 1,
        "slot": "155",
        "type": "t_bool"
      },
      {
        "astId": 3999,
        "contract": "contracts/PlayFiLicenseSale.sol:PlayFiLicenseSale",
        "label": "earlyAccessSaleActive",
        "offset": 2,
        "slot": "155",
        "type": "t_bool"
      },
      {
        "astId": 4002,
        "contract": "contracts/PlayFiLicenseSale.sol:PlayFiLicenseSale",
        "label": "publicSaleActive",
        "offset": 3,
        "slot": "155",
        "type": "t_bool"
      },
      {
        "astId": 4005,
        "contract": "contracts/PlayFiLicenseSale.sol:PlayFiLicenseSale",
        "label": "totalLicenses",
        "offset": 0,
        "slot": "156",
        "type": "t_uint256"
      },
      {
        "astId": 4009,
        "contract": "contracts/PlayFiLicenseSale.sol:PlayFiLicenseSale",
        "label": "teamClaimsPerAddress",
        "offset": 0,
        "slot": "157",
        "type": "t_mapping(t_address,t_uint256)"
      },
      {
        "astId": 4013,
        "contract": "contracts/PlayFiLicenseSale.sol:PlayFiLicenseSale",
        "label": "friendsFamilyClaimsPerAddress",
        "offset": 0,
        "slot": "158",
        "type": "t_mapping(t_address,t_uint256)"
      },
      {
        "astId": 4017,
        "contract": "contracts/PlayFiLicenseSale.sol:PlayFiLicenseSale",
        "label": "earlyAccessClaimsPerAddress",
        "offset": 0,
        "slot": "159",
        "type": "t_mapping(t_address,t_uint256)"
      },
      {
        "astId": 4023,
        "contract": "contracts/PlayFiLicenseSale.sol:PlayFiLicenseSale",
        "label": "partnerClaimsPerAddress",
        "offset": 0,
        "slot": "160",
        "type": "t_mapping(t_string_memory_ptr,t_mapping(t_address,t_uint256))"
      },
      {
        "astId": 4027,
        "contract": "contracts/PlayFiLicenseSale.sol:PlayFiLicenseSale",
        "label": "publicClaimsPerAddress",
        "offset": 0,
        "slot": "161",
        "type": "t_mapping(t_address,t_uint256)"
      },
      {
        "astId": 4033,
        "contract": "contracts/PlayFiLicenseSale.sol:PlayFiLicenseSale",
        "label": "publicWhitelistClaimsPerAddressAndReferral",
        "offset": 0,
        "slot": "162",
        "type": "t_mapping(t_address,t_mapping(t_string_memory_ptr,t_uint256))"
      },
      {
        "astId": 4038,
        "contract": "contracts/PlayFiLicenseSale.sol:PlayFiLicenseSale",
        "label": "tiers",
        "offset": 0,
        "slot": "163",
        "type": "t_mapping(t_uint256,t_struct(Tier)6348_storage)"
      },
      {
        "astId": 4043,
        "contract": "contracts/PlayFiLicenseSale.sol:PlayFiLicenseSale",
        "label": "whitelistTiers",
        "offset": 0,
        "slot": "164",
        "type": "t_mapping(t_uint256,t_struct(Tier)6348_storage)"
      },
      {
        "astId": 4050,
        "contract": "contracts/PlayFiLicenseSale.sol:PlayFiLicenseSale",
        "label": "partnerTiers",
        "offset": 0,
        "slot": "165",
        "type": "t_mapping(t_string_memory_ptr,t_mapping(t_uint256,t_struct(Tier)6348_storage))"
      },
      {
        "astId": 4055,
        "contract": "contracts/PlayFiLicenseSale.sol:PlayFiLicenseSale",
        "label": "referrals",
        "offset": 0,
        "slot": "166",
        "type": "t_mapping(t_string_memory_ptr,t_struct(Referral)6355_storage)"
      },
      {
        "astId": 4061,
        "contract": "contracts/PlayFiLicenseSale.sol:PlayFiLicenseSale",
        "label": "claimsPerTierPerAddress",
        "offset": 0,
        "slot": "167",
        "type": "t_mapping(t_uint256,t_mapping(t_address,t_uint256))"
      },
      {
        "astId": 4069,
        "contract": "contracts/PlayFiLicenseSale.sol:PlayFiLicenseSale",
        "label": "partnerClaimsPerTierPerAddress",
        "offset": 0,
        "slot": "168",
        "type": "t_mapping(t_string_memory_ptr,t_mapping(t_uint256,t_mapping(t_address,t_uint256)))"
      },
      {
        "astId": 4073,
        "contract": "contracts/PlayFiLicenseSale.sol:PlayFiLicenseSale",
        "label": "partnerSaleActive",
        "offset": 0,
        "slot": "169",
        "type": "t_mapping(t_string_memory_ptr,t_bool)"
      }
    ],
    "types": {
      "t_address": {
        "encoding": "inplace",
        "label": "address",
        "numberOfBytes": "20"
      },
      "t_array(t_uint256)49_storage": {
        "base": "t_uint256",
        "encoding": "inplace",
        "label": "uint256[49]",
        "numberOfBytes": "1568"
      },
      "t_array(t_uint256)50_storage": {
        "base": "t_uint256",
        "encoding": "inplace",
        "label": "uint256[50]",
        "numberOfBytes": "1600"
      },
      "t_bool": {
        "encoding": "inplace",
        "label": "bool",
        "numberOfBytes": "1"
      },
      "t_bytes32": {
        "encoding": "inplace",
        "label": "bytes32",
        "numberOfBytes": "32"
      },
      "t_mapping(t_address,t_bool)": {
        "encoding": "mapping",
        "key": "t_address",
        "label": "mapping(address => bool)",
        "numberOfBytes": "32",
        "value": "t_bool"
      },
      "t_mapping(t_address,t_mapping(t_string_memory_ptr,t_uint256))": {
        "encoding": "mapping",
        "key": "t_address",
        "label": "mapping(address => mapping(string => uint256))",
        "numberOfBytes": "32",
        "value": "t_mapping(t_string_memory_ptr,t_uint256)"
      },
      "t_mapping(t_address,t_uint256)": {
        "encoding": "mapping",
        "key": "t_address",
        "label": "mapping(address => uint256)",
        "numberOfBytes": "32",
        "value": "t_uint256"
      },
      "t_mapping(t_bytes32,t_struct(RoleData)23_storage)": {
        "encoding": "mapping",
        "key": "t_bytes32",
        "label": "mapping(bytes32 => struct AccessControlUpgradeable.RoleData)",
        "numberOfBytes": "32",
        "value": "t_struct(RoleData)23_storage"
      },
      "t_mapping(t_string_memory_ptr,t_bool)": {
        "encoding": "mapping",
        "key": "t_string_memory_ptr",
        "label": "mapping(string => bool)",
        "numberOfBytes": "32",
        "value": "t_bool"
      },
      "t_mapping(t_string_memory_ptr,t_mapping(t_address,t_uint256))": {
        "encoding": "mapping",
        "key": "t_string_memory_ptr",
        "label": "mapping(string => mapping(address => uint256))",
        "numberOfBytes": "32",
        "value": "t_mapping(t_address,t_uint256)"
      },
      "t_mapping(t_string_memory_ptr,t_mapping(t_uint256,t_mapping(t_address,t_uint256)))": {
        "encoding": "mapping",
        "key": "t_string_memory_ptr",
        "label": "mapping(string => mapping(uint256 => mapping(address => uint256)))",
        "numberOfBytes": "32",
        "value": "t_mapping(t_uint256,t_mapping(t_address,t_uint256))"
      },
      "t_mapping(t_string_memory_ptr,t_mapping(t_uint256,t_struct(Tier)6348_storage))": {
        "encoding": "mapping",
        "key": "t_string_memory_ptr",
        "label": "mapping(string => mapping(uint256 => struct IPlayFiLicenseSale.Tier))",
        "numberOfBytes": "32",
        "value": "t_mapping(t_uint256,t_struct(Tier)6348_storage)"
      },
      "t_mapping(t_string_memory_ptr,t_struct(Referral)6355_storage)": {
        "encoding": "mapping",
        "key": "t_string_memory_ptr",
        "label": "mapping(string => struct IPlayFiLicenseSale.Referral)",
        "numberOfBytes": "32",
        "value": "t_struct(Referral)6355_storage"
      },
      "t_mapping(t_string_memory_ptr,t_uint256)": {
        "encoding": "mapping",
        "key": "t_string_memory_ptr",
        "label": "mapping(string => uint256)",
        "numberOfBytes": "32",
        "value": "t_uint256"
      },
      "t_mapping(t_uint256,t_mapping(t_address,t_uint256))": {
        "encoding": "mapping",
        "key": "t_uint256",
        "label": "mapping(uint256 => mapping(address => uint256))",
        "numberOfBytes": "32",
        "value": "t_mapping(t_address,t_uint256)"
      },
      "t_mapping(t_uint256,t_struct(Tier)6348_storage)": {
        "encoding": "mapping",
        "key": "t_uint256",
        "label": "mapping(uint256 => struct IPlayFiLicenseSale.Tier)",
        "numberOfBytes": "32",
        "value": "t_struct(Tier)6348_storage"
      },
      "t_string_memory_ptr": {
        "encoding": "bytes",
        "label": "string",
        "numberOfBytes": "32"
      },
      "t_struct(Referral)6355_storage": {
        "encoding": "inplace",
        "label": "struct IPlayFiLicenseSale.Referral",
        "members": [
          {
            "astId": 6350,
            "contract": "contracts/PlayFiLicenseSale.sol:PlayFiLicenseSale",
            "label": "active",
            "offset": 0,
            "slot": "0",
            "type": "t_bool"
          },
          {
            "astId": 6352,
            "contract": "contracts/PlayFiLicenseSale.sol:PlayFiLicenseSale",
            "label": "totalClaims",
            "offset": 0,
            "slot": "1",
            "type": "t_uint256"
          },
          {
            "astId": 6354,
            "contract": "contracts/PlayFiLicenseSale.sol:PlayFiLicenseSale",
            "label": "receiver",
            "offset": 0,
            "slot": "2",
            "type": "t_address"
          }
        ],
        "numberOfBytes": "96"
      },
      "t_struct(RoleData)23_storage": {
        "encoding": "inplace",
        "label": "struct AccessControlUpgradeable.RoleData",
        "members": [
          {
            "astId": 20,
            "contract": "contracts/PlayFiLicenseSale.sol:PlayFiLicenseSale",
            "label": "members",
            "offset": 0,
            "slot": "0",
            "type": "t_mapping(t_address,t_bool)"
          },
          {
            "astId": 22,
            "contract": "contracts/PlayFiLicenseSale.sol:PlayFiLicenseSale",
            "label": "adminRole",
            "offset": 0,
            "slot": "1",
            "type": "t_bytes32"
          }
        ],
        "numberOfBytes": "64"
      },
      "t_struct(Tier)6348_storage": {
        "encoding": "inplace",
        "label": "struct IPlayFiLicenseSale.Tier",
        "members": [
          {
            "astId": 6341,
            "contract": "contracts/PlayFiLicenseSale.sol:PlayFiLicenseSale",
            "label": "price",
            "offset": 0,
            "slot": "0",
            "type": "t_uint256"
          },
          {
            "astId": 6343,
            "contract": "contracts/PlayFiLicenseSale.sol:PlayFiLicenseSale",
            "label": "individualCap",
            "offset": 0,
            "slot": "1",
            "type": "t_uint256"
          },
          {
            "astId": 6345,
            "contract": "contracts/PlayFiLicenseSale.sol:PlayFiLicenseSale",
            "label": "totalClaimed",
            "offset": 0,
            "slot": "2",
            "type": "t_uint256"
          },
          {
            "astId": 6347,
            "contract": "contracts/PlayFiLicenseSale.sol:PlayFiLicenseSale",
            "label": "totalCap",
            "offset": 0,
            "slot": "3",
            "type": "t_uint256"
          }
        ],
        "numberOfBytes": "128"
      },
      "t_uint256": {
        "encoding": "inplace",
        "label": "uint256",
        "numberOfBytes": "32"
      },
      "t_uint8": {
        "encoding": "inplace",
        "label": "uint8",
        "numberOfBytes": "1"
      }
    }
  }
}