{
  "address": "0x57afb02adC17497b0c5a4Bb4396424DE143F9fAD",
  "abi": [
    {
      "inputs": [],
      "stateMutability": "nonpayable",
      "type": "constructor"
    },
    {
      "inputs": [],
      "name": "AccessDenied",
      "type": "error"
    },
    {
      "inputs": [],
      "name": "CommissionPayoutFailed",
      "type": "error"
    },
    {
      "inputs": [],
      "name": "EarlyAccessSaleNotActive",
      "type": "error"
    },
    {
      "inputs": [],
      "name": "FriendsFamilySaleNotActive",
      "type": "error"
    },
    {
      "inputs": [],
      "name": "IndividualClaimCapExceeded",
      "type": "error"
    },
    {
      "inputs": [],
      "name": "IndividualTierCapExceeded",
      "type": "error"
    },
    {
      "inputs": [],
      "name": "InsufficientPayment",
      "type": "error"
    },
    {
      "inputs": [
        {
          "internalType": "address",
          "name": "account",
          "type": "address"
        }
      ],
      "name": "InvalidAddress",
      "type": "error"
    },
    {
      "inputs": [],
      "name": "InvalidCode",
      "type": "error"
    },
    {
      "inputs": [],
      "name": "InvalidCommission",
      "type": "error"
    },
    {
      "inputs": [],
      "name": "InvalidDiscount",
      "type": "error"
    },
    {
      "inputs": [],
      "name": "InvalidProof",
      "type": "error"
    },
    {
      "inputs": [],
      "name": "InvalidTierInputs",
      "type": "error"
    },
    {
      "inputs": [],
      "name": "PartnerSaleNotActive",
      "type": "error"
    },
    {
      "inputs": [],
      "name": "PublicSaleNotActive",
      "type": "error"
    },
    {
      "inputs": [],
      "name": "PublicWhitelistSaleNotActive",
      "type": "error"
    },
    {
      "inputs": [],
      "name": "ReferralCodeInUse",
      "type": "error"
    },
    {
      "inputs": [],
      "name": "TeamSaleNotActive",
      "type": "error"
    },
    {
      "inputs": [],
      "name": "TotalTierCapExceeded",
      "type": "error"
    },
    {
      "inputs": [],
      "name": "WithdrawalFailed",
      "type": "error"
    },
    {
      "anonymous": false,
      "inputs": [
        {
          "indexed": false,
          "internalType": "string",
          "name": "code",
          "type": "string"
        },
        {
          "indexed": true,
          "internalType": "address",
          "name": "receiver",
          "type": "address"
        },
        {
          "indexed": false,
          "internalType": "uint256",
          "name": "amount",
          "type": "uint256"
        }
      ],
      "name": "CommissionPaid",
      "type": "event"
    },
    {
      "anonymous": false,
      "inputs": [],
      "name": "ContractInitialized",
      "type": "event"
    },
    {
      "anonymous": false,
      "inputs": [
        {
          "indexed": true,
          "internalType": "address",
          "name": "account",
          "type": "address"
        },
        {
          "indexed": false,
          "internalType": "uint256",
          "name": "paid",
          "type": "uint256"
        },
        {
          "indexed": false,
          "internalType": "uint256",
          "name": "amount",
          "type": "uint256"
        }
      ],
      "name": "EarlyAccessLicensesClaimed",
      "type": "event"
    },
    {
      "anonymous": false,
      "inputs": [
        {
          "indexed": false,
          "internalType": "bytes32",
          "name": "merkleRoot",
          "type": "bytes32"
        }
      ],
      "name": "EarlyAccessMerkleRootSet",
      "type": "event"
    },
    {
      "anonymous": false,
      "inputs": [
        {
          "indexed": false,
          "internalType": "bool",
          "name": "status",
          "type": "bool"
        }
      ],
      "name": "EarlyAccessSaleStatusSet",
      "type": "event"
    },
    {
      "anonymous": false,
      "inputs": [
        {
          "indexed": true,
          "internalType": "address",
          "name": "account",
          "type": "address"
        },
        {
          "indexed": false,
          "internalType": "uint256",
          "name": "paid",
          "type": "uint256"
        },
        {
          "indexed": false,
          "internalType": "uint256",
          "name": "amount",
          "type": "uint256"
        }
      ],
      "name": "FriendsFamilyLicensesClaimed",
      "type": "event"
    },
    {
      "anonymous": false,
      "inputs": [
        {
          "indexed": false,
          "internalType": "bytes32",
          "name": "merkleRoot",
          "type": "bytes32"
        }
      ],
      "name": "FriendsFamilyMerkleRootSet",
      "type": "event"
    },
    {
      "anonymous": false,
      "inputs": [
        {
          "indexed": false,
          "internalType": "bool",
          "name": "status",
          "type": "bool"
        }
      ],
      "name": "FriendsFamilySaleStatusSet",
      "type": "event"
    },
    {
      "anonymous": false,
      "inputs": [
        {
          "indexed": false,
          "internalType": "uint8",
          "name": "version",
          "type": "uint8"
        }
      ],
      "name": "Initialized",
      "type": "event"
    },
    {
      "anonymous": false,
      "inputs": [
        {
          "indexed": true,
          "internalType": "address",
          "name": "account",
          "type": "address"
        },
        {
          "indexed": false,
          "internalType": "uint256",
          "name": "amount",
          "type": "uint256"
        },
        {
          "indexed": true,
          "internalType": "uint256",
          "name": "tier",
          "type": "uint256"
        },
        {
          "indexed": false,
          "internalType": "uint256",
          "name": "paid",
          "type": "uint256"
        },
        {
          "indexed": false,
          "internalType": "string",
          "name": "partnerCode",
          "type": "string"
        },
        {
          "indexed": false,
          "internalType": "string",
          "name": "referral",
          "type": "string"
        }
      ],
      "name": "PartnerLicensesClaimed",
      "type": "event"
    },
    {
      "anonymous": false,
      "inputs": [
        {
          "indexed": false,
          "internalType": "string",
          "name": "partnerCode",
          "type": "string"
        },
        {
          "indexed": false,
          "internalType": "address",
          "name": "receiver",
          "type": "address"
        }
      ],
      "name": "PartnerReceiverAddressSet",
      "type": "event"
    },
    {
      "anonymous": false,
      "inputs": [
        {
          "indexed": false,
          "internalType": "bool",
          "name": "status",
          "type": "bool"
        },
        {
          "indexed": false,
          "internalType": "string",
          "name": "partnerCode",
          "type": "string"
        }
      ],
      "name": "PartnerSaleStatusSet",
      "type": "event"
    },
    {
      "anonymous": false,
      "inputs": [
        {
          "indexed": false,
          "internalType": "string",
          "name": "partnerCode",
          "type": "string"
        },
        {
          "indexed": true,
          "internalType": "uint256",
          "name": "tierId",
          "type": "uint256"
        },
        {
          "indexed": false,
          "internalType": "uint256",
          "name": "price",
          "type": "uint256"
        },
        {
          "indexed": false,
          "internalType": "uint256",
          "name": "individualCap",
          "type": "uint256"
        },
        {
          "indexed": false,
          "internalType": "uint256",
          "name": "totalClaimed",
          "type": "uint256"
        },
        {
          "indexed": false,
          "internalType": "uint256",
          "name": "totalCap",
          "type": "uint256"
        }
      ],
      "name": "PartnerTierSet",
      "type": "event"
    },
    {
      "anonymous": false,
      "inputs": [
        {
          "indexed": true,
          "internalType": "address",
          "name": "receiver",
          "type": "address"
        },
        {
          "indexed": false,
          "internalType": "uint256",
          "name": "amount",
          "type": "uint256"
        }
      ],
      "name": "ProceedsWithdrawn",
      "type": "event"
    },
    {
      "anonymous": false,
      "inputs": [
        {
          "indexed": true,
          "internalType": "address",
          "name": "account",
          "type": "address"
        },
        {
          "indexed": false,
          "internalType": "uint256",
          "name": "amount",
          "type": "uint256"
        },
        {
          "indexed": true,
          "internalType": "uint256",
          "name": "tier",
          "type": "uint256"
        },
        {
          "indexed": false,
          "internalType": "uint256",
          "name": "paid",
          "type": "uint256"
        },
        {
          "indexed": false,
          "internalType": "string",
          "name": "referral",
          "type": "string"
        }
      ],
      "name": "PublicLicensesClaimed",
      "type": "event"
    },
    {
      "anonymous": false,
      "inputs": [
        {
          "indexed": false,
          "internalType": "bytes32",
          "name": "merkleRoot",
          "type": "bytes32"
        }
      ],
      "name": "PublicMerkleRootSet",
      "type": "event"
    },
    {
      "anonymous": false,
      "inputs": [
        {
          "indexed": false,
          "internalType": "bool",
          "name": "status",
          "type": "bool"
        }
      ],
      "name": "PublicSaleStatusSet",
      "type": "event"
    },
    {
      "anonymous": false,
      "inputs": [
        {
          "indexed": true,
          "internalType": "address",
          "name": "account",
          "type": "address"
        },
        {
          "indexed": false,
          "internalType": "uint256",
          "name": "amount",
          "type": "uint256"
        },
        {
          "indexed": true,
          "internalType": "uint256",
          "name": "tier",
          "type": "uint256"
        },
        {
          "indexed": false,
          "internalType": "uint256",
          "name": "paid",
          "type": "uint256"
        },
        {
          "indexed": false,
          "internalType": "string",
          "name": "referral",
          "type": "string"
        }
      ],
      "name": "PublicWhitelistLicensesClaimed",
      "type": "event"
    },
    {
      "anonymous": false,
      "inputs": [
        {
          "indexed": false,
          "internalType": "bool",
          "name": "status",
          "type": "bool"
        }
      ],
      "name": "PublicWhitelistSaleStatusSet",
      "type": "event"
    },
    {
      "anonymous": false,
      "inputs": [
        {
          "indexed": false,
          "internalType": "string",
          "name": "code",
          "type": "string"
        },
        {
          "indexed": true,
          "internalType": "address",
          "name": "receiver",
          "type": "address"
        }
      ],
      "name": "ReferralUpdated",
      "type": "event"
    },
    {
      "anonymous": false,
      "inputs": [
        {
          "indexed": true,
          "internalType": "bytes32",
          "name": "role",
          "type": "bytes32"
        },
        {
          "indexed": true,
          "internalType": "bytes32",
          "name": "previousAdminRole",
          "type": "bytes32"
        },
        {
          "indexed": true,
          "internalType": "bytes32",
          "name": "newAdminRole",
          "type": "bytes32"
        }
      ],
      "name": "RoleAdminChanged",
      "type": "event"
    },
    {
      "anonymous": false,
      "inputs": [
        {
          "indexed": true,
          "internalType": "bytes32",
          "name": "role",
          "type": "bytes32"
        },
        {
          "indexed": true,
          "internalType": "address",
          "name": "account",
          "type": "address"
        },
        {
          "indexed": true,
          "internalType": "address",
          "name": "sender",
          "type": "address"
        }
      ],
      "name": "RoleGranted",
      "type": "event"
    },
    {
      "anonymous": false,
      "inputs": [
        {
          "indexed": true,
          "internalType": "bytes32",
          "name": "role",
          "type": "bytes32"
        },
        {
          "indexed": true,
          "internalType": "address",
          "name": "account",
          "type": "address"
        },
        {
          "indexed": true,
          "internalType": "address",
          "name": "sender",
          "type": "address"
        }
      ],
      "name": "RoleRevoked",
      "type": "event"
    },
    {
      "anonymous": false,
      "inputs": [
        {
          "indexed": true,
          "internalType": "address",
          "name": "account",
          "type": "address"
        },
        {
          "indexed": false,
          "internalType": "uint256",
          "name": "amount",
          "type": "uint256"
        }
      ],
      "name": "TeamLicensesClaimed",
      "type": "event"
    },
    {
      "anonymous": false,
      "inputs": [
        {
          "indexed": false,
          "internalType": "bytes32",
          "name": "merkleRoot",
          "type": "bytes32"
        }
      ],
      "name": "TeamMerkleRootSet",
      "type": "event"
    },
    {
      "anonymous": false,
      "inputs": [
        {
          "indexed": false,
          "internalType": "bool",
          "name": "status",
          "type": "bool"
        }
      ],
      "name": "TeamSaleStatusSet",
      "type": "event"
    },
    {
      "anonymous": false,
      "inputs": [
        {
          "indexed": true,
          "internalType": "uint256",
          "name": "tierId",
          "type": "uint256"
        },
        {
          "indexed": false,
          "internalType": "uint256",
          "name": "price",
          "type": "uint256"
        },
        {
          "indexed": false,
          "internalType": "uint256",
          "name": "individualCap",
          "type": "uint256"
        },
        {
          "indexed": false,
          "internalType": "uint256",
          "name": "totalClaimed",
          "type": "uint256"
        },
        {
          "indexed": false,
          "internalType": "uint256",
          "name": "totalCap",
          "type": "uint256"
        }
      ],
      "name": "TierSet",
      "type": "event"
    },
    {
      "anonymous": false,
      "inputs": [
        {
          "indexed": true,
          "internalType": "uint256",
          "name": "tierId",
          "type": "uint256"
        },
        {
          "indexed": false,
          "internalType": "uint256",
          "name": "price",
          "type": "uint256"
        },
        {
          "indexed": false,
          "internalType": "uint256",
          "name": "individualCap",
          "type": "uint256"
        },
        {
          "indexed": false,
          "internalType": "uint256",
          "name": "totalClaimed",
          "type": "uint256"
        },
        {
          "indexed": false,
          "internalType": "uint256",
          "name": "totalCap",
          "type": "uint256"
        }
      ],
      "name": "WhitelistTierSet",
      "type": "event"
    },
    {
      "inputs": [],
      "name": "ADMIN_ROLE",
      "outputs": [
        {
          "internalType": "bytes32",
          "name": "",
          "type": "bytes32"
        }
      ],
      "stateMutability": "view",
      "type": "function"
    },
    {
      "inputs": [],
      "name": "DEFAULT_ADMIN_ROLE",
      "outputs": [
        {
          "internalType": "bytes32",
          "name": "",
          "type": "bytes32"
        }
      ],
      "stateMutability": "view",
      "type": "function"
    },
    {
      "inputs": [],
      "name": "GUARDIAN_ROLE",
      "outputs": [
        {
          "internalType": "bytes32",
          "name": "",
          "type": "bytes32"
        }
      ],
      "stateMutability": "view",
      "type": "function"
    },
    {
      "inputs": [],
      "name": "MERKLE_MANAGER_ROLE",
      "outputs": [
        {
          "internalType": "bytes32",
          "name": "",
          "type": "bytes32"
        }
      ],
      "stateMutability": "view",
      "type": "function"
    },
    {
      "inputs": [],
      "name": "REFERRAL_MANAGER_ROLE",
      "outputs": [
        {
          "internalType": "bytes32",
          "name": "",
          "type": "bytes32"
        }
      ],
      "stateMutability": "view",
      "type": "function"
    },
    {
      "inputs": [
        {
          "internalType": "uint256",
          "name": "amount",
          "type": "uint256"
        },
        {
          "internalType": "bytes",
          "name": "data",
          "type": "bytes"
        },
        {
          "internalType": "bytes32[]",
          "name": "merkleProof",
          "type": "bytes32[]"
        }
      ],
      "name": "claimLicenseEarlyAccess",
      "outputs": [],
      "stateMutability": "payable",
      "type": "function"
    },
    {
      "inputs": [
        {
          "internalType": "uint256",
          "name": "amount",
          "type": "uint256"
        },
        {
          "internalType": "bytes",
          "name": "data",
          "type": "bytes"
        },
        {
          "internalType": "bytes32[]",
          "name": "merkleProof",
          "type": "bytes32[]"
        }
      ],
      "name": "claimLicenseFriendsFamily",
      "outputs": [],
      "stateMutability": "payable",
      "type": "function"
    },
    {
      "inputs": [
        {
          "internalType": "uint256",
          "name": "amount",
          "type": "uint256"
        },
        {
          "internalType": "uint256",
          "name": "tier",
          "type": "uint256"
        },
        {
          "internalType": "string",
          "name": "partnerCode",
          "type": "string"
        },
        {
          "internalType": "string",
          "name": "referral",
          "type": "string"
        }
      ],
      "name": "claimLicensePartner",
      "outputs": [],
      "stateMutability": "payable",
      "type": "function"
    },
    {
      "inputs": [
        {
          "internalType": "uint256",
          "name": "amount",
          "type": "uint256"
        },
        {
          "internalType": "uint256",
          "name": "tier",
          "type": "uint256"
        },
        {
          "internalType": "string",
          "name": "referral",
          "type": "string"
        }
      ],
      "name": "claimLicensePublic",
      "outputs": [],
      "stateMutability": "payable",
      "type": "function"
    },
    {
      "inputs": [
        {
          "internalType": "uint256",
          "name": "amount",
          "type": "uint256"
        },
        {
          "internalType": "uint256",
          "name": "tier",
          "type": "uint256"
        },
        {
          "internalType": "bytes",
          "name": "data",
          "type": "bytes"
        },
        {
          "internalType": "bytes32[]",
          "name": "merkleProof",
          "type": "bytes32[]"
        }
      ],
      "name": "claimLicensePublicWhitelist",
      "outputs": [],
      "stateMutability": "payable",
      "type": "function"
    },
    {
      "inputs": [
        {
          "internalType": "uint256",
          "name": "amount",
          "type": "uint256"
        },
        {
          "internalType": "bytes",
          "name": "data",
          "type": "bytes"
        },
        {
          "internalType": "bytes32[]",
          "name": "merkleProof",
          "type": "bytes32[]"
        }
      ],
      "name": "claimLicenseTeam",
      "outputs": [],
      "stateMutability": "nonpayable",
      "type": "function"
    },
    {
      "inputs": [
        {
          "internalType": "uint256",
          "name": "",
          "type": "uint256"
        },
        {
          "internalType": "address",
          "name": "",
          "type": "address"
        }
      ],
      "name": "claimsPerTierPerAddress",
      "outputs": [
        {
          "internalType": "uint256",
          "name": "",
          "type": "uint256"
        }
      ],
      "stateMutability": "view",
      "type": "function"
    },
    {
      "inputs": [
        {
          "internalType": "address",
          "name": "",
          "type": "address"
        }
      ],
      "name": "earlyAccessClaimsPerAddress",
      "outputs": [
        {
          "internalType": "uint256",
          "name": "",
          "type": "uint256"
        }
      ],
      "stateMutability": "view",
      "type": "function"
    },
    {
      "inputs": [],
      "name": "earlyAccessMerkleRoot",
      "outputs": [
        {
          "internalType": "bytes32",
          "name": "",
          "type": "bytes32"
        }
      ],
      "stateMutability": "view",
      "type": "function"
    },
    {
      "inputs": [],
      "name": "earlyAccessSaleActive",
      "outputs": [
        {
          "internalType": "bool",
          "name": "",
          "type": "bool"
        }
      ],
      "stateMutability": "view",
      "type": "function"
    },
    {
      "inputs": [
        {
          "internalType": "address",
          "name": "",
          "type": "address"
        }
      ],
      "name": "friendsFamilyClaimsPerAddress",
      "outputs": [
        {
          "internalType": "uint256",
          "name": "",
          "type": "uint256"
        }
      ],
      "stateMutability": "view",
      "type": "function"
    },
    {
      "inputs": [],
      "name": "friendsFamilyMerkleRoot",
      "outputs": [
        {
          "internalType": "bytes32",
          "name": "",
          "type": "bytes32"
        }
      ],
      "stateMutability": "view",
      "type": "function"
    },
    {
      "inputs": [],
      "name": "friendsFamilySaleActive",
      "outputs": [
        {
          "internalType": "bool",
          "name": "",
          "type": "bool"
        }
      ],
      "stateMutability": "view",
      "type": "function"
    },
    {
      "inputs": [
        {
          "internalType": "string",
          "name": "partnerCode",
          "type": "string"
        },
        {
          "internalType": "uint256",
          "name": "id",
          "type": "uint256"
        }
      ],
      "name": "getPartnerTier",
      "outputs": [
        {
          "components": [
            {
              "internalType": "uint256",
              "name": "price",
              "type": "uint256"
            },
            {
              "internalType": "uint256",
              "name": "individualCap",
              "type": "uint256"
            },
            {
              "internalType": "uint256",
              "name": "totalClaimed",
              "type": "uint256"
            },
            {
              "internalType": "uint256",
              "name": "totalCap",
              "type": "uint256"
            }
          ],
          "internalType": "struct IPlayFiLicenseSale.Tier",
          "name": "tier",
          "type": "tuple"
        }
      ],
      "stateMutability": "view",
      "type": "function"
    },
    {
      "inputs": [
        {
          "internalType": "string",
          "name": "id",
          "type": "string"
        }
      ],
      "name": "getReferral",
      "outputs": [
        {
          "components": [
            {
              "internalType": "uint256",
              "name": "totalClaims",
              "type": "uint256"
            },
            {
              "internalType": "address",
              "name": "receiver",
              "type": "address"
            }
          ],
          "internalType": "struct IPlayFiLicenseSale.Referral",
          "name": "referral",
          "type": "tuple"
        }
      ],
      "stateMutability": "view",
      "type": "function"
    },
    {
      "inputs": [
        {
          "internalType": "bytes32",
          "name": "role",
          "type": "bytes32"
        }
      ],
      "name": "getRoleAdmin",
      "outputs": [
        {
          "internalType": "bytes32",
          "name": "",
          "type": "bytes32"
        }
      ],
      "stateMutability": "view",
      "type": "function"
    },
    {
      "inputs": [
        {
          "internalType": "uint256",
          "name": "id",
          "type": "uint256"
        },
        {
          "internalType": "bool",
          "name": "isWhitelist",
          "type": "bool"
        }
      ],
      "name": "getTier",
      "outputs": [
        {
          "components": [
            {
              "internalType": "uint256",
              "name": "price",
              "type": "uint256"
            },
            {
              "internalType": "uint256",
              "name": "individualCap",
              "type": "uint256"
            },
            {
              "internalType": "uint256",
              "name": "totalClaimed",
              "type": "uint256"
            },
            {
              "internalType": "uint256",
              "name": "totalCap",
              "type": "uint256"
            }
          ],
          "internalType": "struct IPlayFiLicenseSale.Tier",
          "name": "tier",
          "type": "tuple"
        }
      ],
      "stateMutability": "view",
      "type": "function"
    },
    {
      "inputs": [
        {
          "internalType": "bytes32",
          "name": "role",
          "type": "bytes32"
        },
        {
          "internalType": "address",
          "name": "account",
          "type": "address"
        }
      ],
      "name": "grantRole",
      "outputs": [],
      "stateMutability": "nonpayable",
      "type": "function"
    },
    {
      "inputs": [
        {
          "internalType": "bytes32",
          "name": "role",
          "type": "bytes32"
        },
        {
          "internalType": "address",
          "name": "account",
          "type": "address"
        }
      ],
      "name": "hasRole",
      "outputs": [
        {
          "internalType": "bool",
          "name": "",
          "type": "bool"
        }
      ],
      "stateMutability": "view",
      "type": "function"
    },
    {
      "inputs": [
        {
          "internalType": "address",
          "name": "admin",
          "type": "address"
        },
        {
          "internalType": "address",
          "name": "guardian",
          "type": "address"
        },
        {
          "internalType": "address",
          "name": "merkleManager",
          "type": "address"
        },
        {
          "internalType": "address",
          "name": "referralManager",
          "type": "address"
        }
      ],
      "name": "initialize",
      "outputs": [],
      "stateMutability": "nonpayable",
      "type": "function"
    },
    {
      "inputs": [
        {
          "internalType": "string",
          "name": "",
          "type": "string"
        },
        {
          "internalType": "address",
          "name": "",
          "type": "address"
        }
      ],
      "name": "partnerClaimsPerAddress",
      "outputs": [
        {
          "internalType": "uint256",
          "name": "",
          "type": "uint256"
        }
      ],
      "stateMutability": "view",
      "type": "function"
    },
    {
      "inputs": [
        {
          "internalType": "string",
          "name": "",
          "type": "string"
        },
        {
          "internalType": "uint256",
          "name": "",
          "type": "uint256"
        },
        {
          "internalType": "address",
          "name": "",
          "type": "address"
        }
      ],
      "name": "partnerClaimsPerTierPerAddress",
      "outputs": [
        {
          "internalType": "uint256",
          "name": "",
          "type": "uint256"
        }
      ],
      "stateMutability": "view",
      "type": "function"
    },
    {
      "inputs": [
        {
          "internalType": "string",
          "name": "",
          "type": "string"
        }
      ],
      "name": "partnerReferrals",
      "outputs": [
        {
          "internalType": "uint256",
          "name": "totalClaims",
          "type": "uint256"
        },
        {
          "internalType": "address",
          "name": "receiver",
          "type": "address"
        }
      ],
      "stateMutability": "view",
      "type": "function"
    },
    {
      "inputs": [
        {
          "internalType": "string",
          "name": "",
          "type": "string"
        }
      ],
      "name": "partnerSaleActive",
      "outputs": [
        {
          "internalType": "bool",
          "name": "",
          "type": "bool"
        }
      ],
      "stateMutability": "view",
      "type": "function"
    },
    {
      "inputs": [
        {
          "internalType": "string",
          "name": "",
          "type": "string"
        },
        {
          "internalType": "uint256",
          "name": "",
          "type": "uint256"
        }
      ],
      "name": "partnerTiers",
      "outputs": [
        {
          "internalType": "uint256",
          "name": "price",
          "type": "uint256"
        },
        {
          "internalType": "uint256",
          "name": "individualCap",
          "type": "uint256"
        },
        {
          "internalType": "uint256",
          "name": "totalClaimed",
          "type": "uint256"
        },
        {
          "internalType": "uint256",
          "name": "totalCap",
          "type": "uint256"
        }
      ],
      "stateMutability": "view",
      "type": "function"
    },
    {
      "inputs": [
        {
          "internalType": "uint256",
          "name": "amount",
          "type": "uint256"
        },
        {
          "internalType": "uint256",
          "name": "tier",
          "type": "uint256"
        },
        {
          "internalType": "string",
          "name": "partnerCode",
          "type": "string"
        },
        {
          "internalType": "string",
          "name": "referral",
          "type": "string"
        }
      ],
      "name": "paymentDetailsForPartnerReferral",
      "outputs": [
        {
          "internalType": "uint256",
          "name": "toPay",
          "type": "uint256"
        },
        {
          "internalType": "uint256",
          "name": "commission",
          "type": "uint256"
        },
        {
          "internalType": "uint256",
          "name": "discount",
          "type": "uint256"
        }
      ],
      "stateMutability": "view",
      "type": "function"
    },
    {
      "inputs": [
        {
          "internalType": "uint256",
          "name": "amount",
          "type": "uint256"
        },
        {
          "internalType": "uint256",
          "name": "tier",
          "type": "uint256"
        },
        {
          "internalType": "string",
          "name": "referral",
          "type": "string"
        },
        {
          "internalType": "bool",
          "name": "isWhitelist",
          "type": "bool"
        }
      ],
      "name": "paymentDetailsForReferral",
      "outputs": [
        {
          "internalType": "uint256",
          "name": "toPay",
          "type": "uint256"
        },
        {
          "internalType": "uint256",
          "name": "commission",
          "type": "uint256"
        },
        {
          "internalType": "uint256",
          "name": "discount",
          "type": "uint256"
        }
      ],
      "stateMutability": "view",
      "type": "function"
    },
    {
      "inputs": [
        {
          "internalType": "address",
          "name": "",
          "type": "address"
        }
      ],
      "name": "publicClaimsPerAddress",
      "outputs": [
        {
          "internalType": "uint256",
          "name": "",
          "type": "uint256"
        }
      ],
      "stateMutability": "view",
      "type": "function"
    },
    {
      "inputs": [],
      "name": "publicMerkleRoot",
      "outputs": [
        {
          "internalType": "bytes32",
          "name": "",
          "type": "bytes32"
        }
      ],
      "stateMutability": "view",
      "type": "function"
    },
    {
      "inputs": [],
      "name": "publicSaleActive",
      "outputs": [
        {
          "internalType": "bool",
          "name": "",
          "type": "bool"
        }
      ],
      "stateMutability": "view",
      "type": "function"
    },
    {
      "inputs": [
        {
          "internalType": "address",
          "name": "",
          "type": "address"
        },
        {
          "internalType": "string",
          "name": "",
          "type": "string"
        }
      ],
      "name": "publicWhitelistClaimsPerAddressAndReferral",
      "outputs": [
        {
          "internalType": "uint256",
          "name": "",
          "type": "uint256"
        }
      ],
      "stateMutability": "view",
      "type": "function"
    },
    {
      "inputs": [],
      "name": "publicWhitelistSaleActive",
      "outputs": [
        {
          "internalType": "bool",
          "name": "",
          "type": "bool"
        }
      ],
      "stateMutability": "view",
      "type": "function"
    },
    {
      "inputs": [
        {
          "internalType": "address",
          "name": "",
          "type": "address"
        }
      ],
      "name": "receiverToReferralCode",
      "outputs": [
        {
          "internalType": "string",
          "name": "",
          "type": "string"
        }
      ],
      "stateMutability": "view",
      "type": "function"
    },
    {
      "inputs": [
        {
          "internalType": "string",
          "name": "",
          "type": "string"
        }
      ],
      "name": "referrals",
      "outputs": [
        {
          "internalType": "uint256",
          "name": "totalClaims",
          "type": "uint256"
        },
        {
          "internalType": "address",
          "name": "receiver",
          "type": "address"
        }
      ],
      "stateMutability": "view",
      "type": "function"
    },
    {
      "inputs": [
        {
          "internalType": "bytes32",
          "name": "role",
          "type": "bytes32"
        },
        {
          "internalType": "address",
          "name": "account",
          "type": "address"
        }
      ],
      "name": "renounceRole",
      "outputs": [],
      "stateMutability": "nonpayable",
      "type": "function"
    },
    {
      "inputs": [
        {
          "internalType": "bytes32",
          "name": "role",
          "type": "bytes32"
        },
        {
          "internalType": "address",
          "name": "account",
          "type": "address"
        }
      ],
      "name": "revokeRole",
      "outputs": [],
      "stateMutability": "nonpayable",
      "type": "function"
    },
    {
      "inputs": [
        {
          "internalType": "bytes32",
          "name": "_earlyAccessMerkleRoot",
          "type": "bytes32"
        }
      ],
      "name": "setEarlyAccessMerkleRoot",
      "outputs": [],
      "stateMutability": "nonpayable",
      "type": "function"
    },
    {
      "inputs": [
        {
          "internalType": "bool",
          "name": "status",
          "type": "bool"
        }
      ],
      "name": "setEarlyAccessSale",
      "outputs": [],
      "stateMutability": "nonpayable",
      "type": "function"
    },
    {
      "inputs": [
        {
          "internalType": "bytes32",
          "name": "_friendsFamilyMerkleRoot",
          "type": "bytes32"
        }
      ],
      "name": "setFriendsFamilyMerkleRoot",
      "outputs": [],
      "stateMutability": "nonpayable",
      "type": "function"
    },
    {
      "inputs": [
        {
          "internalType": "bool",
          "name": "status",
          "type": "bool"
        }
      ],
      "name": "setFriendsFamilySale",
      "outputs": [],
      "stateMutability": "nonpayable",
      "type": "function"
    },
    {
      "inputs": [
        {
          "internalType": "string",
          "name": "partnerCode",
          "type": "string"
        },
        {
          "internalType": "address",
          "name": "receiver",
          "type": "address"
        }
      ],
      "name": "setPartnerReceiverAddress",
      "outputs": [],
      "stateMutability": "nonpayable",
      "type": "function"
    },
    {
      "inputs": [
        {
          "internalType": "string",
          "name": "partnerCode",
          "type": "string"
        },
        {
          "internalType": "bool",
          "name": "status",
          "type": "bool"
        }
      ],
      "name": "setPartnerSale",
      "outputs": [],
      "stateMutability": "nonpayable",
      "type": "function"
    },
    {
      "inputs": [
        {
          "internalType": "string[]",
          "name": "partnerCodes",
          "type": "string[]"
        },
        {
          "internalType": "uint256[]",
          "name": "ids",
          "type": "uint256[]"
        },
        {
          "internalType": "uint256[]",
          "name": "prices",
          "type": "uint256[]"
        },
        {
          "internalType": "uint256[]",
          "name": "individualCaps",
          "type": "uint256[]"
        },
        {
          "internalType": "uint256[]",
          "name": "totalCaps",
          "type": "uint256[]"
        }
      ],
      "name": "setPartnerTiers",
      "outputs": [],
      "stateMutability": "nonpayable",
      "type": "function"
    },
    {
      "inputs": [
        {
          "internalType": "bytes32",
          "name": "_publicMerkleRoot",
          "type": "bytes32"
        }
      ],
      "name": "setPublicMerkleRoot",
      "outputs": [],
      "stateMutability": "nonpayable",
      "type": "function"
    },
    {
      "inputs": [
        {
          "internalType": "bool",
          "name": "status",
          "type": "bool"
        }
      ],
      "name": "setPublicSale",
      "outputs": [],
      "stateMutability": "nonpayable",
      "type": "function"
    },
    {
      "inputs": [
        {
          "internalType": "bool",
          "name": "status",
          "type": "bool"
        }
      ],
      "name": "setPublicWhitelistSale",
      "outputs": [],
      "stateMutability": "nonpayable",
      "type": "function"
    },
    {
      "inputs": [
        {
          "internalType": "string",
          "name": "code",
          "type": "string"
        }
      ],
      "name": "setReferral",
      "outputs": [],
      "stateMutability": "nonpayable",
      "type": "function"
    },
    {
      "inputs": [
        {
          "internalType": "string",
          "name": "code",
          "type": "string"
        },
        {
          "internalType": "address",
          "name": "receiver",
          "type": "address"
        }
      ],
      "name": "setReferralForReceiver",
      "outputs": [],
      "stateMutability": "nonpayable",
      "type": "function"
    },
    {
      "inputs": [
        {
          "internalType": "bytes32",
          "name": "_teamMerkleRoot",
          "type": "bytes32"
        }
      ],
      "name": "setTeamMerkleRoot",
      "outputs": [],
      "stateMutability": "nonpayable",
      "type": "function"
    },
    {
      "inputs": [
        {
          "internalType": "bool",
          "name": "status",
          "type": "bool"
        }
      ],
      "name": "setTeamSale",
      "outputs": [],
      "stateMutability": "nonpayable",
      "type": "function"
    },
    {
      "inputs": [
        {
          "internalType": "uint256[]",
          "name": "ids",
          "type": "uint256[]"
        },
        {
          "internalType": "uint256[]",
          "name": "prices",
          "type": "uint256[]"
        },
        {
          "internalType": "uint256[]",
          "name": "individualCaps",
          "type": "uint256[]"
        },
        {
          "internalType": "uint256[]",
          "name": "totalCaps",
          "type": "uint256[]"
        }
      ],
      "name": "setTiers",
      "outputs": [],
      "stateMutability": "nonpayable",
      "type": "function"
    },
    {
      "inputs": [
        {
          "internalType": "uint256[]",
          "name": "ids",
          "type": "uint256[]"
        },
        {
          "internalType": "uint256[]",
          "name": "prices",
          "type": "uint256[]"
        },
        {
          "internalType": "uint256[]",
          "name": "individualCaps",
          "type": "uint256[]"
        },
        {
          "internalType": "uint256[]",
          "name": "totalCaps",
          "type": "uint256[]"
        }
      ],
      "name": "setWhitelistTiers",
      "outputs": [],
      "stateMutability": "nonpayable",
      "type": "function"
    },
    {
      "inputs": [
        {
          "internalType": "bytes4",
          "name": "interfaceId",
          "type": "bytes4"
        }
      ],
      "name": "supportsInterface",
      "outputs": [
        {
          "internalType": "bool",
          "name": "",
          "type": "bool"
        }
      ],
      "stateMutability": "view",
      "type": "function"
    },
    {
      "inputs": [
        {
          "internalType": "address",
          "name": "",
          "type": "address"
        }
      ],
      "name": "teamClaimsPerAddress",
      "outputs": [
        {
          "internalType": "uint256",
          "name": "",
          "type": "uint256"
        }
      ],
      "stateMutability": "view",
      "type": "function"
    },
    {
      "inputs": [],
      "name": "teamMerkleRoot",
      "outputs": [
        {
          "internalType": "bytes32",
          "name": "",
          "type": "bytes32"
        }
      ],
      "stateMutability": "view",
      "type": "function"
    },
    {
      "inputs": [],
      "name": "teamSaleActive",
      "outputs": [
        {
          "internalType": "bool",
          "name": "",
          "type": "bool"
        }
      ],
      "stateMutability": "view",
      "type": "function"
    },
    {
      "inputs": [
        {
          "internalType": "uint256",
          "name": "",
          "type": "uint256"
        }
      ],
      "name": "tiers",
      "outputs": [
        {
          "internalType": "uint256",
          "name": "price",
          "type": "uint256"
        },
        {
          "internalType": "uint256",
          "name": "individualCap",
          "type": "uint256"
        },
        {
          "internalType": "uint256",
          "name": "totalClaimed",
          "type": "uint256"
        },
        {
          "internalType": "uint256",
          "name": "totalCap",
          "type": "uint256"
        }
      ],
      "stateMutability": "view",
      "type": "function"
    },
    {
      "inputs": [],
      "name": "totalLicenses",
      "outputs": [
        {
          "internalType": "uint256",
          "name": "",
          "type": "uint256"
        }
      ],
      "stateMutability": "view",
      "type": "function"
    },
    {
      "inputs": [
        {
          "internalType": "uint256",
          "name": "",
          "type": "uint256"
        }
      ],
      "name": "whitelistTiers",
      "outputs": [
        {
          "internalType": "uint256",
          "name": "price",
          "type": "uint256"
        },
        {
          "internalType": "uint256",
          "name": "individualCap",
          "type": "uint256"
        },
        {
          "internalType": "uint256",
          "name": "totalClaimed",
          "type": "uint256"
        },
        {
          "internalType": "uint256",
          "name": "totalCap",
          "type": "uint256"
        }
      ],
      "stateMutability": "view",
      "type": "function"
    },
    {
      "inputs": [],
      "name": "withdrawProceeds",
      "outputs": [],
      "stateMutability": "nonpayable",
      "type": "function"
    }
  ],
  "transactionHash": "0xe67fe1cb67c1eb8b9c2d14e43bd3edd9acc3527bafad71577537b618f9fe6f6d",
  "args": [],
  "numDeployments": 2,
  "solcInputHash": "8a175b7dc58e51ef8333bb3f592e660d",
  "bytecode": "0x60806040523480156200001157600080fd5b506200001c62000022565b620000e3565b600054610100900460ff16156200008f5760405162461bcd60e51b815260206004820152602760248201527f496e697469616c697a61626c653a20636f6e747261637420697320696e697469604482015266616c697a696e6760c81b606482015260840160405180910390fd5b60005460ff90811614620000e1576000805460ff191660ff9081179091556040519081527f7f26b83ff96e1f2b6a682f133852f6798a09c465da95921460cefb38474024989060200160405180910390a15b565b61562f80620000f36000396000f3fe6080604052600436106103de5760003560e01c806375b238fc1161020d578063b5e132f011610128578063d547741f116100bb578063e4a5665f1161008a578063e88e08a81161006f578063e88e08a814610e27578063f79eddb814610e47578063f8c8765e14610e7457600080fd5b8063e4a5665f14610df4578063e633fbf214610e1457600080fd5b8063d547741f14610d59578063d55768dd14610d79578063d923780114610dc1578063dc47dced14610dd457600080fd5b8063ca591036116100f7578063ca59103614610cdf578063cb75f4b214610cff578063cd98d26114610d1f578063d3d704cf14610d3957600080fd5b8063b5e132f014610c30578063bbbb28dc14610c7e578063bc8893b414610c9e578063bff7094f14610cbf57600080fd5b8063a217fddf116101a0578063a749df4b1161016f578063a749df4b14610b33578063aca90dee14610b77578063af3db71f14610b97578063b21a687714610bfc57600080fd5b8063a217fddf14610aaa578063a49ef9ef14610abf578063a4ced6cd14610af3578063a6f04c3014610b1357600080fd5b80639038e693116101dc5780639038e69314610a0c57806391d1485414610a215780639340b78b14610a675780639d1d9aa614610a9457600080fd5b806375b238fc146109695780637e779e631461099d57806383b0287f146109bf5780638aea3710146109df57600080fd5b806336568abe116102fd5780635536662111610290578063605a25c81161025f578063605a25c8146108a9578063665eecf1146108e15780636d5143d6146109005780636ec14ac41461094957600080fd5b806355366621146108075780635822b9d7146108275780635aca1bb6146108695780635fd5606e1461088957600080fd5b80634ba0fcee116102cc5780634ba0fcee146107ae5780634dd16dba146107ce57806350cd60fc146107e15780635163d92f146107f457600080fd5b806336568abe146106d6578063386de5ac146106f65780634458034a146107315780634a0b6cf91461075157600080fd5b8063146235851161037557806324ea54f41161034457806324ea54f414610656578063291408191461068a5780632f2ff15d146106a05780633533b8e0146106c057600080fd5b8063146235851461059d578063187e3324146105f05780631b8c026814610606578063248a9ca31461062657600080fd5b806305d17876116103b157806305d17876146104d75780630a2b22521461052d5780630e80a2871461055a578063118c04a41461057057600080fd5b806301ffc9a7146103e3578063039af9eb14610418578063041cb7281461047a5780630492cb71146104b5575b600080fd5b3480156103ef57600080fd5b506104036103fe366004614759565b610e94565b60405190151581526020015b60405180910390f35b34801561042457600080fd5b5061045a61043336600461479b565b60a36020526000908152604090208054600182015460028301546003909301549192909184565b60408051948552602085019390935291830152606082015260800161040f565b34801561048657600080fd5b50610403610495366004614870565b805160208183018101805160aa8252928201919093012091525460ff1681565b3480156104c157600080fd5b506104d56104d0366004614870565b610f2d565b005b3480156104e357600080fd5b5061051f6104f23660046148c9565b815160208184018101805160a0825292820194820194909420919093529091526000908152604090205481565b60405190815260200161040f565b34801561053957600080fd5b5061054d610548366004614917565b610f3a565b60405161040f9190614982565b34801561056657600080fd5b5061051f609c5481565b34801561057c57600080fd5b5061051f61058b366004614917565b609d6020526000908152604090205481565b3480156105a957600080fd5b506105bd6105b83660046149de565b610fd4565b60405161040f91908151815260208083015190820152604080830151908201526060918201519181019190915260800190565b3480156105fc57600080fd5b5061051f60985481565b34801561061257600080fd5b506104d5610621366004614a3a565b61105c565b34801561063257600080fd5b5061051f61064136600461479b565b60009081526065602052604090206001015490565b34801561066257600080fd5b5061051f7f8b5b16d04624687fcf0d0228f19993c9157c1ed07b41d8d430fd9100eb099fe881565b34801561069657600080fd5b5061051f60975481565b3480156106ac57600080fd5b506104d56106bb366004614a7f565b611118565b3480156106cc57600080fd5b5061051f60995481565b3480156106e257600080fd5b506104d56106f1366004614a7f565b611142565b34801561070257600080fd5b50610716610711366004614aa2565b6111ed565b6040805193845260208401929092529082015260600161040f565b34801561073d57600080fd5b506104d561074c366004614b19565b6113c1565b34801561075d57600080fd5b5061045a61076c366004614b34565b815160208184018101805160a5825292820194820194909420919093529091526000908152604090208054600182015460028301546003909301549192909184565b3480156107ba57600080fd5b506104d56107c9366004614b19565b611481565b6104d56107dc366004614aa2565b611537565b6104d56107ef366004614bbe565b611af9565b6104d5610802366004614bbe565b611d6f565b34801561081357600080fd5b506104d5610822366004614c38565b611fd6565b34801561083357600080fd5b5061045a61084236600461479b565b60a46020526000908152604090208054600182015460028301546003909301549192909184565b34801561087557600080fd5b506104d5610884366004614b19565b6122d8565b34801561089557600080fd5b506104d56108a43660046148c9565b61238f565b3480156108b557600080fd5b5061051f6108c4366004614a7f565b60a860209081526000928352604080842090915290825290205481565b3480156108ed57600080fd5b50609b5461040390610100900460ff1681565b34801561090c57600080fd5b5061051f61091b366004614d29565b60a2602090815260009283526040909220815180830184018051928152908401929093019190912091525481565b34801561095557600080fd5b506104d5610964366004614bbe565b612469565b34801561097557600080fd5b5061051f7fdf8b4c520ffe197c5343c6f5aec59570151ef9a492f2c624fd45ddde6135ec4281565b3480156109a957600080fd5b50609b5461040390640100000000900460ff1681565b3480156109cb57600080fd5b50609b546104039062010000900460ff1681565b3480156109eb57600080fd5b5061051f6109fa366004614917565b609f6020526000908152604090205481565b348015610a1857600080fd5b506104d561265d565b348015610a2d57600080fd5b50610403610a3c366004614a7f565b60009182526065602090815260408084206001600160a01b0393909316845291905290205460ff1690565b348015610a7357600080fd5b5061051f610a82366004614917565b60a16020526000908152604090205481565b348015610aa057600080fd5b5061051f609a5481565b348015610ab657600080fd5b5061051f600081565b348015610acb57600080fd5b5061051f7ffd2994b76294f3a7e0e5e4e40e73799b954c33f4bff642b5e760fef0d694a92481565b348015610aff57600080fd5b506104d5610b0e3660046148c9565b612769565b348015610b1f57600080fd5b506104d5610b2e366004614d77565b6127c2565b348015610b3f57600080fd5b50610b53610b4e366004614870565b612a1d565b60408051825181526020928301516001600160a01b0316928101929092520161040f565b348015610b8357600080fd5b506104d5610b92366004614b19565b612a76565b348015610ba357600080fd5b50610bdf610bb2366004614870565b805160208183018101805160ab82529282019190930120915280546001909101546001600160a01b031682565b604080519283526001600160a01b0390911660208301520161040f565b348015610c0857600080fd5b5061051f7fceb656422d2e5768b364a6526533f6832c483c8cfbd416512fbbd6fa6413f96a81565b348015610c3c57600080fd5b5061051f610c4b366004614e3b565b825160208185018101805160a9825292820195820195909520919094528352600091825260408083209093528152205481565b348015610c8a57600080fd5b506104d5610c99366004614d77565b612b2e565b348015610caa57600080fd5b50609b54610403906301000000900460ff1681565b348015610ccb57600080fd5b506104d5610cda36600461479b565b612d7e565b348015610ceb57600080fd5b506104d5610cfa366004614b19565b612e02565b348015610d0b57600080fd5b506105bd610d1a366004614e92565b612e92565b348015610d2b57600080fd5b50609b546104039060ff1681565b348015610d4557600080fd5b506104d5610d5436600461479b565b612f56565b348015610d6557600080fd5b506104d5610d74366004614a7f565b612fda565b348015610d8557600080fd5b50610bdf610d94366004614870565b805160208183018101805160a682529282019190930120915280546001909101546001600160a01b031682565b6104d5610dcf366004614eb5565b612fff565b348015610de057600080fd5b506104d5610def36600461479b565b613352565b348015610e0057600080fd5b506104d5610e0f36600461479b565b6133d6565b6104d5610e22366004614f05565b61345a565b348015610e3357600080fd5b50610716610e42366004614f88565b6138a7565b348015610e5357600080fd5b5061051f610e62366004614917565b609e6020526000908152604090205481565b348015610e8057600080fd5b506104d5610e8f366004614fe9565b6139fd565b60007fffffffff0000000000000000000000000000000000000000000000000000000082167f7965db0b000000000000000000000000000000000000000000000000000000001480610f2757507f01ffc9a7000000000000000000000000000000000000000000000000000000007fffffffff000000000000000000000000000000000000000000000000000000008316145b92915050565b610f378133613ea4565b50565b60a76020526000908152604090208054610f5390615032565b80601f0160208091040260200160405190810160405280929190818152602001828054610f7f90615032565b8015610fcc5780601f10610fa157610100808354040283529160200191610fcc565b820191906000526020600020905b815481529060010190602001808311610faf57829003601f168201915b505050505081565b610fff6040518060800160405280600081526020016000815260200160008152602001600081525090565b60a58484604051611011929190615085565b90815260408051602092819003830181206000958652835293819020608085018252805485526001810154928501929092526002820154908401526003015460608301525092915050565b3360009081527f3a5f6b5b20ab0e425b1c7c9823b9866065cea388466bf7d4f12b2ad1dfbaf604602052604090205460ff166110ab57604051634ca8886760e01b815260040160405180910390fd5b8060aa836040516110bc9190615095565b908152604051908190036020018120805492151560ff19909316929092179091557f81a0ab3096d0711caafd488b7a6d925320dbb9e6ae99f862b35ec7323af982659061110c90839085906150b1565b60405180910390a15050565b600082815260656020526040902060010154611133816141bd565b61113d83836141c7565b505050565b6001600160a01b03811633146111df576040517f08c379a000000000000000000000000000000000000000000000000000000000815260206004820152602f60248201527f416363657373436f6e74726f6c3a2063616e206f6e6c792072656e6f756e636560448201527f20726f6c657320666f722073656c66000000000000000000000000000000000060648201526084015b60405180910390fd5b6111e98282614269565b5050565b60008060008060a5866040516112039190615095565b908152604080516020928190038301902060008a81529252812054915061122a89836150fb565b90506000806001600160a01b031660ab896040516112489190615095565b908152604051908190036020019020600101546001600160a01b031603611270576000611273565b60015b905080806112b6575060006001600160a01b031660a6886040516112979190615095565b908152604051908190036020019020600101546001600160a01b031614155b156113a8576000816112e75760a6886040516112d29190615095565b90815260405190819003602001902054611308565b60ab896040516112f79190615095565b908152604051908190036020019020545b9050601481101561133157606461132084600a6150fb565b61132a9190615112565b95506113a3565b602881101561134757606461132084600b6150fb565b603c81101561135d57606461132084600c6150fb565b605081101561137357606461132084600d6150fb565b606481101561138957606461132084600e6150fb565b606461139684600f6150fb565b6113a09190615112565b95505b859450505b6113b2848361514d565b95505050509450945094915050565b3360009081527f3a5f6b5b20ab0e425b1c7c9823b9866065cea388466bf7d4f12b2ad1dfbaf604602052604090205460ff1661141057604051634ca8886760e01b815260040160405180910390fd5b609b8054821515610100027fffffffffffffffffffffffffffffffffffffffffffffffffffffffffffff00ff9091161790556040517f9f5cf153333ec6c3f336a73d8dd75b350a36948f61b0b13ae43af5b5c144a6f59061147690831515815260200190565b60405180910390a150565b3360009081527f3a5f6b5b20ab0e425b1c7c9823b9866065cea388466bf7d4f12b2ad1dfbaf604602052604090205460ff166114d057604051634ca8886760e01b815260040160405180910390fd5b609b805482151562010000027fffffffffffffffffffffffffffffffffffffffffffffffffffffffffff00ffff9091161790556040517f643f3a44207851ae16a2c404fa7307be53087b3a8e378e0c908e592c64f506699061147690831515815260200190565b60aa826040516115479190615095565b9081526040519081900360200190205460ff16611590576040517fb4eb177f00000000000000000000000000000000000000000000000000000000815260040160405180910390fd5b60a5826040516115a09190615095565b90815260408051918290036020908101832060008781529152206003015490859060a5906115cf908690615095565b90815260200160405180910390206000868152602001908152602001600020600201546115fc9190615160565b1115611634576040517f98a3f79100000000000000000000000000000000000000000000000000000000815260040160405180910390fd5b60a5826040516116449190615095565b90815260408051918290036020908101832060008781529152206001015490859060a990611673908690615095565b908152604080516020928190038301902060008881529083528181203382529092529020546116a29190615160565b11156116da576040517fbbd4c2bd00000000000000000000000000000000000000000000000000000000815260040160405180910390fd5b6000806116e9868686866111ed565b509150915081341015611728576040517fcd1c886700000000000000000000000000000000000000000000000000000000815260040160405180910390fd5b60006001600160a01b031660ab856040516117439190615095565b908152604051908190036020019020600101546001600160a01b03161461188357801561187e57600060ab8560405161177c9190615095565b908152604051908190036020018120600101546001600160a01b031690839060006040518083038185875af1925050503d80600081146117d8576040519150601f19603f3d011682016040523d82523d6000602084013e6117dd565b606091505b5050905080611818576040517f1ac89c8000000000000000000000000000000000000000000000000000000000815260040160405180910390fd5b60ab856040516118289190615095565b908152604051908190036020018120600101546001600160a01b0316907f32f584d0754f9710dea21e509acf4c6b5885c93f3cf96f1ed74256887485d130906118749088908690615173565b60405180910390a2505b6119d4565b801561199d57600060a68460405161189b9190615095565b908152604051908190036020018120600101546001600160a01b031690839060006040518083038185875af1925050503d80600081146118f7576040519150601f19603f3d011682016040523d82523d6000602084013e6118fc565b606091505b5050905080611937576040517f1ac89c8000000000000000000000000000000000000000000000000000000000815260040160405180910390fd5b60a6846040516119479190615095565b908152604051908190036020018120600101546001600160a01b0316907f32f584d0754f9710dea21e509acf4c6b5885c93f3cf96f1ed74256887485d130906119939087908690615173565b60405180910390a2505b8560a6846040516119ae9190615095565b908152602001604051809103902060000160008282546119ce9190615160565b90915550505b8560ab856040516119e59190615095565b90815260200160405180910390206000016000828254611a059190615160565b925050819055508560a585604051611a1d9190615095565b908152602001604051809103902060008781526020019081526020016000206002016000828254611a4e9190615160565b925050819055508560a085604051611a669190615095565b9081526040805160209281900383019020336000908152925281208054909190611a91908490615160565b9250508190555085609c6000828254611aaa9190615160565b9091555050604051859033907fa85906c3100968a0ea21181f8a4c6d299823828a0573f27a6c17a68c1af4a4ec90611ae9908a9087908a908a90615195565b60405180910390a3505050505050565b609b54610100900460ff16611b3a576040517f7856fae200000000000000000000000000000000000000000000000000000000815260040160405180910390fd5b600080611b49858701876151d1565b336000908152609e6020526040902054919350915081611b69828a615160565b1115611ba1576040517f7a399cc900000000000000000000000000000000000000000000000000000000815260040160405180910390fd5b60408051602081018590527fffffffffffffffffffffffffffffffffffffffff0000000000000000000000003360601b169181019190915260548101839052600090607401604051602081830303815290604052805190602001209050611c3f8686808060200260200160405190810160405280939291908181526020018383602002808284376000920191909152505060985491508490506142ec565b611c75576040517f09bde33900000000000000000000000000000000000000000000000000000000815260040160405180910390fd5b6001600090815260a36020527fc3869149e653ab70ab3abed8edc49ed99ccd0c8cf7ca81486b7adbd034773b1054611cae908b906150fb565b905080341015611cea576040517fcd1c886700000000000000000000000000000000000000000000000000000000815260040160405180910390fd5b336000908152609e6020526040812080548c9290611d09908490615160565b9250508190555089609c6000828254611d229190615160565b909155505060408051828152602081018c905233917f09f1b238e0c956383f51f6a0a249784a40ca5b7a87c8b151a727016be60cccd591015b60405180910390a250505050505050505050565b609b5462010000900460ff16611db1576040517f724187c200000000000000000000000000000000000000000000000000000000815260040160405180910390fd5b600080611dc0858701876151d1565b336000908152609f6020526040902054919350915081611de0828a615160565b1115611e18576040517f7a399cc900000000000000000000000000000000000000000000000000000000815260040160405180910390fd5b60408051602081018590527fffffffffffffffffffffffffffffffffffffffff0000000000000000000000003360601b169181019190915260548101839052600090607401604051602081830303815290604052805190602001209050611eb68686808060200260200160405190810160405280939291908181526020018383602002808284376000920191909152505060995491508490506142ec565b611eec576040517f09bde33900000000000000000000000000000000000000000000000000000000815260040160405180910390fd5b6001600090815260a36020527fc3869149e653ab70ab3abed8edc49ed99ccd0c8cf7ca81486b7adbd034773b1054611f25908b906150fb565b905080341015611f61576040517fcd1c886700000000000000000000000000000000000000000000000000000000815260040160405180910390fd5b336000908152609f6020526040812080548c9290611f80908490615160565b9250508190555089609c6000828254611f999190615160565b909155505060408051828152602081018c905233917f7d6d20e50ff90d3c35b2d0182ab7dd6825df9759011eb6ae1499640a2c2b2eeb9101611d5b565b3360009081527f9de19bebcfec5fefaa13a42edbcc11cb6ff633bb0eb0a7f29bcb2311657057e0602052604090205460ff1661202557604051634ca8886760e01b815260040160405180910390fd5b88871415806120345750868514155b8061203f5750848314155b8061204a5750828114155b15612081576040517f8d7b788500000000000000000000000000000000000000000000000000000000815260040160405180910390fd5b60005b878110156122cb57600060a58c8c848181106120a2576120a26151f3565b90506020028101906120b49190615222565b6040516120c2929190615085565b908152602001604051809103902060008b8b858181106120e4576120e46151f3565b905060200201358152602001908152602001600020600201549050604051806080016040528089898581811061211c5761211c6151f3565b90506020020135815260200187878581811061213a5761213a6151f3565b90506020020135815260200182815260200185858581811061215e5761215e6151f3565b9050602002013581525060a58d8d8581811061217c5761217c6151f3565b905060200281019061218e9190615222565b60405161219c929190615085565b908152602001604051809103902060008c8c868181106121be576121be6151f3565b90506020020135815260200190815260200160002060008201518160000155602082015181600101556040820151816002015560608201518160030155905050898983818110612210576122106151f3565b905060200201357fb594049245992a738d373cbadb4c71bff13c5415bb08132a24528b25700adc8f8d8d8581811061224a5761224a6151f3565b905060200281019061225c9190615222565b8b8b8781811061226e5761226e6151f3565b905060200201358a8a88818110612287576122876151f3565b90506020020135868a8a8a8181106122a1576122a16151f3565b905060200201356040516122ba96959493929190615287565b60405180910390a250600101612084565b5050505050505050505050565b3360009081527f3a5f6b5b20ab0e425b1c7c9823b9866065cea388466bf7d4f12b2ad1dfbaf604602052604090205460ff1661232757604051634ca8886760e01b815260040160405180910390fd5b609b80548215156301000000027fffffffffffffffffffffffffffffffffffffffffffffffffffffffff00ffffff9091161790556040517f3b7b44afae3b983507896693d669f6119d5ab003ec1ab51123108429bd5d46d79061147690831515815260200190565b3360009081527f9de19bebcfec5fefaa13a42edbcc11cb6ff633bb0eb0a7f29bcb2311657057e0602052604090205460ff166123de57604051634ca8886760e01b815260040160405180910390fd5b8060ab836040516123ef9190615095565b90815260405190819003602001812060010180546001600160a01b03939093167fffffffffffffffffffffffff0000000000000000000000000000000000000000909316929092179091557fde9abf233be44afb6ffb075220f982d58534ace6cb7770013f265ae1acd52d2b9061110c90849084906152d5565b609b5460ff166124a5576040517f27dc08c400000000000000000000000000000000000000000000000000000000815260040160405180910390fd5b6000806124b4858701876151d1565b336000908152609d60205260409020549193509150816124d4828a615160565b111561250c576040517f7a399cc900000000000000000000000000000000000000000000000000000000815260040160405180910390fd5b60408051602081018590527fffffffffffffffffffffffffffffffffffffffff0000000000000000000000003360601b1691810191909152605481018390526000906074016040516020818303038152906040528051906020012090506125aa8686808060200260200160405190810160405280939291908181526020018383602002808284376000920191909152505060975491508490506142ec565b6125e0576040517f09bde33900000000000000000000000000000000000000000000000000000000815260040160405180910390fd5b336000908152609d6020526040812080548b92906125ff908490615160565b9250508190555088609c60008282546126189190615160565b909155505060405189815233907fdcf2314e0115a42fe2b3fcfb533c03e95dc48bc7769a9c2b61a14883c0b449e09060200160405180910390a2505050505050505050565b3360009081527f9de19bebcfec5fefaa13a42edbcc11cb6ff633bb0eb0a7f29bcb2311657057e0602052604090205460ff166126ac57604051634ca8886760e01b815260040160405180910390fd5b6040514790600090339083908381818185875af1925050503d80600081146126f0576040519150601f19603f3d011682016040523d82523d6000602084013e6126f5565b606091505b5050905080612730576040517f27fcd9d100000000000000000000000000000000000000000000000000000000815260040160405180910390fd5b60405182815233907f0f2fb75cc1977a496e94837f859e957f68e26e70dc1b75d9945ee92ae57969ba9060200160405180910390a25050565b3360009081527f93597da006e5eb572f6ec69e1ccdaa385853d6a136697cd54f88b4acaace9499602052604090205460ff166127b857604051634ca8886760e01b815260040160405180910390fd5b6111e98282613ea4565b3360009081527f9de19bebcfec5fefaa13a42edbcc11cb6ff633bb0eb0a7f29bcb2311657057e0602052604090205460ff1661281157604051634ca8886760e01b815260040160405180910390fd5b86851415806128205750848314155b8061282b5750828114155b15612862576040517f8d7b788500000000000000000000000000000000000000000000000000000000815260040160405180910390fd5b60005b87811015612a1257600060a360008b8b85818110612885576128856151f3565b90506020020135815260200190815260200160002060020154905060405180608001604052808989858181106128bd576128bd6151f3565b9050602002013581526020018787858181106128db576128db6151f3565b9050602002013581526020018281526020018585858181106128ff576128ff6151f3565b9050602002013581525060a360008c8c8681811061291f5761291f6151f3565b90506020020135815260200190815260200160002060008201518160000155602082015181600101556040820151816002015560608201518160030155905050898983818110612971576129716151f3565b905060200201357fefd55558319646aa70e53c48ba0480d26d9fdce9d6399432fac9356ee254944c8989858181106129ab576129ab6151f3565b905060200201358888868181106129c4576129c46151f3565b90506020020135848888888181106129de576129de6151f3565b604080519687526020878101969096528601939093525091020135606082015260800160405180910390a250600101612865565b505050505050505050565b604080518082019091526000808252602082015260a682604051612a419190615095565b908152604080519182900360209081018320838301909252815483526001909101546001600160a01b03169082015292915050565b3360009081527f3a5f6b5b20ab0e425b1c7c9823b9866065cea388466bf7d4f12b2ad1dfbaf604602052604090205460ff16612ac557604051634ca8886760e01b815260040160405180910390fd5b609b8054821515640100000000027fffffffffffffffffffffffffffffffffffffffffffffffffffffff00ffffffff9091161790556040517f1f1915b2b72e7148c33d69001e6faecad0afab08c3754cc3288abebe4f3693c19061147690831515815260200190565b3360009081527f9de19bebcfec5fefaa13a42edbcc11cb6ff633bb0eb0a7f29bcb2311657057e0602052604090205460ff16612b7d57604051634ca8886760e01b815260040160405180910390fd5b8685141580612b8c5750848314155b80612b975750828114155b15612bce576040517f8d7b788500000000000000000000000000000000000000000000000000000000815260040160405180910390fd5b60005b87811015612a1257600060a460008b8b85818110612bf157612bf16151f3565b9050602002013581526020019081526020016000206002015490506040518060800160405280898985818110612c2957612c296151f3565b905060200201358152602001878785818110612c4757612c476151f3565b905060200201358152602001828152602001858585818110612c6b57612c6b6151f3565b9050602002013581525060a460008c8c86818110612c8b57612c8b6151f3565b90506020020135815260200190815260200160002060008201518160000155602082015181600101556040820151816002015560608201518160030155905050898983818110612cdd57612cdd6151f3565b905060200201357fc9dc860a4ebff48880e12d6561e76353bec03d096d8339da1a00c77b2e672ccb898985818110612d1757612d176151f3565b90506020020135888886818110612d3057612d306151f3565b9050602002013584888888818110612d4a57612d4a6151f3565b604080519687526020878101969096528601939093525091020135606082015260800160405180910390a250600101612bd1565b3360009081527f0f8f48858e118d2eab32cf95c88221b6c0a0d6e1fed7aef78e355435fa71bc6f602052604090205460ff16612dcd57604051634ca8886760e01b815260040160405180910390fd5b609a8190556040518181527f1113c739a7b79ad7fe9572522e32b648f09eb5b1c329efd91dcb309da05541fb90602001611476565b3360009081527f3a5f6b5b20ab0e425b1c7c9823b9866065cea388466bf7d4f12b2ad1dfbaf604602052604090205460ff16612e5157604051634ca8886760e01b815260040160405180910390fd5b609b805460ff19168215159081179091556040519081527fadafd3bec1c754707cbddc626a6214c879cecc475375ff8f5a1dbc329939869390602001611476565b612ebd6040518060800160405280600081526020016000815260200160008152602001600081525090565b8115612f105760a360008481526020019081526020016000206040518060800160405290816000820154815260200160018201548152602001600282015481526020016003820154815250509050610f27565b5050600090815260a46020908152604091829020825160808101845281548152600182015492810192909252600281015492820192909252600390910154606082015290565b3360009081527f0f8f48858e118d2eab32cf95c88221b6c0a0d6e1fed7aef78e355435fa71bc6f602052604090205460ff16612fa557604051634ca8886760e01b815260040160405180910390fd5b60998190556040518181527fed5a3c80523111a140a98ec8643e5fb5ac073fe6b8528163c00123af11e4b31a90602001611476565b600082815260656020526040902060010154612ff5816141bd565b61113d8383614269565b609b546301000000900460ff16613042576040517fc7d08f0400000000000000000000000000000000000000000000000000000000815260040160405180910390fd5b600082815260a3602052604090206003810154600290910154613066908590615160565b111561309e576040517f98a3f79100000000000000000000000000000000000000000000000000000000815260040160405180910390fd5b600082815260a3602090815260408083206001015460a88352818420338552909252909120546130cf908590615160565b1115613107576040517fbbd4c2bd00000000000000000000000000000000000000000000000000000000815260040160405180910390fd5b60008061311785858560006138a7565b509150915081341015613156576040517fcd1c886700000000000000000000000000000000000000000000000000000000815260040160405180910390fd5b801561327057600060a68460405161316e9190615095565b908152604051908190036020018120600101546001600160a01b031690839060006040518083038185875af1925050503d80600081146131ca576040519150601f19603f3d011682016040523d82523d6000602084013e6131cf565b606091505b505090508061320a576040517f1ac89c8000000000000000000000000000000000000000000000000000000000815260040160405180910390fd5b60a68460405161321a9190615095565b908152604051908190036020018120600101546001600160a01b0316907f32f584d0754f9710dea21e509acf4c6b5885c93f3cf96f1ed74256887485d130906132669087908690615173565b60405180910390a2505b600084815260a3602052604081206002018054879290613291908490615160565b909155505033600090815260a16020526040812080548792906132b5908490615160565b9250508190555084609c60008282546132ce9190615160565b925050819055508460a6846040516132e69190615095565b908152602001604051809103902060000160008282546133069190615160565b9091555050604051849033907f667f777d5c0d93b002117ea7ffc49143b4c2180cb35b02848c4ab62631a0cd259061334390899087908990615300565b60405180910390a35050505050565b3360009081527f0f8f48858e118d2eab32cf95c88221b6c0a0d6e1fed7aef78e355435fa71bc6f602052604090205460ff166133a157604051634ca8886760e01b815260040160405180910390fd5b60978190556040518181527f9811c75983304a889ec0cb24de6cb2a102ceef14040efeca89e8361047af9daf90602001611476565b3360009081527f0f8f48858e118d2eab32cf95c88221b6c0a0d6e1fed7aef78e355435fa71bc6f602052604090205460ff1661342557604051634ca8886760e01b815260040160405180910390fd5b60988190556040518181527fa9def886987ec775de3f208d9045235d630a49852d8da931fa98c53e9c4a799590602001611476565b609b54640100000000900460ff1661349e576040517fddbe069200000000000000000000000000000000000000000000000000000000815260040160405180910390fd5b600080806134ae86880188614eb5565b60008b815260a46020526040902060038101546002909101549396509194509250906134db908b90615160565b1115613513576040517f98a3f79100000000000000000000000000000000000000000000000000000000815260040160405180910390fd5b33600090815260a260205260408082209051613530908490615095565b9081526040519081900360200190205490508261354d828c615160565b1115613585576040517f7a399cc900000000000000000000000000000000000000000000000000000000815260040160405180910390fd5b60008433858560405160200161359e9493929190615328565b6040516020818303038152906040528051906020012090506135f787878080602002602001604051908101604052809392919081815260200183836020028082843760009201919091525050609a5491508490506142ec565b61362d576040517f09bde33900000000000000000000000000000000000000000000000000000000815260040160405180910390fd5b5060008061363e8c8c8660016138a7565b50915091508134101561367d576040517fcd1c886700000000000000000000000000000000000000000000000000000000815260040160405180910390fd5b801561379757600060a6856040516136959190615095565b908152604051908190036020018120600101546001600160a01b031690839060006040518083038185875af1925050503d80600081146136f1576040519150601f19603f3d011682016040523d82523d6000602084013e6136f6565b606091505b5050905080613731576040517f1ac89c8000000000000000000000000000000000000000000000000000000000815260040160405180910390fd5b60a6856040516137419190615095565b908152604051908190036020018120600101546001600160a01b0316907f32f584d0754f9710dea21e509acf4c6b5885c93f3cf96f1ed74256887485d1309061378d9088908690615173565b60405180910390a2505b60008b815260a46020526040812060020180548e92906137b8908490615160565b909155505033600090815260a260205260409081902090518d91906137de908790615095565b908152602001604051809103902060008282546137fb9190615160565b925050819055508b609c60008282546138149190615160565b925050819055508b60a68560405161382c9190615095565b9081526020016040518091039020600001600082825461384c9190615160565b925050819055508a336001600160a01b03167fc72e71a3feffde96ea8e1ea0580c51515589e1191e54ae4152c6446d43770b8c8e858860405161389193929190615300565b60405180910390a3505050505050505050505050565b60008060008084156138c85750600086815260a460205260409020546138d9565b50600086815260a360205260409020545b60006138e589836150fb565b905060006001600160a01b031660a6886040516139029190615095565b908152604051908190036020019020600101546001600160a01b0316146139e557600060a6886040516139359190615095565b908152604051908190036020019020549050601481101561396e57606461395d83600a6150fb565b6139679190615112565b94506139e0565b602881101561398457606461395d83600b6150fb565b603c81101561399a57606461395d83600c6150fb565b60508110156139b057606461395d83600d6150fb565b60648110156139c657606461395d83600e6150fb565b60646139d383600f6150fb565b6139dd9190615112565b94505b849350505b6139ef838261514d565b945050509450945094915050565b600054610100900460ff1615808015613a1d5750600054600160ff909116105b80613a375750303b158015613a37575060005460ff166001145b613ac3576040517f08c379a000000000000000000000000000000000000000000000000000000000815260206004820152602e60248201527f496e697469616c697a61626c653a20636f6e747261637420697320616c72656160448201527f647920696e697469616c697a656400000000000000000000000000000000000060648201526084016111d6565b6000805460ff191660011790558015613b0357600080547fffffffffffffffffffffffffffffffffffffffffffffffffffffffffffff00ff166101001790555b613b0b614302565b6001600160a01b038516613b56576040517f8e4c8aa60000000000000000000000000000000000000000000000000000000081526001600160a01b03861660048201526024016111d6565b6001600160a01b038416613ba1576040517f8e4c8aa60000000000000000000000000000000000000000000000000000000081526001600160a01b03851660048201526024016111d6565b6001600160a01b038316613bec576040517f8e4c8aa60000000000000000000000000000000000000000000000000000000081526001600160a01b03841660048201526024016111d6565b6001600160a01b038216613c37576040517f8e4c8aa60000000000000000000000000000000000000000000000000000000081526001600160a01b03831660048201526024016111d6565b613c617fdf8b4c520ffe197c5343c6f5aec59570151ef9a492f2c624fd45ddde6135ec42866141c7565b613c8b7fdf8b4c520ffe197c5343c6f5aec59570151ef9a492f2c624fd45ddde6135ec428061439b565b613cb57f8b5b16d04624687fcf0d0228f19993c9157c1ed07b41d8d430fd9100eb099fe8856141c7565b613cdf7f8b5b16d04624687fcf0d0228f19993c9157c1ed07b41d8d430fd9100eb099fe8866141c7565b613d297f8b5b16d04624687fcf0d0228f19993c9157c1ed07b41d8d430fd9100eb099fe87fdf8b4c520ffe197c5343c6f5aec59570151ef9a492f2c624fd45ddde6135ec4261439b565b613d537ffd2994b76294f3a7e0e5e4e40e73799b954c33f4bff642b5e760fef0d694a924846141c7565b613d9d7ffd2994b76294f3a7e0e5e4e40e73799b954c33f4bff642b5e760fef0d694a9247fdf8b4c520ffe197c5343c6f5aec59570151ef9a492f2c624fd45ddde6135ec4261439b565b613dc77fceb656422d2e5768b364a6526533f6832c483c8cfbd416512fbbd6fa6413f96a836141c7565b613e117fceb656422d2e5768b364a6526533f6832c483c8cfbd416512fbbd6fa6413f96a7fdf8b4c520ffe197c5343c6f5aec59570151ef9a492f2c624fd45ddde6135ec4261439b565b6040517f9f4eefba9f06bdd612ec93892ddb6d0bf72365e3835c1159ce2f0b9f172bfcbd90600090a18015613e9d57600080547fffffffffffffffffffffffffffffffffffffffffffffffffffffffffffff00ff169055604051600181527f7f26b83ff96e1f2b6a682f133852f6798a09c465da95921460cefb38474024989060200160405180910390a15b5050505050565b60006001600160a01b031660a683604051613ebf9190615095565b908152604051908190036020019020600101546001600160a01b031614613f12576040517fe55eccb400000000000000000000000000000000000000000000000000000000815260040160405180910390fd5b604080516020808201909252600090528251908301207fc5d2460186f7233c927e7db2dcc703c0e500b653ca82273b7bfad8045d85a47003613f80576040517f6606a46200000000000000000000000000000000000000000000000000000000815260040160405180910390fd5b6001600160a01b038116600090815260a7602052604081208054613fa390615032565b80601f0160208091040260200160405190810160405280929190818152602001828054613fcf90615032565b801561401c5780601f10613ff15761010080835404028352916020019161401c565b820191906000526020600020905b815481529060010190602001808311613fff57829003601f168201915b50505050509050600061404760405180602001604052806000815250836143e690919063ffffffff16565b6140ea576001600160a01b038316600090815260a7602052604090819020905160a69161407391615381565b908152604080519182900360209081018320546001600160a01b038716600090815260a790925291902090925060a6916140ad9190615381565b9081526040519081900360200190206000815560010180547fffffffffffffffffffffffff00000000000000000000000000000000000000001690555b8260a6856040516140fb9190615095565b908152602001604051809103902060010160006101000a8154816001600160a01b0302191690836001600160a01b031602179055508060a6856040516141419190615095565b9081526040805160209281900383019020929092556001600160a01b038516600090815260a7909152206141758582615447565b50826001600160a01b03167f1b4b97cc23465384984469781dfd8ffaf069cd39c70dfb0568ea8d074cf909e1856040516141af9190614982565b60405180910390a250505050565b610f3781336143fc565b60008281526065602090815260408083206001600160a01b038516845290915290205460ff166111e95760008281526065602090815260408083206001600160a01b03851684529091529020805460ff191660011790556142253390565b6001600160a01b0316816001600160a01b0316837f2f8788117e7eff1d82e926ec794901d17c78024a50270940304540a733656f0d60405160405180910390a45050565b60008281526065602090815260408083206001600160a01b038516845290915290205460ff16156111e95760008281526065602090815260408083206001600160a01b0385168085529252808320805460ff1916905551339285917ff6391f5c32d9c69d2a47ea670b442974b53935d1edc7fd64eb21e047a839171b9190a45050565b6000826142f9858461448b565b14949350505050565b600054610100900460ff16614399576040517f08c379a000000000000000000000000000000000000000000000000000000000815260206004820152602b60248201527f496e697469616c697a61626c653a20636f6e7472616374206973206e6f74206960448201527f6e697469616c697a696e6700000000000000000000000000000000000000000060648201526084016111d6565b565b600082815260656020526040808220600101805490849055905190918391839186917fbd79b86ffe0ab8e8776151514217cd7cacd52c909f66475c3af44e129f0b00ff9190a4505050565b8051602091820120825192909101919091201490565b60008281526065602090815260408083206001600160a01b038516845290915290205460ff166111e95761442f816144ce565b61443a8360206144e0565b60405160200161444b929190615543565b60408051601f19818403018152908290527f08c379a00000000000000000000000000000000000000000000000000000000082526111d691600401614982565b600081815b84518110156144c6576144bc828683815181106144af576144af6151f3565b602002602001015161472a565b9150600101614490565b509392505050565b6060610f276001600160a01b03831660145b606060006144ef8360026150fb565b6144fa906002615160565b67ffffffffffffffff811115614512576145126147b4565b6040519080825280601f01601f19166020018201604052801561453c576020820181803683370190505b5090507f300000000000000000000000000000000000000000000000000000000000000081600081518110614573576145736151f3565b60200101907effffffffffffffffffffffffffffffffffffffffffffffffffffffffffffff1916908160001a9053507f7800000000000000000000000000000000000000000000000000000000000000816001815181106145d6576145d66151f3565b60200101907effffffffffffffffffffffffffffffffffffffffffffffffffffffffffffff1916908160001a90535060006146128460026150fb565b61461d906001615160565b90505b60018111156146ba577f303132333435363738396162636465660000000000000000000000000000000085600f166010811061465e5761465e6151f3565b1a60f81b828281518110614674576146746151f3565b60200101907effffffffffffffffffffffffffffffffffffffffffffffffffffffffffffff1916908160001a90535060049490941c936146b3816155c4565b9050614620565b508315614723576040517f08c379a000000000000000000000000000000000000000000000000000000000815260206004820181905260248201527f537472696e67733a20686578206c656e67746820696e73756666696369656e7460448201526064016111d6565b9392505050565b6000818310614746576000828152602084905260409020614723565b6000838152602083905260409020614723565b60006020828403121561476b57600080fd5b81357fffffffff000000000000000000000000000000000000000000000000000000008116811461472357600080fd5b6000602082840312156147ad57600080fd5b5035919050565b7f4e487b7100000000000000000000000000000000000000000000000000000000600052604160045260246000fd5b600082601f8301126147f457600080fd5b813567ffffffffffffffff8082111561480f5761480f6147b4565b604051601f8301601f19908116603f01168101908282118183101715614837576148376147b4565b8160405283815286602085880101111561485057600080fd5b836020870160208301376000602085830101528094505050505092915050565b60006020828403121561488257600080fd5b813567ffffffffffffffff81111561489957600080fd5b6148a5848285016147e3565b949350505050565b80356001600160a01b03811681146148c457600080fd5b919050565b600080604083850312156148dc57600080fd5b823567ffffffffffffffff8111156148f357600080fd5b6148ff858286016147e3565b92505061490e602084016148ad565b90509250929050565b60006020828403121561492957600080fd5b614723826148ad565b60005b8381101561494d578181015183820152602001614935565b50506000910152565b6000815180845261496e816020860160208601614932565b601f01601f19169290920160200192915050565b6020815260006147236020830184614956565b60008083601f8401126149a757600080fd5b50813567ffffffffffffffff8111156149bf57600080fd5b6020830191508360208285010111156149d757600080fd5b9250929050565b6000806000604084860312156149f357600080fd5b833567ffffffffffffffff811115614a0a57600080fd5b614a1686828701614995565b909790965060209590950135949350505050565b803580151581146148c457600080fd5b60008060408385031215614a4d57600080fd5b823567ffffffffffffffff811115614a6457600080fd5b614a70858286016147e3565b92505061490e60208401614a2a565b60008060408385031215614a9257600080fd5b8235915061490e602084016148ad565b60008060008060808587031215614ab857600080fd5b8435935060208501359250604085013567ffffffffffffffff80821115614ade57600080fd5b614aea888389016147e3565b93506060870135915080821115614b0057600080fd5b50614b0d878288016147e3565b91505092959194509250565b600060208284031215614b2b57600080fd5b61472382614a2a565b60008060408385031215614b4757600080fd5b823567ffffffffffffffff811115614b5e57600080fd5b614b6a858286016147e3565b95602094909401359450505050565b60008083601f840112614b8b57600080fd5b50813567ffffffffffffffff811115614ba357600080fd5b6020830191508360208260051b85010111156149d757600080fd5b600080600080600060608688031215614bd657600080fd5b85359450602086013567ffffffffffffffff80821115614bf557600080fd5b614c0189838a01614995565b90965094506040880135915080821115614c1a57600080fd5b50614c2788828901614b79565b969995985093965092949392505050565b60008060008060008060008060008060a08b8d031215614c5757600080fd5b8a3567ffffffffffffffff80821115614c6f57600080fd5b614c7b8e838f01614b79565b909c509a5060208d0135915080821115614c9457600080fd5b614ca08e838f01614b79565b909a50985060408d0135915080821115614cb957600080fd5b614cc58e838f01614b79565b909850965060608d0135915080821115614cde57600080fd5b614cea8e838f01614b79565b909650945060808d0135915080821115614d0357600080fd5b50614d108d828e01614b79565b915080935050809150509295989b9194979a5092959850565b60008060408385031215614d3c57600080fd5b614d45836148ad565b9150602083013567ffffffffffffffff811115614d6157600080fd5b614d6d858286016147e3565b9150509250929050565b6000806000806000806000806080898b031215614d9357600080fd5b883567ffffffffffffffff80821115614dab57600080fd5b614db78c838d01614b79565b909a50985060208b0135915080821115614dd057600080fd5b614ddc8c838d01614b79565b909850965060408b0135915080821115614df557600080fd5b614e018c838d01614b79565b909650945060608b0135915080821115614e1a57600080fd5b50614e278b828c01614b79565b999c989b5096995094979396929594505050565b600080600060608486031215614e5057600080fd5b833567ffffffffffffffff811115614e6757600080fd5b614e73868287016147e3565b93505060208401359150614e89604085016148ad565b90509250925092565b60008060408385031215614ea557600080fd5b8235915061490e60208401614a2a565b600080600060608486031215614eca57600080fd5b8335925060208401359150604084013567ffffffffffffffff811115614eef57600080fd5b614efb868287016147e3565b9150509250925092565b60008060008060008060808789031215614f1e57600080fd5b8635955060208701359450604087013567ffffffffffffffff80821115614f4457600080fd5b614f508a838b01614995565b90965094506060890135915080821115614f6957600080fd5b50614f7689828a01614b79565b979a9699509497509295939492505050565b60008060008060808587031215614f9e57600080fd5b8435935060208501359250604085013567ffffffffffffffff811115614fc357600080fd5b614fcf878288016147e3565b925050614fde60608601614a2a565b905092959194509250565b60008060008060808587031215614fff57600080fd5b615008856148ad565b9350615016602086016148ad565b9250615024604086016148ad565b9150614fde606086016148ad565b600181811c9082168061504657607f821691505b60208210810361507f577f4e487b7100000000000000000000000000000000000000000000000000000000600052602260045260246000fd5b50919050565b8183823760009101908152919050565b600082516150a7818460208701614932565b9190910192915050565b82151581526040602082015260006148a56040830184614956565b7f4e487b7100000000000000000000000000000000000000000000000000000000600052601160045260246000fd5b8082028115828204841417610f2757610f276150cc565b600082615148577f4e487b7100000000000000000000000000000000000000000000000000000000600052601260045260246000fd5b500490565b81810381811115610f2757610f276150cc565b80820180821115610f2757610f276150cc565b6040815260006151866040830185614956565b90508260208301529392505050565b8481528360208201526080604082015260006151b46080830185614956565b82810360608401526151c68185614956565b979650505050505050565b600080604083850312156151e457600080fd5b50508035926020909101359150565b7f4e487b7100000000000000000000000000000000000000000000000000000000600052603260045260246000fd5b60008083357fffffffffffffffffffffffffffffffffffffffffffffffffffffffffffffffe184360301811261525757600080fd5b83018035915067ffffffffffffffff82111561527257600080fd5b6020019150368190038213156149d757600080fd5b60a081528560a0820152858760c0830137600060c08783010152600060c0601f19601f8901168301019050856020830152846040830152836060830152826080830152979650505050505050565b6040815260006152e86040830185614956565b90506001600160a01b03831660208301529392505050565b83815282602082015260606040820152600061531f6060830184614956565b95945050505050565b8481527fffffffffffffffffffffffffffffffffffffffff0000000000000000000000008460601b16602082015282603482015260008251615371816054850160208701614932565b9190910160540195945050505050565b600080835461538f81615032565b600182811680156153a757600181146153bc576153eb565b60ff19841687528215158302870194506153eb565b8760005260208060002060005b858110156153e25781548a8201529084019082016153c9565b50505082870194505b50929695505050505050565b601f82111561113d576000816000526020600020601f850160051c810160208610156154205750805b601f850160051c820191505b8181101561543f5782815560010161542c565b505050505050565b815167ffffffffffffffff811115615461576154616147b4565b6154758161546f8454615032565b846153f7565b602080601f8311600181146154c857600084156154925750858301515b7fffffffffffffffffffffffffffffffffffffffffffffffffffffffffffffffff600386901b1c1916600185901b17855561543f565b600085815260208120601f198616915b828110156154f7578886015182559484019460019091019084016154d8565b508582101561553357878501517fffffffffffffffffffffffffffffffffffffffffffffffffffffffffffffffff600388901b60f8161c191681555b5050505050600190811b01905550565b7f416363657373436f6e74726f6c3a206163636f756e742000000000000000000081526000835161557b816017850160208801614932565b7f206973206d697373696e6720726f6c652000000000000000000000000000000060179184019182015283516155b8816028840160208801614932565b01602801949350505050565b6000816155d3576155d36150cc565b507fffffffffffffffffffffffffffffffffffffffffffffffffffffffffffffffff019056fea2646970667358221220b3c9331f35b0e7f3bc27ca5e3c1aa30f29d78783be2bab17ca6d3d25622c63b564736f6c63430008180033",
  "devdoc": {
    "author": "Archethect",
    "events": {
      "Initialized(uint8)": {
        "details": "Triggered when the contract has been initialized or reinitialized."
      },
      "RoleAdminChanged(bytes32,bytes32,bytes32)": {
        "details": "Emitted when `newAdminRole` is set as ``role``'s admin role, replacing `previousAdminRole` `DEFAULT_ADMIN_ROLE` is the starting admin for all roles, despite {RoleAdminChanged} not being emitted signaling this. _Available since v3.1._"
      },
      "RoleGranted(bytes32,address,address)": {
        "details": "Emitted when `account` is granted `role`. `sender` is the account that originated the contract call, an admin role bearer except when using {AccessControl-_setupRole}."
      },
      "RoleRevoked(bytes32,address,address)": {
        "details": "Emitted when `account` is revoked `role`. `sender` is the account that originated the contract call:   - if using `revokeRole`, it is the admin role bearer   - if using `renounceRole`, it is the role bearer (i.e. `account`)"
      }
    },
    "kind": "dev",
    "methods": {
      "claimLicenseEarlyAccess(uint256,bytes,bytes32[])": {
        "params": {
          "amount": "The amount of licenses to claim",
          "data": "Index and claimCap in encoded format",
          "merkleProof": "The proof used to verify whether the caller is allowed to claim the licenses"
        }
      },
      "claimLicenseFriendsFamily(uint256,bytes,bytes32[])": {
        "params": {
          "amount": "The amount of licenses to claim",
          "data": "Index and claimCap in encoded format",
          "merkleProof": "The proof used to verify weather the caller is allowed to claim the licenses"
        }
      },
      "claimLicensePartner(uint256,uint256,string,string)": {
        "params": {
          "amount": "The amount of licenses to claim",
          "partnerCode": "The code of the partner sale"
        }
      },
      "claimLicensePublic(uint256,uint256,string)": {
        "params": {
          "amount": "The amount of licenses to claim",
          "referral": "A referral code that can give discounts.",
          "tier": "The tier to buy the licenses from"
        }
      },
      "claimLicensePublicWhitelist(uint256,uint256,bytes,bytes32[])": {
        "params": {
          "amount": "The amount of licenses to claim",
          "data": "Index, claimCap and referral in encoded format",
          "merkleProof": "The proof used to verify weather the caller is allowed to claim the licenses",
          "tier": "The tier to buy the licenses from"
        }
      },
      "claimLicenseTeam(uint256,bytes,bytes32[])": {
        "params": {
          "amount": "The amount of licenses to claim",
          "data": "Index and claimCap in encoded format",
          "merkleProof": "The proof used to verify whether the caller is allowed to claim the licenses"
        }
      },
      "constructor": {
        "custom:oz-upgrades-unsafe-allow": "constructor"
      },
      "getPartnerTier(string,uint256)": {
        "params": {
          "id": "The tier id",
          "partnerCode": "The code of the partner to return the tier from"
        },
        "returns": {
          "tier": "The tier"
        }
      },
      "getReferral(string)": {
        "params": {
          "id": "The referral id"
        },
        "returns": {
          "referral": "The referral"
        }
      },
      "getRoleAdmin(bytes32)": {
        "details": "Returns the admin role that controls `role`. See {grantRole} and {revokeRole}. To change a role's admin, use {_setRoleAdmin}."
      },
      "getTier(uint256,bool)": {
        "params": {
          "id": "The tier id",
          "isWhitelist": "Whether the tier is used for the whitelist sale or not"
        },
        "returns": {
          "tier": "The tier"
        }
      },
      "grantRole(bytes32,address)": {
        "details": "Grants `role` to `account`. If `account` had not been already granted `role`, emits a {RoleGranted} event. Requirements: - the caller must have ``role``'s admin role. May emit a {RoleGranted} event."
      },
      "hasRole(bytes32,address)": {
        "details": "Returns `true` if `account` has been granted `role`."
      },
      "paymentDetailsForPartnerReferral(uint256,uint256,string,string)": {
        "params": {
          "amount": "The amount of licenses to claim",
          "partnerCode": "The code identifying the partner sale",
          "tier": "The tier to buy the licenses from"
        },
        "returns": {
          "commission": "The commission in ETH that the referrer will get.",
          "discount": "The discount in ETH the claimer will get",
          "toPay": "The amount of ETH that should be paid by the claimer."
        }
      },
      "paymentDetailsForReferral(uint256,uint256,string,bool)": {
        "params": {
          "amount": "The amount of licenses to claim",
          "isWhitelist": "Whether the tier is used for the whitelist sale or not",
          "referral": "A referral code that can give discounts.",
          "tier": "The tier to buy the licenses from"
        },
        "returns": {
          "commission": "The commission in ETH that the referrer will get.",
          "discount": "The discount in ETH the claimer will get",
          "toPay": "The amount of ETH that should be paid by the claimer."
        }
      },
      "renounceRole(bytes32,address)": {
        "details": "Revokes `role` from the calling account. Roles are often managed via {grantRole} and {revokeRole}: this function's purpose is to provide a mechanism for accounts to lose their privileges if they are compromised (such as when a trusted device is misplaced). If the calling account had been revoked `role`, emits a {RoleRevoked} event. Requirements: - the caller must be `account`. May emit a {RoleRevoked} event."
      },
      "revokeRole(bytes32,address)": {
        "details": "Revokes `role` from `account`. If `account` had been granted `role`, emits a {RoleRevoked} event. Requirements: - the caller must have ``role``'s admin role. May emit a {RoleRevoked} event."
      },
      "setEarlyAccessMerkleRoot(bytes32)": {
        "params": {
          "_earlyAccessMerkleRoot": "The root of the early access sale merkle tree"
        }
      },
      "setEarlyAccessSale(bool)": {
        "params": {
          "status": "The status to set for the early access sale"
        }
      },
      "setFriendsFamilyMerkleRoot(bytes32)": {
        "params": {
          "_friendsFamilyMerkleRoot": "The root of the friends and family sale merkle tree"
        }
      },
      "setFriendsFamilySale(bool)": {
        "params": {
          "status": "The status to set for the friends and family sale"
        }
      },
      "setPartnerReceiverAddress(string,address)": {
        "params": {
          "partnerCode": "The code of the partner sale to set the status from",
          "receiver": "The receiver address of the partner"
        }
      },
      "setPartnerSale(string,bool)": {
        "params": {
          "partnerCode": "The code of the partner sale to set the status from",
          "status": "The status to set for the partner sale"
        }
      },
      "setPartnerTiers(string[],uint256[],uint256[],uint256[],uint256[])": {
        "params": {
          "ids": "The ids of the tiers to set",
          "individualCaps": "The maximum amount of licenses that can be claimed per address for the tiers.",
          "partnerCodes": "The codes of the partners to configure the tiers for",
          "prices": "The prices of each tier to set",
          "totalCaps": "The maximum amount of licenses that can be claimed in total for the tiers."
        }
      },
      "setPublicMerkleRoot(bytes32)": {
        "params": {
          "_publicMerkleRoot": "The root of the public sale merkle tree"
        }
      },
      "setPublicSale(bool)": {
        "params": {
          "status": "The status to set for the public sale"
        }
      },
      "setPublicWhitelistSale(bool)": {
        "params": {
          "status": "The status to set for the public whitelist sale"
        }
      },
      "setReferral(string)": {
        "params": {
          "code": "The referral code to be used when claiming"
        }
      },
      "setReferralForReceiver(string,address)": {
        "params": {
          "code": "The referral code to be used when claiming",
          "receiver": "The receiver address for the commissions"
        }
      },
      "setTeamMerkleRoot(bytes32)": {
        "params": {
          "_teamMerkleRoot": "The root of the team sale merkle tree"
        }
      },
      "setTeamSale(bool)": {
        "params": {
          "status": "The status to set for the team sale"
        }
      },
      "setTiers(uint256[],uint256[],uint256[],uint256[])": {
        "params": {
          "ids": "The ids of the tiers to set",
          "individualCaps": "The maximum amount of licenses that can be claimed per address for the tiers.",
          "prices": "The prices of each tier to set",
          "totalCaps": "The maximum amount of licenses that can be claimed in total for the tiers."
        }
      },
      "setWhitelistTiers(uint256[],uint256[],uint256[],uint256[])": {
        "params": {
          "ids": "The ids of the tiers to set",
          "individualCaps": "The maximum amount of licenses that can be claimed per address for the tiers.",
          "prices": "The prices of each tier to set",
          "totalCaps": "The maximum amount of licenses that can be claimed in total for the tiers."
        }
      },
      "supportsInterface(bytes4)": {
        "details": "See {IERC165-supportsInterface}."
      }
    },
    "title": "PlayFi node license sale contract",
    "version": 1
  },
  "userdoc": {
    "kind": "user",
    "methods": {
      "claimLicenseEarlyAccess(uint256,bytes,bytes32[])": {
        "notice": "Claims licenses for early access addresses + make sure they do not exceed their personal claim cap and that they paid enough."
      },
      "claimLicenseFriendsFamily(uint256,bytes,bytes32[])": {
        "notice": "Claims licenses for friends and family + make sure they do not exceed their personal claim cap and that they paid enough."
      },
      "claimLicensePartner(uint256,uint256,string,string)": {
        "notice": "Claims licenses for partners + make sure they do not exceed their personal claim cap and that they paid enough."
      },
      "claimLicensePublic(uint256,uint256,string)": {
        "notice": "Claims licenses for the public in a specific tier + make sure they do not exceed their personal claim cap and total tier cap. Additionally also make sure that they paid enough."
      },
      "claimLicensePublicWhitelist(uint256,uint256,bytes,bytes32[])": {
        "notice": "Claims licenses for whitelisted addresses during the public sale + make sure they do not exceed their personal claim cap and that they paid enough."
      },
      "claimLicenseTeam(uint256,bytes,bytes32[])": {
        "notice": "Claims licenses for team members and make sure they do not exceed their personal claim cap."
      },
      "getPartnerTier(string,uint256)": {
        "notice": "Returns partner tier details provided a partner code and tier id"
      },
      "getReferral(string)": {
        "notice": "Returns referral details provided a referral id"
      },
      "getTier(uint256,bool)": {
        "notice": "Returns tier details provided a tier id"
      },
      "paymentDetailsForPartnerReferral(uint256,uint256,string,string)": {
        "notice": "Calculates the price, commission and discount for X number of licenses in partner tier Y given partnerCod Z"
      },
      "paymentDetailsForReferral(uint256,uint256,string,bool)": {
        "notice": "Calculates the price, commission and discount for X number of licenses in tier Y given referral code Z"
      },
      "setEarlyAccessMerkleRoot(bytes32)": {
        "notice": "Sets the early access sale merkle root"
      },
      "setEarlyAccessSale(bool)": {
        "notice": "Sets the early access sale status"
      },
      "setFriendsFamilyMerkleRoot(bytes32)": {
        "notice": "Sets the friends and family sale merkle root"
      },
      "setFriendsFamilySale(bool)": {
        "notice": "Sets the friends and family sale status"
      },
      "setPartnerReceiverAddress(string,address)": {
        "notice": "Sets the partner receiver address"
      },
      "setPartnerSale(string,bool)": {
        "notice": "Sets the partner sale status"
      },
      "setPartnerTiers(string[],uint256[],uint256[],uint256[],uint256[])": {
        "notice": "Sets partner tier details"
      },
      "setPublicMerkleRoot(bytes32)": {
        "notice": "Sets the public sale merkle root"
      },
      "setPublicSale(bool)": {
        "notice": "Sets the public sale status"
      },
      "setPublicWhitelistSale(bool)": {
        "notice": "Sets the public whitelist sale status"
      },
      "setReferral(string)": {
        "notice": "Sets referral details"
      },
      "setReferralForReceiver(string,address)": {
        "notice": "Sets referral details for a specific receiver"
      },
      "setTeamMerkleRoot(bytes32)": {
        "notice": "Sets the team sale merkle root"
      },
      "setTeamSale(bool)": {
        "notice": "Sets the team sale status"
      },
      "setTiers(uint256[],uint256[],uint256[],uint256[])": {
        "notice": "Sets tier details"
      },
      "setWhitelistTiers(uint256[],uint256[],uint256[],uint256[])": {
        "notice": "Sets whitelist tier details"
      },
      "withdrawProceeds()": {
        "notice": "Withdraws the sale proceeds"
      }
    },
    "notice": "Contract used to handle whitelist and public node license sales in several tiers.",
    "version": 1
  },
  "storageLayout": {
    "storage": [
      {
        "astId": 416,
        "contract": "contracts/PlayFiLicenseSale.sol:PlayFiLicenseSale",
        "label": "_initialized",
        "offset": 0,
        "slot": "0",
        "type": "t_uint8"
      },
      {
        "astId": 419,
        "contract": "contracts/PlayFiLicenseSale.sol:PlayFiLicenseSale",
        "label": "_initializing",
        "offset": 1,
        "slot": "0",
        "type": "t_bool"
      },
      {
        "astId": 958,
        "contract": "contracts/PlayFiLicenseSale.sol:PlayFiLicenseSale",
        "label": "__gap",
        "offset": 0,
        "slot": "1",
        "type": "t_array(t_uint256)50_storage"
      },
      {
        "astId": 1232,
        "contract": "contracts/PlayFiLicenseSale.sol:PlayFiLicenseSale",
        "label": "__gap",
        "offset": 0,
        "slot": "51",
        "type": "t_array(t_uint256)50_storage"
      },
      {
        "astId": 28,
        "contract": "contracts/PlayFiLicenseSale.sol:PlayFiLicenseSale",
        "label": "_roles",
        "offset": 0,
        "slot": "101",
        "type": "t_mapping(t_bytes32,t_struct(RoleData)23_storage)"
      },
      {
        "astId": 335,
        "contract": "contracts/PlayFiLicenseSale.sol:PlayFiLicenseSale",
        "label": "__gap",
        "offset": 0,
        "slot": "102",
        "type": "t_array(t_uint256)49_storage"
      },
      {
        "astId": 3984,
        "contract": "contracts/PlayFiLicenseSale.sol:PlayFiLicenseSale",
        "label": "teamMerkleRoot",
        "offset": 0,
        "slot": "151",
        "type": "t_bytes32"
      },
      {
        "astId": 3987,
        "contract": "contracts/PlayFiLicenseSale.sol:PlayFiLicenseSale",
        "label": "friendsFamilyMerkleRoot",
        "offset": 0,
        "slot": "152",
        "type": "t_bytes32"
      },
      {
        "astId": 3990,
        "contract": "contracts/PlayFiLicenseSale.sol:PlayFiLicenseSale",
        "label": "earlyAccessMerkleRoot",
        "offset": 0,
        "slot": "153",
        "type": "t_bytes32"
      },
      {
        "astId": 3993,
        "contract": "contracts/PlayFiLicenseSale.sol:PlayFiLicenseSale",
        "label": "publicMerkleRoot",
        "offset": 0,
        "slot": "154",
        "type": "t_bytes32"
      },
      {
        "astId": 3996,
        "contract": "contracts/PlayFiLicenseSale.sol:PlayFiLicenseSale",
        "label": "teamSaleActive",
        "offset": 0,
        "slot": "155",
        "type": "t_bool"
      },
      {
        "astId": 3999,
        "contract": "contracts/PlayFiLicenseSale.sol:PlayFiLicenseSale",
        "label": "friendsFamilySaleActive",
        "offset": 1,
        "slot": "155",
        "type": "t_bool"
      },
      {
        "astId": 4002,
        "contract": "contracts/PlayFiLicenseSale.sol:PlayFiLicenseSale",
        "label": "earlyAccessSaleActive",
        "offset": 2,
        "slot": "155",
        "type": "t_bool"
      },
      {
        "astId": 4005,
        "contract": "contracts/PlayFiLicenseSale.sol:PlayFiLicenseSale",
        "label": "publicSaleActive",
        "offset": 3,
        "slot": "155",
        "type": "t_bool"
      },
      {
        "astId": 4008,
        "contract": "contracts/PlayFiLicenseSale.sol:PlayFiLicenseSale",
        "label": "publicWhitelistSaleActive",
        "offset": 4,
        "slot": "155",
        "type": "t_bool"
      },
      {
        "astId": 4011,
        "contract": "contracts/PlayFiLicenseSale.sol:PlayFiLicenseSale",
        "label": "totalLicenses",
        "offset": 0,
        "slot": "156",
        "type": "t_uint256"
      },
      {
        "astId": 4015,
        "contract": "contracts/PlayFiLicenseSale.sol:PlayFiLicenseSale",
        "label": "teamClaimsPerAddress",
        "offset": 0,
        "slot": "157",
        "type": "t_mapping(t_address,t_uint256)"
      },
      {
        "astId": 4019,
        "contract": "contracts/PlayFiLicenseSale.sol:PlayFiLicenseSale",
        "label": "friendsFamilyClaimsPerAddress",
        "offset": 0,
        "slot": "158",
        "type": "t_mapping(t_address,t_uint256)"
      },
      {
        "astId": 4023,
        "contract": "contracts/PlayFiLicenseSale.sol:PlayFiLicenseSale",
        "label": "earlyAccessClaimsPerAddress",
        "offset": 0,
        "slot": "159",
        "type": "t_mapping(t_address,t_uint256)"
      },
      {
        "astId": 4029,
        "contract": "contracts/PlayFiLicenseSale.sol:PlayFiLicenseSale",
        "label": "partnerClaimsPerAddress",
        "offset": 0,
        "slot": "160",
        "type": "t_mapping(t_string_memory_ptr,t_mapping(t_address,t_uint256))"
      },
      {
        "astId": 4033,
        "contract": "contracts/PlayFiLicenseSale.sol:PlayFiLicenseSale",
        "label": "publicClaimsPerAddress",
        "offset": 0,
        "slot": "161",
        "type": "t_mapping(t_address,t_uint256)"
      },
      {
        "astId": 4039,
        "contract": "contracts/PlayFiLicenseSale.sol:PlayFiLicenseSale",
        "label": "publicWhitelistClaimsPerAddressAndReferral",
        "offset": 0,
        "slot": "162",
        "type": "t_mapping(t_address,t_mapping(t_string_memory_ptr,t_uint256))"
      },
      {
        "astId": 4044,
        "contract": "contracts/PlayFiLicenseSale.sol:PlayFiLicenseSale",
        "label": "tiers",
        "offset": 0,
        "slot": "163",
        "type": "t_mapping(t_uint256,t_struct(Tier)6400_storage)"
      },
      {
        "astId": 4049,
        "contract": "contracts/PlayFiLicenseSale.sol:PlayFiLicenseSale",
        "label": "whitelistTiers",
        "offset": 0,
        "slot": "164",
        "type": "t_mapping(t_uint256,t_struct(Tier)6400_storage)"
      },
      {
        "astId": 4056,
        "contract": "contracts/PlayFiLicenseSale.sol:PlayFiLicenseSale",
        "label": "partnerTiers",
        "offset": 0,
        "slot": "165",
        "type": "t_mapping(t_string_memory_ptr,t_mapping(t_uint256,t_struct(Tier)6400_storage))"
      },
      {
        "astId": 4061,
        "contract": "contracts/PlayFiLicenseSale.sol:PlayFiLicenseSale",
        "label": "referrals",
        "offset": 0,
        "slot": "166",
        "type": "t_mapping(t_string_memory_ptr,t_struct(Referral)6405_storage)"
      },
      {
        "astId": 4065,
        "contract": "contracts/PlayFiLicenseSale.sol:PlayFiLicenseSale",
        "label": "receiverToReferralCode",
        "offset": 0,
        "slot": "167",
        "type": "t_mapping(t_address,t_string_storage)"
      },
      {
        "astId": 4071,
        "contract": "contracts/PlayFiLicenseSale.sol:PlayFiLicenseSale",
        "label": "claimsPerTierPerAddress",
        "offset": 0,
        "slot": "168",
        "type": "t_mapping(t_uint256,t_mapping(t_address,t_uint256))"
      },
      {
        "astId": 4079,
        "contract": "contracts/PlayFiLicenseSale.sol:PlayFiLicenseSale",
        "label": "partnerClaimsPerTierPerAddress",
        "offset": 0,
        "slot": "169",
        "type": "t_mapping(t_string_memory_ptr,t_mapping(t_uint256,t_mapping(t_address,t_uint256)))"
      },
      {
        "astId": 4083,
        "contract": "contracts/PlayFiLicenseSale.sol:PlayFiLicenseSale",
        "label": "partnerSaleActive",
        "offset": 0,
        "slot": "170",
        "type": "t_mapping(t_string_memory_ptr,t_bool)"
      },
      {
        "astId": 4088,
        "contract": "contracts/PlayFiLicenseSale.sol:PlayFiLicenseSale",
        "label": "partnerReferrals",
        "offset": 0,
        "slot": "171",
        "type": "t_mapping(t_string_memory_ptr,t_struct(Referral)6405_storage)"
      }
    ],
    "types": {
      "t_address": {
        "encoding": "inplace",
        "label": "address",
        "numberOfBytes": "20"
      },
      "t_array(t_uint256)49_storage": {
        "base": "t_uint256",
        "encoding": "inplace",
        "label": "uint256[49]",
        "numberOfBytes": "1568"
      },
      "t_array(t_uint256)50_storage": {
        "base": "t_uint256",
        "encoding": "inplace",
        "label": "uint256[50]",
        "numberOfBytes": "1600"
      },
      "t_bool": {
        "encoding": "inplace",
        "label": "bool",
        "numberOfBytes": "1"
      },
      "t_bytes32": {
        "encoding": "inplace",
        "label": "bytes32",
        "numberOfBytes": "32"
      },
      "t_mapping(t_address,t_bool)": {
        "encoding": "mapping",
        "key": "t_address",
        "label": "mapping(address => bool)",
        "numberOfBytes": "32",
        "value": "t_bool"
      },
      "t_mapping(t_address,t_mapping(t_string_memory_ptr,t_uint256))": {
        "encoding": "mapping",
        "key": "t_address",
        "label": "mapping(address => mapping(string => uint256))",
        "numberOfBytes": "32",
        "value": "t_mapping(t_string_memory_ptr,t_uint256)"
      },
      "t_mapping(t_address,t_string_storage)": {
        "encoding": "mapping",
        "key": "t_address",
        "label": "mapping(address => string)",
        "numberOfBytes": "32",
        "value": "t_string_storage"
      },
      "t_mapping(t_address,t_uint256)": {
        "encoding": "mapping",
        "key": "t_address",
        "label": "mapping(address => uint256)",
        "numberOfBytes": "32",
        "value": "t_uint256"
      },
      "t_mapping(t_bytes32,t_struct(RoleData)23_storage)": {
        "encoding": "mapping",
        "key": "t_bytes32",
        "label": "mapping(bytes32 => struct AccessControlUpgradeable.RoleData)",
        "numberOfBytes": "32",
        "value": "t_struct(RoleData)23_storage"
      },
      "t_mapping(t_string_memory_ptr,t_bool)": {
        "encoding": "mapping",
        "key": "t_string_memory_ptr",
        "label": "mapping(string => bool)",
        "numberOfBytes": "32",
        "value": "t_bool"
      },
      "t_mapping(t_string_memory_ptr,t_mapping(t_address,t_uint256))": {
        "encoding": "mapping",
        "key": "t_string_memory_ptr",
        "label": "mapping(string => mapping(address => uint256))",
        "numberOfBytes": "32",
        "value": "t_mapping(t_address,t_uint256)"
      },
      "t_mapping(t_string_memory_ptr,t_mapping(t_uint256,t_mapping(t_address,t_uint256)))": {
        "encoding": "mapping",
        "key": "t_string_memory_ptr",
        "label": "mapping(string => mapping(uint256 => mapping(address => uint256)))",
        "numberOfBytes": "32",
        "value": "t_mapping(t_uint256,t_mapping(t_address,t_uint256))"
      },
      "t_mapping(t_string_memory_ptr,t_mapping(t_uint256,t_struct(Tier)6400_storage))": {
        "encoding": "mapping",
        "key": "t_string_memory_ptr",
        "label": "mapping(string => mapping(uint256 => struct IPlayFiLicenseSale.Tier))",
        "numberOfBytes": "32",
        "value": "t_mapping(t_uint256,t_struct(Tier)6400_storage)"
      },
      "t_mapping(t_string_memory_ptr,t_struct(Referral)6405_storage)": {
        "encoding": "mapping",
        "key": "t_string_memory_ptr",
        "label": "mapping(string => struct IPlayFiLicenseSale.Referral)",
        "numberOfBytes": "32",
        "value": "t_struct(Referral)6405_storage"
      },
      "t_mapping(t_string_memory_ptr,t_uint256)": {
        "encoding": "mapping",
        "key": "t_string_memory_ptr",
        "label": "mapping(string => uint256)",
        "numberOfBytes": "32",
        "value": "t_uint256"
      },
      "t_mapping(t_uint256,t_mapping(t_address,t_uint256))": {
        "encoding": "mapping",
        "key": "t_uint256",
        "label": "mapping(uint256 => mapping(address => uint256))",
        "numberOfBytes": "32",
        "value": "t_mapping(t_address,t_uint256)"
      },
      "t_mapping(t_uint256,t_struct(Tier)6400_storage)": {
        "encoding": "mapping",
        "key": "t_uint256",
        "label": "mapping(uint256 => struct IPlayFiLicenseSale.Tier)",
        "numberOfBytes": "32",
        "value": "t_struct(Tier)6400_storage"
      },
      "t_string_memory_ptr": {
        "encoding": "bytes",
        "label": "string",
        "numberOfBytes": "32"
      },
      "t_string_storage": {
        "encoding": "bytes",
        "label": "string",
        "numberOfBytes": "32"
      },
      "t_struct(Referral)6405_storage": {
        "encoding": "inplace",
        "label": "struct IPlayFiLicenseSale.Referral",
        "members": [
          {
            "astId": 6402,
            "contract": "contracts/PlayFiLicenseSale.sol:PlayFiLicenseSale",
            "label": "totalClaims",
            "offset": 0,
            "slot": "0",
            "type": "t_uint256"
          },
          {
            "astId": 6404,
            "contract": "contracts/PlayFiLicenseSale.sol:PlayFiLicenseSale",
            "label": "receiver",
            "offset": 0,
            "slot": "1",
            "type": "t_address"
          }
        ],
        "numberOfBytes": "64"
      },
      "t_struct(RoleData)23_storage": {
        "encoding": "inplace",
        "label": "struct AccessControlUpgradeable.RoleData",
        "members": [
          {
            "astId": 20,
            "contract": "contracts/PlayFiLicenseSale.sol:PlayFiLicenseSale",
            "label": "members",
            "offset": 0,
            "slot": "0",
            "type": "t_mapping(t_address,t_bool)"
          },
          {
            "astId": 22,
            "contract": "contracts/PlayFiLicenseSale.sol:PlayFiLicenseSale",
            "label": "adminRole",
            "offset": 0,
            "slot": "1",
            "type": "t_bytes32"
          }
        ],
        "numberOfBytes": "64"
      },
      "t_struct(Tier)6400_storage": {
        "encoding": "inplace",
        "label": "struct IPlayFiLicenseSale.Tier",
        "members": [
          {
            "astId": 6393,
            "contract": "contracts/PlayFiLicenseSale.sol:PlayFiLicenseSale",
            "label": "price",
            "offset": 0,
            "slot": "0",
            "type": "t_uint256"
          },
          {
            "astId": 6395,
            "contract": "contracts/PlayFiLicenseSale.sol:PlayFiLicenseSale",
            "label": "individualCap",
            "offset": 0,
            "slot": "1",
            "type": "t_uint256"
          },
          {
            "astId": 6397,
            "contract": "contracts/PlayFiLicenseSale.sol:PlayFiLicenseSale",
            "label": "totalClaimed",
            "offset": 0,
            "slot": "2",
            "type": "t_uint256"
          },
          {
            "astId": 6399,
            "contract": "contracts/PlayFiLicenseSale.sol:PlayFiLicenseSale",
            "label": "totalCap",
            "offset": 0,
            "slot": "3",
            "type": "t_uint256"
          }
        ],
        "numberOfBytes": "128"
      },
      "t_uint256": {
        "encoding": "inplace",
        "label": "uint256",
        "numberOfBytes": "32"
      },
      "t_uint8": {
        "encoding": "inplace",
        "label": "uint8",
        "numberOfBytes": "1"
      }
    }
  }
}